{
  "abi": [
    {
      "inputs": [
        {
          "internalType": "address",
          "name": "_utils",
          "type": "address"
        },
        {
          "internalType": "address",
          "name": "_ghoToken",
          "type": "address"
        },
        {
          "internalType": "uint256",
          "name": "_feeOnRPs",
          "type": "uint256"
        },
        {
          "internalType": "address",
          "name": "_mainAdmin",
          "type": "address"
        }
      ],
      "stateMutability": "nonpayable",
      "type": "constructor"
    },
    {
      "inputs": [
        {
          "internalType": "address",
          "name": "owner",
          "type": "address"
        }
      ],
      "name": "OwnableInvalidOwner",
      "type": "error"
    },
    {
      "inputs": [
        {
          "internalType": "address",
          "name": "account",
          "type": "address"
        }
      ],
      "name": "OwnableUnauthorizedAccount",
      "type": "error"
    },
    {
      "inputs": [],
      "name": "RPool__OnlyRPs",
      "type": "error"
    },
    {
      "inputs": [],
      "name": "RPool__ZeroAddress",
      "type": "error"
    },
    {
      "inputs": [],
      "name": "RPool__ZeroAmount",
      "type": "error"
    },
    {
      "anonymous": false,
      "inputs": [
        {
          "indexed": true,
          "internalType": "address",
          "name": "previousOwner",
          "type": "address"
        },
        {
          "indexed": true,
          "internalType": "address",
          "name": "newOwner",
          "type": "address"
        }
      ],
      "name": "OwnershipTransferred",
      "type": "event"
    },
    {
      "anonymous": false,
      "inputs": [],
      "name": "RPool__GHOWithdrawn",
      "type": "event"
    },
    {
      "anonymous": false,
      "inputs": [],
      "name": "RPool__RPsSwapped",
      "type": "event"
    },
    {
      "inputs": [
        {
          "internalType": "address",
          "name": "_initialToken",
          "type": "address"
        },
        {
          "internalType": "address",
          "name": "_finalToken",
          "type": "address"
        },
        {
          "internalType": "uint256",
          "name": "_initialTokenAmount",
          "type": "uint256"
        }
      ],
      "name": "feeCalculatorForRPs",
      "outputs": [
        {
          "internalType": "uint256",
          "name": "finalTokenAmount",
          "type": "uint256"
        },
        {
          "internalType": "uint256",
          "name": "fee",
          "type": "uint256"
        }
      ],
      "stateMutability": "view",
      "type": "function"
    },
    {
      "inputs": [],
      "name": "owner",
      "outputs": [
        {
          "internalType": "address",
          "name": "",
          "type": "address"
        }
      ],
      "stateMutability": "view",
      "type": "function"
    },
    {
      "inputs": [],
      "name": "renounceOwnership",
      "outputs": [],
      "stateMutability": "nonpayable",
      "type": "function"
    },
    {
      "inputs": [],
      "name": "s_feeOnRPs",
      "outputs": [
        {
          "internalType": "uint256",
          "name": "",
          "type": "uint256"
        }
      ],
      "stateMutability": "view",
      "type": "function"
    },
    {
      "inputs": [],
      "name": "s_ghoToken",
      "outputs": [
        {
          "internalType": "address",
          "name": "",
          "type": "address"
        }
      ],
      "stateMutability": "view",
      "type": "function"
    },
    {
      "inputs": [],
      "name": "s_gpToken",
      "outputs": [
        {
          "internalType": "address",
          "name": "",
          "type": "address"
        }
      ],
      "stateMutability": "view",
      "type": "function"
    },
    {
      "inputs": [],
      "name": "s_mainAdmin",
      "outputs": [
        {
          "internalType": "address",
          "name": "",
          "type": "address"
        }
      ],
      "stateMutability": "view",
      "type": "function"
    },
    {
      "inputs": [],
      "name": "s_mainVault",
      "outputs": [
        {
          "internalType": "address",
          "name": "",
          "type": "address"
        }
      ],
      "stateMutability": "view",
      "type": "function"
    },
    {
      "inputs": [],
      "name": "s_utils",
      "outputs": [
        {
          "internalType": "address",
          "name": "",
          "type": "address"
        }
      ],
      "stateMutability": "view",
      "type": "function"
    },
    {
      "inputs": [
        {
          "internalType": "uint256",
          "name": "_feeOnRPs",
          "type": "uint256"
        }
      ],
      "name": "setFeeOnRPs",
      "outputs": [],
      "stateMutability": "nonpayable",
      "type": "function"
    },
    {
      "inputs": [
        {
          "internalType": "address",
          "name": "_ghoToken",
          "type": "address"
        }
      ],
      "name": "setGHOToken",
      "outputs": [],
      "stateMutability": "nonpayable",
      "type": "function"
    },
    {
      "inputs": [
        {
          "internalType": "address",
          "name": "_gpToken",
          "type": "address"
        }
      ],
      "name": "setGPToken",
      "outputs": [],
      "stateMutability": "nonpayable",
      "type": "function"
    },
    {
      "inputs": [
        {
          "internalType": "address",
          "name": "_mainAdmin",
          "type": "address"
        }
      ],
      "name": "setMainAdmin",
      "outputs": [],
      "stateMutability": "nonpayable",
      "type": "function"
    },
    {
      "inputs": [
        {
          "internalType": "address",
          "name": "_mainVault",
          "type": "address"
        }
      ],
      "name": "setMainVault",
      "outputs": [],
      "stateMutability": "nonpayable",
      "type": "function"
    },
    {
      "inputs": [
        {
          "internalType": "address",
          "name": "_utils",
          "type": "address"
        }
      ],
      "name": "setUtils",
      "outputs": [],
      "stateMutability": "nonpayable",
      "type": "function"
    },
    {
      "inputs": [
        {
          "internalType": "address",
          "name": "_initialToken",
          "type": "address"
        },
        {
          "internalType": "address",
          "name": "_finalToken",
          "type": "address"
        },
        {
          "internalType": "uint256",
          "name": "_initialTokenAmount",
          "type": "uint256"
        }
      ],
      "name": "swap",
      "outputs": [],
      "stateMutability": "nonpayable",
      "type": "function"
    },
    {
      "inputs": [
        {
          "internalType": "address",
          "name": "_initialToken",
          "type": "address"
        },
        {
          "internalType": "address",
          "name": "_finalToken",
          "type": "address"
        },
        {
          "internalType": "uint256",
          "name": "_initialTokenAmount",
          "type": "uint256"
        }
      ],
      "name": "swapRP",
      "outputs": [],
      "stateMutability": "nonpayable",
      "type": "function"
    },
    {
      "inputs": [
        {
          "internalType": "address",
          "name": "newOwner",
          "type": "address"
        }
      ],
      "name": "transferOwnership",
      "outputs": [],
      "stateMutability": "nonpayable",
      "type": "function"
    }
  ],
  "bytecode": {
    "object": "0x608060405234801561001057600080fd5b50604051610dab380380610dab83398101604081905261002f9161011a565b806001600160a01b03811661005e57604051631e4fbdf760e01b81526000600482015260240160405180910390fd5b610067816100ae565b50600180546001600160a01b03199081166001600160a01b039687161790915560038054821694861694909417909355600580549093169316929092179055600655610167565b600080546001600160a01b038381166001600160a01b0319831681178455604051919092169283917f8be0079c531659141344cd1fd0a4f28419497f9722a3daafe3b4186f6b6457e09190a35050565b80516001600160a01b038116811461011557600080fd5b919050565b6000806000806080858703121561013057600080fd5b610139856100fe565b9350610147602086016100fe565b92506040850151915061015c606086016100fe565b905092959194509250565b610c35806101766000396000f3fe608060405234801561001057600080fd5b50600436106101165760003560e01c80639a3aed36116100a2578063c842d37811610071578063c842d3781461023d578063cf60f70914610250578063d0f077af14610263578063df791e5014610276578063f2fde38b1461028957600080fd5b80639a3aed36146101ed5780639bdf0ddd14610200578063adafa43014610213578063af07edb31461022657600080fd5b806369953501116100e95780636995350114610199578063715018a6146101ae5780638aa5a9fe146101b65780638da5cb5b146101c9578063978223d3146101da57600080fd5b80631257723d1461011b578063273c83401461014b5780632fdae4451461015e57806354c216dc14610186575b600080fd5b60045461012e906001600160a01b031681565b6040516001600160a01b0390911681526020015b60405180910390f35b60025461012e906001600160a01b031681565b61017161016c366004610b44565b61029c565b60408051928352602083019190915201610142565b60035461012e906001600160a01b031681565b6101ac6101a7366004610b80565b610422565b005b6101ac610475565b6101ac6101c4366004610b44565b610489565b6000546001600160a01b031661012e565b60055461012e906001600160a01b031681565b6101ac6101fb366004610b80565b610572565b6101ac61020e366004610b80565b6105c5565b60015461012e906001600160a01b031681565b61022f60065481565b604051908152602001610142565b6101ac61024b366004610b80565b610618565b6101ac61025e366004610b9b565b61066b565b6101ac610271366004610b80565b61069b565b6101ac610284366004610b44565b6106ee565b6101ac610297366004610b80565b610773565b600080846001600160a01b0381166102c75760405163169341bd60e11b815260040160405180910390fd5b846001600160a01b0381166102ef5760405163169341bd60e11b815260040160405180910390fd5b8480600003610311576040516365baabd560e01b815260040160405180910390fd5b6000886001600160a01b031663313ce5676040518163ffffffff1660e01b8152600401602060405180830381865afa158015610351573d6000803e3d6000fd5b505050506040513d601f19601f820116820180604052508101906103759190610bb4565b90506000886001600160a01b031663313ce5676040518163ffffffff1660e01b8152600401602060405180830381865afa1580156103b7573d6000803e3d6000fd5b505050506040513d601f19601f820116820180604052508101906103db9190610bb4565b905060006103f86103f28360ff168560ff166107b6565b8a6107d4565b9050610406816006546107d4565b96506104128782610bde565b9750505050505050935093915050565b61042a6107e9565b806001600160a01b0381166104525760405163169341bd60e11b815260040160405180910390fd5b50600180546001600160a01b0319166001600160a01b0392909216919091179055565b61047d6107e9565b6104876000610816565b565b826001600160a01b0381166104b15760405163169341bd60e11b815260040160405180910390fd5b826001600160a01b0381166104d95760405163169341bd60e11b815260040160405180910390fd5b82806000036104fb576040516365baabd560e01b815260040160405180910390fd5b600354869086906001600160a01b039081169082160361052e57604051635b7af42560e01b815260040160405180910390fd5b600061053b89898961029c565b5090506105536001600160a01b038a1633308a610866565b6105676001600160a01b0389163383610902565b505050505050505050565b61057a6107e9565b806001600160a01b0381166105a25760405163169341bd60e11b815260040160405180910390fd5b50600580546001600160a01b0319166001600160a01b0392909216919091179055565b6105cd6107e9565b806001600160a01b0381166105f55760405163169341bd60e11b815260040160405180910390fd5b50600280546001600160a01b0319166001600160a01b0392909216919091179055565b6106206107e9565b806001600160a01b0381166106485760405163169341bd60e11b815260040160405180910390fd5b50600480546001600160a01b0319166001600160a01b0392909216919091179055565b6106736107e9565b8080600003610695576040516365baabd560e01b815260040160405180910390fd5b50600655565b6106a36107e9565b806001600160a01b0381166106cb5760405163169341bd60e11b815260040160405180910390fd5b50600380546001600160a01b0319166001600160a01b0392909216919091179055565b826001600160a01b0381166107165760405163169341bd60e11b815260040160405180910390fd5b826001600160a01b03811661073e5760405163169341bd60e11b815260040160405180910390fd5b8280600003610760576040516365baabd560e01b815260040160405180910390fd5b61076b868686610989565b505050505050565b61077b6107e9565b6001600160a01b0381166107aa57604051631e4fbdf760e01b8152600060048201526024015b60405180910390fd5b6107b381610816565b50565b60006107cb83670de0b6b3a764000084610b0a565b90505b92915050565b60006107cb8383670de0b6b3a7640000610b0a565b6000546001600160a01b031633146104875760405163118cdaa760e01b81523360048201526024016107a1565b600080546001600160a01b038381166001600160a01b0319831681178455604051919092169283917f8be0079c531659141344cd1fd0a4f28419497f9722a3daafe3b4186f6b6457e09190a35050565b60006040516323b872dd60e01b81526001600160a01b03851660048201526001600160a01b03841660248201528260448201526020600060648360008a5af13d15601f3d11600160005114161716915050806108fb5760405162461bcd60e51b81526020600482015260146024820152731514905394d1915497d19493d357d1905253115160621b60448201526064016107a1565b5050505050565b600060405163a9059cbb60e01b81526001600160a01b0384166004820152826024820152602060006044836000895af13d15601f3d11600160005114161716915050806109835760405162461bcd60e51b815260206004820152600f60248201526e1514905394d1915497d19052531151608a1b60448201526064016107a1565b50505050565b6002546003546001600160a01b0391821691908116908516821480156109c05750806001600160a01b0316846001600160a01b0316145b15610a5d57600480546040516354fe8fb760e01b8152918201859052336024830181905260448301526001600160a01b0316906354fe8fb7906064015b600060405180830381600087803b158015610a1757600080fd5b505af1158015610a2b573d6000803e3d6000fd5b50506040517f8f66373ac2e6d756d614fba285692bb2ab0b6b29def91e6c0ff7f79a9f210ff2925060009150a16108fb565b816001600160a01b0316856001600160a01b031614158015610a905750806001600160a01b0316846001600160a01b0316145b15610acf576040516354fe8fb760e01b815260048101849052336024820181905260448201526001600160a01b038616906354fe8fb7906064016109fd565b610ada858585610489565b6040517f100f33e27c1d3d6481f3cb5dbccf0d258aecca058f05ee48ccc86ebe083888c190600090a15050505050565b6000826000190484118302158202610b2157600080fd5b5091020490565b80356001600160a01b0381168114610b3f57600080fd5b919050565b600080600060608486031215610b5957600080fd5b610b6284610b28565b9250610b7060208501610b28565b9150604084013590509250925092565b600060208284031215610b9257600080fd5b6107cb82610b28565b600060208284031215610bad57600080fd5b5035919050565b600060208284031215610bc657600080fd5b815160ff81168114610bd757600080fd5b9392505050565b818103818111156107ce57634e487b7160e01b600052601160045260246000fdfea264697066735822122019371f06b0423dc90d23ad82c4a02fb8c7b42dc797e2173945f661026a2ecafc64736f6c63430008140033",
    "linkReferences": {}
  },
  "methodIdentifiers": {
    "feeCalculatorForRPs(address,address,uint256)": "2fdae445",
    "owner()": "8da5cb5b",
    "renounceOwnership()": "715018a6",
    "s_feeOnRPs()": "af07edb3",
    "s_ghoToken()": "54c216dc",
    "s_gpToken()": "273c8340",
    "s_mainAdmin()": "978223d3",
    "s_mainVault()": "1257723d",
    "s_utils()": "adafa430",
    "setFeeOnRPs(uint256)": "cf60f709",
    "setGHOToken(address)": "d0f077af",
    "setGPToken(address)": "9bdf0ddd",
    "setMainAdmin(address)": "9a3aed36",
    "setMainVault(address)": "c842d378",
    "setUtils(address)": "69953501",
    "swap(address,address,uint256)": "df791e50",
    "swapRP(address,address,uint256)": "8aa5a9fe",
    "transferOwnership(address)": "f2fde38b"
  },
  "id": 52
}