{
  "abi": [
    {
      "inputs": [
        {
          "internalType": "address",
          "name": "_utils",
          "type": "address"
        },
        {
          "internalType": "address",
          "name": "_ghoToken",
          "type": "address"
        },
        {
          "internalType": "uint256",
          "name": "_feeOnRPs",
          "type": "uint256"
        },
        {
          "internalType": "address",
          "name": "_mainAdmin",
          "type": "address"
        }
      ],
      "stateMutability": "nonpayable",
      "type": "constructor"
    },
    {
      "inputs": [
        {
          "internalType": "address",
          "name": "owner",
          "type": "address"
        }
      ],
      "name": "OwnableInvalidOwner",
      "type": "error"
    },
    {
      "inputs": [
        {
          "internalType": "address",
          "name": "account",
          "type": "address"
        }
      ],
      "name": "OwnableUnauthorizedAccount",
      "type": "error"
    },
    {
      "inputs": [],
      "name": "RPool__OnlyRPs",
      "type": "error"
    },
    {
      "inputs": [],
      "name": "RPool__ZeroAddress",
      "type": "error"
    },
    {
      "inputs": [],
      "name": "RPool__ZeroAmount",
      "type": "error"
    },
    {
      "anonymous": false,
      "inputs": [
        {
          "indexed": true,
          "internalType": "address",
          "name": "previousOwner",
          "type": "address"
        },
        {
          "indexed": true,
          "internalType": "address",
          "name": "newOwner",
          "type": "address"
        }
      ],
      "name": "OwnershipTransferred",
      "type": "event"
    },
    {
      "anonymous": false,
      "inputs": [],
      "name": "RPool__GHOWithdrawn",
      "type": "event"
    },
    {
      "anonymous": false,
      "inputs": [],
      "name": "RPool__RPsSwapped",
      "type": "event"
    },
    {
      "inputs": [
        {
          "internalType": "address",
          "name": "_initialToken",
          "type": "address"
        },
        {
          "internalType": "address",
          "name": "_finalToken",
          "type": "address"
        },
        {
          "internalType": "uint256",
          "name": "_initialTokenAmount",
          "type": "uint256"
        }
      ],
      "name": "feeCalculatorForRPs",
      "outputs": [
        {
          "internalType": "uint256",
          "name": "finalTokenAmount",
          "type": "uint256"
        },
        {
          "internalType": "uint256",
          "name": "fee",
          "type": "uint256"
        }
      ],
      "stateMutability": "view",
      "type": "function"
    },
    {
      "inputs": [],
      "name": "owner",
      "outputs": [
        {
          "internalType": "address",
          "name": "",
          "type": "address"
        }
      ],
      "stateMutability": "view",
      "type": "function"
    },
    {
      "inputs": [],
      "name": "renounceOwnership",
      "outputs": [],
      "stateMutability": "nonpayable",
      "type": "function"
    },
    {
      "inputs": [],
      "name": "s_feeOnRPs",
      "outputs": [
        {
          "internalType": "uint256",
          "name": "",
          "type": "uint256"
        }
      ],
      "stateMutability": "view",
      "type": "function"
    },
    {
      "inputs": [],
      "name": "s_ghoToken",
      "outputs": [
        {
          "internalType": "address",
          "name": "",
          "type": "address"
        }
      ],
      "stateMutability": "view",
      "type": "function"
    },
    {
      "inputs": [],
      "name": "s_mainAdmin",
      "outputs": [
        {
          "internalType": "address",
          "name": "",
          "type": "address"
        }
      ],
      "stateMutability": "view",
      "type": "function"
    },
    {
      "inputs": [],
      "name": "s_mainVault",
      "outputs": [
        {
          "internalType": "address",
          "name": "",
          "type": "address"
        }
      ],
      "stateMutability": "view",
      "type": "function"
    },
    {
      "inputs": [],
      "name": "s_utils",
      "outputs": [
        {
          "internalType": "address",
          "name": "",
          "type": "address"
        }
      ],
      "stateMutability": "view",
      "type": "function"
    },
    {
      "inputs": [
        {
          "internalType": "uint256",
          "name": "_feeOnRPs",
          "type": "uint256"
        }
      ],
      "name": "setFeeOnRPs",
      "outputs": [],
      "stateMutability": "nonpayable",
      "type": "function"
    },
    {
      "inputs": [
        {
          "internalType": "address",
          "name": "_ghoToken",
          "type": "address"
        }
      ],
      "name": "setGHOToken",
      "outputs": [],
      "stateMutability": "nonpayable",
      "type": "function"
    },
    {
      "inputs": [
        {
          "internalType": "address",
          "name": "_mainAdmin",
          "type": "address"
        }
      ],
      "name": "setMainAdmin",
      "outputs": [],
      "stateMutability": "nonpayable",
      "type": "function"
    },
    {
      "inputs": [
        {
          "internalType": "address",
          "name": "_mainVault",
          "type": "address"
        }
      ],
      "name": "setMainVault",
      "outputs": [],
      "stateMutability": "nonpayable",
      "type": "function"
    },
    {
      "inputs": [
        {
          "internalType": "address",
          "name": "_utils",
          "type": "address"
        }
      ],
      "name": "setUtils",
      "outputs": [],
      "stateMutability": "nonpayable",
      "type": "function"
    },
    {
      "inputs": [
        {
          "internalType": "address",
          "name": "_initialToken",
          "type": "address"
        },
        {
          "internalType": "address",
          "name": "_finalToken",
          "type": "address"
        },
        {
          "internalType": "uint256",
          "name": "_initialTokenAmount",
          "type": "uint256"
        }
      ],
      "name": "swap",
      "outputs": [],
      "stateMutability": "nonpayable",
      "type": "function"
    },
    {
      "inputs": [
        {
          "internalType": "address",
          "name": "_initialToken",
          "type": "address"
        },
        {
          "internalType": "address",
          "name": "_finalToken",
          "type": "address"
        },
        {
          "internalType": "uint256",
          "name": "_initialTokenAmount",
          "type": "uint256"
        }
      ],
      "name": "swapRP",
      "outputs": [],
      "stateMutability": "nonpayable",
      "type": "function"
    },
    {
      "inputs": [
        {
          "internalType": "address",
          "name": "newOwner",
          "type": "address"
        }
      ],
      "name": "transferOwnership",
      "outputs": [],
      "stateMutability": "nonpayable",
      "type": "function"
    }
  ],
  "bytecode": {
    "object": "0x608060405234801561001057600080fd5b50604051610d1a380380610d1a83398101604081905261002f9161011a565b806001600160a01b03811661005e57604051631e4fbdf760e01b81526000600482015260240160405180910390fd5b610067816100ae565b50600180546001600160a01b03199081166001600160a01b039687161790915560028054821694861694909417909355600480549093169316929092179055600555610167565b600080546001600160a01b038381166001600160a01b0319831681178455604051919092169283917f8be0079c531659141344cd1fd0a4f28419497f9722a3daafe3b4186f6b6457e09190a35050565b80516001600160a01b038116811461011557600080fd5b919050565b6000806000806080858703121561013057600080fd5b610139856100fe565b9350610147602086016100fe565b92506040850151915061015c606086016100fe565b905092959194509250565b610ba4806101766000396000f3fe608060405234801561001057600080fd5b50600436106101005760003560e01c80639a3aed3611610097578063cf60f70911610066578063cf60f70914610214578063d0f077af14610227578063df791e501461023a578063f2fde38b1461024d57600080fd5b80639a3aed36146101c4578063adafa430146101d7578063af07edb3146101ea578063c842d3781461020157600080fd5b8063715018a6116100d3578063715018a6146101855780638aa5a9fe1461018d5780638da5cb5b146101a0578063978223d3146101b157600080fd5b80631257723d146101055780632fdae4451461013557806354c216dc1461015d5780636995350114610170575b600080fd5b600354610118906001600160a01b031681565b6040516001600160a01b0390911681526020015b60405180910390f35b610148610143366004610ab3565b610260565b6040805192835260208301919091520161012c565b600254610118906001600160a01b031681565b61018361017e366004610aef565b6103e6565b005b610183610439565b61018361019b366004610ab3565b61044d565b6000546001600160a01b0316610118565b600454610118906001600160a01b031681565b6101836101d2366004610aef565b610536565b600154610118906001600160a01b031681565b6101f360055481565b60405190815260200161012c565b61018361020f366004610aef565b610589565b610183610222366004610b0a565b6105dc565b610183610235366004610aef565b61060c565b610183610248366004610ab3565b61065f565b61018361025b366004610aef565b6106e4565b600080846001600160a01b03811661028b5760405163169341bd60e11b815260040160405180910390fd5b846001600160a01b0381166102b35760405163169341bd60e11b815260040160405180910390fd5b84806000036102d5576040516365baabd560e01b815260040160405180910390fd5b6000886001600160a01b031663313ce5676040518163ffffffff1660e01b8152600401602060405180830381865afa158015610315573d6000803e3d6000fd5b505050506040513d601f19601f820116820180604052508101906103399190610b23565b90506000886001600160a01b031663313ce5676040518163ffffffff1660e01b8152600401602060405180830381865afa15801561037b573d6000803e3d6000fd5b505050506040513d601f19601f8201168201806040525081019061039f9190610b23565b905060006103bc6103b68360ff168560ff16610727565b8a610745565b90506103ca81600554610745565b96506103d68782610b4d565b9750505050505050935093915050565b6103ee61075a565b806001600160a01b0381166104165760405163169341bd60e11b815260040160405180910390fd5b50600180546001600160a01b0319166001600160a01b0392909216919091179055565b61044161075a565b61044b6000610787565b565b826001600160a01b0381166104755760405163169341bd60e11b815260040160405180910390fd5b826001600160a01b03811661049d5760405163169341bd60e11b815260040160405180910390fd5b82806000036104bf576040516365baabd560e01b815260040160405180910390fd5b600254869086906001600160a01b03908116908216036104f257604051635b7af42560e01b815260040160405180910390fd5b60006104ff898989610260565b5090506105176001600160a01b038a1633308a6107d7565b61052b6001600160a01b0389163383610873565b505050505050505050565b61053e61075a565b806001600160a01b0381166105665760405163169341bd60e11b815260040160405180910390fd5b50600480546001600160a01b0319166001600160a01b0392909216919091179055565b61059161075a565b806001600160a01b0381166105b95760405163169341bd60e11b815260040160405180910390fd5b50600380546001600160a01b0319166001600160a01b0392909216919091179055565b6105e461075a565b8080600003610606576040516365baabd560e01b815260040160405180910390fd5b50600555565b61061461075a565b806001600160a01b03811661063c5760405163169341bd60e11b815260040160405180910390fd5b50600280546001600160a01b0319166001600160a01b0392909216919091179055565b826001600160a01b0381166106875760405163169341bd60e11b815260040160405180910390fd5b826001600160a01b0381166106af5760405163169341bd60e11b815260040160405180910390fd5b82806000036106d1576040516365baabd560e01b815260040160405180910390fd5b6106dc8686866108fa565b505050505050565b6106ec61075a565b6001600160a01b03811661071b57604051631e4fbdf760e01b8152600060048201526024015b60405180910390fd5b61072481610787565b50565b600061073c83670de0b6b3a764000084610a79565b90505b92915050565b600061073c8383670de0b6b3a7640000610a79565b6000546001600160a01b0316331461044b5760405163118cdaa760e01b8152336004820152602401610712565b600080546001600160a01b038381166001600160a01b0319831681178455604051919092169283917f8be0079c531659141344cd1fd0a4f28419497f9722a3daafe3b4186f6b6457e09190a35050565b60006040516323b872dd60e01b81526001600160a01b03851660048201526001600160a01b03841660248201528260448201526020600060648360008a5af13d15601f3d116001600051141617169150508061086c5760405162461bcd60e51b81526020600482015260146024820152731514905394d1915497d19493d357d1905253115160621b6044820152606401610712565b5050505050565b600060405163a9059cbb60e01b81526001600160a01b0384166004820152826024820152602060006044836000895af13d15601f3d11600160005114161716915050806108f45760405162461bcd60e51b815260206004820152600f60248201526e1514905394d1915497d19052531151608a1b6044820152606401610712565b50505050565b6003546002546001600160a01b0391821691908116908516821480156109315750806001600160a01b0316846001600160a01b0316145b156109cc576040516354fe8fb760e01b815260048101849052336024820181905260448201526001600160a01b038316906354fe8fb7906064015b600060405180830381600087803b15801561098657600080fd5b505af115801561099a573d6000803e3d6000fd5b50506040517f8f66373ac2e6d756d614fba285692bb2ab0b6b29def91e6c0ff7f79a9f210ff2925060009150a161086c565b816001600160a01b0316856001600160a01b0316141580156109ff5750806001600160a01b0316846001600160a01b0316145b15610a3e576040516354fe8fb760e01b815260048101849052336024820181905260448201526001600160a01b038616906354fe8fb79060640161096c565b610a4985858561044d565b6040517f100f33e27c1d3d6481f3cb5dbccf0d258aecca058f05ee48ccc86ebe083888c190600090a15050505050565b6000826000190484118302158202610a9057600080fd5b5091020490565b80356001600160a01b0381168114610aae57600080fd5b919050565b600080600060608486031215610ac857600080fd5b610ad184610a97565b9250610adf60208501610a97565b9150604084013590509250925092565b600060208284031215610b0157600080fd5b61073c82610a97565b600060208284031215610b1c57600080fd5b5035919050565b600060208284031215610b3557600080fd5b815160ff81168114610b4657600080fd5b9392505050565b8181038181111561073f57634e487b7160e01b600052601160045260246000fdfea2646970667358221220b1827fe4caee746fc8d95a35755c3ed39842e190937eae3b494b35e6f1382d3464736f6c63430008140033",
    "linkReferences": {}
  },
  "methodIdentifiers": {
    "feeCalculatorForRPs(address,address,uint256)": "2fdae445",
    "owner()": "8da5cb5b",
    "renounceOwnership()": "715018a6",
    "s_feeOnRPs()": "af07edb3",
    "s_ghoToken()": "54c216dc",
    "s_mainAdmin()": "978223d3",
    "s_mainVault()": "1257723d",
    "s_utils()": "adafa430",
    "setFeeOnRPs(uint256)": "cf60f709",
    "setGHOToken(address)": "d0f077af",
    "setMainAdmin(address)": "9a3aed36",
    "setMainVault(address)": "c842d378",
    "setUtils(address)": "69953501",
    "swap(address,address,uint256)": "df791e50",
    "swapRP(address,address,uint256)": "8aa5a9fe",
    "transferOwnership(address)": "f2fde38b"
  },
  "id": 52
}