{
  "abi": [
    {
      "inputs": [
        {
          "internalType": "address",
          "name": "_utils",
          "type": "address"
        },
        {
          "internalType": "address",
          "name": "_ghoToken",
          "type": "address"
        },
        {
          "internalType": "uint256",
          "name": "_feeOnRPs",
          "type": "uint256"
        },
        {
          "internalType": "address",
          "name": "_mainAdmin",
          "type": "address"
        }
      ],
      "stateMutability": "nonpayable",
      "type": "constructor"
    },
    {
      "inputs": [
        {
          "internalType": "address",
          "name": "owner",
          "type": "address"
        }
      ],
      "name": "OwnableInvalidOwner",
      "type": "error"
    },
    {
      "inputs": [
        {
          "internalType": "address",
          "name": "account",
          "type": "address"
        }
      ],
      "name": "OwnableUnauthorizedAccount",
      "type": "error"
    },
    {
      "inputs": [],
      "name": "RPool__OnlyRPs",
      "type": "error"
    },
    {
      "inputs": [],
      "name": "RPool__ZeroAddress",
      "type": "error"
    },
    {
      "inputs": [],
      "name": "RPool__ZeroAmount",
      "type": "error"
    },
    {
      "anonymous": false,
      "inputs": [
        {
          "indexed": true,
          "internalType": "address",
          "name": "previousOwner",
          "type": "address"
        },
        {
          "indexed": true,
          "internalType": "address",
          "name": "newOwner",
          "type": "address"
        }
      ],
      "name": "OwnershipTransferred",
      "type": "event"
    },
    {
      "anonymous": false,
      "inputs": [],
      "name": "RPool__GHOWithdrawn",
      "type": "event"
    },
    {
      "anonymous": false,
      "inputs": [],
      "name": "RPool__RPsSwapped",
      "type": "event"
    },
    {
      "inputs": [
        {
          "internalType": "uint256",
          "name": "_amount",
          "type": "uint256"
        },
        {
          "internalType": "address",
          "name": "_rpToken",
          "type": "address"
        }
      ],
      "name": "decimalCorrectionFromRPtoCV",
      "outputs": [
        {
          "internalType": "uint256",
          "name": "_ghoAmount",
          "type": "uint256"
        }
      ],
      "stateMutability": "nonpayable",
      "type": "function"
    },
    {
      "inputs": [
        {
          "internalType": "address",
          "name": "_initialToken",
          "type": "address"
        },
        {
          "internalType": "address",
          "name": "_finalToken",
          "type": "address"
        },
        {
          "internalType": "uint256",
          "name": "_initialTokenAmount",
          "type": "uint256"
        }
      ],
      "name": "feeCalculatorForRPs",
      "outputs": [
        {
          "internalType": "uint256",
          "name": "finalTokenAmount",
          "type": "uint256"
        },
        {
          "internalType": "uint256",
          "name": "fee",
          "type": "uint256"
        }
      ],
      "stateMutability": "view",
      "type": "function"
    },
    {
      "inputs": [],
      "name": "owner",
      "outputs": [
        {
          "internalType": "address",
          "name": "",
          "type": "address"
        }
      ],
      "stateMutability": "view",
      "type": "function"
    },
    {
      "inputs": [],
      "name": "renounceOwnership",
      "outputs": [],
      "stateMutability": "nonpayable",
      "type": "function"
    },
    {
      "inputs": [],
      "name": "s_feeOnRPs",
      "outputs": [
        {
          "internalType": "uint256",
          "name": "",
          "type": "uint256"
        }
      ],
      "stateMutability": "view",
      "type": "function"
    },
    {
      "inputs": [],
      "name": "s_ghoToken",
      "outputs": [
        {
          "internalType": "address",
          "name": "",
          "type": "address"
        }
      ],
      "stateMutability": "view",
      "type": "function"
    },
    {
      "inputs": [],
      "name": "s_mainAdmin",
      "outputs": [
        {
          "internalType": "address",
          "name": "",
          "type": "address"
        }
      ],
      "stateMutability": "view",
      "type": "function"
    },
    {
      "inputs": [],
      "name": "s_mainVault",
      "outputs": [
        {
          "internalType": "address",
          "name": "",
          "type": "address"
        }
      ],
      "stateMutability": "view",
      "type": "function"
    },
    {
      "inputs": [],
      "name": "s_utils",
      "outputs": [
        {
          "internalType": "address",
          "name": "",
          "type": "address"
        }
      ],
      "stateMutability": "view",
      "type": "function"
    },
    {
      "inputs": [
        {
          "internalType": "uint256",
          "name": "_feeOnRPs",
          "type": "uint256"
        }
      ],
      "name": "setFeeOnRPs",
      "outputs": [],
      "stateMutability": "nonpayable",
      "type": "function"
    },
    {
      "inputs": [
        {
          "internalType": "address",
          "name": "_ghoToken",
          "type": "address"
        }
      ],
      "name": "setGHOToken",
      "outputs": [],
      "stateMutability": "nonpayable",
      "type": "function"
    },
    {
      "inputs": [
        {
          "internalType": "address",
          "name": "_mainAdmin",
          "type": "address"
        }
      ],
      "name": "setMainAdmin",
      "outputs": [],
      "stateMutability": "nonpayable",
      "type": "function"
    },
    {
      "inputs": [
        {
          "internalType": "address",
          "name": "_mainVault",
          "type": "address"
        }
      ],
      "name": "setMainVault",
      "outputs": [],
      "stateMutability": "nonpayable",
      "type": "function"
    },
    {
      "inputs": [
        {
          "internalType": "address",
          "name": "_utils",
          "type": "address"
        }
      ],
      "name": "setUtils",
      "outputs": [],
      "stateMutability": "nonpayable",
      "type": "function"
    },
    {
      "inputs": [
        {
          "internalType": "address",
          "name": "_initialToken",
          "type": "address"
        },
        {
          "internalType": "address",
          "name": "_finalToken",
          "type": "address"
        },
        {
          "internalType": "uint256",
          "name": "_initialTokenAmount",
          "type": "uint256"
        }
      ],
      "name": "swap",
      "outputs": [],
      "stateMutability": "nonpayable",
      "type": "function"
    },
    {
      "inputs": [
        {
          "internalType": "address",
          "name": "_initialToken",
          "type": "address"
        },
        {
          "internalType": "address",
          "name": "_finalToken",
          "type": "address"
        },
        {
          "internalType": "uint256",
          "name": "_initialTokenAmount",
          "type": "uint256"
        }
      ],
      "name": "swapRP",
      "outputs": [],
      "stateMutability": "nonpayable",
      "type": "function"
    },
    {
      "inputs": [
        {
          "internalType": "address",
          "name": "newOwner",
          "type": "address"
        }
      ],
      "name": "transferOwnership",
      "outputs": [],
      "stateMutability": "nonpayable",
      "type": "function"
    }
  ],
  "bytecode": {
    "object": "0x608060405234801561001057600080fd5b50604051610f74380380610f7483398101604081905261002f9161011a565b806001600160a01b03811661005e57604051631e4fbdf760e01b81526000600482015260240160405180910390fd5b610067816100ae565b50600180546001600160a01b03199081166001600160a01b039687161790915560028054821694861694909417909355600480549093169316929092179055600555610167565b600080546001600160a01b038381166001600160a01b0319831681178455604051919092169283917f8be0079c531659141344cd1fd0a4f28419497f9722a3daafe3b4186f6b6457e09190a35050565b80516001600160a01b038116811461011557600080fd5b919050565b6000806000806080858703121561013057600080fd5b610139856100fe565b9350610147602086016100fe565b92506040850151915061015c606086016100fe565b905092959194509250565b610dfe806101766000396000f3fe608060405234801561001057600080fd5b506004361061010b5760003560e01c8063978223d3116100a2578063c842d37811610071578063c842d3781461021f578063cf60f70914610232578063d0f077af14610245578063df791e5014610258578063f2fde38b1461026b57600080fd5b8063978223d3146101dd5780639a3aed36146101f0578063adafa43014610203578063af07edb31461021657600080fd5b8063715018a6116100de578063715018a61461019057806389876862146101985780638aa5a9fe146101b95780638da5cb5b146101cc57600080fd5b80631257723d146101105780632fdae4451461014057806354c216dc14610168578063699535011461017b575b600080fd5b600354610123906001600160a01b031681565b6040516001600160a01b0390911681526020015b60405180910390f35b61015361014e366004610be9565b61027e565b60408051928352602083019190915201610137565b600254610123906001600160a01b031681565b61018e610189366004610c25565b610404565b005b61018e610457565b6101ab6101a6366004610c40565b61046b565b604051908152602001610137565b61018e6101c7366004610be9565b610519565b6000546001600160a01b0316610123565b600454610123906001600160a01b031681565b61018e6101fe366004610c25565b610602565b600154610123906001600160a01b031681565b6101ab60055481565b61018e61022d366004610c25565b610655565b61018e610240366004610c6c565b6106a8565b61018e610253366004610c25565b6106d8565b61018e610266366004610be9565b61072b565b61018e610279366004610c25565b6107b0565b600080846001600160a01b0381166102a95760405163169341bd60e11b815260040160405180910390fd5b846001600160a01b0381166102d15760405163169341bd60e11b815260040160405180910390fd5b84806000036102f3576040516365baabd560e01b815260040160405180910390fd5b6000886001600160a01b031663313ce5676040518163ffffffff1660e01b8152600401602060405180830381865afa158015610333573d6000803e3d6000fd5b505050506040513d601f19601f820116820180604052508101906103579190610c85565b90506000886001600160a01b031663313ce5676040518163ffffffff1660e01b8152600401602060405180830381865afa158015610399573d6000803e3d6000fd5b505050506040513d601f19601f820116820180604052508101906103bd9190610c85565b905060006103da6103d48360ff168560ff166107f3565b8a610811565b90506103e881600554610811565b96506103f48782610cc5565b9750505050505050935093915050565b61040c610826565b806001600160a01b0381166104345760405163169341bd60e11b815260040160405180910390fd5b50600180546001600160a01b0319166001600160a01b0392909216919091179055565b61045f610826565b6104696000610853565b565b600080826001600160a01b031663313ce5676040518163ffffffff1660e01b8152600401602060405180830381865afa1580156104ac573d6000803e3d6000fd5b505050506040513d601f19601f820116820180604052508101906104d09190610c85565b60ff16905060006104e2601283610cc5565b90508015610505576104fe856104f983600a610dbc565b6107f3565b9250610511565b80600003610511578492505b505092915050565b826001600160a01b0381166105415760405163169341bd60e11b815260040160405180910390fd5b826001600160a01b0381166105695760405163169341bd60e11b815260040160405180910390fd5b828060000361058b576040516365baabd560e01b815260040160405180910390fd5b600254869086906001600160a01b03908116908216036105be57604051635b7af42560e01b815260040160405180910390fd5b60006105cb89898961027e565b5090506105e36001600160a01b038a1633308a6108a3565b6105f76001600160a01b038916338361093f565b505050505050505050565b61060a610826565b806001600160a01b0381166106325760405163169341bd60e11b815260040160405180910390fd5b50600480546001600160a01b0319166001600160a01b0392909216919091179055565b61065d610826565b806001600160a01b0381166106855760405163169341bd60e11b815260040160405180910390fd5b50600380546001600160a01b0319166001600160a01b0392909216919091179055565b6106b0610826565b80806000036106d2576040516365baabd560e01b815260040160405180910390fd5b50600555565b6106e0610826565b806001600160a01b0381166107085760405163169341bd60e11b815260040160405180910390fd5b50600280546001600160a01b0319166001600160a01b0392909216919091179055565b826001600160a01b0381166107535760405163169341bd60e11b815260040160405180910390fd5b826001600160a01b03811661077b5760405163169341bd60e11b815260040160405180910390fd5b828060000361079d576040516365baabd560e01b815260040160405180910390fd5b6107a88686866109c6565b505050505050565b6107b8610826565b6001600160a01b0381166107e757604051631e4fbdf760e01b8152600060048201526024015b60405180910390fd5b6107f081610853565b50565b600061080883670de0b6b3a764000084610baf565b90505b92915050565b60006108088383670de0b6b3a7640000610baf565b6000546001600160a01b031633146104695760405163118cdaa760e01b81523360048201526024016107de565b600080546001600160a01b038381166001600160a01b0319831681178455604051919092169283917f8be0079c531659141344cd1fd0a4f28419497f9722a3daafe3b4186f6b6457e09190a35050565b60006040516323b872dd60e01b81526001600160a01b03851660048201526001600160a01b03841660248201528260448201526020600060648360008a5af13d15601f3d11600160005114161716915050806109385760405162461bcd60e51b81526020600482015260146024820152731514905394d1915497d19493d357d1905253115160621b60448201526064016107de565b5050505050565b600060405163a9059cbb60e01b81526001600160a01b0384166004820152826024820152602060006044836000895af13d15601f3d11600160005114161716915050806109c05760405162461bcd60e51b815260206004820152600f60248201526e1514905394d1915497d19052531151608a1b60448201526064016107de565b50505050565b6003546002546001600160a01b0391821691908116908516821480156109fd5750806001600160a01b0316846001600160a01b0316145b15610a97576040516354fe8fb760e01b815260048101849052336024820181905260448201526001600160a01b038316906354fe8fb790606401600060405180830381600087803b158015610a5157600080fd5b505af1158015610a65573d6000803e3d6000fd5b50506040517f8f66373ac2e6d756d614fba285692bb2ab0b6b29def91e6c0ff7f79a9f210ff2925060009150a1610938565b816001600160a01b0316856001600160a01b031614158015610aca5750806001600160a01b0316846001600160a01b0316145b15610b74576000610adb848761046b565b6040516354fe8fb760e01b815260048101829052336024820181905260448201529091506001600160a01b038716906354fe8fb790606401600060405180830381600087803b158015610b2d57600080fd5b505af1158015610b41573d6000803e3d6000fd5b50506040517f8f66373ac2e6d756d614fba285692bb2ab0b6b29def91e6c0ff7f79a9f210ff2925060009150a150610938565b610b7f858585610519565b6040517f100f33e27c1d3d6481f3cb5dbccf0d258aecca058f05ee48ccc86ebe083888c190600090a15050505050565b6000826000190484118302158202610bc657600080fd5b5091020490565b80356001600160a01b0381168114610be457600080fd5b919050565b600080600060608486031215610bfe57600080fd5b610c0784610bcd565b9250610c1560208501610bcd565b9150604084013590509250925092565b600060208284031215610c3757600080fd5b61080882610bcd565b60008060408385031215610c5357600080fd5b82359150610c6360208401610bcd565b90509250929050565b600060208284031215610c7e57600080fd5b5035919050565b600060208284031215610c9757600080fd5b815160ff81168114610ca857600080fd5b9392505050565b634e487b7160e01b600052601160045260246000fd5b8181038181111561080b5761080b610caf565b600181815b80851115610d13578160001904821115610cf957610cf9610caf565b80851615610d0657918102915b93841c9390800290610cdd565b509250929050565b600082610d2a5750600161080b565b81610d375750600061080b565b8160018114610d4d5760028114610d5757610d73565b600191505061080b565b60ff841115610d6857610d68610caf565b50506001821b61080b565b5060208310610133831016604e8410600b8410161715610d96575081810a61080b565b610da08383610cd8565b8060001904821115610db457610db4610caf565b029392505050565b60006108088383610d1b56fea264697066735822122003bcca6b4136c37fcfaa24529eddf8743ceff8f99ea8b319b95d0fdc90ae748564736f6c63430008140033",
    "linkReferences": {}
  },
  "methodIdentifiers": {
    "decimalCorrectionFromRPtoCV(uint256,address)": "89876862",
    "feeCalculatorForRPs(address,address,uint256)": "2fdae445",
    "owner()": "8da5cb5b",
    "renounceOwnership()": "715018a6",
    "s_feeOnRPs()": "af07edb3",
    "s_ghoToken()": "54c216dc",
    "s_mainAdmin()": "978223d3",
    "s_mainVault()": "1257723d",
    "s_utils()": "adafa430",
    "setFeeOnRPs(uint256)": "cf60f709",
    "setGHOToken(address)": "d0f077af",
    "setMainAdmin(address)": "9a3aed36",
    "setMainVault(address)": "c842d378",
    "setUtils(address)": "69953501",
    "swap(address,address,uint256)": "df791e50",
    "swapRP(address,address,uint256)": "8aa5a9fe",
    "transferOwnership(address)": "f2fde38b"
  },
  "id": 52
}