{
  "abi": [
    {
      "inputs": [
        {
          "internalType": "address",
          "name": "_rpToken",
          "type": "address"
        },
        {
          "internalType": "address",
          "name": "_mainPayment",
          "type": "address"
        },
        {
          "internalType": "uint8",
          "name": "_maxAmtPercentInRp",
          "type": "uint8"
        },
        {
          "internalType": "address",
          "name": "_partnerAdmin",
          "type": "address"
        },
        {
          "internalType": "uint256",
          "name": "_rpToGHORatio",
          "type": "uint256"
        }
      ],
      "stateMutability": "nonpayable",
      "type": "constructor"
    },
    {
      "inputs": [
        {
          "internalType": "address",
          "name": "owner",
          "type": "address"
        }
      ],
      "name": "OwnableInvalidOwner",
      "type": "error"
    },
    {
      "inputs": [
        {
          "internalType": "address",
          "name": "account",
          "type": "address"
        }
      ],
      "name": "OwnableUnauthorizedAccount",
      "type": "error"
    },
    {
      "inputs": [],
      "name": "PartnerPayment__NotEnoughRP",
      "type": "error"
    },
    {
      "inputs": [],
      "name": "PartnerPayment__OnlyGHOPassportHolders",
      "type": "error"
    },
    {
      "inputs": [],
      "name": "PartnerPayment__ZeroAddress",
      "type": "error"
    },
    {
      "inputs": [],
      "name": "PartnerPayment__ZeroAmount",
      "type": "error"
    },
    {
      "anonymous": false,
      "inputs": [
        {
          "indexed": true,
          "internalType": "address",
          "name": "previousOwner",
          "type": "address"
        },
        {
          "indexed": true,
          "internalType": "address",
          "name": "newOwner",
          "type": "address"
        }
      ],
      "name": "OwnershipTransferred",
      "type": "event"
    },
    {
      "anonymous": false,
      "inputs": [
        {
          "indexed": true,
          "internalType": "address",
          "name": "_sender",
          "type": "address"
        },
        {
          "indexed": false,
          "internalType": "uint256",
          "name": "_amount",
          "type": "uint256"
        }
      ],
      "name": "PartnerPayment__PaidWithGHO",
      "type": "event"
    },
    {
      "anonymous": false,
      "inputs": [
        {
          "indexed": true,
          "internalType": "address",
          "name": "_sender",
          "type": "address"
        },
        {
          "indexed": true,
          "internalType": "uint256",
          "name": "_rpamount",
          "type": "uint256"
        },
        {
          "indexed": false,
          "internalType": "uint256",
          "name": "_ghoAmount",
          "type": "uint256"
        }
      ],
      "name": "PartnerPayment__PaidWithGHOAndRP",
      "type": "event"
    },
    {
      "inputs": [
        {
          "internalType": "uint256",
          "name": "_rpAmount",
          "type": "uint256"
        },
        {
          "internalType": "uint256",
          "name": "_serviceAmount",
          "type": "uint256"
        }
      ],
      "name": "bookAService",
      "outputs": [],
      "stateMutability": "nonpayable",
      "type": "function"
    },
    {
      "inputs": [
        {
          "internalType": "uint256",
          "name": "_serviceAmount",
          "type": "uint256"
        }
      ],
      "name": "maxAmountPayInRpCalculator",
      "outputs": [
        {
          "internalType": "uint256",
          "name": "maxUtilisableRp",
          "type": "uint256"
        }
      ],
      "stateMutability": "view",
      "type": "function"
    },
    {
      "inputs": [],
      "name": "owner",
      "outputs": [
        {
          "internalType": "address",
          "name": "",
          "type": "address"
        }
      ],
      "stateMutability": "view",
      "type": "function"
    },
    {
      "inputs": [],
      "name": "renounceOwnership",
      "outputs": [],
      "stateMutability": "nonpayable",
      "type": "function"
    },
    {
      "inputs": [
        {
          "internalType": "uint256",
          "name": "_rpAmount",
          "type": "uint256"
        },
        {
          "internalType": "uint256",
          "name": "_serviceCharge",
          "type": "uint256"
        }
      ],
      "name": "rpUtilisationCalculator",
      "outputs": [
        {
          "internalType": "uint256",
          "name": "amountToPayInGHO",
          "type": "uint256"
        }
      ],
      "stateMutability": "view",
      "type": "function"
    },
    {
      "inputs": [],
      "name": "s_ghoPassport",
      "outputs": [
        {
          "internalType": "contract IERC721",
          "name": "",
          "type": "address"
        }
      ],
      "stateMutability": "view",
      "type": "function"
    },
    {
      "inputs": [],
      "name": "s_mainPayment",
      "outputs": [
        {
          "internalType": "contract MainPayment",
          "name": "",
          "type": "address"
        }
      ],
      "stateMutability": "view",
      "type": "function"
    },
    {
      "inputs": [],
      "name": "s_maxAmtPercentInRp",
      "outputs": [
        {
          "internalType": "uint8",
          "name": "",
          "type": "uint8"
        }
      ],
      "stateMutability": "view",
      "type": "function"
    },
    {
      "inputs": [],
      "name": "s_partnerAdmin",
      "outputs": [
        {
          "internalType": "address",
          "name": "",
          "type": "address"
        }
      ],
      "stateMutability": "view",
      "type": "function"
    },
    {
      "inputs": [],
      "name": "s_rpToGHORatio",
      "outputs": [
        {
          "internalType": "uint256",
          "name": "",
          "type": "uint256"
        }
      ],
      "stateMutability": "view",
      "type": "function"
    },
    {
      "inputs": [],
      "name": "s_rpToken",
      "outputs": [
        {
          "internalType": "contract ERC20",
          "name": "",
          "type": "address"
        }
      ],
      "stateMutability": "view",
      "type": "function"
    },
    {
      "inputs": [
        {
          "internalType": "address",
          "name": "_ghoPassport",
          "type": "address"
        }
      ],
      "name": "setGhoPassport",
      "outputs": [],
      "stateMutability": "nonpayable",
      "type": "function"
    },
    {
      "inputs": [
        {
          "internalType": "address",
          "name": "_mainPayment",
          "type": "address"
        }
      ],
      "name": "setMainPayment",
      "outputs": [],
      "stateMutability": "nonpayable",
      "type": "function"
    },
    {
      "inputs": [
        {
          "internalType": "uint8",
          "name": "_maxAmtPercentInRp",
          "type": "uint8"
        }
      ],
      "name": "setMaxAmtPercentInRp",
      "outputs": [],
      "stateMutability": "nonpayable",
      "type": "function"
    },
    {
      "inputs": [
        {
          "internalType": "address",
          "name": "_partnerAdmin",
          "type": "address"
        }
      ],
      "name": "setPartnerAdmin",
      "outputs": [],
      "stateMutability": "nonpayable",
      "type": "function"
    },
    {
      "inputs": [
        {
          "internalType": "uint256",
          "name": "_rpToGHORatio",
          "type": "uint256"
        }
      ],
      "name": "setRpToGHORatio",
      "outputs": [],
      "stateMutability": "nonpayable",
      "type": "function"
    },
    {
      "inputs": [
        {
          "internalType": "address",
          "name": "_rpToken",
          "type": "address"
        }
      ],
      "name": "setRpToken",
      "outputs": [],
      "stateMutability": "nonpayable",
      "type": "function"
    },
    {
      "inputs": [
        {
          "internalType": "address",
          "name": "newOwner",
          "type": "address"
        }
      ],
      "name": "transferOwnership",
      "outputs": [],
      "stateMutability": "nonpayable",
      "type": "function"
    }
  ],
  "bytecode": {
    "object": "0x608060405234801561001057600080fd5b50604051610f7d380380610f7d83398101604081905261002f91610130565b816001600160a01b03811661005e57604051631e4fbdf760e01b81526000600482015260240160405180910390fd5b610067816100c4565b50600180546001600160a01b03199081166001600160a01b0397881617909155600380548216958716959095179094556004805490941691909416179091556005919091556006805460ff191660ff909216919091179055610196565b600080546001600160a01b038381166001600160a01b0319831681178455604051919092169283917f8be0079c531659141344cd1fd0a4f28419497f9722a3daafe3b4186f6b6457e09190a35050565b80516001600160a01b038116811461012b57600080fd5b919050565b600080600080600060a0868803121561014857600080fd5b61015186610114565b945061015f60208701610114565b9350604086015160ff8116811461017557600080fd5b925061018360608701610114565b9150608086015190509295509295909350565b610dd8806101a56000396000f3fe608060405234801561001057600080fd5b50600436106101165760003560e01c80638da5cb5b116100a2578063b0ee7c0711610071578063b0ee7c071461023e578063c673679214610251578063dd134e5d14610264578063e65b5d3414610277578063f2fde38b1461028057600080fd5b80638da5cb5b146101e857806392f634ca146101f9578063aab702e11461020c578063ae9cdaea1461022b57600080fd5b80635f18023c116100e95780635f18023c14610194578063666cb144146101a75780636eb4aa45146101ba578063715018a6146101cd5780638223cd83146101d557600080fd5b80632cf154251461011b5780633674e6d51461014b5780634ae77e2c146101605780634e4025bf14610181575b600080fd5b60045461012e906001600160a01b031681565b6040516001600160a01b0390911681526020015b60405180910390f35b61015e610159366004610c79565b610293565b005b61017361016e366004610ca2565b6102e6565b604051908152602001610142565b60015461012e906001600160a01b031681565b60025461012e906001600160a01b031681565b61015e6101b5366004610c79565b61031e565b60035461012e906001600160a01b031681565b61015e610371565b61015e6101e3366004610cbb565b610385565b6000546001600160a01b031661012e565b61015e610207366004610ca2565b610a05565b6006546102199060ff1681565b60405160ff9091168152602001610142565b61015e610239366004610c79565b610a35565b61015e61024c366004610c79565b610a88565b61017361025f366004610cbb565b610adb565b61015e610272366004610cdd565b610afe565b61017360055481565b61015e61028e366004610c79565b610b42565b61029b610b85565b806001600160a01b0381166102c35760405163038cec5760e11b815260040160405180910390fd5b50600380546001600160a01b0319166001600160a01b0392909216919091179055565b60065460009081906064906102ff90859060ff16610bb2565b6103099190610d00565b905061031781600554610bb2565b9392505050565b610326610b85565b806001600160a01b03811661034e5760405163038cec5760e11b815260040160405180910390fd5b50600280546001600160a01b0319166001600160a01b0392909216919091179055565b610379610b85565b6103836000610bd0565b565b6002546040516370a0823160e01b81523360048201526000916001600160a01b0316906370a0823190602401602060405180830381865afa1580156103ce573d6000803e3d6000fd5b505050506040513d601f19601f820116820180604052508101906103f29190610d22565b116104105760405163fac1b1e960e01b815260040160405180910390fd5b81806000036106c957818060000361043b57604051631118287160e01b815260040160405180910390fd5b33841561061557600061044d856102e6565b9050600061045b8787610adb565b9050818711156104e557600154600480546040516323b872dd60e01b81526001600160a01b03938416936323b872dd9361049c938993921691889101610d3b565b6020604051808303816000875af11580156104bb573d6000803e3d6000fd5b505050506040513d601f19601f820116820180604052508101906104df9190610d5f565b50610561565b600154600480546040516323b872dd60e01b81526001600160a01b03938416936323b872dd9361051c9389939216918d9101610d3b565b6020604051808303816000875af115801561053b573d6000803e3d6000fd5b505050506040513d601f19601f8201168201806040525081019061055f9190610d5f565b505b600354600480546040516362c2545f60e01b81526001600160a01b03938416936362c2545f93610598938993921691879101610d3b565b600060405180830381600087803b1580156105b257600080fd5b505af11580156105c6573d6000803e3d6000fd5b5050505086836001600160a01b03167f19fd2a84be9cac40ddb6cfb1ec91f2a6029a52b1dc1c36ce7692b9869e887db48360405161060691815260200190565b60405180910390a350506106c2565b600354600480546040516362c2545f60e01b81526001600160a01b03938416936362c2545f9361064c9387939216918a9101610d3b565b600060405180830381600087803b15801561066657600080fd5b505af115801561067a573d6000803e3d6000fd5b50505050806001600160a01b03167f4fe994236a3e98229115334c5e849867b7ea226c3ea6a1193ef4b03b854f0510856040516106b991815260200190565b60405180910390a25b5050610755565b6001546040516370a0823160e01b81523360048201526001600160a01b03909116906370a0823190602401602060405180830381865afa158015610711573d6000803e3d6000fd5b505050506040513d601f19601f820116820180604052508101906107359190610d22565b81111561075557604051631f951a5b60e01b815260040160405180910390fd5b818060000361077757604051631118287160e01b815260040160405180910390fd5b338415610951576000610789856102e6565b905060006107978787610adb565b90508187111561082157600154600480546040516323b872dd60e01b81526001600160a01b03938416936323b872dd936107d8938993921691889101610d3b565b6020604051808303816000875af11580156107f7573d6000803e3d6000fd5b505050506040513d601f19601f8201168201806040525081019061081b9190610d5f565b5061089d565b600154600480546040516323b872dd60e01b81526001600160a01b03938416936323b872dd936108589389939216918d9101610d3b565b6020604051808303816000875af1158015610877573d6000803e3d6000fd5b505050506040513d601f19601f8201168201806040525081019061089b9190610d5f565b505b600354600480546040516362c2545f60e01b81526001600160a01b03938416936362c2545f936108d4938993921691879101610d3b565b600060405180830381600087803b1580156108ee57600080fd5b505af1158015610902573d6000803e3d6000fd5b5050505086836001600160a01b03167f19fd2a84be9cac40ddb6cfb1ec91f2a6029a52b1dc1c36ce7692b9869e887db48360405161094291815260200190565b60405180910390a350506109fe565b600354600480546040516362c2545f60e01b81526001600160a01b03938416936362c2545f936109889387939216918a9101610d3b565b600060405180830381600087803b1580156109a257600080fd5b505af11580156109b6573d6000803e3d6000fd5b50505050806001600160a01b03167f4fe994236a3e98229115334c5e849867b7ea226c3ea6a1193ef4b03b854f0510856040516109f591815260200190565b60405180910390a25b5050505050565b610a0d610b85565b8080600003610a2f57604051631118287160e01b815260040160405180910390fd5b50600555565b610a3d610b85565b806001600160a01b038116610a655760405163038cec5760e11b815260040160405180910390fd5b50600480546001600160a01b0319166001600160a01b0392909216919091179055565b610a90610b85565b806001600160a01b038116610ab85760405163038cec5760e11b815260040160405180910390fd5b50600180546001600160a01b0319166001600160a01b0392909216919091179055565b600080610aea84600554610c20565b9050610af68184610d81565b949350505050565b610b06610b85565b8060ff1680600003610b2b57604051631118287160e01b815260040160405180910390fd5b506006805460ff191660ff92909216919091179055565b610b4a610b85565b6001600160a01b038116610b7957604051631e4fbdf760e01b8152600060048201526024015b60405180910390fd5b610b8281610bd0565b50565b6000546001600160a01b031633146103835760405163118cdaa760e01b8152336004820152602401610b70565b6000610bc78383670de0b6b3a7640000610c35565b90505b92915050565b600080546001600160a01b038381166001600160a01b0319831681178455604051919092169283917f8be0079c531659141344cd1fd0a4f28419497f9722a3daafe3b4186f6b6457e09190a35050565b6000610bc783670de0b6b3a764000084610c5b565b6000826000190484118302158202610c4c57600080fd5b50910281810615159190040190565b6000826000190484118302158202610c7257600080fd5b5091020490565b600060208284031215610c8b57600080fd5b81356001600160a01b038116811461031757600080fd5b600060208284031215610cb457600080fd5b5035919050565b60008060408385031215610cce57600080fd5b50508035926020909101359150565b600060208284031215610cef57600080fd5b813560ff8116811461031757600080fd5b600082610d1d57634e487b7160e01b600052601260045260246000fd5b500490565b600060208284031215610d3457600080fd5b5051919050565b6001600160a01b039384168152919092166020820152604081019190915260600190565b600060208284031215610d7157600080fd5b8151801515811461031757600080fd5b81810381811115610bca57634e487b7160e01b600052601160045260246000fdfea2646970667358221220d0575c6bb41a1d7234d81088b0f0f2f0430fd3a04c655d4d773de5108944d3b164736f6c63430008140033",
    "linkReferences": {}
  },
  "methodIdentifiers": {
    "bookAService(uint256,uint256)": "8223cd83",
    "maxAmountPayInRpCalculator(uint256)": "4ae77e2c",
    "owner()": "8da5cb5b",
    "renounceOwnership()": "715018a6",
    "rpUtilisationCalculator(uint256,uint256)": "c6736792",
    "s_ghoPassport()": "5f18023c",
    "s_mainPayment()": "6eb4aa45",
    "s_maxAmtPercentInRp()": "aab702e1",
    "s_partnerAdmin()": "2cf15425",
    "s_rpToGHORatio()": "e65b5d34",
    "s_rpToken()": "4e4025bf",
    "setGhoPassport(address)": "666cb144",
    "setMainPayment(address)": "3674e6d5",
    "setMaxAmtPercentInRp(uint8)": "dd134e5d",
    "setPartnerAdmin(address)": "ae9cdaea",
    "setRpToGHORatio(uint256)": "92f634ca",
    "setRpToken(address)": "b0ee7c07",
    "transferOwnership(address)": "f2fde38b"
  },
  "id": 48
}