{
  "abi": [
    {
      "inputs": [
        {
          "internalType": "address",
          "name": "_rpToken",
          "type": "address"
        },
        {
          "internalType": "address",
          "name": "_mainPayment",
          "type": "address"
        },
        {
          "internalType": "address",
          "name": "_ghoPassport",
          "type": "address"
        },
        {
          "internalType": "uint256",
          "name": "_maxAmtPercentInRp",
          "type": "uint256"
        },
        {
          "internalType": "address",
          "name": "_partnerAdmin",
          "type": "address"
        },
        {
          "internalType": "uint256",
          "name": "_rpToGHORatio",
          "type": "uint256"
        }
      ],
      "stateMutability": "nonpayable",
      "type": "constructor"
    },
    {
      "inputs": [
        {
          "internalType": "address",
          "name": "owner",
          "type": "address"
        }
      ],
      "name": "OwnableInvalidOwner",
      "type": "error"
    },
    {
      "inputs": [
        {
          "internalType": "address",
          "name": "account",
          "type": "address"
        }
      ],
      "name": "OwnableUnauthorizedAccount",
      "type": "error"
    },
    {
      "inputs": [],
      "name": "PartnerPayment__NotEnoughRP",
      "type": "error"
    },
    {
      "inputs": [],
      "name": "PartnerPayment__OnlyGHOPassportHolders",
      "type": "error"
    },
    {
      "inputs": [],
      "name": "PartnerPayment__ZeroAddress",
      "type": "error"
    },
    {
      "inputs": [],
      "name": "PartnerPayment__ZeroAmount",
      "type": "error"
    },
    {
      "anonymous": false,
      "inputs": [
        {
          "indexed": true,
          "internalType": "address",
          "name": "previousOwner",
          "type": "address"
        },
        {
          "indexed": true,
          "internalType": "address",
          "name": "newOwner",
          "type": "address"
        }
      ],
      "name": "OwnershipTransferred",
      "type": "event"
    },
    {
      "anonymous": false,
      "inputs": [
        {
          "indexed": true,
          "internalType": "address",
          "name": "_sender",
          "type": "address"
        },
        {
          "indexed": false,
          "internalType": "uint256",
          "name": "_amount",
          "type": "uint256"
        }
      ],
      "name": "PartnerPayment__PaidWithGHO",
      "type": "event"
    },
    {
      "anonymous": false,
      "inputs": [
        {
          "indexed": true,
          "internalType": "address",
          "name": "_sender",
          "type": "address"
        },
        {
          "indexed": true,
          "internalType": "uint256",
          "name": "_rpamount",
          "type": "uint256"
        },
        {
          "indexed": false,
          "internalType": "uint256",
          "name": "_ghoAmount",
          "type": "uint256"
        }
      ],
      "name": "PartnerPayment__PaidWithGHOAndRP",
      "type": "event"
    },
    {
      "inputs": [
        {
          "internalType": "uint256",
          "name": "_rpAmount",
          "type": "uint256"
        },
        {
          "internalType": "uint256",
          "name": "_serviceAmount",
          "type": "uint256"
        }
      ],
      "name": "bookAService",
      "outputs": [],
      "stateMutability": "nonpayable",
      "type": "function"
    },
    {
      "inputs": [
        {
          "internalType": "uint256",
          "name": "_serviceAmount",
          "type": "uint256"
        }
      ],
      "name": "maxAmountPayInRpCalculator",
      "outputs": [
        {
          "internalType": "uint256",
          "name": "maxUtilisableRp",
          "type": "uint256"
        }
      ],
      "stateMutability": "view",
      "type": "function"
    },
    {
      "inputs": [],
      "name": "owner",
      "outputs": [
        {
          "internalType": "address",
          "name": "",
          "type": "address"
        }
      ],
      "stateMutability": "view",
      "type": "function"
    },
    {
      "inputs": [],
      "name": "renounceOwnership",
      "outputs": [],
      "stateMutability": "nonpayable",
      "type": "function"
    },
    {
      "inputs": [
        {
          "internalType": "uint256",
          "name": "_rpAmount",
          "type": "uint256"
        },
        {
          "internalType": "uint256",
          "name": "_serviceCharge",
          "type": "uint256"
        }
      ],
      "name": "rpUtilisationCalculator",
      "outputs": [
        {
          "internalType": "uint256",
          "name": "amountToPayInGHO",
          "type": "uint256"
        }
      ],
      "stateMutability": "view",
      "type": "function"
    },
    {
      "inputs": [],
      "name": "s_ghoPassport",
      "outputs": [
        {
          "internalType": "contract IERC721",
          "name": "",
          "type": "address"
        }
      ],
      "stateMutability": "view",
      "type": "function"
    },
    {
      "inputs": [],
      "name": "s_mainPayment",
      "outputs": [
        {
          "internalType": "contract MainPayment",
          "name": "",
          "type": "address"
        }
      ],
      "stateMutability": "view",
      "type": "function"
    },
    {
      "inputs": [],
      "name": "s_maxAmtPercentInRp",
      "outputs": [
        {
          "internalType": "uint256",
          "name": "",
          "type": "uint256"
        }
      ],
      "stateMutability": "view",
      "type": "function"
    },
    {
      "inputs": [],
      "name": "s_partnerAdmin",
      "outputs": [
        {
          "internalType": "address",
          "name": "",
          "type": "address"
        }
      ],
      "stateMutability": "view",
      "type": "function"
    },
    {
      "inputs": [],
      "name": "s_rpToGHORatio",
      "outputs": [
        {
          "internalType": "uint256",
          "name": "",
          "type": "uint256"
        }
      ],
      "stateMutability": "view",
      "type": "function"
    },
    {
      "inputs": [],
      "name": "s_rpToken",
      "outputs": [
        {
          "internalType": "contract ERC20",
          "name": "",
          "type": "address"
        }
      ],
      "stateMutability": "view",
      "type": "function"
    },
    {
      "inputs": [
        {
          "internalType": "address",
          "name": "_ghoPassport",
          "type": "address"
        }
      ],
      "name": "setGhoPassport",
      "outputs": [],
      "stateMutability": "nonpayable",
      "type": "function"
    },
    {
      "inputs": [
        {
          "internalType": "address",
          "name": "_mainPayment",
          "type": "address"
        }
      ],
      "name": "setMainPayment",
      "outputs": [],
      "stateMutability": "nonpayable",
      "type": "function"
    },
    {
      "inputs": [
        {
          "internalType": "uint8",
          "name": "_maxAmtPercentInRp",
          "type": "uint8"
        }
      ],
      "name": "setMaxAmtPercentInRp",
      "outputs": [],
      "stateMutability": "nonpayable",
      "type": "function"
    },
    {
      "inputs": [
        {
          "internalType": "address",
          "name": "_partnerAdmin",
          "type": "address"
        }
      ],
      "name": "setPartnerAdmin",
      "outputs": [],
      "stateMutability": "nonpayable",
      "type": "function"
    },
    {
      "inputs": [
        {
          "internalType": "uint256",
          "name": "_rpToGHORatio",
          "type": "uint256"
        }
      ],
      "name": "setRpToGHORatio",
      "outputs": [],
      "stateMutability": "nonpayable",
      "type": "function"
    },
    {
      "inputs": [
        {
          "internalType": "address",
          "name": "_rpToken",
          "type": "address"
        }
      ],
      "name": "setRpToken",
      "outputs": [],
      "stateMutability": "nonpayable",
      "type": "function"
    },
    {
      "inputs": [
        {
          "internalType": "address",
          "name": "newOwner",
          "type": "address"
        }
      ],
      "name": "transferOwnership",
      "outputs": [],
      "stateMutability": "nonpayable",
      "type": "function"
    }
  ],
  "bytecode": {
    "object": "0x608060405234801561001057600080fd5b50604051610f40380380610f4083398101604081905261002f9161012d565b816001600160a01b03811661005e57604051631e4fbdf760e01b81526000600482015260240160405180910390fd5b610067816100c1565b50600180546001600160a01b039788166001600160a01b0319918216179091556003805496881696821696909617909555600480549287169286169290921790915560055560065560028054919093169116179055610193565b600080546001600160a01b038381166001600160a01b0319831681178455604051919092169283917f8be0079c531659141344cd1fd0a4f28419497f9722a3daafe3b4186f6b6457e09190a35050565b80516001600160a01b038116811461012857600080fd5b919050565b60008060008060008060c0878903121561014657600080fd5b61014f87610111565b955061015d60208801610111565b945061016b60408801610111565b93506060870151925061018060808801610111565b915060a087015190509295509295509295565b610d9e806101a26000396000f3fe608060405234801561001057600080fd5b50600436106101165760003560e01c80638da5cb5b116100a2578063b0ee7c0711610071578063b0ee7c0714610228578063c67367921461023b578063dd134e5d1461024e578063e65b5d3414610261578063f2fde38b1461026a57600080fd5b80638da5cb5b146101e857806392f634ca146101f9578063aab702e11461020c578063ae9cdaea1461021557600080fd5b80635f18023c116100e95780635f18023c14610194578063666cb144146101a75780636eb4aa45146101ba578063715018a6146101cd5780638223cd83146101d557600080fd5b80632cf154251461011b5780633674e6d51461014b5780634ae77e2c146101605780634e4025bf14610181575b600080fd5b60045461012e906001600160a01b031681565b6040516001600160a01b0390911681526020015b60405180910390f35b61015e610159366004610c61565b61027d565b005b61017361016e366004610c8a565b6102d0565b604051908152602001610142565b60015461012e906001600160a01b031681565b60025461012e906001600160a01b031681565b61015e6101b5366004610c61565b6102f4565b60035461012e906001600160a01b031681565b61015e610347565b61015e6101e3366004610ca3565b61035b565b6000546001600160a01b031661012e565b61015e610207366004610c8a565b6109fb565b61017360065481565b61015e610223366004610c61565b610a2b565b61015e610236366004610c61565b610a7e565b610173610249366004610ca3565b610ad1565b61015e61025c366004610cc5565b610af4565b61017360055481565b61015e610278366004610c61565b610b2a565b610285610b6d565b806001600160a01b0381166102ad5760405163038cec5760e11b815260040160405180910390fd5b50600380546001600160a01b0319166001600160a01b0392909216919091179055565b6000806102df83600654610b9a565b90506102ed81600554610b9a565b9392505050565b6102fc610b6d565b806001600160a01b0381166103245760405163038cec5760e11b815260040160405180910390fd5b50600280546001600160a01b0319166001600160a01b0392909216919091179055565b61034f610b6d565b6103596000610bb8565b565b6002546040516370a0823160e01b81523360048201526000916001600160a01b0316906370a0823190602401602060405180830381865afa1580156103a4573d6000803e3d6000fd5b505050506040513d601f19601f820116820180604052508101906103c89190610ce8565b116103e65760405163fac1b1e960e01b815260040160405180910390fd5b81806000036106af57818060000361041157604051631118287160e01b815260040160405180910390fd5b3384156105fb576000610423856102d0565b90506000818711156104bd576104398287610ad1565b600154600480546040516323b872dd60e01b81529394506001600160a01b03928316936323b872dd9361047493899390911691889101610d01565b6020604051808303816000875af1158015610493573d6000803e3d6000fd5b505050506040513d601f19601f820116820180604052508101906104b79190610d25565b50610547565b6104c78787610ad1565b600154600480546040516323b872dd60e01b81529394506001600160a01b03928316936323b872dd93610502938993909116918d9101610d01565b6020604051808303816000875af1158015610521573d6000803e3d6000fd5b505050506040513d601f19601f820116820180604052508101906105459190610d25565b505b600354600480546040516362c2545f60e01b81526001600160a01b03938416936362c2545f9361057e938993921691879101610d01565b600060405180830381600087803b15801561059857600080fd5b505af11580156105ac573d6000803e3d6000fd5b5050505086836001600160a01b03167f19fd2a84be9cac40ddb6cfb1ec91f2a6029a52b1dc1c36ce7692b9869e887db4836040516105ec91815260200190565b60405180910390a350506106a8565b600354600480546040516362c2545f60e01b81526001600160a01b03938416936362c2545f936106329387939216918a9101610d01565b600060405180830381600087803b15801561064c57600080fd5b505af1158015610660573d6000803e3d6000fd5b50505050806001600160a01b03167f4fe994236a3e98229115334c5e849867b7ea226c3ea6a1193ef4b03b854f05108560405161069f91815260200190565b60405180910390a25b505061073b565b6001546040516370a0823160e01b81523360048201526001600160a01b03909116906370a0823190602401602060405180830381865afa1580156106f7573d6000803e3d6000fd5b505050506040513d601f19601f8201168201806040525081019061071b9190610ce8565b81111561073b57604051631f951a5b60e01b815260040160405180910390fd5b818060000361075d57604051631118287160e01b815260040160405180910390fd5b33841561094757600061076f856102d0565b9050600081871115610809576107858287610ad1565b600154600480546040516323b872dd60e01b81529394506001600160a01b03928316936323b872dd936107c093899390911691889101610d01565b6020604051808303816000875af11580156107df573d6000803e3d6000fd5b505050506040513d601f19601f820116820180604052508101906108039190610d25565b50610893565b6108138787610ad1565b600154600480546040516323b872dd60e01b81529394506001600160a01b03928316936323b872dd9361084e938993909116918d9101610d01565b6020604051808303816000875af115801561086d573d6000803e3d6000fd5b505050506040513d601f19601f820116820180604052508101906108919190610d25565b505b600354600480546040516362c2545f60e01b81526001600160a01b03938416936362c2545f936108ca938993921691879101610d01565b600060405180830381600087803b1580156108e457600080fd5b505af11580156108f8573d6000803e3d6000fd5b5050505086836001600160a01b03167f19fd2a84be9cac40ddb6cfb1ec91f2a6029a52b1dc1c36ce7692b9869e887db48360405161093891815260200190565b60405180910390a350506109f4565b600354600480546040516362c2545f60e01b81526001600160a01b03938416936362c2545f9361097e9387939216918a9101610d01565b600060405180830381600087803b15801561099857600080fd5b505af11580156109ac573d6000803e3d6000fd5b50505050806001600160a01b03167f4fe994236a3e98229115334c5e849867b7ea226c3ea6a1193ef4b03b854f0510856040516109eb91815260200190565b60405180910390a25b5050505050565b610a03610b6d565b8080600003610a2557604051631118287160e01b815260040160405180910390fd5b50600555565b610a33610b6d565b806001600160a01b038116610a5b5760405163038cec5760e11b815260040160405180910390fd5b50600480546001600160a01b0319166001600160a01b0392909216919091179055565b610a86610b6d565b806001600160a01b038116610aae5760405163038cec5760e11b815260040160405180910390fd5b50600180546001600160a01b0319166001600160a01b0392909216919091179055565b600080610ae084600554610c08565b9050610aec8184610d47565b949350505050565b610afc610b6d565b8060ff1680600003610b2157604051631118287160e01b815260040160405180910390fd5b5060ff16600655565b610b32610b6d565b6001600160a01b038116610b6157604051631e4fbdf760e01b8152600060048201526024015b60405180910390fd5b610b6a81610bb8565b50565b6000546001600160a01b031633146103595760405163118cdaa760e01b8152336004820152602401610b58565b6000610baf8383670de0b6b3a7640000610c1d565b90505b92915050565b600080546001600160a01b038381166001600160a01b0319831681178455604051919092169283917f8be0079c531659141344cd1fd0a4f28419497f9722a3daafe3b4186f6b6457e09190a35050565b6000610baf83670de0b6b3a764000084610c43565b6000826000190484118302158202610c3457600080fd5b50910281810615159190040190565b6000826000190484118302158202610c5a57600080fd5b5091020490565b600060208284031215610c7357600080fd5b81356001600160a01b03811681146102ed57600080fd5b600060208284031215610c9c57600080fd5b5035919050565b60008060408385031215610cb657600080fd5b50508035926020909101359150565b600060208284031215610cd757600080fd5b813560ff811681146102ed57600080fd5b600060208284031215610cfa57600080fd5b5051919050565b6001600160a01b039384168152919092166020820152604081019190915260600190565b600060208284031215610d3757600080fd5b815180151581146102ed57600080fd5b81810381811115610bb257634e487b7160e01b600052601160045260246000fdfea26469706673582212207adc918d1ba71dc5be3a7eea3c56bcb287ff885c1510f3339cf08753a0abbeb264736f6c63430008140033",
    "linkReferences": {}
  },
  "methodIdentifiers": {
    "bookAService(uint256,uint256)": "8223cd83",
    "maxAmountPayInRpCalculator(uint256)": "4ae77e2c",
    "owner()": "8da5cb5b",
    "renounceOwnership()": "715018a6",
    "rpUtilisationCalculator(uint256,uint256)": "c6736792",
    "s_ghoPassport()": "5f18023c",
    "s_mainPayment()": "6eb4aa45",
    "s_maxAmtPercentInRp()": "aab702e1",
    "s_partnerAdmin()": "2cf15425",
    "s_rpToGHORatio()": "e65b5d34",
    "s_rpToken()": "4e4025bf",
    "setGhoPassport(address)": "666cb144",
    "setMainPayment(address)": "3674e6d5",
    "setMaxAmtPercentInRp(uint8)": "dd134e5d",
    "setPartnerAdmin(address)": "ae9cdaea",
    "setRpToGHORatio(uint256)": "92f634ca",
    "setRpToken(address)": "b0ee7c07",
    "transferOwnership(address)": "f2fde38b"
  },
  "id": 45
}