{
  "abi": [
    {
      "inputs": [
        {
          "internalType": "address",
          "name": "_mainPayment",
          "type": "address"
        },
        {
          "internalType": "address",
          "name": "_mainAdmin",
          "type": "address"
        },
        {
          "internalType": "address",
          "name": "_utils",
          "type": "address"
        },
        {
          "internalType": "address",
          "name": "_rPool",
          "type": "address"
        }
      ],
      "stateMutability": "nonpayable",
      "type": "constructor"
    },
    {
      "inputs": [
        {
          "internalType": "address",
          "name": "owner",
          "type": "address"
        }
      ],
      "name": "OwnableInvalidOwner",
      "type": "error"
    },
    {
      "inputs": [
        {
          "internalType": "address",
          "name": "account",
          "type": "address"
        }
      ],
      "name": "OwnableUnauthorizedAccount",
      "type": "error"
    },
    {
      "anonymous": false,
      "inputs": [
        {
          "indexed": true,
          "internalType": "address",
          "name": "previousOwner",
          "type": "address"
        },
        {
          "indexed": true,
          "internalType": "address",
          "name": "newOwner",
          "type": "address"
        }
      ],
      "name": "OwnershipTransferred",
      "type": "event"
    },
    {
      "anonymous": false,
      "inputs": [
        {
          "indexed": true,
          "internalType": "address",
          "name": "partner",
          "type": "address"
        },
        {
          "indexed": true,
          "internalType": "address",
          "name": "partnerVaultContractAddress",
          "type": "address"
        },
        {
          "indexed": true,
          "internalType": "address",
          "name": "partnerPaymentContractAddress",
          "type": "address"
        }
      ],
      "name": "PartnerContractsDeployer__RegisterAsPartner",
      "type": "event"
    },
    {
      "inputs": [],
      "name": "owner",
      "outputs": [
        {
          "internalType": "address",
          "name": "",
          "type": "address"
        }
      ],
      "stateMutability": "view",
      "type": "function"
    },
    {
      "inputs": [
        {
          "internalType": "address",
          "name": "_ghoToken",
          "type": "address"
        },
        {
          "internalType": "string",
          "name": "_name",
          "type": "string"
        },
        {
          "internalType": "string",
          "name": "_symbol",
          "type": "string"
        },
        {
          "internalType": "uint8",
          "name": "_ratio",
          "type": "uint8"
        },
        {
          "internalType": "uint256",
          "name": "_maxAmtPercentInRp",
          "type": "uint256"
        }
      ],
      "name": "registerAsPartner",
      "outputs": [],
      "stateMutability": "nonpayable",
      "type": "function"
    },
    {
      "inputs": [],
      "name": "renounceOwnership",
      "outputs": [],
      "stateMutability": "nonpayable",
      "type": "function"
    },
    {
      "inputs": [],
      "name": "s_mainPayment",
      "outputs": [
        {
          "internalType": "address",
          "name": "",
          "type": "address"
        }
      ],
      "stateMutability": "view",
      "type": "function"
    },
    {
      "inputs": [],
      "name": "s_rPool",
      "outputs": [
        {
          "internalType": "address",
          "name": "",
          "type": "address"
        }
      ],
      "stateMutability": "view",
      "type": "function"
    },
    {
      "inputs": [],
      "name": "s_utilsContract",
      "outputs": [
        {
          "internalType": "contract Utils",
          "name": "",
          "type": "address"
        }
      ],
      "stateMutability": "view",
      "type": "function"
    },
    {
      "inputs": [
        {
          "internalType": "address",
          "name": "_mainPayment",
          "type": "address"
        }
      ],
      "name": "setMainPayment",
      "outputs": [],
      "stateMutability": "nonpayable",
      "type": "function"
    },
    {
      "inputs": [
        {
          "internalType": "address",
          "name": "_rPool",
          "type": "address"
        }
      ],
      "name": "setRPool",
      "outputs": [],
      "stateMutability": "nonpayable",
      "type": "function"
    },
    {
      "inputs": [
        {
          "internalType": "address",
          "name": "_utils",
          "type": "address"
        }
      ],
      "name": "setUtils",
      "outputs": [],
      "stateMutability": "nonpayable",
      "type": "function"
    },
    {
      "inputs": [
        {
          "internalType": "address",
          "name": "newOwner",
          "type": "address"
        }
      ],
      "name": "transferOwnership",
      "outputs": [],
      "stateMutability": "nonpayable",
      "type": "function"
    }
  ],
  "bytecode": {
    "object": "0x608060405234801561001057600080fd5b506040516138de3803806138de83398101604081905261002f91610118565b826001600160a01b03811661005e57604051631e4fbdf760e01b81526000600482015260240160405180910390fd5b610067816100ac565b50600280546001600160a01b039586166001600160a01b031991821617909155600180549386169382169390931790925560038054919094169116179091555061016c565b600080546001600160a01b038381166001600160a01b0319831681178455604051919092169283917f8be0079c531659141344cd1fd0a4f28419497f9722a3daafe3b4186f6b6457e09190a35050565b80516001600160a01b038116811461011357600080fd5b919050565b6000806000806080858703121561012e57600080fd5b610137856100fc565b9350610145602086016100fc565b9250610153604086016100fc565b9150610161606086016100fc565b905092959194509250565b6137638061017b6000396000f3fe60806040523480156200001157600080fd5b5060043610620000ab5760003560e01c8063715018a6116200006e578063715018a6146200013b5780638da5cb5b1462000145578063946a477c1462000157578063bcf96ef4146200016e578063f2fde38b146200018257600080fd5b80633674e6d514620000b05780634fe4142c14620000c95780636995350114620000e057806369e65a1314620000f75780636eb4aa451462000127575b600080fd5b620000c7620000c1366004620004d9565b62000199565b005b620000c7620000da366004620005a9565b620001c5565b620000c7620000f1366004620004d9565b62000369565b6003546200010b906001600160a01b031681565b6040516001600160a01b03909116815260200160405180910390f35b6002546200010b906001600160a01b031681565b620000c762000395565b6000546001600160a01b03166200010b565b620000c762000168366004620004d9565b620003ad565b6001546200010b906001600160a01b031681565b620000c762000193366004620004d9565b620003d9565b620001a362000421565b600280546001600160a01b0319166001600160a01b0392909216919091179055565b600085858533600360009054906101000a90046001600160a01b031687604051620001f090620004a0565b620002019695949392919062000690565b604051809103906000f0801580156200021e573d6000803e3d6000fd5b50905060006200023a60ff8516678ac7230489e80000620006ee565b9050600082600260009054906101000a90046001600160a01b03168533856040516200026690620004ae565b6001600160a01b039586168152938516602085015260408401929092529092166060820152608081019190915260a001604051809103906000f080158015620002b3573d6000803e3d6000fd5b506001546040516305f74a3360e01b81523360048201526001600160a01b03808416602483015286811660448301529293509116906305f74a3390606401600060405180830381600087803b1580156200030c57600080fd5b505af115801562000321573d6000803e3d6000fd5b50506040516001600160a01b0380851693508616915033907fbd830a3b8dedfc86577cc4250bcfe31f89048f3e1faa8c2715771b60f2a6cca490600090a45050505050505050565b6200037362000421565b600180546001600160a01b0319166001600160a01b0392909216919091179055565b6200039f62000421565b620003ab600062000450565b565b620003b762000421565b600380546001600160a01b0319166001600160a01b0392909216919091179055565b620003e362000421565b6001600160a01b0381166200041357604051631e4fbdf760e01b8152600060048201526024015b60405180910390fd5b6200041e8162000450565b50565b6000546001600160a01b03163314620003ab5760405163118cdaa760e01b81523360048201526024016200040a565b600080546001600160a01b038381166001600160a01b0319831681178455604051919092169283917f8be0079c531659141344cd1fd0a4f28419497f9722a3daafe3b4186f6b6457e09190a35050565b6120f0806200071b83390190565b610f23806200280b83390190565b80356001600160a01b0381168114620004d457600080fd5b919050565b600060208284031215620004ec57600080fd5b620004f782620004bc565b9392505050565b634e487b7160e01b600052604160045260246000fd5b600082601f8301126200052657600080fd5b813567ffffffffffffffff80821115620005445762000544620004fe565b604051601f8301601f19908116603f011681019082821181831017156200056f576200056f620004fe565b816040528381528660208588010111156200058957600080fd5b836020870160208301376000602085830101528094505050505092915050565b600080600080600060a08688031215620005c257600080fd5b620005cd86620004bc565b9450602086013567ffffffffffffffff80821115620005eb57600080fd5b620005f989838a0162000514565b955060408801359150808211156200061057600080fd5b506200061f8882890162000514565b935050606086013560ff811681146200063757600080fd5b949793965091946080013592915050565b6000815180845260005b81811015620006705760208185018101518683018201520162000652565b506000602082860101526020601f19601f83011685010191505092915050565b600060018060a01b03808916835260c06020840152620006b460c084018962000648565b8381036040850152620006c8818962000648565b96821660608501525093909316608082015260ff9190911660a090910152509392505050565b80820281158282048414176200071457634e487b7160e01b600052601160045260246000fd5b9291505056fe6101206040523480156200001257600080fd5b50604051620020f0380380620020f083398101604081905262000035916200033e565b82868686848a6001600160a01b031663313ce5676040518163ffffffff1660e01b8152600401602060405180830381865afa15801562000079573d6000803e3d6000fd5b505050506040513d601f19601f820116820180604052508101906200009f9190620003f9565b620000ab91906200041e565b8282826000620000bc8482620004db565b506001620000cb8382620004db565b5060ff81166080524660a052620000e16200015b565b60c0525050506001600160a01b0393841660e05250505081166200011f57604051631e4fbdf760e01b81526000600482015260240160405180910390fd5b6200012a81620001f7565b50506001600160a01b0394851661010052600780546001600160a01b03191691909516179093555062000625915050565b60007f8b73c3c69bb8fe3d512ecc4cf759cc79239f7b179b0ffacaa9a75d522b39400f60006040516200018f9190620005a7565b6040805191829003822060208301939093528101919091527fc89efdaa54c0f20c7adf612882df0950f5a951637e0307cdcb4c672f298b8bc660608201524660808201523060a082015260c00160405160208183030381529060405280519060200120905090565b600680546001600160a01b038381166001600160a01b0319831681179093556040519116919082907f8be0079c531659141344cd1fd0a4f28419497f9722a3daafe3b4186f6b6457e090600090a35050565b6001600160a01b03811681146200025f57600080fd5b50565b634e487b7160e01b600052604160045260246000fd5b600082601f8301126200028a57600080fd5b81516001600160401b0380821115620002a757620002a762000262565b604051601f8301601f19908116603f01168101908282118183101715620002d257620002d262000262565b81604052838152602092508683858801011115620002ef57600080fd5b600091505b83821015620003135785820183015181830184015290820190620002f4565b600093810190920192909252949350505050565b805160ff811681146200033957600080fd5b919050565b60008060008060008060c087890312156200035857600080fd5b8651620003658162000249565b60208801519096506001600160401b03808211156200038357600080fd5b620003918a838b0162000278565b96506040890151915080821115620003a857600080fd5b50620003b789828a0162000278565b9450506060870151620003ca8162000249565b6080880151909350620003dd8162000249565b9150620003ed60a0880162000327565b90509295509295509295565b6000602082840312156200040c57600080fd5b620004178262000327565b9392505050565b60ff81811683821601908111156200044657634e487b7160e01b600052601160045260246000fd5b92915050565b600181811c908216806200046157607f821691505b6020821081036200048257634e487b7160e01b600052602260045260246000fd5b50919050565b601f821115620004d657600081815260208120601f850160051c81016020861015620004b15750805b601f850160051c820191505b81811015620004d257828155600101620004bd565b5050505b505050565b81516001600160401b03811115620004f757620004f762000262565b6200050f816200050884546200044c565b8462000488565b602080601f8311600181146200054757600084156200052e5750858301515b600019600386901b1c1916600185901b178555620004d2565b600085815260208120601f198616915b82811015620005785788860151825594840194600190910190840162000557565b5085821015620005975787850151600019600388901b60f8161c191681555b5050505050600190811b01905550565b6000808354620005b7816200044c565b60018281168015620005d25760018114620005e85762000619565b60ff198416875282151583028701945062000619565b8760005260208060002060005b85811015620006105781548a820152908401908201620005f5565b50505082870194505b50929695505050505050565b60805160a05160c05160e05161010051611a556200069b6000396000818161046f0152818161063201528181610e4001528181610e850152610ebd01526000818161034901528181610a1601528181610ba9015261100a01526000610906015260006108d6015260006103080152611a556000f3fe608060405234801561001057600080fd5b50600436106102695760003560e01c80638da5cb5b11610151578063ba087652116100c3578063d8492e0811610087578063d8492e08146105a2578063d905777e14610398578063dd62ed3e146105b6578063ef8b30f7146105e1578063f2fde38b146105f4578063f63d87c81461060757600080fd5b8063ba08765214610556578063c63d75b614610383578063c6e6f59214610569578063ce96cb771461057c578063d505accf1461058f57600080fd5b80639fd8c129116101155780639fd8c129146104e3578063a42dce80146104f7578063a9059cbb1461050a578063ac4932c91461051d578063b3d7f6b914610530578063b460af941461054357600080fd5b80638da5cb5b1461049157806392dc6100146104a257806394bf804d146104b557806395190275146104c857806395d89b41146104db57600080fd5b8063402d267d116101ea57806370a08231116101ae57806370a08231146103fc578063715018a61461041c5780637709b6ab1461042457806378238c37146104375780637ecebe001461044a57806389c078de1461046a57600080fd5b8063402d267d1461038357806344a6c0fc146103985780634cdad506146103c157806354fe8fb7146103d45780636e553f65146103e957600080fd5b806318160ddd1161023157806318160ddd146102e757806323b872dd146102f0578063313ce567146103035780633644e5151461033c57806338d52e0f1461034457600080fd5b806301e1d1141461026e57806306fdde031461028957806307a2d13a1461029e578063095ea7b3146102b15780630a28a477146102d4575b600080fd5b61027661061a565b6040519081526020015b60405180910390f35b6102916106aa565b60405161028091906116a5565b6102766102ac3660046116f3565b610738565b6102c46102bf366004611728565b610765565b6040519015158152602001610280565b6102766102e23660046116f3565b6107d2565b61027660025481565b6102c46102fe366004611752565b6107f2565b61032a7f000000000000000000000000000000000000000000000000000000000000000081565b60405160ff9091168152602001610280565b6102766108d2565b61036b7f000000000000000000000000000000000000000000000000000000000000000081565b6040516001600160a01b039091168152602001610280565b61027661039136600461178e565b5060001990565b6102766103a636600461178e565b6001600160a01b031660009081526003602052604090205490565b6102766103cf3660046116f3565b610928565b6103e76103e23660046117a9565b610933565b005b6102766103f73660046117e5565b6109b9565b61027661040a36600461178e565b60036020526000908152604090205481565b6103e7610a94565b6103e76104323660046116f3565b610aa8565b6103e761044536600461178e565b610aee565b61027661045836600461178e565b60056020526000908152604090205481565b61036b7f000000000000000000000000000000000000000000000000000000000000000081565b6006546001600160a01b031661036b565b6103e76104b0366004611822565b610b41565b6102766104c33660046117e5565b610b8f565b6103e76104d6366004611822565b610c1e565b610291610c6c565b60065461032a90600160a81b900460ff1681565b6103e761050536600461178e565b610c79565b6102c4610518366004611728565b610ccc565b60075461036b906001600160a01b031681565b61027661053e3660046116f3565b610d32565b6102766105513660046117a9565b610d51565b6102766105643660046117a9565b610eef565b6102766105773660046116f3565b611031565b61027661058a36600461178e565b611051565b6103e761059d36600461183d565b611073565b60065461032a90600160a01b900460ff1681565b6102766105c43660046118a7565b600460209081526000928352604080842090915290825290205481565b6102766105ef3660046116f3565b6112b7565b6103e761060236600461178e565b6112c2565b60085461036b906001600160a01b031681565b6040516370a0823160e01b81523060048201526000907f00000000000000000000000000000000000000000000000000000000000000006001600160a01b0316906370a0823190602401602060405180830381865afa158015610681573d6000803e3d6000fd5b505050506040513d601f19601f820116820180604052508101906106a591906118d1565b905090565b600080546106b7906118ea565b80601f01602080910402602001604051908101604052809291908181526020018280546106e3906118ea565b80156107305780601f1061070557610100808354040283529160200191610730565b820191906000526020600020905b81548152906001019060200180831161071357829003601f168201915b505050505081565b600254600090801561075c5761075761074f61061a565b849083611300565b61075e565b825b9392505050565b3360008181526004602090815260408083206001600160a01b038716808552925280832085905551919290917f8c5be1e5ebec7d5bd14f71427d1e84f3dd0314c0f7b2291e5b200ac8c7c3b925906107c09086815260200190565b60405180910390a35060015b92915050565b600254600090801561075c57610757816107ea61061a565b85919061131e565b6001600160a01b0383166000908152600460209081526040808320338452909152812054600019811461084e57610829838261193a565b6001600160a01b03861660009081526004602090815260408083203384529091529020555b6001600160a01b0385166000908152600360205260408120805485929061087690849061193a565b90915550506001600160a01b0380851660008181526003602052604090819020805487019055519091871690600080516020611a00833981519152906108bf9087815260200190565b60405180910390a3506001949350505050565b60007f00000000000000000000000000000000000000000000000000000000000000004614610903576106a5611344565b507f000000000000000000000000000000000000000000000000000000000000000090565b60006107cc82610738565b828060000361095557604051633549ac7960e01b815260040160405180910390fd5b826001600160a01b03811661097d5760405163634f57cd60e01b815260040160405180910390fd5b826001600160a01b0381166109a55760405163634f57cd60e01b815260040160405180910390fd5b6109b0868686610d51565b50505050505050565b60006109c4836112b7565b905080600003610a095760405162461bcd60e51b815260206004820152600b60248201526a5a45524f5f53484152455360a81b60448201526064015b60405180910390fd5b610a3e6001600160a01b037f0000000000000000000000000000000000000000000000000000000000000000163330866113de565b610a48828261147a565b60408051848152602081018390526001600160a01b0384169133917fdcbc1c05240f31ff3ad067ef1ee35ce4997762752e3a095284754544f4c709d791015b60405180910390a36107cc565b610a9c6114d4565b610aa66000611501565b565b8080600003610aca57604051633549ac7960e01b815260040160405180910390fd5b610ad26114d4565b600754610ae99083906001600160a01b03166109b9565b505050565b806001600160a01b038116610b165760405163634f57cd60e01b815260040160405180910390fd5b610b1e6114d4565b50600780546001600160a01b0319166001600160a01b0392909216919091179055565b8060ff1680600003610b6657604051633549ac7960e01b815260040160405180910390fd5b610b6e6114d4565b506006805460ff909216600160a01b0260ff60a01b19909216919091179055565b6000610b9a83610d32565b9050610bd16001600160a01b037f0000000000000000000000000000000000000000000000000000000000000000163330846113de565b610bdb828461147a565b60408051828152602081018590526001600160a01b0384169133917fdcbc1c05240f31ff3ad067ef1ee35ce4997762752e3a095284754544f4c709d79101610a87565b8060ff1680600003610c4357604051633549ac7960e01b815260040160405180910390fd5b610c4b6114d4565b506006805460ff909216600160a81b0260ff60a81b19909216919091179055565b600180546106b7906118ea565b806001600160a01b038116610ca15760405163634f57cd60e01b815260040160405180910390fd5b610ca96114d4565b50600880546001600160a01b0319166001600160a01b0392909216919091179055565b33600090815260036020526040812080548391908390610ced90849061193a565b90915550506001600160a01b03831660008181526003602052604090819020805485019055513390600080516020611a00833981519152906107c09086815260200190565b600254600090801561075c57610757610d4961061a565b84908361131e565b6000610d5c846107d2565b9050336001600160a01b03831614610dcc576001600160a01b03821660009081526004602090815260408083203384529091529020546000198114610dca57610da5828261193a565b6001600160a01b03841660009081526004602090815260408083203384529091529020555b505b610dd68282611553565b60408051858152602081018390526001600160a01b03808516929086169133917ffbde797d201c681b91056529119e0b02407c7bb96a4a2c75c01fc9667232c8db910160405180910390a46006546001600160a01b03163303610e67576107576001600160a01b037f00000000000000000000000000000000000000000000000000000000000000001684866115b5565b600080610e738661163c565b9092509050610eac6001600160a01b037f00000000000000000000000000000000000000000000000000000000000000001686846115b5565b600854610ee6906001600160a01b037f000000000000000000000000000000000000000000000000000000000000000081169116836115b5565b50509392505050565b6000336001600160a01b03831614610f5f576001600160a01b03821660009081526004602090815260408083203384529091529020546000198114610f5d57610f38858261193a565b6001600160a01b03841660009081526004602090815260408083203384529091529020555b505b610f6884610928565b905080600003610fa85760405162461bcd60e51b815260206004820152600b60248201526a5a45524f5f41535345545360a81b6044820152606401610a00565b610fb28285611553565b60408051828152602081018690526001600160a01b03808516929086169133917ffbde797d201c681b91056529119e0b02407c7bb96a4a2c75c01fc9667232c8db910160405180910390a461075e6001600160a01b037f00000000000000000000000000000000000000000000000000000000000000001684836115b5565b600254600090801561075c576107578161104961061a565b859190611300565b6001600160a01b0381166000908152600360205260408120546107cc90610738565b428410156110c35760405162461bcd60e51b815260206004820152601760248201527f5045524d49545f444541444c494e455f455850495245440000000000000000006044820152606401610a00565b600060016110cf6108d2565b6001600160a01b038a811660008181526005602090815260409182902080546001810190915582517f6e71edae12b1b97f4d1f60370fef10105fa2faae0126114a169c64845d6126c98184015280840194909452938d166060840152608083018c905260a083019390935260c08083018b90528151808403909101815260e08301909152805192019190912061190160f01b6101008301526101028201929092526101228101919091526101420160408051601f198184030181528282528051602091820120600084529083018083525260ff871690820152606081018590526080810184905260a0016020604051602081039080840390855afa1580156111db573d6000803e3d6000fd5b5050604051601f1901519150506001600160a01b038116158015906112115750876001600160a01b0316816001600160a01b0316145b61124e5760405162461bcd60e51b815260206004820152600e60248201526d24a72b20a624a22fa9a4a3a722a960911b6044820152606401610a00565b6001600160a01b0390811660009081526004602090815260408083208a8516808552908352928190208990555188815291928a16917f8c5be1e5ebec7d5bd14f71427d1e84f3dd0314c0f7b2291e5b200ac8c7c3b925910160405180910390a350505050505050565b60006107cc82611031565b6112ca6114d4565b6001600160a01b0381166112f457604051631e4fbdf760e01b815260006004820152602401610a00565b6112fd81611501565b50565b600082600019048411830215820261131757600080fd5b5091020490565b600082600019048411830215820261133557600080fd5b50910281810615159190040190565b60007f8b73c3c69bb8fe3d512ecc4cf759cc79239f7b179b0ffacaa9a75d522b39400f6000604051611376919061194d565b6040805191829003822060208301939093528101919091527fc89efdaa54c0f20c7adf612882df0950f5a951637e0307cdcb4c672f298b8bc660608201524660808201523060a082015260c00160405160208183030381529060405280519060200120905090565b60006040516323b872dd60e01b81526001600160a01b03851660048201526001600160a01b03841660248201528260448201526020600060648360008a5af13d15601f3d11600160005114161716915050806114735760405162461bcd60e51b81526020600482015260146024820152731514905394d1915497d19493d357d1905253115160621b6044820152606401610a00565b5050505050565b806002600082825461148c91906119ec565b90915550506001600160a01b038216600081815260036020908152604080832080548601905551848152600080516020611a0083398151915291015b60405180910390a35050565b6006546001600160a01b03163314610aa65760405163118cdaa760e01b8152336004820152602401610a00565b600680546001600160a01b038381166001600160a01b0319831681179093556040519116919082907f8be0079c531659141344cd1fd0a4f28419497f9722a3daafe3b4186f6b6457e090600090a35050565b6001600160a01b0382166000908152600360205260408120805483929061157b90849061193a565b90915550506002805482900390556040518181526000906001600160a01b03841690600080516020611a00833981519152906020016114c8565b600060405163a9059cbb60e01b81526001600160a01b0384166004820152826024820152602060006044836000895af13d15601f3d11600160005114161716915050806116365760405162461bcd60e51b815260206004820152600f60248201526e1514905394d1915497d19052531151608a1b6044820152606401610a00565b50505050565b600080600061164a84611679565b600654909150611665908290600160a81b900460ff16611690565b9150611671818561193a565b925050915091565b6006546000906107cc908390600160a01b900460ff165b600061075e8383670de0b6b3a764000061131e565b600060208083528351808285015260005b818110156116d2578581018301518582016040015282016116b6565b506000604082860101526040601f19601f8301168501019250505092915050565b60006020828403121561170557600080fd5b5035919050565b80356001600160a01b038116811461172357600080fd5b919050565b6000806040838503121561173b57600080fd5b6117448361170c565b946020939093013593505050565b60008060006060848603121561176757600080fd5b6117708461170c565b925061177e6020850161170c565b9150604084013590509250925092565b6000602082840312156117a057600080fd5b61075e8261170c565b6000806000606084860312156117be57600080fd5b833592506117ce6020850161170c565b91506117dc6040850161170c565b90509250925092565b600080604083850312156117f857600080fd5b823591506118086020840161170c565b90509250929050565b803560ff8116811461172357600080fd5b60006020828403121561183457600080fd5b61075e82611811565b600080600080600080600060e0888a03121561185857600080fd5b6118618861170c565b965061186f6020890161170c565b9550604088013594506060880135935061188b60808901611811565b925060a0880135915060c0880135905092959891949750929550565b600080604083850312156118ba57600080fd5b6118c38361170c565b91506118086020840161170c565b6000602082840312156118e357600080fd5b5051919050565b600181811c908216806118fe57607f821691505b60208210810361191e57634e487b7160e01b600052602260045260246000fd5b50919050565b634e487b7160e01b600052601160045260246000fd5b818103818111156107cc576107cc611924565b600080835481600182811c91508083168061196957607f831692505b6020808410820361198857634e487b7160e01b86526022600452602486fd5b81801561199c57600181146119b1576119de565b60ff19861689528415158502890196506119de565b60008a81526020902060005b868110156119d65781548b8201529085019083016119bd565b505084890196505b509498975050505050505050565b808201808211156107cc576107cc61192456feddf252ad1be2c89b69c2b068fc378daa952ba7f163c4a11628f55a4df523b3efa2646970667358221220d84f1a25d6dc101213668eb63a93f3fd1cdf86abfb5f92df98fc85fe114dcac064736f6c63430008140033608060405234801561001057600080fd5b50604051610f23380380610f2383398101604081905261002f9161011f565b816001600160a01b03811661005e57604051631e4fbdf760e01b81526000600482015260240160405180910390fd5b610067816100b3565b50600180546001600160a01b039687166001600160a01b031991821617909155600380549587169582169590951790945560048054929095169190931617909255600555600655610176565b600080546001600160a01b038381166001600160a01b0319831681178455604051919092169283917f8be0079c531659141344cd1fd0a4f28419497f9722a3daafe3b4186f6b6457e09190a35050565b80516001600160a01b038116811461011a57600080fd5b919050565b600080600080600060a0868803121561013757600080fd5b61014086610103565b945061014e60208701610103565b93506040860151925061016360608701610103565b9150608086015190509295509295909350565b610d9e806101856000396000f3fe608060405234801561001057600080fd5b50600436106101165760003560e01c80638da5cb5b116100a2578063b0ee7c0711610071578063b0ee7c0714610228578063c67367921461023b578063dd134e5d1461024e578063e65b5d3414610261578063f2fde38b1461026a57600080fd5b80638da5cb5b146101e857806392f634ca146101f9578063aab702e11461020c578063ae9cdaea1461021557600080fd5b80635f18023c116100e95780635f18023c14610194578063666cb144146101a75780636eb4aa45146101ba578063715018a6146101cd5780638223cd83146101d557600080fd5b80632cf154251461011b5780633674e6d51461014b5780634ae77e2c146101605780634e4025bf14610181575b600080fd5b60045461012e906001600160a01b031681565b6040516001600160a01b0390911681526020015b60405180910390f35b61015e610159366004610c61565b61027d565b005b61017361016e366004610c8a565b6102d0565b604051908152602001610142565b60015461012e906001600160a01b031681565b60025461012e906001600160a01b031681565b61015e6101b5366004610c61565b6102f4565b60035461012e906001600160a01b031681565b61015e610347565b61015e6101e3366004610ca3565b61035b565b6000546001600160a01b031661012e565b61015e610207366004610c8a565b6109fb565b61017360065481565b61015e610223366004610c61565b610a2b565b61015e610236366004610c61565b610a7e565b610173610249366004610ca3565b610ad1565b61015e61025c366004610cc5565b610af4565b61017360055481565b61015e610278366004610c61565b610b2a565b610285610b6d565b806001600160a01b0381166102ad5760405163038cec5760e11b815260040160405180910390fd5b50600380546001600160a01b0319166001600160a01b0392909216919091179055565b6000806102df83600654610b9a565b90506102ed81600554610b9a565b9392505050565b6102fc610b6d565b806001600160a01b0381166103245760405163038cec5760e11b815260040160405180910390fd5b50600280546001600160a01b0319166001600160a01b0392909216919091179055565b61034f610b6d565b6103596000610bb8565b565b6002546040516370a0823160e01b81523360048201526000916001600160a01b0316906370a0823190602401602060405180830381865afa1580156103a4573d6000803e3d6000fd5b505050506040513d601f19601f820116820180604052508101906103c89190610ce8565b116103e65760405163fac1b1e960e01b815260040160405180910390fd5b81806000036106af57818060000361041157604051631118287160e01b815260040160405180910390fd5b3384156105fb576000610423856102d0565b90506000818711156104bd576104398287610ad1565b600154600480546040516323b872dd60e01b81529394506001600160a01b03928316936323b872dd9361047493899390911691889101610d01565b6020604051808303816000875af1158015610493573d6000803e3d6000fd5b505050506040513d601f19601f820116820180604052508101906104b79190610d25565b50610547565b6104c78787610ad1565b600154600480546040516323b872dd60e01b81529394506001600160a01b03928316936323b872dd93610502938993909116918d9101610d01565b6020604051808303816000875af1158015610521573d6000803e3d6000fd5b505050506040513d601f19601f820116820180604052508101906105459190610d25565b505b600354600480546040516362c2545f60e01b81526001600160a01b03938416936362c2545f9361057e938993921691879101610d01565b600060405180830381600087803b15801561059857600080fd5b505af11580156105ac573d6000803e3d6000fd5b5050505086836001600160a01b03167f19fd2a84be9cac40ddb6cfb1ec91f2a6029a52b1dc1c36ce7692b9869e887db4836040516105ec91815260200190565b60405180910390a350506106a8565b600354600480546040516362c2545f60e01b81526001600160a01b03938416936362c2545f936106329387939216918a9101610d01565b600060405180830381600087803b15801561064c57600080fd5b505af1158015610660573d6000803e3d6000fd5b50505050806001600160a01b03167f4fe994236a3e98229115334c5e849867b7ea226c3ea6a1193ef4b03b854f05108560405161069f91815260200190565b60405180910390a25b505061073b565b6001546040516370a0823160e01b81523360048201526001600160a01b03909116906370a0823190602401602060405180830381865afa1580156106f7573d6000803e3d6000fd5b505050506040513d601f19601f8201168201806040525081019061071b9190610ce8565b81111561073b57604051631f951a5b60e01b815260040160405180910390fd5b818060000361075d57604051631118287160e01b815260040160405180910390fd5b33841561094757600061076f856102d0565b9050600081871115610809576107858287610ad1565b600154600480546040516323b872dd60e01b81529394506001600160a01b03928316936323b872dd936107c093899390911691889101610d01565b6020604051808303816000875af11580156107df573d6000803e3d6000fd5b505050506040513d601f19601f820116820180604052508101906108039190610d25565b50610893565b6108138787610ad1565b600154600480546040516323b872dd60e01b81529394506001600160a01b03928316936323b872dd9361084e938993909116918d9101610d01565b6020604051808303816000875af115801561086d573d6000803e3d6000fd5b505050506040513d601f19601f820116820180604052508101906108919190610d25565b505b600354600480546040516362c2545f60e01b81526001600160a01b03938416936362c2545f936108ca938993921691879101610d01565b600060405180830381600087803b1580156108e457600080fd5b505af11580156108f8573d6000803e3d6000fd5b5050505086836001600160a01b03167f19fd2a84be9cac40ddb6cfb1ec91f2a6029a52b1dc1c36ce7692b9869e887db48360405161093891815260200190565b60405180910390a350506109f4565b600354600480546040516362c2545f60e01b81526001600160a01b03938416936362c2545f9361097e9387939216918a9101610d01565b600060405180830381600087803b15801561099857600080fd5b505af11580156109ac573d6000803e3d6000fd5b50505050806001600160a01b03167f4fe994236a3e98229115334c5e849867b7ea226c3ea6a1193ef4b03b854f0510856040516109eb91815260200190565b60405180910390a25b5050505050565b610a03610b6d565b8080600003610a2557604051631118287160e01b815260040160405180910390fd5b50600555565b610a33610b6d565b806001600160a01b038116610a5b5760405163038cec5760e11b815260040160405180910390fd5b50600480546001600160a01b0319166001600160a01b0392909216919091179055565b610a86610b6d565b806001600160a01b038116610aae5760405163038cec5760e11b815260040160405180910390fd5b50600180546001600160a01b0319166001600160a01b0392909216919091179055565b600080610ae084600554610c08565b9050610aec8184610d47565b949350505050565b610afc610b6d565b8060ff1680600003610b2157604051631118287160e01b815260040160405180910390fd5b5060ff16600655565b610b32610b6d565b6001600160a01b038116610b6157604051631e4fbdf760e01b8152600060048201526024015b60405180910390fd5b610b6a81610bb8565b50565b6000546001600160a01b031633146103595760405163118cdaa760e01b8152336004820152602401610b58565b6000610baf8383670de0b6b3a7640000610c1d565b90505b92915050565b600080546001600160a01b038381166001600160a01b0319831681178455604051919092169283917f8be0079c531659141344cd1fd0a4f28419497f9722a3daafe3b4186f6b6457e09190a35050565b6000610baf83670de0b6b3a764000084610c43565b6000826000190484118302158202610c3457600080fd5b50910281810615159190040190565b6000826000190484118302158202610c5a57600080fd5b5091020490565b600060208284031215610c7357600080fd5b81356001600160a01b03811681146102ed57600080fd5b600060208284031215610c9c57600080fd5b5035919050565b60008060408385031215610cb657600080fd5b50508035926020909101359150565b600060208284031215610cd757600080fd5b813560ff811681146102ed57600080fd5b600060208284031215610cfa57600080fd5b5051919050565b6001600160a01b039384168152919092166020820152604081019190915260600190565b600060208284031215610d3757600080fd5b815180151581146102ed57600080fd5b81810381811115610bb257634e487b7160e01b600052601160045260246000fdfea26469706673582212209a84e1a5fdfc919ffa2865744eff26a541330a595f6428bf62d3230c21efb76164736f6c63430008140033a26469706673582212204f951692962174392a687fd7b2414df767e242ed94d77acc9c5db03922c67c2864736f6c63430008140033",
    "linkReferences": {}
  },
  "methodIdentifiers": {
    "owner()": "8da5cb5b",
    "registerAsPartner(address,string,string,uint8,uint256)": "4fe4142c",
    "renounceOwnership()": "715018a6",
    "s_mainPayment()": "6eb4aa45",
    "s_rPool()": "69e65a13",
    "s_utilsContract()": "bcf96ef4",
    "setMainPayment(address)": "3674e6d5",
    "setRPool(address)": "946a477c",
    "setUtils(address)": "69953501",
    "transferOwnership(address)": "f2fde38b"
  },
  "id": 44
}