{
  "abi": [
    {
      "inputs": [
        {
          "internalType": "address",
          "name": "_mainPayment",
          "type": "address"
        },
        {
          "internalType": "address",
          "name": "_mainAdmin",
          "type": "address"
        },
        {
          "internalType": "address",
          "name": "_utils",
          "type": "address"
        },
        {
          "internalType": "address",
          "name": "_rPool",
          "type": "address"
        },
        {
          "internalType": "address",
          "name": "_ghoPassport",
          "type": "address"
        }
      ],
      "stateMutability": "nonpayable",
      "type": "constructor"
    },
    {
      "inputs": [
        {
          "internalType": "address",
          "name": "owner",
          "type": "address"
        }
      ],
      "name": "OwnableInvalidOwner",
      "type": "error"
    },
    {
      "inputs": [
        {
          "internalType": "address",
          "name": "account",
          "type": "address"
        }
      ],
      "name": "OwnableUnauthorizedAccount",
      "type": "error"
    },
    {
      "anonymous": false,
      "inputs": [
        {
          "indexed": true,
          "internalType": "address",
          "name": "previousOwner",
          "type": "address"
        },
        {
          "indexed": true,
          "internalType": "address",
          "name": "newOwner",
          "type": "address"
        }
      ],
      "name": "OwnershipTransferred",
      "type": "event"
    },
    {
      "anonymous": false,
      "inputs": [
        {
          "indexed": true,
          "internalType": "address",
          "name": "partner",
          "type": "address"
        },
        {
          "indexed": true,
          "internalType": "address",
          "name": "partnerVaultContractAddress",
          "type": "address"
        },
        {
          "indexed": true,
          "internalType": "address",
          "name": "partnerPaymentContractAddress",
          "type": "address"
        }
      ],
      "name": "PartnerContractsDeployer__RegisterAsPartner",
      "type": "event"
    },
    {
      "inputs": [],
      "name": "owner",
      "outputs": [
        {
          "internalType": "address",
          "name": "",
          "type": "address"
        }
      ],
      "stateMutability": "view",
      "type": "function"
    },
    {
      "inputs": [
        {
          "internalType": "address",
          "name": "_ghoToken",
          "type": "address"
        },
        {
          "internalType": "string",
          "name": "_name",
          "type": "string"
        },
        {
          "internalType": "string",
          "name": "_symbol",
          "type": "string"
        },
        {
          "internalType": "uint8",
          "name": "_ratio",
          "type": "uint8"
        },
        {
          "internalType": "uint256",
          "name": "_maxAmtPercentInRp",
          "type": "uint256"
        }
      ],
      "name": "registerAsPartner",
      "outputs": [],
      "stateMutability": "nonpayable",
      "type": "function"
    },
    {
      "inputs": [],
      "name": "renounceOwnership",
      "outputs": [],
      "stateMutability": "nonpayable",
      "type": "function"
    },
    {
      "inputs": [],
      "name": "s_ghoPassport",
      "outputs": [
        {
          "internalType": "address",
          "name": "",
          "type": "address"
        }
      ],
      "stateMutability": "view",
      "type": "function"
    },
    {
      "inputs": [],
      "name": "s_mainAdmin",
      "outputs": [
        {
          "internalType": "address",
          "name": "",
          "type": "address"
        }
      ],
      "stateMutability": "view",
      "type": "function"
    },
    {
      "inputs": [],
      "name": "s_mainPayment",
      "outputs": [
        {
          "internalType": "address",
          "name": "",
          "type": "address"
        }
      ],
      "stateMutability": "view",
      "type": "function"
    },
    {
      "inputs": [],
      "name": "s_rPool",
      "outputs": [
        {
          "internalType": "address",
          "name": "",
          "type": "address"
        }
      ],
      "stateMutability": "view",
      "type": "function"
    },
    {
      "inputs": [],
      "name": "s_utilsContract",
      "outputs": [
        {
          "internalType": "contract Utils",
          "name": "",
          "type": "address"
        }
      ],
      "stateMutability": "view",
      "type": "function"
    },
    {
      "inputs": [
        {
          "internalType": "address",
          "name": "_mainPayment",
          "type": "address"
        }
      ],
      "name": "setMainPayment",
      "outputs": [],
      "stateMutability": "nonpayable",
      "type": "function"
    },
    {
      "inputs": [
        {
          "internalType": "address",
          "name": "_rPool",
          "type": "address"
        }
      ],
      "name": "setRPool",
      "outputs": [],
      "stateMutability": "nonpayable",
      "type": "function"
    },
    {
      "inputs": [
        {
          "internalType": "address",
          "name": "_utils",
          "type": "address"
        }
      ],
      "name": "setUtils",
      "outputs": [],
      "stateMutability": "nonpayable",
      "type": "function"
    },
    {
      "inputs": [
        {
          "internalType": "address",
          "name": "newOwner",
          "type": "address"
        }
      ],
      "name": "transferOwnership",
      "outputs": [],
      "stateMutability": "nonpayable",
      "type": "function"
    }
  ],
  "bytecode": {
    "object": "0x608060405234801561001057600080fd5b5060405161394838038061394883398101604081905261002f91610136565b836001600160a01b03811661005e57604051631e4fbdf760e01b81526000600482015260240160405180910390fd5b610067816100ca565b50600280546001600160a01b03199081166001600160a01b0397881617909155600180548216948716949094179093556003805484169286169290921790915560048054831693851693909317909255600580549091169190921617905561019b565b600080546001600160a01b038381166001600160a01b0319831681178455604051919092169283917f8be0079c531659141344cd1fd0a4f28419497f9722a3daafe3b4186f6b6457e09190a35050565b80516001600160a01b038116811461013157600080fd5b919050565b600080600080600060a0868803121561014e57600080fd5b6101578661011a565b94506101656020870161011a565b93506101736040870161011a565b92506101816060870161011a565b915061018f6080870161011a565b90509295509295909350565b61379e806101aa6000396000f3fe60806040523480156200001157600080fd5b5060043610620000c35760003560e01c8063715018a6116200007a578063715018a614620001675780638da5cb5b1462000171578063946a477c1462000183578063978223d3146200019a578063bcf96ef414620001ae578063f2fde38b14620001c257600080fd5b80633674e6d514620000c85780634fe4142c14620000e15780635f18023c14620000f857806369953501146200012857806369e65a13146200013f5780636eb4aa451462000153575b600080fd5b620000df620000d93660046200052b565b620001d9565b005b620000df620000f2366004620005fb565b62000205565b6005546200010c906001600160a01b031681565b6040516001600160a01b03909116815260200160405180910390f35b620000df620001393660046200052b565b620003bb565b6003546200010c906001600160a01b031681565b6002546200010c906001600160a01b031681565b620000df620003e7565b6000546001600160a01b03166200010c565b620000df620001943660046200052b565b620003ff565b6004546200010c906001600160a01b031681565b6001546200010c906001600160a01b031681565b620000df620001d33660046200052b565b6200042b565b620001e362000473565b600280546001600160a01b0319166001600160a01b0392909216919091179055565b60035460045460405160009288928892889233926001600160a01b039182169291169089906200023590620004f2565b620002479796959493929190620006e2565b604051809103906000f08015801562000264573d6000803e3d6000fd5b50905060006200028060ff8516678ac7230489e8000062000747565b60025460055460405192935060009285926001600160a01b03908116921690879033908790620002b09062000500565b6001600160a01b039687168152948616602086015292851660408501526060840191909152909216608082015260a081019190915260c001604051809103906000f08015801562000305573d6000803e3d6000fd5b506001546040516305f74a3360e01b81523360048201526001600160a01b03808416602483015286811660448301529293509116906305f74a3390606401600060405180830381600087803b1580156200035e57600080fd5b505af115801562000373573d6000803e3d6000fd5b50506040516001600160a01b0380851693508616915033907fbd830a3b8dedfc86577cc4250bcfe31f89048f3e1faa8c2715771b60f2a6cca490600090a45050505050505050565b620003c562000473565b600180546001600160a01b0319166001600160a01b0392909216919091179055565b620003f162000473565b620003fd6000620004a2565b565b6200040962000473565b600380546001600160a01b0319166001600160a01b0392909216919091179055565b6200043562000473565b6001600160a01b0381166200046557604051631e4fbdf760e01b8152600060048201526024015b60405180910390fd5b6200047081620004a2565b50565b6000546001600160a01b03163314620003fd5760405163118cdaa760e01b81523360048201526024016200045c565b600080546001600160a01b038381166001600160a01b0319831681178455604051919092169283917f8be0079c531659141344cd1fd0a4f28419497f9722a3daafe3b4186f6b6457e09190a35050565b6120b5806200077483390190565b610f40806200282983390190565b80356001600160a01b03811681146200052657600080fd5b919050565b6000602082840312156200053e57600080fd5b62000549826200050e565b9392505050565b634e487b7160e01b600052604160045260246000fd5b600082601f8301126200057857600080fd5b813567ffffffffffffffff8082111562000596576200059662000550565b604051601f8301601f19908116603f01168101908282118183101715620005c157620005c162000550565b81604052838152866020858801011115620005db57600080fd5b836020870160208301376000602085830101528094505050505092915050565b600080600080600060a086880312156200061457600080fd5b6200061f866200050e565b9450602086013567ffffffffffffffff808211156200063d57600080fd5b6200064b89838a0162000566565b955060408801359150808211156200066257600080fd5b50620006718882890162000566565b935050606086013560ff811681146200068957600080fd5b949793965091946080013592915050565b6000815180845260005b81811015620006c257602081850181015186830182015201620006a4565b506000602082860101526020601f19601f83011685010191505092915050565b600060018060a01b03808a16835260e060208401526200070660e084018a6200069a565b83810360408501526200071a818a6200069a565b9782166060850152509485166080830152509190921660a082015260ff90911660c0909101529392505050565b80820281158282048414176200076d57634e487b7160e01b600052601160045260246000fd5b9291505056fe6101206040523480156200001257600080fd5b50604051620020b5380380620020b583398101604081905262000035916200034c565b83878787848b6001600160a01b031663313ce5676040518163ffffffff1660e01b8152600401602060405180830381865afa15801562000079573d6000803e3d6000fd5b505050506040513d601f19601f820116820180604052508101906200009f91906200041e565b620000ab919062000443565b8282826000620000bc848262000500565b506001620000cb838262000500565b5060ff81166080524660a052620000e162000169565b60c0525050506001600160a01b0393841660e05250505081166200011f57604051631e4fbdf760e01b81526000600482015260240160405180910390fd5b6200012a8162000205565b50506001600160a01b0395861661010052600980549287166001600160a01b0319938416179055600a805491909616911617909355506200064a915050565b60007f8b73c3c69bb8fe3d512ecc4cf759cc79239f7b179b0ffacaa9a75d522b39400f60006040516200019d9190620005cc565b6040805191829003822060208301939093528101919091527fc89efdaa54c0f20c7adf612882df0950f5a951637e0307cdcb4c672f298b8bc660608201524660808201523060a082015260c00160405160208183030381529060405280519060200120905090565b600680546001600160a01b038381166001600160a01b0319831681179093556040519116919082907f8be0079c531659141344cd1fd0a4f28419497f9722a3daafe3b4186f6b6457e090600090a35050565b6001600160a01b03811681146200026d57600080fd5b50565b634e487b7160e01b600052604160045260246000fd5b600082601f8301126200029857600080fd5b81516001600160401b0380821115620002b557620002b562000270565b604051601f8301601f19908116603f01168101908282118183101715620002e057620002e062000270565b81604052838152602092508683858801011115620002fd57600080fd5b600091505b8382101562000321578582018301518183018401529082019062000302565b600093810190920192909252949350505050565b805160ff811681146200034757600080fd5b919050565b600080600080600080600060e0888a0312156200036857600080fd5b8751620003758162000257565b60208901519097506001600160401b03808211156200039357600080fd5b620003a18b838c0162000286565b975060408a0151915080821115620003b857600080fd5b50620003c78a828b0162000286565b9550506060880151620003da8162000257565b6080890151909450620003ed8162000257565b60a0890151909350620004008162000257565b91506200041060c0890162000335565b905092959891949750929550565b6000602082840312156200043157600080fd5b6200043c8262000335565b9392505050565b60ff81811683821601908111156200046b57634e487b7160e01b600052601160045260246000fd5b92915050565b600181811c908216806200048657607f821691505b602082108103620004a757634e487b7160e01b600052602260045260246000fd5b50919050565b601f821115620004fb57600081815260208120601f850160051c81016020861015620004d65750805b601f850160051c820191505b81811015620004f757828155600101620004e2565b5050505b505050565b81516001600160401b038111156200051c576200051c62000270565b62000534816200052d845462000471565b84620004ad565b602080601f8311600181146200056c5760008415620005535750858301515b600019600386901b1c1916600185901b178555620004f7565b600085815260208120601f198616915b828110156200059d578886015182559484019460019091019084016200057c565b5085821015620005bc5787850151600019600388901b60f8161c191681555b5050505050600190811b01905550565b6000808354620005dc8162000471565b60018281168015620005f757600181146200060d576200063e565b60ff19841687528215158302870194506200063e565b8760005260208060002060005b85811015620006355781548a8201529084019082016200061a565b50505082870194505b50929695505050505050565b60805160a05160c05160e051610100516119f5620006c06000396000818161046f0152818161061c01528181610dfa01528181610e3f0152610e7701526000818161034901528181610a0001528181610b7b0152610fc4015260006108f0015260006108c00152600061030801526119f56000f3fe608060405234801561001057600080fd5b50600436106102695760003560e01c80638da5cb5b11610151578063ba087652116100c3578063d8492e0811610087578063d8492e0814610597578063d905777e14610398578063dd62ed3e146105a0578063ef8b30f7146105cb578063f2fde38b146105de578063f63d87c8146105f157600080fd5b8063ba0876521461054b578063c63d75b614610383578063c6e6f5921461055e578063ce96cb7714610571578063d505accf1461058457600080fd5b80639fd8c129116101155780639fd8c129146104e3578063a42dce80146104ec578063a9059cbb146104ff578063ac4932c914610512578063b3d7f6b914610525578063b460af941461053857600080fd5b80638da5cb5b1461049157806392dc6100146104a257806394bf804d146104b557806395190275146104c857806395d89b41146104db57600080fd5b8063402d267d116101ea57806370a08231116101ae57806370a08231146103fc578063715018a61461041c5780637709b6ab1461042457806378238c37146104375780637ecebe001461044a57806389c078de1461046a57600080fd5b8063402d267d1461038357806344a6c0fc146103985780634cdad506146103c157806354fe8fb7146103d45780636e553f65146103e957600080fd5b806318160ddd1161023157806318160ddd146102e757806323b872dd146102f0578063313ce567146103035780633644e5151461033c57806338d52e0f1461034457600080fd5b806301e1d1141461026e57806306fdde031461028957806307a2d13a1461029e578063095ea7b3146102b15780630a28a477146102d4575b600080fd5b610276610604565b6040519081526020015b60405180910390f35b610291610694565b6040516102809190611645565b6102766102ac366004611693565b610722565b6102c46102bf3660046116c8565b61074f565b6040519015158152602001610280565b6102766102e2366004611693565b6107bc565b61027660025481565b6102c46102fe3660046116f2565b6107dc565b61032a7f000000000000000000000000000000000000000000000000000000000000000081565b60405160ff9091168152602001610280565b6102766108bc565b61036b7f000000000000000000000000000000000000000000000000000000000000000081565b6040516001600160a01b039091168152602001610280565b61027661039136600461172e565b5060001990565b6102766103a636600461172e565b6001600160a01b031660009081526003602052604090205490565b6102766103cf366004611693565b610912565b6103e76103e2366004611749565b61091d565b005b6102766103f7366004611785565b6109a3565b61027661040a36600461172e565b60036020526000908152604090205481565b6103e7610a7e565b6103e7610432366004611693565b610a92565b6103e761044536600461172e565b610ad8565b61027661045836600461172e565b60056020526000908152604090205481565b61036b7f000000000000000000000000000000000000000000000000000000000000000081565b6006546001600160a01b031661036b565b6103e76104b03660046117c2565b610b2b565b6102766104c3366004611785565b610b61565b6103e76104d63660046117c2565b610bf0565b610291610c26565b61027660085481565b6103e76104fa36600461172e565b610c33565b6102c461050d3660046116c8565b610c86565b60095461036b906001600160a01b031681565b610276610533366004611693565b610cec565b610276610546366004611749565b610d0b565b610276610559366004611749565b610ea9565b61027661056c366004611693565b610feb565b61027661057f36600461172e565b61100b565b6103e76105923660046117dd565b61102d565b61027660075481565b6102766105ae366004611847565b600460209081526000928352604080842090915290825290205481565b6102766105d9366004611693565b611271565b6103e76105ec36600461172e565b61127c565b600a5461036b906001600160a01b031681565b6040516370a0823160e01b81523060048201526000907f00000000000000000000000000000000000000000000000000000000000000006001600160a01b0316906370a0823190602401602060405180830381865afa15801561066b573d6000803e3d6000fd5b505050506040513d601f19601f8201168201806040525081019061068f9190611871565b905090565b600080546106a19061188a565b80601f01602080910402602001604051908101604052809291908181526020018280546106cd9061188a565b801561071a5780601f106106ef5761010080835404028352916020019161071a565b820191906000526020600020905b8154815290600101906020018083116106fd57829003601f168201915b505050505081565b600254600090801561074657610741610739610604565b8490836112ba565b610748565b825b9392505050565b3360008181526004602090815260408083206001600160a01b038716808552925280832085905551919290917f8c5be1e5ebec7d5bd14f71427d1e84f3dd0314c0f7b2291e5b200ac8c7c3b925906107aa9086815260200190565b60405180910390a35060015b92915050565b600254600090801561074657610741816107d4610604565b8591906112d8565b6001600160a01b038316600090815260046020908152604080832033845290915281205460001981146108385761081383826118da565b6001600160a01b03861660009081526004602090815260408083203384529091529020555b6001600160a01b038516600090815260036020526040812080548592906108609084906118da565b90915550506001600160a01b03808516600081815260036020526040908190208054870190555190918716906000805160206119a0833981519152906108a99087815260200190565b60405180910390a3506001949350505050565b60007f000000000000000000000000000000000000000000000000000000000000000046146108ed5761068f6112fe565b507f000000000000000000000000000000000000000000000000000000000000000090565b60006107b682610722565b828060000361093f57604051633549ac7960e01b815260040160405180910390fd5b826001600160a01b0381166109675760405163634f57cd60e01b815260040160405180910390fd5b826001600160a01b03811661098f5760405163634f57cd60e01b815260040160405180910390fd5b61099a868686610d0b565b50505050505050565b60006109ae83611271565b9050806000036109f35760405162461bcd60e51b815260206004820152600b60248201526a5a45524f5f53484152455360a81b60448201526064015b60405180910390fd5b610a286001600160a01b037f000000000000000000000000000000000000000000000000000000000000000016333086611398565b610a328282611434565b60408051848152602081018390526001600160a01b0384169133917fdcbc1c05240f31ff3ad067ef1ee35ce4997762752e3a095284754544f4c709d791015b60405180910390a36107b6565b610a8661148e565b610a9060006114bb565b565b8080600003610ab457604051633549ac7960e01b815260040160405180910390fd5b610abc61148e565b600954610ad39083906001600160a01b03166109a3565b505050565b806001600160a01b038116610b005760405163634f57cd60e01b815260040160405180910390fd5b610b0861148e565b50600980546001600160a01b0319166001600160a01b0392909216919091179055565b8060ff1680600003610b5057604051633549ac7960e01b815260040160405180910390fd5b610b5861148e565b5060ff16600755565b6000610b6c83610cec565b9050610ba36001600160a01b037f000000000000000000000000000000000000000000000000000000000000000016333084611398565b610bad8284611434565b60408051828152602081018590526001600160a01b0384169133917fdcbc1c05240f31ff3ad067ef1ee35ce4997762752e3a095284754544f4c709d79101610a71565b8060ff1680600003610c1557604051633549ac7960e01b815260040160405180910390fd5b610c1d61148e565b5060ff16600855565b600180546106a19061188a565b806001600160a01b038116610c5b5760405163634f57cd60e01b815260040160405180910390fd5b610c6361148e565b50600a80546001600160a01b0319166001600160a01b0392909216919091179055565b33600090815260036020526040812080548391908390610ca79084906118da565b90915550506001600160a01b038316600081815260036020526040908190208054850190555133906000805160206119a0833981519152906107aa9086815260200190565b600254600090801561074657610741610d03610604565b8490836112d8565b6000610d16846107bc565b9050336001600160a01b03831614610d86576001600160a01b03821660009081526004602090815260408083203384529091529020546000198114610d8457610d5f82826118da565b6001600160a01b03841660009081526004602090815260408083203384529091529020555b505b610d90828261150d565b60408051858152602081018390526001600160a01b03808516929086169133917ffbde797d201c681b91056529119e0b02407c7bb96a4a2c75c01fc9667232c8db910160405180910390a46006546001600160a01b03163303610e21576107416001600160a01b037f000000000000000000000000000000000000000000000000000000000000000016848661156f565b600080610e2d866115f6565b9092509050610e666001600160a01b037f000000000000000000000000000000000000000000000000000000000000000016868461156f565b600a54610ea0906001600160a01b037f0000000000000000000000000000000000000000000000000000000000000000811691168361156f565b50509392505050565b6000336001600160a01b03831614610f19576001600160a01b03821660009081526004602090815260408083203384529091529020546000198114610f1757610ef285826118da565b6001600160a01b03841660009081526004602090815260408083203384529091529020555b505b610f2284610912565b905080600003610f625760405162461bcd60e51b815260206004820152600b60248201526a5a45524f5f41535345545360a81b60448201526064016109ea565b610f6c828561150d565b60408051828152602081018690526001600160a01b03808516929086169133917ffbde797d201c681b91056529119e0b02407c7bb96a4a2c75c01fc9667232c8db910160405180910390a46107486001600160a01b037f000000000000000000000000000000000000000000000000000000000000000016848361156f565b60025460009080156107465761074181611003610604565b8591906112ba565b6001600160a01b0381166000908152600360205260408120546107b690610722565b4284101561107d5760405162461bcd60e51b815260206004820152601760248201527f5045524d49545f444541444c494e455f4558504952454400000000000000000060448201526064016109ea565b600060016110896108bc565b6001600160a01b038a811660008181526005602090815260409182902080546001810190915582517f6e71edae12b1b97f4d1f60370fef10105fa2faae0126114a169c64845d6126c98184015280840194909452938d166060840152608083018c905260a083019390935260c08083018b90528151808403909101815260e08301909152805192019190912061190160f01b6101008301526101028201929092526101228101919091526101420160408051601f198184030181528282528051602091820120600084529083018083525260ff871690820152606081018590526080810184905260a0016020604051602081039080840390855afa158015611195573d6000803e3d6000fd5b5050604051601f1901519150506001600160a01b038116158015906111cb5750876001600160a01b0316816001600160a01b0316145b6112085760405162461bcd60e51b815260206004820152600e60248201526d24a72b20a624a22fa9a4a3a722a960911b60448201526064016109ea565b6001600160a01b0390811660009081526004602090815260408083208a8516808552908352928190208990555188815291928a16917f8c5be1e5ebec7d5bd14f71427d1e84f3dd0314c0f7b2291e5b200ac8c7c3b925910160405180910390a350505050505050565b60006107b682610feb565b61128461148e565b6001600160a01b0381166112ae57604051631e4fbdf760e01b8152600060048201526024016109ea565b6112b7816114bb565b50565b60008260001904841183021582026112d157600080fd5b5091020490565b60008260001904841183021582026112ef57600080fd5b50910281810615159190040190565b60007f8b73c3c69bb8fe3d512ecc4cf759cc79239f7b179b0ffacaa9a75d522b39400f600060405161133091906118ed565b6040805191829003822060208301939093528101919091527fc89efdaa54c0f20c7adf612882df0950f5a951637e0307cdcb4c672f298b8bc660608201524660808201523060a082015260c00160405160208183030381529060405280519060200120905090565b60006040516323b872dd60e01b81526001600160a01b03851660048201526001600160a01b03841660248201528260448201526020600060648360008a5af13d15601f3d116001600051141617169150508061142d5760405162461bcd60e51b81526020600482015260146024820152731514905394d1915497d19493d357d1905253115160621b60448201526064016109ea565b5050505050565b8060026000828254611446919061198c565b90915550506001600160a01b0382166000818152600360209081526040808320805486019055518481526000805160206119a083398151915291015b60405180910390a35050565b6006546001600160a01b03163314610a905760405163118cdaa760e01b81523360048201526024016109ea565b600680546001600160a01b038381166001600160a01b0319831681179093556040519116919082907f8be0079c531659141344cd1fd0a4f28419497f9722a3daafe3b4186f6b6457e090600090a35050565b6001600160a01b038216600090815260036020526040812080548392906115359084906118da565b90915550506002805482900390556040518181526000906001600160a01b038416906000805160206119a083398151915290602001611482565b600060405163a9059cbb60e01b81526001600160a01b0384166004820152826024820152602060006044836000895af13d15601f3d11600160005114161716915050806115f05760405162461bcd60e51b815260206004820152600f60248201526e1514905394d1915497d19052531151608a1b60448201526064016109ea565b50505050565b600080600061160484611626565b905061161281600854611630565b915061161e81856118da565b925050915091565b60006107b6826007545b60006107488383670de0b6b3a76400006112d8565b600060208083528351808285015260005b8181101561167257858101830151858201604001528201611656565b506000604082860101526040601f19601f8301168501019250505092915050565b6000602082840312156116a557600080fd5b5035919050565b80356001600160a01b03811681146116c357600080fd5b919050565b600080604083850312156116db57600080fd5b6116e4836116ac565b946020939093013593505050565b60008060006060848603121561170757600080fd5b611710846116ac565b925061171e602085016116ac565b9150604084013590509250925092565b60006020828403121561174057600080fd5b610748826116ac565b60008060006060848603121561175e57600080fd5b8335925061176e602085016116ac565b915061177c604085016116ac565b90509250925092565b6000806040838503121561179857600080fd5b823591506117a8602084016116ac565b90509250929050565b803560ff811681146116c357600080fd5b6000602082840312156117d457600080fd5b610748826117b1565b600080600080600080600060e0888a0312156117f857600080fd5b611801886116ac565b965061180f602089016116ac565b9550604088013594506060880135935061182b608089016117b1565b925060a0880135915060c0880135905092959891949750929550565b6000806040838503121561185a57600080fd5b611863836116ac565b91506117a8602084016116ac565b60006020828403121561188357600080fd5b5051919050565b600181811c9082168061189e57607f821691505b6020821081036118be57634e487b7160e01b600052602260045260246000fd5b50919050565b634e487b7160e01b600052601160045260246000fd5b818103818111156107b6576107b66118c4565b600080835481600182811c91508083168061190957607f831692505b6020808410820361192857634e487b7160e01b86526022600452602486fd5b81801561193c57600181146119515761197e565b60ff198616895284151585028901965061197e565b60008a81526020902060005b868110156119765781548b82015290850190830161195d565b505084890196505b509498975050505050505050565b808201808211156107b6576107b66118c456feddf252ad1be2c89b69c2b068fc378daa952ba7f163c4a11628f55a4df523b3efa2646970667358221220996635c022ed524c5d48cb5d8a87c6f8dce452aea3fb98ffb5905d87b903966564736f6c63430008140033608060405234801561001057600080fd5b50604051610f40380380610f4083398101604081905261002f9161012d565b816001600160a01b03811661005e57604051631e4fbdf760e01b81526000600482015260240160405180910390fd5b610067816100c1565b50600180546001600160a01b039788166001600160a01b0319918216179091556003805496881696821696909617909555600480549287169286169290921790915560055560065560028054919093169116179055610193565b600080546001600160a01b038381166001600160a01b0319831681178455604051919092169283917f8be0079c531659141344cd1fd0a4f28419497f9722a3daafe3b4186f6b6457e09190a35050565b80516001600160a01b038116811461012857600080fd5b919050565b60008060008060008060c0878903121561014657600080fd5b61014f87610111565b955061015d60208801610111565b945061016b60408801610111565b93506060870151925061018060808801610111565b915060a087015190509295509295509295565b610d9e806101a26000396000f3fe608060405234801561001057600080fd5b50600436106101165760003560e01c80638da5cb5b116100a2578063b0ee7c0711610071578063b0ee7c0714610228578063c67367921461023b578063dd134e5d1461024e578063e65b5d3414610261578063f2fde38b1461026a57600080fd5b80638da5cb5b146101e857806392f634ca146101f9578063aab702e11461020c578063ae9cdaea1461021557600080fd5b80635f18023c116100e95780635f18023c14610194578063666cb144146101a75780636eb4aa45146101ba578063715018a6146101cd5780638223cd83146101d557600080fd5b80632cf154251461011b5780633674e6d51461014b5780634ae77e2c146101605780634e4025bf14610181575b600080fd5b60045461012e906001600160a01b031681565b6040516001600160a01b0390911681526020015b60405180910390f35b61015e610159366004610c61565b61027d565b005b61017361016e366004610c8a565b6102d0565b604051908152602001610142565b60015461012e906001600160a01b031681565b60025461012e906001600160a01b031681565b61015e6101b5366004610c61565b6102f4565b60035461012e906001600160a01b031681565b61015e610347565b61015e6101e3366004610ca3565b61035b565b6000546001600160a01b031661012e565b61015e610207366004610c8a565b6109fb565b61017360065481565b61015e610223366004610c61565b610a2b565b61015e610236366004610c61565b610a7e565b610173610249366004610ca3565b610ad1565b61015e61025c366004610cc5565b610af4565b61017360055481565b61015e610278366004610c61565b610b2a565b610285610b6d565b806001600160a01b0381166102ad5760405163038cec5760e11b815260040160405180910390fd5b50600380546001600160a01b0319166001600160a01b0392909216919091179055565b6000806102df83600654610b9a565b90506102ed81600554610b9a565b9392505050565b6102fc610b6d565b806001600160a01b0381166103245760405163038cec5760e11b815260040160405180910390fd5b50600280546001600160a01b0319166001600160a01b0392909216919091179055565b61034f610b6d565b6103596000610bb8565b565b6002546040516370a0823160e01b81523360048201526000916001600160a01b0316906370a0823190602401602060405180830381865afa1580156103a4573d6000803e3d6000fd5b505050506040513d601f19601f820116820180604052508101906103c89190610ce8565b116103e65760405163fac1b1e960e01b815260040160405180910390fd5b81806000036106af57818060000361041157604051631118287160e01b815260040160405180910390fd5b3384156105fb576000610423856102d0565b90506000818711156104bd576104398287610ad1565b600154600480546040516323b872dd60e01b81529394506001600160a01b03928316936323b872dd9361047493899390911691889101610d01565b6020604051808303816000875af1158015610493573d6000803e3d6000fd5b505050506040513d601f19601f820116820180604052508101906104b79190610d25565b50610547565b6104c78787610ad1565b600154600480546040516323b872dd60e01b81529394506001600160a01b03928316936323b872dd93610502938993909116918d9101610d01565b6020604051808303816000875af1158015610521573d6000803e3d6000fd5b505050506040513d601f19601f820116820180604052508101906105459190610d25565b505b600354600480546040516362c2545f60e01b81526001600160a01b03938416936362c2545f9361057e938993921691879101610d01565b600060405180830381600087803b15801561059857600080fd5b505af11580156105ac573d6000803e3d6000fd5b5050505086836001600160a01b03167f19fd2a84be9cac40ddb6cfb1ec91f2a6029a52b1dc1c36ce7692b9869e887db4836040516105ec91815260200190565b60405180910390a350506106a8565b600354600480546040516362c2545f60e01b81526001600160a01b03938416936362c2545f936106329387939216918a9101610d01565b600060405180830381600087803b15801561064c57600080fd5b505af1158015610660573d6000803e3d6000fd5b50505050806001600160a01b03167f4fe994236a3e98229115334c5e849867b7ea226c3ea6a1193ef4b03b854f05108560405161069f91815260200190565b60405180910390a25b505061073b565b6001546040516370a0823160e01b81523360048201526001600160a01b03909116906370a0823190602401602060405180830381865afa1580156106f7573d6000803e3d6000fd5b505050506040513d601f19601f8201168201806040525081019061071b9190610ce8565b81111561073b57604051631f951a5b60e01b815260040160405180910390fd5b818060000361075d57604051631118287160e01b815260040160405180910390fd5b33841561094757600061076f856102d0565b9050600081871115610809576107858287610ad1565b600154600480546040516323b872dd60e01b81529394506001600160a01b03928316936323b872dd936107c093899390911691889101610d01565b6020604051808303816000875af11580156107df573d6000803e3d6000fd5b505050506040513d601f19601f820116820180604052508101906108039190610d25565b50610893565b6108138787610ad1565b600154600480546040516323b872dd60e01b81529394506001600160a01b03928316936323b872dd9361084e938993909116918d9101610d01565b6020604051808303816000875af115801561086d573d6000803e3d6000fd5b505050506040513d601f19601f820116820180604052508101906108919190610d25565b505b600354600480546040516362c2545f60e01b81526001600160a01b03938416936362c2545f936108ca938993921691879101610d01565b600060405180830381600087803b1580156108e457600080fd5b505af11580156108f8573d6000803e3d6000fd5b5050505086836001600160a01b03167f19fd2a84be9cac40ddb6cfb1ec91f2a6029a52b1dc1c36ce7692b9869e887db48360405161093891815260200190565b60405180910390a350506109f4565b600354600480546040516362c2545f60e01b81526001600160a01b03938416936362c2545f9361097e9387939216918a9101610d01565b600060405180830381600087803b15801561099857600080fd5b505af11580156109ac573d6000803e3d6000fd5b50505050806001600160a01b03167f4fe994236a3e98229115334c5e849867b7ea226c3ea6a1193ef4b03b854f0510856040516109eb91815260200190565b60405180910390a25b5050505050565b610a03610b6d565b8080600003610a2557604051631118287160e01b815260040160405180910390fd5b50600555565b610a33610b6d565b806001600160a01b038116610a5b5760405163038cec5760e11b815260040160405180910390fd5b50600480546001600160a01b0319166001600160a01b0392909216919091179055565b610a86610b6d565b806001600160a01b038116610aae5760405163038cec5760e11b815260040160405180910390fd5b50600180546001600160a01b0319166001600160a01b0392909216919091179055565b600080610ae084600554610c08565b9050610aec8184610d47565b949350505050565b610afc610b6d565b8060ff1680600003610b2157604051631118287160e01b815260040160405180910390fd5b5060ff16600655565b610b32610b6d565b6001600160a01b038116610b6157604051631e4fbdf760e01b8152600060048201526024015b60405180910390fd5b610b6a81610bb8565b50565b6000546001600160a01b031633146103595760405163118cdaa760e01b8152336004820152602401610b58565b6000610baf8383670de0b6b3a7640000610c1d565b90505b92915050565b600080546001600160a01b038381166001600160a01b0319831681178455604051919092169283917f8be0079c531659141344cd1fd0a4f28419497f9722a3daafe3b4186f6b6457e09190a35050565b6000610baf83670de0b6b3a764000084610c43565b6000826000190484118302158202610c3457600080fd5b50910281810615159190040190565b6000826000190484118302158202610c5a57600080fd5b5091020490565b600060208284031215610c7357600080fd5b81356001600160a01b03811681146102ed57600080fd5b600060208284031215610c9c57600080fd5b5035919050565b60008060408385031215610cb657600080fd5b50508035926020909101359150565b600060208284031215610cd757600080fd5b813560ff811681146102ed57600080fd5b600060208284031215610cfa57600080fd5b5051919050565b6001600160a01b039384168152919092166020820152604081019190915260600190565b600060208284031215610d3757600080fd5b815180151581146102ed57600080fd5b81810381811115610bb257634e487b7160e01b600052601160045260246000fdfea26469706673582212207adc918d1ba71dc5be3a7eea3c56bcb287ff885c1510f3339cf08753a0abbeb264736f6c63430008140033a26469706673582212208d1a7c8157875f26d2454f802a29d2dc6cafb3733e1325fa0553ef917c1a184964736f6c63430008140033",
    "linkReferences": {}
  },
  "methodIdentifiers": {
    "owner()": "8da5cb5b",
    "registerAsPartner(address,string,string,uint8,uint256)": "4fe4142c",
    "renounceOwnership()": "715018a6",
    "s_ghoPassport()": "5f18023c",
    "s_mainAdmin()": "978223d3",
    "s_mainPayment()": "6eb4aa45",
    "s_rPool()": "69e65a13",
    "s_utilsContract()": "bcf96ef4",
    "setMainPayment(address)": "3674e6d5",
    "setRPool(address)": "946a477c",
    "setUtils(address)": "69953501",
    "transferOwnership(address)": "f2fde38b"
  },
  "id": 44
}