{
  "abi": [
    {
      "inputs": [
        {
          "internalType": "contract ERC20",
          "name": "_ghoToken",
          "type": "address"
        },
        {
          "internalType": "string",
          "name": "_name",
          "type": "string"
        },
        {
          "internalType": "string",
          "name": "_symbol",
          "type": "string"
        },
        {
          "internalType": "address",
          "name": "_partnerAddress",
          "type": "address"
        },
        {
          "internalType": "address",
          "name": "_rewardPool",
          "type": "address"
        },
        {
          "internalType": "address",
          "name": "_mainAdminFeeCollector",
          "type": "address"
        },
        {
          "internalType": "uint8",
          "name": "ratio",
          "type": "uint8"
        }
      ],
      "stateMutability": "nonpayable",
      "type": "constructor"
    },
    {
      "inputs": [
        {
          "internalType": "address",
          "name": "owner",
          "type": "address"
        }
      ],
      "name": "OwnableInvalidOwner",
      "type": "error"
    },
    {
      "inputs": [
        {
          "internalType": "address",
          "name": "account",
          "type": "address"
        }
      ],
      "name": "OwnableUnauthorizedAccount",
      "type": "error"
    },
    {
      "inputs": [],
      "name": "PartnerVault__ZeroAddress",
      "type": "error"
    },
    {
      "inputs": [],
      "name": "PartnerVault__ZeroAmount",
      "type": "error"
    },
    {
      "anonymous": false,
      "inputs": [
        {
          "indexed": true,
          "internalType": "address",
          "name": "owner",
          "type": "address"
        },
        {
          "indexed": true,
          "internalType": "address",
          "name": "spender",
          "type": "address"
        },
        {
          "indexed": false,
          "internalType": "uint256",
          "name": "amount",
          "type": "uint256"
        }
      ],
      "name": "Approval",
      "type": "event"
    },
    {
      "anonymous": false,
      "inputs": [
        {
          "indexed": true,
          "internalType": "address",
          "name": "caller",
          "type": "address"
        },
        {
          "indexed": true,
          "internalType": "address",
          "name": "owner",
          "type": "address"
        },
        {
          "indexed": false,
          "internalType": "uint256",
          "name": "assets",
          "type": "uint256"
        },
        {
          "indexed": false,
          "internalType": "uint256",
          "name": "shares",
          "type": "uint256"
        }
      ],
      "name": "Deposit",
      "type": "event"
    },
    {
      "anonymous": false,
      "inputs": [
        {
          "indexed": true,
          "internalType": "address",
          "name": "previousOwner",
          "type": "address"
        },
        {
          "indexed": true,
          "internalType": "address",
          "name": "newOwner",
          "type": "address"
        }
      ],
      "name": "OwnershipTransferred",
      "type": "event"
    },
    {
      "anonymous": false,
      "inputs": [
        {
          "indexed": false,
          "internalType": "address",
          "name": "feeCollector",
          "type": "address"
        }
      ],
      "name": "PartnerVault__FeeCollectorSet",
      "type": "event"
    },
    {
      "anonymous": false,
      "inputs": [
        {
          "indexed": false,
          "internalType": "uint256",
          "name": "amount",
          "type": "uint256"
        }
      ],
      "name": "PartnerVault__GHODeposited",
      "type": "event"
    },
    {
      "anonymous": false,
      "inputs": [
        {
          "indexed": true,
          "internalType": "uint256",
          "name": "amount",
          "type": "uint256"
        },
        {
          "indexed": true,
          "internalType": "address",
          "name": "receiver",
          "type": "address"
        },
        {
          "indexed": true,
          "internalType": "address",
          "name": "owner",
          "type": "address"
        }
      ],
      "name": "PartnerVault__GHOWithdrawn",
      "type": "event"
    },
    {
      "anonymous": false,
      "inputs": [
        {
          "indexed": false,
          "internalType": "uint256",
          "name": "partnerFee",
          "type": "uint256"
        }
      ],
      "name": "PartnerVault__PartnerFeeSet",
      "type": "event"
    },
    {
      "anonymous": false,
      "inputs": [
        {
          "indexed": false,
          "internalType": "address",
          "name": "rewardPool",
          "type": "address"
        }
      ],
      "name": "PartnerVault__RewardPoolSet",
      "type": "event"
    },
    {
      "anonymous": false,
      "inputs": [
        {
          "indexed": false,
          "internalType": "uint256",
          "name": "withdrawalFee",
          "type": "uint256"
        }
      ],
      "name": "PartnerVault__WithdrawalFeeSet",
      "type": "event"
    },
    {
      "anonymous": false,
      "inputs": [
        {
          "indexed": true,
          "internalType": "address",
          "name": "from",
          "type": "address"
        },
        {
          "indexed": true,
          "internalType": "address",
          "name": "to",
          "type": "address"
        },
        {
          "indexed": false,
          "internalType": "uint256",
          "name": "amount",
          "type": "uint256"
        }
      ],
      "name": "Transfer",
      "type": "event"
    },
    {
      "anonymous": false,
      "inputs": [
        {
          "indexed": true,
          "internalType": "address",
          "name": "caller",
          "type": "address"
        },
        {
          "indexed": true,
          "internalType": "address",
          "name": "receiver",
          "type": "address"
        },
        {
          "indexed": true,
          "internalType": "address",
          "name": "owner",
          "type": "address"
        },
        {
          "indexed": false,
          "internalType": "uint256",
          "name": "assets",
          "type": "uint256"
        },
        {
          "indexed": false,
          "internalType": "uint256",
          "name": "shares",
          "type": "uint256"
        }
      ],
      "name": "Withdraw",
      "type": "event"
    },
    {
      "inputs": [],
      "name": "DEADLINE",
      "outputs": [
        {
          "internalType": "uint256",
          "name": "",
          "type": "uint256"
        }
      ],
      "stateMutability": "view",
      "type": "function"
    },
    {
      "inputs": [],
      "name": "DOMAIN_SEPARATOR",
      "outputs": [
        {
          "internalType": "bytes32",
          "name": "",
          "type": "bytes32"
        }
      ],
      "stateMutability": "view",
      "type": "function"
    },
    {
      "inputs": [
        {
          "internalType": "address",
          "name": "",
          "type": "address"
        },
        {
          "internalType": "address",
          "name": "",
          "type": "address"
        }
      ],
      "name": "allowance",
      "outputs": [
        {
          "internalType": "uint256",
          "name": "",
          "type": "uint256"
        }
      ],
      "stateMutability": "view",
      "type": "function"
    },
    {
      "inputs": [
        {
          "internalType": "address",
          "name": "spender",
          "type": "address"
        },
        {
          "internalType": "uint256",
          "name": "amount",
          "type": "uint256"
        }
      ],
      "name": "approve",
      "outputs": [
        {
          "internalType": "bool",
          "name": "",
          "type": "bool"
        }
      ],
      "stateMutability": "nonpayable",
      "type": "function"
    },
    {
      "inputs": [],
      "name": "asset",
      "outputs": [
        {
          "internalType": "contract ERC20",
          "name": "",
          "type": "address"
        }
      ],
      "stateMutability": "view",
      "type": "function"
    },
    {
      "inputs": [
        {
          "internalType": "address",
          "name": "",
          "type": "address"
        }
      ],
      "name": "balanceOf",
      "outputs": [
        {
          "internalType": "uint256",
          "name": "",
          "type": "uint256"
        }
      ],
      "stateMutability": "view",
      "type": "function"
    },
    {
      "inputs": [
        {
          "internalType": "uint256",
          "name": "shares",
          "type": "uint256"
        }
      ],
      "name": "convertToAssets",
      "outputs": [
        {
          "internalType": "uint256",
          "name": "",
          "type": "uint256"
        }
      ],
      "stateMutability": "view",
      "type": "function"
    },
    {
      "inputs": [
        {
          "internalType": "uint256",
          "name": "assets",
          "type": "uint256"
        }
      ],
      "name": "convertToShares",
      "outputs": [
        {
          "internalType": "uint256",
          "name": "",
          "type": "uint256"
        }
      ],
      "stateMutability": "view",
      "type": "function"
    },
    {
      "inputs": [],
      "name": "decimals",
      "outputs": [
        {
          "internalType": "uint8",
          "name": "",
          "type": "uint8"
        }
      ],
      "stateMutability": "view",
      "type": "function"
    },
    {
      "inputs": [
        {
          "internalType": "uint256",
          "name": "assets",
          "type": "uint256"
        },
        {
          "internalType": "address",
          "name": "receiver",
          "type": "address"
        }
      ],
      "name": "deposit",
      "outputs": [
        {
          "internalType": "uint256",
          "name": "shares",
          "type": "uint256"
        }
      ],
      "stateMutability": "nonpayable",
      "type": "function"
    },
    {
      "inputs": [
        {
          "internalType": "uint256",
          "name": "_ghoAmount",
          "type": "uint256"
        }
      ],
      "name": "depositGHO",
      "outputs": [],
      "stateMutability": "nonpayable",
      "type": "function"
    },
    {
      "inputs": [
        {
          "internalType": "uint256",
          "name": "_ghoAmount",
          "type": "uint256"
        },
        {
          "internalType": "uint8",
          "name": "v",
          "type": "uint8"
        },
        {
          "internalType": "bytes32",
          "name": "r",
          "type": "bytes32"
        },
        {
          "internalType": "bytes32",
          "name": "s",
          "type": "bytes32"
        }
      ],
      "name": "depositGHOWithPermit",
      "outputs": [],
      "stateMutability": "nonpayable",
      "type": "function"
    },
    {
      "inputs": [],
      "name": "i_ghoToken",
      "outputs": [
        {
          "internalType": "contract ERC20",
          "name": "",
          "type": "address"
        }
      ],
      "stateMutability": "view",
      "type": "function"
    },
    {
      "inputs": [
        {
          "internalType": "address",
          "name": "",
          "type": "address"
        }
      ],
      "name": "maxDeposit",
      "outputs": [
        {
          "internalType": "uint256",
          "name": "",
          "type": "uint256"
        }
      ],
      "stateMutability": "view",
      "type": "function"
    },
    {
      "inputs": [
        {
          "internalType": "address",
          "name": "",
          "type": "address"
        }
      ],
      "name": "maxMint",
      "outputs": [
        {
          "internalType": "uint256",
          "name": "",
          "type": "uint256"
        }
      ],
      "stateMutability": "view",
      "type": "function"
    },
    {
      "inputs": [
        {
          "internalType": "address",
          "name": "owner",
          "type": "address"
        }
      ],
      "name": "maxRedeem",
      "outputs": [
        {
          "internalType": "uint256",
          "name": "",
          "type": "uint256"
        }
      ],
      "stateMutability": "view",
      "type": "function"
    },
    {
      "inputs": [
        {
          "internalType": "address",
          "name": "owner",
          "type": "address"
        }
      ],
      "name": "maxWithdraw",
      "outputs": [
        {
          "internalType": "uint256",
          "name": "",
          "type": "uint256"
        }
      ],
      "stateMutability": "view",
      "type": "function"
    },
    {
      "inputs": [
        {
          "internalType": "uint256",
          "name": "shares",
          "type": "uint256"
        },
        {
          "internalType": "address",
          "name": "receiver",
          "type": "address"
        }
      ],
      "name": "mint",
      "outputs": [
        {
          "internalType": "uint256",
          "name": "assets",
          "type": "uint256"
        }
      ],
      "stateMutability": "nonpayable",
      "type": "function"
    },
    {
      "inputs": [],
      "name": "name",
      "outputs": [
        {
          "internalType": "string",
          "name": "",
          "type": "string"
        }
      ],
      "stateMutability": "view",
      "type": "function"
    },
    {
      "inputs": [
        {
          "internalType": "address",
          "name": "",
          "type": "address"
        }
      ],
      "name": "nonces",
      "outputs": [
        {
          "internalType": "uint256",
          "name": "",
          "type": "uint256"
        }
      ],
      "stateMutability": "view",
      "type": "function"
    },
    {
      "inputs": [],
      "name": "owner",
      "outputs": [
        {
          "internalType": "address",
          "name": "",
          "type": "address"
        }
      ],
      "stateMutability": "view",
      "type": "function"
    },
    {
      "inputs": [
        {
          "internalType": "address",
          "name": "owner",
          "type": "address"
        },
        {
          "internalType": "address",
          "name": "spender",
          "type": "address"
        },
        {
          "internalType": "uint256",
          "name": "value",
          "type": "uint256"
        },
        {
          "internalType": "uint256",
          "name": "deadline",
          "type": "uint256"
        },
        {
          "internalType": "uint8",
          "name": "v",
          "type": "uint8"
        },
        {
          "internalType": "bytes32",
          "name": "r",
          "type": "bytes32"
        },
        {
          "internalType": "bytes32",
          "name": "s",
          "type": "bytes32"
        }
      ],
      "name": "permit",
      "outputs": [],
      "stateMutability": "nonpayable",
      "type": "function"
    },
    {
      "inputs": [
        {
          "internalType": "uint256",
          "name": "assets",
          "type": "uint256"
        }
      ],
      "name": "previewDeposit",
      "outputs": [
        {
          "internalType": "uint256",
          "name": "",
          "type": "uint256"
        }
      ],
      "stateMutability": "view",
      "type": "function"
    },
    {
      "inputs": [
        {
          "internalType": "uint256",
          "name": "shares",
          "type": "uint256"
        }
      ],
      "name": "previewMint",
      "outputs": [
        {
          "internalType": "uint256",
          "name": "",
          "type": "uint256"
        }
      ],
      "stateMutability": "view",
      "type": "function"
    },
    {
      "inputs": [
        {
          "internalType": "uint256",
          "name": "shares",
          "type": "uint256"
        }
      ],
      "name": "previewRedeem",
      "outputs": [
        {
          "internalType": "uint256",
          "name": "",
          "type": "uint256"
        }
      ],
      "stateMutability": "view",
      "type": "function"
    },
    {
      "inputs": [
        {
          "internalType": "uint256",
          "name": "assets",
          "type": "uint256"
        }
      ],
      "name": "previewWithdraw",
      "outputs": [
        {
          "internalType": "uint256",
          "name": "",
          "type": "uint256"
        }
      ],
      "stateMutability": "view",
      "type": "function"
    },
    {
      "inputs": [
        {
          "internalType": "uint256",
          "name": "shares",
          "type": "uint256"
        },
        {
          "internalType": "address",
          "name": "receiver",
          "type": "address"
        },
        {
          "internalType": "address",
          "name": "owner",
          "type": "address"
        }
      ],
      "name": "redeem",
      "outputs": [
        {
          "internalType": "uint256",
          "name": "assets",
          "type": "uint256"
        }
      ],
      "stateMutability": "nonpayable",
      "type": "function"
    },
    {
      "inputs": [],
      "name": "renounceOwnership",
      "outputs": [],
      "stateMutability": "nonpayable",
      "type": "function"
    },
    {
      "inputs": [
        {
          "internalType": "address",
          "name": "_user",
          "type": "address"
        }
      ],
      "name": "rpTokenBalance",
      "outputs": [
        {
          "internalType": "uint256",
          "name": "",
          "type": "uint256"
        }
      ],
      "stateMutability": "view",
      "type": "function"
    },
    {
      "inputs": [],
      "name": "s_partnerFee",
      "outputs": [
        {
          "internalType": "uint256",
          "name": "",
          "type": "uint256"
        }
      ],
      "stateMutability": "view",
      "type": "function"
    },
    {
      "inputs": [],
      "name": "s_partnerFeeCollector",
      "outputs": [
        {
          "internalType": "address",
          "name": "",
          "type": "address"
        }
      ],
      "stateMutability": "view",
      "type": "function"
    },
    {
      "inputs": [],
      "name": "s_rewardPool",
      "outputs": [
        {
          "internalType": "address",
          "name": "",
          "type": "address"
        }
      ],
      "stateMutability": "view",
      "type": "function"
    },
    {
      "inputs": [],
      "name": "s_withdrawalFee",
      "outputs": [
        {
          "internalType": "uint256",
          "name": "",
          "type": "uint256"
        }
      ],
      "stateMutability": "view",
      "type": "function"
    },
    {
      "inputs": [
        {
          "internalType": "address",
          "name": "_feeCollector",
          "type": "address"
        }
      ],
      "name": "setFeeCollector",
      "outputs": [],
      "stateMutability": "nonpayable",
      "type": "function"
    },
    {
      "inputs": [
        {
          "internalType": "uint8",
          "name": "_partnerFee",
          "type": "uint8"
        }
      ],
      "name": "setPartnerFee",
      "outputs": [],
      "stateMutability": "nonpayable",
      "type": "function"
    },
    {
      "inputs": [
        {
          "internalType": "address",
          "name": "_rewardPool",
          "type": "address"
        }
      ],
      "name": "setRewardPool",
      "outputs": [],
      "stateMutability": "nonpayable",
      "type": "function"
    },
    {
      "inputs": [
        {
          "internalType": "uint8",
          "name": "_withdrawalFee",
          "type": "uint8"
        }
      ],
      "name": "setWithdrawalFee",
      "outputs": [],
      "stateMutability": "nonpayable",
      "type": "function"
    },
    {
      "inputs": [],
      "name": "symbol",
      "outputs": [
        {
          "internalType": "string",
          "name": "",
          "type": "string"
        }
      ],
      "stateMutability": "view",
      "type": "function"
    },
    {
      "inputs": [],
      "name": "totalAssets",
      "outputs": [
        {
          "internalType": "uint256",
          "name": "",
          "type": "uint256"
        }
      ],
      "stateMutability": "view",
      "type": "function"
    },
    {
      "inputs": [],
      "name": "totalSupply",
      "outputs": [
        {
          "internalType": "uint256",
          "name": "",
          "type": "uint256"
        }
      ],
      "stateMutability": "view",
      "type": "function"
    },
    {
      "inputs": [
        {
          "internalType": "address",
          "name": "to",
          "type": "address"
        },
        {
          "internalType": "uint256",
          "name": "amount",
          "type": "uint256"
        }
      ],
      "name": "transfer",
      "outputs": [
        {
          "internalType": "bool",
          "name": "",
          "type": "bool"
        }
      ],
      "stateMutability": "nonpayable",
      "type": "function"
    },
    {
      "inputs": [
        {
          "internalType": "address",
          "name": "from",
          "type": "address"
        },
        {
          "internalType": "address",
          "name": "to",
          "type": "address"
        },
        {
          "internalType": "uint256",
          "name": "amount",
          "type": "uint256"
        }
      ],
      "name": "transferFrom",
      "outputs": [
        {
          "internalType": "bool",
          "name": "",
          "type": "bool"
        }
      ],
      "stateMutability": "nonpayable",
      "type": "function"
    },
    {
      "inputs": [
        {
          "internalType": "address",
          "name": "newOwner",
          "type": "address"
        }
      ],
      "name": "transferOwnership",
      "outputs": [],
      "stateMutability": "nonpayable",
      "type": "function"
    },
    {
      "inputs": [
        {
          "internalType": "uint256",
          "name": "_ghoAmount",
          "type": "uint256"
        },
        {
          "internalType": "address",
          "name": "_receiver",
          "type": "address"
        },
        {
          "internalType": "address",
          "name": "_owner",
          "type": "address"
        }
      ],
      "name": "withdraw",
      "outputs": [
        {
          "internalType": "uint256",
          "name": "shares",
          "type": "uint256"
        }
      ],
      "stateMutability": "nonpayable",
      "type": "function"
    },
    {
      "inputs": [
        {
          "internalType": "uint256",
          "name": "_ghoAmount",
          "type": "uint256"
        },
        {
          "internalType": "address",
          "name": "_receiver",
          "type": "address"
        },
        {
          "internalType": "address",
          "name": "_owner",
          "type": "address"
        }
      ],
      "name": "withdrawGHO",
      "outputs": [],
      "stateMutability": "nonpayable",
      "type": "function"
    },
    {
      "inputs": [
        {
          "internalType": "uint256",
          "name": "_ghoAmount",
          "type": "uint256"
        }
      ],
      "name": "withdrawWithFee",
      "outputs": [
        {
          "internalType": "uint256",
          "name": "amountPayable",
          "type": "uint256"
        },
        {
          "internalType": "uint256",
          "name": "feeForPartner",
          "type": "uint256"
        }
      ],
      "stateMutability": "view",
      "type": "function"
    }
  ],
  "bytecode": {
    "object": "0x610120604052670429d069189e00006007556706f05b59d3b200006008553480156200002a57600080fd5b506040516200238d3803806200238d8339810160408190526200004d9162000364565b83878787848b6001600160a01b031663313ce5676040518163ffffffff1660e01b8152600401602060405180830381865afa15801562000091573d6000803e3d6000fd5b505050506040513d601f19601f82011682018060405250810190620000b7919062000436565b620000c391906200045b565b8282826000620000d4848262000518565b506001620000e3838262000518565b5060ff81166080524660a052620000f962000181565b60c0525050506001600160a01b0393841660e05250505081166200013757604051631e4fbdf760e01b81526000600482015260240160405180910390fd5b62000142816200021d565b50506001600160a01b0395861661010052600980549287166001600160a01b0319938416179055600a8054919096169116179093555062000662915050565b60007f8b73c3c69bb8fe3d512ecc4cf759cc79239f7b179b0ffacaa9a75d522b39400f6000604051620001b59190620005e4565b6040805191829003822060208301939093528101919091527fc89efdaa54c0f20c7adf612882df0950f5a951637e0307cdcb4c672f298b8bc660608201524660808201523060a082015260c00160405160208183030381529060405280519060200120905090565b600680546001600160a01b038381166001600160a01b0319831681179093556040519116919082907f8be0079c531659141344cd1fd0a4f28419497f9722a3daafe3b4186f6b6457e090600090a35050565b6001600160a01b03811681146200028557600080fd5b50565b634e487b7160e01b600052604160045260246000fd5b600082601f830112620002b057600080fd5b81516001600160401b0380821115620002cd57620002cd62000288565b604051601f8301601f19908116603f01168101908282118183101715620002f857620002f862000288565b816040528381526020925086838588010111156200031557600080fd5b600091505b838210156200033957858201830151818301840152908201906200031a565b600093810190920192909252949350505050565b805160ff811681146200035f57600080fd5b919050565b600080600080600080600060e0888a0312156200038057600080fd5b87516200038d816200026f565b60208901519097506001600160401b0380821115620003ab57600080fd5b620003b98b838c016200029e565b975060408a0151915080821115620003d057600080fd5b50620003df8a828b016200029e565b9550506060880151620003f2816200026f565b608089015190945062000405816200026f565b60a089015190935062000418816200026f565b91506200042860c089016200034d565b905092959891949750929550565b6000602082840312156200044957600080fd5b62000454826200034d565b9392505050565b60ff81811683821601908111156200048357634e487b7160e01b600052601160045260246000fd5b92915050565b600181811c908216806200049e57607f821691505b602082108103620004bf57634e487b7160e01b600052602260045260246000fd5b50919050565b601f8211156200051357600081815260208120601f850160051c81016020861015620004ee5750805b601f850160051c820191505b818110156200050f57828155600101620004fa565b5050505b505050565b81516001600160401b0381111562000534576200053462000288565b6200054c8162000545845462000489565b84620004c5565b602080601f8311600181146200058457600084156200056b5750858301515b600019600386901b1c1916600185901b1785556200050f565b600085815260208120601f198616915b82811015620005b55788860151825594840194600190910190840162000594565b5085821015620005d45787850151600019600388901b60f8161c191681555b5050505050600190811b01905550565b6000808354620005f48162000489565b600182811680156200060f5760018114620006255762000656565b60ff198416875282151583028701945062000656565b8760005260208060002060005b858110156200064d5781548a82015290840190820162000632565b50505082870194505b50929695505050505050565b60805160a05160c05160e05161010051611cae620006df600039600081816104900152818161068101528181610f8a01528181610fcf0152818161100701526114a701526000818161036a01528181610aa601528181610cb001526111540152600061095501526000610925015260006103290152611cae6000f3fe608060405234801561001057600080fd5b506004361061028a5760003560e01c806394bf804d1161015c578063c63d75b6116100ce578063d905777e11610087578063d905777e146103b9578063dd62ed3e146105f2578063ef8b30f71461061d578063f0073b9214610630578063f2fde38b14610643578063f63d87c81461065657600080fd5b8063c63d75b6146103a4578063c6e6f59214610588578063cc9e5a3a1461059b578063ce96cb77146105c3578063d505accf146105d6578063d8492e08146105e957600080fd5b8063a42dce8011610120578063a42dce8014610516578063a9059cbb14610529578063ac4932c91461053c578063b3d7f6b91461054f578063b460af9414610562578063ba0876521461057557600080fd5b806394bf804d146104d657806395190275146104e957806395d89b41146104fc5780639fd8c12914610504578063a082c86e1461050d57600080fd5b806344a6c0fc116102005780637709b6ab116101b95780637709b6ab1461044557806378238c37146104585780637ecebe001461046b57806389c078de1461048b5780638da5cb5b146104b257806392dc6100146104c357600080fd5b806344a6c0fc146103b95780634cdad506146103e257806354fe8fb7146103f55780636e553f651461040a57806370a082311461041d578063715018a61461043d57600080fd5b806318160ddd1161025257806318160ddd1461030857806323b872dd14610311578063313ce567146103245780633644e5151461035d57806338d52e0f14610365578063402d267d146103a457600080fd5b806301e1d1141461028f57806306fdde03146102aa57806307a2d13a146102bf578063095ea7b3146102d25780630a28a477146102f5575b600080fd5b610297610669565b6040519081526020015b60405180910390f35b6102b26106f9565b6040516102a191906118c3565b6102976102cd366004611911565b610787565b6102e56102e0366004611946565b6107b4565b60405190151581526020016102a1565b610297610303366004611911565b610821565b61029760025481565b6102e561031f366004611970565b610841565b61034b7f000000000000000000000000000000000000000000000000000000000000000081565b60405160ff90911681526020016102a1565b610297610921565b61038c7f000000000000000000000000000000000000000000000000000000000000000081565b6040516001600160a01b0390911681526020016102a1565b6102976103b23660046119ac565b5060001990565b6102976103c73660046119ac565b6001600160a01b031660009081526003602052604090205490565b6102976103f0366004611911565b610977565b6104086104033660046119c7565b610982565b005b610297610418366004611a03565b610a49565b61029761042b3660046119ac565b60036020526000908152604090205481565b610408610b24565b610408610453366004611911565b610b38565b6104086104663660046119ac565b610bb2565b6102976104793660046119ac565b60056020526000908152604090205481565b61038c7f000000000000000000000000000000000000000000000000000000000000000081565b6006546001600160a01b031661038c565b6104086104d1366004611a40565b610c30565b6102976104e4366004611a03565b610c96565b6104086104f7366004611a40565b610d25565b6102b2610d8b565b61029760085481565b610297610e1081565b6104086105243660046119ac565b610d98565b6102e5610537366004611946565b610e16565b60095461038c906001600160a01b031681565b61029761055d366004611911565b610e7c565b6102976105703660046119c7565b610e9b565b6102976105833660046119c7565b611039565b610297610596366004611911565b61117b565b6105ae6105a9366004611911565b61119b565b604080519283526020830191909152016102a1565b6102976105d13660046119ac565b6111cb565b6104086105e4366004611a5b565b6111ed565b61029760075481565b610297610600366004611ac5565b600460209081526000928352604080842090915290825290205481565b61029761062b366004611911565b611431565b61040861063e366004611aef565b61143c565b6104086106513660046119ac565b61152a565b600a5461038c906001600160a01b031681565b6040516370a0823160e01b81523060048201526000907f00000000000000000000000000000000000000000000000000000000000000006001600160a01b0316906370a0823190602401602060405180830381865afa1580156106d0573d6000803e3d6000fd5b505050506040513d601f19601f820116820180604052508101906106f49190611b2a565b905090565b6000805461070690611b43565b80601f016020809104026020016040519081016040528092919081815260200182805461073290611b43565b801561077f5780601f106107545761010080835404028352916020019161077f565b820191906000526020600020905b81548152906001019060200180831161076257829003601f168201915b505050505081565b60025460009080156107ab576107a661079e610669565b849083611568565b6107ad565b825b9392505050565b3360008181526004602090815260408083206001600160a01b038716808552925280832085905551919290917f8c5be1e5ebec7d5bd14f71427d1e84f3dd0314c0f7b2291e5b200ac8c7c3b9259061080f9086815260200190565b60405180910390a35060015b92915050565b60025460009080156107ab576107a681610839610669565b859190611586565b6001600160a01b0383166000908152600460209081526040808320338452909152812054600019811461089d576108788382611b93565b6001600160a01b03861660009081526004602090815260408083203384529091529020555b6001600160a01b038516600090815260036020526040812080548592906108c5908490611b93565b90915550506001600160a01b0380851660008181526003602052604090819020805487019055519091871690600080516020611c598339815191529061090e9087815260200190565b60405180910390a3506001949350505050565b60007f00000000000000000000000000000000000000000000000000000000000000004614610952576106f46115ac565b507f000000000000000000000000000000000000000000000000000000000000000090565b600061081b82610787565b82806000036109a457604051633549ac7960e01b815260040160405180910390fd5b826001600160a01b0381166109cc5760405163634f57cd60e01b815260040160405180910390fd5b826001600160a01b0381166109f45760405163634f57cd60e01b815260040160405180910390fd5b6109ff868686610e9b565b50836001600160a01b0316856001600160a01b0316877f99f1bc5e9c3caed2dad4ae3a18c72e695cab30bdc30c07f3f90df512aff5c1ee60405160405180910390a4505050505050565b6000610a5483611431565b905080600003610a995760405162461bcd60e51b815260206004820152600b60248201526a5a45524f5f53484152455360a81b60448201526064015b60405180910390fd5b610ace6001600160a01b037f000000000000000000000000000000000000000000000000000000000000000016333086611646565b610ad882826116e2565b60408051848152602081018390526001600160a01b0384169133917fdcbc1c05240f31ff3ad067ef1ee35ce4997762752e3a095284754544f4c709d791015b60405180910390a361081b565b610b2c61173c565b610b366000611769565b565b8080600003610b5a57604051633549ac7960e01b815260040160405180910390fd5b610b6261173c565b600954610b799083906001600160a01b0316610a49565b506040518281527f1ebd0e5efd17e5bd31016832111570612c24b7caa25dbfd4c711e2b6879c089d906020015b60405180910390a15050565b806001600160a01b038116610bda5760405163634f57cd60e01b815260040160405180910390fd5b610be261173c565b600980546001600160a01b0319166001600160a01b0384169081179091556040519081527f9c674ef45bfa551526ee640eabaa0dacbeacfcbc614300c2fad11a7af6a07c7590602001610ba6565b8060ff1680600003610c5557604051633549ac7960e01b815260040160405180910390fd5b610c5d61173c565b60ff821660078190556040519081527fa169426f070aefe58163c3cd5b2de9c21f33a7d93663e00a9b722e2fa55d766090602001610ba6565b6000610ca183610e7c565b9050610cd86001600160a01b037f000000000000000000000000000000000000000000000000000000000000000016333084611646565b610ce282846116e2565b60408051828152602081018590526001600160a01b0384169133917fdcbc1c05240f31ff3ad067ef1ee35ce4997762752e3a095284754544f4c709d79101610b17565b8060ff1680600003610d4a57604051633549ac7960e01b815260040160405180910390fd5b610d5261173c565b60ff821660088190556040519081527fbad2749e997623e45fcb8ea539f9f95bf8267d283597e8b989716df3f482e93190602001610ba6565b6001805461070690611b43565b806001600160a01b038116610dc05760405163634f57cd60e01b815260040160405180910390fd5b610dc861173c565b600a80546001600160a01b0319166001600160a01b0384169081179091556040519081527fe85e8abed4d4885ccfb1b72a41a31aa800ac6271241e051205540cc2c923138790602001610ba6565b33600090815260036020526040812080548391908390610e37908490611b93565b90915550506001600160a01b03831660008181526003602052604090819020805485019055513390600080516020611c598339815191529061080f9086815260200190565b60025460009080156107ab576107a6610e93610669565b849083611586565b6000610ea684610821565b9050336001600160a01b03831614610f16576001600160a01b03821660009081526004602090815260408083203384529091529020546000198114610f1457610eef8282611b93565b6001600160a01b03841660009081526004602090815260408083203384529091529020555b505b610f2082826117bb565b60408051858152602081018390526001600160a01b03808516929086169133917ffbde797d201c681b91056529119e0b02407c7bb96a4a2c75c01fc9667232c8db910160405180910390a46006546001600160a01b03163303610fb1576107a66001600160a01b037f000000000000000000000000000000000000000000000000000000000000000016848661181d565b600080610fbd8661119b565b9092509050610ff66001600160a01b037f000000000000000000000000000000000000000000000000000000000000000016868461181d565b600a54611030906001600160a01b037f0000000000000000000000000000000000000000000000000000000000000000811691168361181d565b50509392505050565b6000336001600160a01b038316146110a9576001600160a01b038216600090815260046020908152604080832033845290915290205460001981146110a7576110828582611b93565b6001600160a01b03841660009081526004602090815260408083203384529091529020555b505b6110b284610977565b9050806000036110f25760405162461bcd60e51b815260206004820152600b60248201526a5a45524f5f41535345545360a81b6044820152606401610a90565b6110fc82856117bb565b60408051828152602081018690526001600160a01b03808516929086169133917ffbde797d201c681b91056529119e0b02407c7bb96a4a2c75c01fc9667232c8db910160405180910390a46107ad6001600160a01b037f000000000000000000000000000000000000000000000000000000000000000016848361181d565b60025460009080156107ab576107a681611193610669565b859190611568565b60008060006111a9846118a4565b90506111b7816008546118ae565b91506111c38185611b93565b925050915091565b6001600160a01b03811660009081526003602052604081205461081b90610787565b4284101561123d5760405162461bcd60e51b815260206004820152601760248201527f5045524d49545f444541444c494e455f455850495245440000000000000000006044820152606401610a90565b60006001611249610921565b6001600160a01b038a811660008181526005602090815260409182902080546001810190915582517f6e71edae12b1b97f4d1f60370fef10105fa2faae0126114a169c64845d6126c98184015280840194909452938d166060840152608083018c905260a083019390935260c08083018b90528151808403909101815260e08301909152805192019190912061190160f01b6101008301526101028201929092526101228101919091526101420160408051601f198184030181528282528051602091820120600084529083018083525260ff871690820152606081018590526080810184905260a0016020604051602081039080840390855afa158015611355573d6000803e3d6000fd5b5050604051601f1901519150506001600160a01b0381161580159061138b5750876001600160a01b0316816001600160a01b0316145b6113c85760405162461bcd60e51b815260206004820152600e60248201526d24a72b20a624a22fa9a4a3a722a960911b6044820152606401610a90565b6001600160a01b0390811660009081526004602090815260408083208a8516808552908352928190208990555188815291928a16917f8c5be1e5ebec7d5bd14f71427d1e84f3dd0314c0f7b2291e5b200ac8c7c3b925910160405180910390a350505050505050565b600061081b8261117b565b838060000361145e57604051633549ac7960e01b815260040160405180910390fd5b61146661173c565b60405163d505accf60e01b815233600482015230602482015260448101869052600019606482015260ff8516608482015260a4810184905260c481018390527f00000000000000000000000000000000000000000000000000000000000000006001600160a01b03169063d505accf9060e401600060405180830381600087803b1580156114f357600080fd5b505af1158015611507573d6000803e3d6000fd5b505060095461152292508791506001600160a01b0316610a49565b505050505050565b61153261173c565b6001600160a01b03811661155c57604051631e4fbdf760e01b815260006004820152602401610a90565b61156581611769565b50565b600082600019048411830215820261157f57600080fd5b5091020490565b600082600019048411830215820261159d57600080fd5b50910281810615159190040190565b60007f8b73c3c69bb8fe3d512ecc4cf759cc79239f7b179b0ffacaa9a75d522b39400f60006040516115de9190611ba6565b6040805191829003822060208301939093528101919091527fc89efdaa54c0f20c7adf612882df0950f5a951637e0307cdcb4c672f298b8bc660608201524660808201523060a082015260c00160405160208183030381529060405280519060200120905090565b60006040516323b872dd60e01b81526001600160a01b03851660048201526001600160a01b03841660248201528260448201526020600060648360008a5af13d15601f3d11600160005114161716915050806116db5760405162461bcd60e51b81526020600482015260146024820152731514905394d1915497d19493d357d1905253115160621b6044820152606401610a90565b5050505050565b80600260008282546116f49190611c45565b90915550506001600160a01b038216600081815260036020908152604080832080548601905551848152600080516020611c5983398151915291015b60405180910390a35050565b6006546001600160a01b03163314610b365760405163118cdaa760e01b8152336004820152602401610a90565b600680546001600160a01b038381166001600160a01b0319831681179093556040519116919082907f8be0079c531659141344cd1fd0a4f28419497f9722a3daafe3b4186f6b6457e090600090a35050565b6001600160a01b038216600090815260036020526040812080548392906117e3908490611b93565b90915550506002805482900390556040518181526000906001600160a01b03841690600080516020611c5983398151915290602001611730565b600060405163a9059cbb60e01b81526001600160a01b0384166004820152826024820152602060006044836000895af13d15601f3d116001600051141617169150508061189e5760405162461bcd60e51b815260206004820152600f60248201526e1514905394d1915497d19052531151608a1b6044820152606401610a90565b50505050565b600061081b826007545b60006107ad8383670de0b6b3a7640000611586565b600060208083528351808285015260005b818110156118f0578581018301518582016040015282016118d4565b506000604082860101526040601f19601f8301168501019250505092915050565b60006020828403121561192357600080fd5b5035919050565b80356001600160a01b038116811461194157600080fd5b919050565b6000806040838503121561195957600080fd5b6119628361192a565b946020939093013593505050565b60008060006060848603121561198557600080fd5b61198e8461192a565b925061199c6020850161192a565b9150604084013590509250925092565b6000602082840312156119be57600080fd5b6107ad8261192a565b6000806000606084860312156119dc57600080fd5b833592506119ec6020850161192a565b91506119fa6040850161192a565b90509250925092565b60008060408385031215611a1657600080fd5b82359150611a266020840161192a565b90509250929050565b803560ff8116811461194157600080fd5b600060208284031215611a5257600080fd5b6107ad82611a2f565b600080600080600080600060e0888a031215611a7657600080fd5b611a7f8861192a565b9650611a8d6020890161192a565b95506040880135945060608801359350611aa960808901611a2f565b925060a0880135915060c0880135905092959891949750929550565b60008060408385031215611ad857600080fd5b611ae18361192a565b9150611a266020840161192a565b60008060008060808587031215611b0557600080fd5b84359350611b1560208601611a2f565b93969395505050506040820135916060013590565b600060208284031215611b3c57600080fd5b5051919050565b600181811c90821680611b5757607f821691505b602082108103611b7757634e487b7160e01b600052602260045260246000fd5b50919050565b634e487b7160e01b600052601160045260246000fd5b8181038181111561081b5761081b611b7d565b600080835481600182811c915080831680611bc257607f831692505b60208084108203611be157634e487b7160e01b86526022600452602486fd5b818015611bf55760018114611c0a57611c37565b60ff1986168952841515850289019650611c37565b60008a81526020902060005b86811015611c2f5781548b820152908501908301611c16565b505084890196505b509498975050505050505050565b8082018082111561081b5761081b611b7d56feddf252ad1be2c89b69c2b068fc378daa952ba7f163c4a11628f55a4df523b3efa26469706673582212205e6144ae48cc17be96874eace5bc83862a6097480e889a2747ff80df94f694b764736f6c63430008140033",
    "linkReferences": {}
  },
  "methodIdentifiers": {
    "DEADLINE()": "a082c86e",
    "DOMAIN_SEPARATOR()": "3644e515",
    "allowance(address,address)": "dd62ed3e",
    "approve(address,uint256)": "095ea7b3",
    "asset()": "38d52e0f",
    "balanceOf(address)": "70a08231",
    "convertToAssets(uint256)": "07a2d13a",
    "convertToShares(uint256)": "c6e6f592",
    "decimals()": "313ce567",
    "deposit(uint256,address)": "6e553f65",
    "depositGHO(uint256)": "7709b6ab",
    "depositGHOWithPermit(uint256,uint8,bytes32,bytes32)": "f0073b92",
    "i_ghoToken()": "89c078de",
    "maxDeposit(address)": "402d267d",
    "maxMint(address)": "c63d75b6",
    "maxRedeem(address)": "d905777e",
    "maxWithdraw(address)": "ce96cb77",
    "mint(uint256,address)": "94bf804d",
    "name()": "06fdde03",
    "nonces(address)": "7ecebe00",
    "owner()": "8da5cb5b",
    "permit(address,address,uint256,uint256,uint8,bytes32,bytes32)": "d505accf",
    "previewDeposit(uint256)": "ef8b30f7",
    "previewMint(uint256)": "b3d7f6b9",
    "previewRedeem(uint256)": "4cdad506",
    "previewWithdraw(uint256)": "0a28a477",
    "redeem(uint256,address,address)": "ba087652",
    "renounceOwnership()": "715018a6",
    "rpTokenBalance(address)": "44a6c0fc",
    "s_partnerFee()": "9fd8c129",
    "s_partnerFeeCollector()": "f63d87c8",
    "s_rewardPool()": "ac4932c9",
    "s_withdrawalFee()": "d8492e08",
    "setFeeCollector(address)": "a42dce80",
    "setPartnerFee(uint8)": "95190275",
    "setRewardPool(address)": "78238c37",
    "setWithdrawalFee(uint8)": "92dc6100",
    "symbol()": "95d89b41",
    "totalAssets()": "01e1d114",
    "totalSupply()": "18160ddd",
    "transfer(address,uint256)": "a9059cbb",
    "transferFrom(address,address,uint256)": "23b872dd",
    "transferOwnership(address)": "f2fde38b",
    "withdraw(uint256,address,address)": "b460af94",
    "withdrawGHO(uint256,address,address)": "54fe8fb7",
    "withdrawWithFee(uint256)": "cc9e5a3a"
  },
  "id": 51
}