{
  "abi": [
    {
      "inputs": [
        {
          "internalType": "contract ERC20",
          "name": "_ghoToken",
          "type": "address"
        },
        {
          "internalType": "string",
          "name": "_name",
          "type": "string"
        },
        {
          "internalType": "string",
          "name": "_symbol",
          "type": "string"
        },
        {
          "internalType": "address",
          "name": "_partnerAddress",
          "type": "address"
        },
        {
          "internalType": "address",
          "name": "_rewardPool",
          "type": "address"
        },
        {
          "internalType": "address",
          "name": "_mainAdminFeeCollector",
          "type": "address"
        },
        {
          "internalType": "uint8",
          "name": "ratio",
          "type": "uint8"
        }
      ],
      "stateMutability": "nonpayable",
      "type": "constructor"
    },
    {
      "inputs": [
        {
          "internalType": "address",
          "name": "owner",
          "type": "address"
        }
      ],
      "name": "OwnableInvalidOwner",
      "type": "error"
    },
    {
      "inputs": [
        {
          "internalType": "address",
          "name": "account",
          "type": "address"
        }
      ],
      "name": "OwnableUnauthorizedAccount",
      "type": "error"
    },
    {
      "inputs": [],
      "name": "PartnerVault__ZeroAddress",
      "type": "error"
    },
    {
      "inputs": [],
      "name": "PartnerVault__ZeroAmount",
      "type": "error"
    },
    {
      "anonymous": false,
      "inputs": [
        {
          "indexed": true,
          "internalType": "address",
          "name": "owner",
          "type": "address"
        },
        {
          "indexed": true,
          "internalType": "address",
          "name": "spender",
          "type": "address"
        },
        {
          "indexed": false,
          "internalType": "uint256",
          "name": "amount",
          "type": "uint256"
        }
      ],
      "name": "Approval",
      "type": "event"
    },
    {
      "anonymous": false,
      "inputs": [
        {
          "indexed": true,
          "internalType": "address",
          "name": "caller",
          "type": "address"
        },
        {
          "indexed": true,
          "internalType": "address",
          "name": "owner",
          "type": "address"
        },
        {
          "indexed": false,
          "internalType": "uint256",
          "name": "assets",
          "type": "uint256"
        },
        {
          "indexed": false,
          "internalType": "uint256",
          "name": "shares",
          "type": "uint256"
        }
      ],
      "name": "Deposit",
      "type": "event"
    },
    {
      "anonymous": false,
      "inputs": [
        {
          "indexed": true,
          "internalType": "address",
          "name": "previousOwner",
          "type": "address"
        },
        {
          "indexed": true,
          "internalType": "address",
          "name": "newOwner",
          "type": "address"
        }
      ],
      "name": "OwnershipTransferred",
      "type": "event"
    },
    {
      "anonymous": false,
      "inputs": [
        {
          "indexed": true,
          "internalType": "address",
          "name": "from",
          "type": "address"
        },
        {
          "indexed": true,
          "internalType": "address",
          "name": "to",
          "type": "address"
        },
        {
          "indexed": false,
          "internalType": "uint256",
          "name": "amount",
          "type": "uint256"
        }
      ],
      "name": "Transfer",
      "type": "event"
    },
    {
      "anonymous": false,
      "inputs": [
        {
          "indexed": true,
          "internalType": "address",
          "name": "caller",
          "type": "address"
        },
        {
          "indexed": true,
          "internalType": "address",
          "name": "receiver",
          "type": "address"
        },
        {
          "indexed": true,
          "internalType": "address",
          "name": "owner",
          "type": "address"
        },
        {
          "indexed": false,
          "internalType": "uint256",
          "name": "assets",
          "type": "uint256"
        },
        {
          "indexed": false,
          "internalType": "uint256",
          "name": "shares",
          "type": "uint256"
        }
      ],
      "name": "Withdraw",
      "type": "event"
    },
    {
      "inputs": [],
      "name": "DOMAIN_SEPARATOR",
      "outputs": [
        {
          "internalType": "bytes32",
          "name": "",
          "type": "bytes32"
        }
      ],
      "stateMutability": "view",
      "type": "function"
    },
    {
      "inputs": [
        {
          "internalType": "address",
          "name": "",
          "type": "address"
        },
        {
          "internalType": "address",
          "name": "",
          "type": "address"
        }
      ],
      "name": "allowance",
      "outputs": [
        {
          "internalType": "uint256",
          "name": "",
          "type": "uint256"
        }
      ],
      "stateMutability": "view",
      "type": "function"
    },
    {
      "inputs": [
        {
          "internalType": "address",
          "name": "spender",
          "type": "address"
        },
        {
          "internalType": "uint256",
          "name": "amount",
          "type": "uint256"
        }
      ],
      "name": "approve",
      "outputs": [
        {
          "internalType": "bool",
          "name": "",
          "type": "bool"
        }
      ],
      "stateMutability": "nonpayable",
      "type": "function"
    },
    {
      "inputs": [],
      "name": "asset",
      "outputs": [
        {
          "internalType": "contract ERC20",
          "name": "",
          "type": "address"
        }
      ],
      "stateMutability": "view",
      "type": "function"
    },
    {
      "inputs": [
        {
          "internalType": "address",
          "name": "",
          "type": "address"
        }
      ],
      "name": "balanceOf",
      "outputs": [
        {
          "internalType": "uint256",
          "name": "",
          "type": "uint256"
        }
      ],
      "stateMutability": "view",
      "type": "function"
    },
    {
      "inputs": [
        {
          "internalType": "uint256",
          "name": "shares",
          "type": "uint256"
        }
      ],
      "name": "convertToAssets",
      "outputs": [
        {
          "internalType": "uint256",
          "name": "",
          "type": "uint256"
        }
      ],
      "stateMutability": "view",
      "type": "function"
    },
    {
      "inputs": [
        {
          "internalType": "uint256",
          "name": "assets",
          "type": "uint256"
        }
      ],
      "name": "convertToShares",
      "outputs": [
        {
          "internalType": "uint256",
          "name": "",
          "type": "uint256"
        }
      ],
      "stateMutability": "view",
      "type": "function"
    },
    {
      "inputs": [],
      "name": "decimals",
      "outputs": [
        {
          "internalType": "uint8",
          "name": "",
          "type": "uint8"
        }
      ],
      "stateMutability": "view",
      "type": "function"
    },
    {
      "inputs": [
        {
          "internalType": "uint256",
          "name": "assets",
          "type": "uint256"
        },
        {
          "internalType": "address",
          "name": "receiver",
          "type": "address"
        }
      ],
      "name": "deposit",
      "outputs": [
        {
          "internalType": "uint256",
          "name": "shares",
          "type": "uint256"
        }
      ],
      "stateMutability": "nonpayable",
      "type": "function"
    },
    {
      "inputs": [
        {
          "internalType": "uint256",
          "name": "_ghoAmount",
          "type": "uint256"
        }
      ],
      "name": "depositGHO",
      "outputs": [],
      "stateMutability": "nonpayable",
      "type": "function"
    },
    {
      "inputs": [],
      "name": "i_ghoToken",
      "outputs": [
        {
          "internalType": "contract ERC20",
          "name": "",
          "type": "address"
        }
      ],
      "stateMutability": "view",
      "type": "function"
    },
    {
      "inputs": [
        {
          "internalType": "address",
          "name": "",
          "type": "address"
        }
      ],
      "name": "maxDeposit",
      "outputs": [
        {
          "internalType": "uint256",
          "name": "",
          "type": "uint256"
        }
      ],
      "stateMutability": "view",
      "type": "function"
    },
    {
      "inputs": [
        {
          "internalType": "address",
          "name": "",
          "type": "address"
        }
      ],
      "name": "maxMint",
      "outputs": [
        {
          "internalType": "uint256",
          "name": "",
          "type": "uint256"
        }
      ],
      "stateMutability": "view",
      "type": "function"
    },
    {
      "inputs": [
        {
          "internalType": "address",
          "name": "owner",
          "type": "address"
        }
      ],
      "name": "maxRedeem",
      "outputs": [
        {
          "internalType": "uint256",
          "name": "",
          "type": "uint256"
        }
      ],
      "stateMutability": "view",
      "type": "function"
    },
    {
      "inputs": [
        {
          "internalType": "address",
          "name": "owner",
          "type": "address"
        }
      ],
      "name": "maxWithdraw",
      "outputs": [
        {
          "internalType": "uint256",
          "name": "",
          "type": "uint256"
        }
      ],
      "stateMutability": "view",
      "type": "function"
    },
    {
      "inputs": [
        {
          "internalType": "uint256",
          "name": "shares",
          "type": "uint256"
        },
        {
          "internalType": "address",
          "name": "receiver",
          "type": "address"
        }
      ],
      "name": "mint",
      "outputs": [
        {
          "internalType": "uint256",
          "name": "assets",
          "type": "uint256"
        }
      ],
      "stateMutability": "nonpayable",
      "type": "function"
    },
    {
      "inputs": [],
      "name": "name",
      "outputs": [
        {
          "internalType": "string",
          "name": "",
          "type": "string"
        }
      ],
      "stateMutability": "view",
      "type": "function"
    },
    {
      "inputs": [
        {
          "internalType": "address",
          "name": "",
          "type": "address"
        }
      ],
      "name": "nonces",
      "outputs": [
        {
          "internalType": "uint256",
          "name": "",
          "type": "uint256"
        }
      ],
      "stateMutability": "view",
      "type": "function"
    },
    {
      "inputs": [],
      "name": "owner",
      "outputs": [
        {
          "internalType": "address",
          "name": "",
          "type": "address"
        }
      ],
      "stateMutability": "view",
      "type": "function"
    },
    {
      "inputs": [
        {
          "internalType": "address",
          "name": "owner",
          "type": "address"
        },
        {
          "internalType": "address",
          "name": "spender",
          "type": "address"
        },
        {
          "internalType": "uint256",
          "name": "value",
          "type": "uint256"
        },
        {
          "internalType": "uint256",
          "name": "deadline",
          "type": "uint256"
        },
        {
          "internalType": "uint8",
          "name": "v",
          "type": "uint8"
        },
        {
          "internalType": "bytes32",
          "name": "r",
          "type": "bytes32"
        },
        {
          "internalType": "bytes32",
          "name": "s",
          "type": "bytes32"
        }
      ],
      "name": "permit",
      "outputs": [],
      "stateMutability": "nonpayable",
      "type": "function"
    },
    {
      "inputs": [
        {
          "internalType": "uint256",
          "name": "assets",
          "type": "uint256"
        }
      ],
      "name": "previewDeposit",
      "outputs": [
        {
          "internalType": "uint256",
          "name": "",
          "type": "uint256"
        }
      ],
      "stateMutability": "view",
      "type": "function"
    },
    {
      "inputs": [
        {
          "internalType": "uint256",
          "name": "shares",
          "type": "uint256"
        }
      ],
      "name": "previewMint",
      "outputs": [
        {
          "internalType": "uint256",
          "name": "",
          "type": "uint256"
        }
      ],
      "stateMutability": "view",
      "type": "function"
    },
    {
      "inputs": [
        {
          "internalType": "uint256",
          "name": "shares",
          "type": "uint256"
        }
      ],
      "name": "previewRedeem",
      "outputs": [
        {
          "internalType": "uint256",
          "name": "",
          "type": "uint256"
        }
      ],
      "stateMutability": "view",
      "type": "function"
    },
    {
      "inputs": [
        {
          "internalType": "uint256",
          "name": "assets",
          "type": "uint256"
        }
      ],
      "name": "previewWithdraw",
      "outputs": [
        {
          "internalType": "uint256",
          "name": "",
          "type": "uint256"
        }
      ],
      "stateMutability": "view",
      "type": "function"
    },
    {
      "inputs": [
        {
          "internalType": "uint256",
          "name": "shares",
          "type": "uint256"
        },
        {
          "internalType": "address",
          "name": "receiver",
          "type": "address"
        },
        {
          "internalType": "address",
          "name": "owner",
          "type": "address"
        }
      ],
      "name": "redeem",
      "outputs": [
        {
          "internalType": "uint256",
          "name": "assets",
          "type": "uint256"
        }
      ],
      "stateMutability": "nonpayable",
      "type": "function"
    },
    {
      "inputs": [],
      "name": "renounceOwnership",
      "outputs": [],
      "stateMutability": "nonpayable",
      "type": "function"
    },
    {
      "inputs": [
        {
          "internalType": "address",
          "name": "_user",
          "type": "address"
        }
      ],
      "name": "rpTokenBalance",
      "outputs": [
        {
          "internalType": "uint256",
          "name": "",
          "type": "uint256"
        }
      ],
      "stateMutability": "view",
      "type": "function"
    },
    {
      "inputs": [],
      "name": "s_partnerFee",
      "outputs": [
        {
          "internalType": "uint256",
          "name": "",
          "type": "uint256"
        }
      ],
      "stateMutability": "view",
      "type": "function"
    },
    {
      "inputs": [],
      "name": "s_partnerFeeCollector",
      "outputs": [
        {
          "internalType": "address",
          "name": "",
          "type": "address"
        }
      ],
      "stateMutability": "view",
      "type": "function"
    },
    {
      "inputs": [],
      "name": "s_rewardPool",
      "outputs": [
        {
          "internalType": "address",
          "name": "",
          "type": "address"
        }
      ],
      "stateMutability": "view",
      "type": "function"
    },
    {
      "inputs": [],
      "name": "s_withdrawalFee",
      "outputs": [
        {
          "internalType": "uint256",
          "name": "",
          "type": "uint256"
        }
      ],
      "stateMutability": "view",
      "type": "function"
    },
    {
      "inputs": [
        {
          "internalType": "address",
          "name": "_feeCollector",
          "type": "address"
        }
      ],
      "name": "setFeeCollector",
      "outputs": [],
      "stateMutability": "nonpayable",
      "type": "function"
    },
    {
      "inputs": [
        {
          "internalType": "uint8",
          "name": "_partnerFee",
          "type": "uint8"
        }
      ],
      "name": "setPartnerFee",
      "outputs": [],
      "stateMutability": "nonpayable",
      "type": "function"
    },
    {
      "inputs": [
        {
          "internalType": "address",
          "name": "_rewardPool",
          "type": "address"
        }
      ],
      "name": "setRewardPool",
      "outputs": [],
      "stateMutability": "nonpayable",
      "type": "function"
    },
    {
      "inputs": [
        {
          "internalType": "uint8",
          "name": "_withdrawalFee",
          "type": "uint8"
        }
      ],
      "name": "setWithdrawalFee",
      "outputs": [],
      "stateMutability": "nonpayable",
      "type": "function"
    },
    {
      "inputs": [],
      "name": "symbol",
      "outputs": [
        {
          "internalType": "string",
          "name": "",
          "type": "string"
        }
      ],
      "stateMutability": "view",
      "type": "function"
    },
    {
      "inputs": [],
      "name": "totalAssets",
      "outputs": [
        {
          "internalType": "uint256",
          "name": "",
          "type": "uint256"
        }
      ],
      "stateMutability": "view",
      "type": "function"
    },
    {
      "inputs": [],
      "name": "totalSupply",
      "outputs": [
        {
          "internalType": "uint256",
          "name": "",
          "type": "uint256"
        }
      ],
      "stateMutability": "view",
      "type": "function"
    },
    {
      "inputs": [
        {
          "internalType": "address",
          "name": "to",
          "type": "address"
        },
        {
          "internalType": "uint256",
          "name": "amount",
          "type": "uint256"
        }
      ],
      "name": "transfer",
      "outputs": [
        {
          "internalType": "bool",
          "name": "",
          "type": "bool"
        }
      ],
      "stateMutability": "nonpayable",
      "type": "function"
    },
    {
      "inputs": [
        {
          "internalType": "address",
          "name": "from",
          "type": "address"
        },
        {
          "internalType": "address",
          "name": "to",
          "type": "address"
        },
        {
          "internalType": "uint256",
          "name": "amount",
          "type": "uint256"
        }
      ],
      "name": "transferFrom",
      "outputs": [
        {
          "internalType": "bool",
          "name": "",
          "type": "bool"
        }
      ],
      "stateMutability": "nonpayable",
      "type": "function"
    },
    {
      "inputs": [
        {
          "internalType": "address",
          "name": "newOwner",
          "type": "address"
        }
      ],
      "name": "transferOwnership",
      "outputs": [],
      "stateMutability": "nonpayable",
      "type": "function"
    },
    {
      "inputs": [
        {
          "internalType": "uint256",
          "name": "_rpAmount",
          "type": "uint256"
        },
        {
          "internalType": "address",
          "name": "_receiver",
          "type": "address"
        },
        {
          "internalType": "address",
          "name": "_owner",
          "type": "address"
        }
      ],
      "name": "withdraw",
      "outputs": [
        {
          "internalType": "uint256",
          "name": "shares",
          "type": "uint256"
        }
      ],
      "stateMutability": "nonpayable",
      "type": "function"
    },
    {
      "inputs": [
        {
          "internalType": "uint256",
          "name": "_rp",
          "type": "uint256"
        },
        {
          "internalType": "address",
          "name": "_receiver",
          "type": "address"
        },
        {
          "internalType": "address",
          "name": "_owner",
          "type": "address"
        }
      ],
      "name": "withdrawGHO",
      "outputs": [],
      "stateMutability": "nonpayable",
      "type": "function"
    }
  ],
  "bytecode": {
    "object": "0x6101206040523480156200001257600080fd5b50604051620020b5380380620020b583398101604081905262000035916200034c565b83878787848b6001600160a01b031663313ce5676040518163ffffffff1660e01b8152600401602060405180830381865afa15801562000079573d6000803e3d6000fd5b505050506040513d601f19601f820116820180604052508101906200009f91906200041e565b620000ab919062000443565b8282826000620000bc848262000500565b506001620000cb838262000500565b5060ff81166080524660a052620000e162000169565b60c0525050506001600160a01b0393841660e05250505081166200011f57604051631e4fbdf760e01b81526000600482015260240160405180910390fd5b6200012a8162000205565b50506001600160a01b0395861661010052600980549287166001600160a01b0319938416179055600a805491909616911617909355506200064a915050565b60007f8b73c3c69bb8fe3d512ecc4cf759cc79239f7b179b0ffacaa9a75d522b39400f60006040516200019d9190620005cc565b6040805191829003822060208301939093528101919091527fc89efdaa54c0f20c7adf612882df0950f5a951637e0307cdcb4c672f298b8bc660608201524660808201523060a082015260c00160405160208183030381529060405280519060200120905090565b600680546001600160a01b038381166001600160a01b0319831681179093556040519116919082907f8be0079c531659141344cd1fd0a4f28419497f9722a3daafe3b4186f6b6457e090600090a35050565b6001600160a01b03811681146200026d57600080fd5b50565b634e487b7160e01b600052604160045260246000fd5b600082601f8301126200029857600080fd5b81516001600160401b0380821115620002b557620002b562000270565b604051601f8301601f19908116603f01168101908282118183101715620002e057620002e062000270565b81604052838152602092508683858801011115620002fd57600080fd5b600091505b8382101562000321578582018301518183018401529082019062000302565b600093810190920192909252949350505050565b805160ff811681146200034757600080fd5b919050565b600080600080600080600060e0888a0312156200036857600080fd5b8751620003758162000257565b60208901519097506001600160401b03808211156200039357600080fd5b620003a18b838c0162000286565b975060408a0151915080821115620003b857600080fd5b50620003c78a828b0162000286565b9550506060880151620003da8162000257565b6080890151909450620003ed8162000257565b60a0890151909350620004008162000257565b91506200041060c0890162000335565b905092959891949750929550565b6000602082840312156200043157600080fd5b6200043c8262000335565b9392505050565b60ff81811683821601908111156200046b57634e487b7160e01b600052601160045260246000fd5b92915050565b600181811c908216806200048657607f821691505b602082108103620004a757634e487b7160e01b600052602260045260246000fd5b50919050565b601f821115620004fb57600081815260208120601f850160051c81016020861015620004d65750805b601f850160051c820191505b81811015620004f757828155600101620004e2565b5050505b505050565b81516001600160401b038111156200051c576200051c62000270565b62000534816200052d845462000471565b84620004ad565b602080601f8311600181146200056c5760008415620005535750858301515b600019600386901b1c1916600185901b178555620004f7565b600085815260208120601f198616915b828110156200059d578886015182559484019460019091019084016200057c565b5085821015620005bc5787850151600019600388901b60f8161c191681555b5050505050600190811b01905550565b6000808354620005dc8162000471565b60018281168015620005f757600181146200060d576200063e565b60ff19841687528215158302870194506200063e565b8760005260208060002060005b85811015620006355781548a8201529084019082016200061a565b50505082870194505b50929695505050505050565b60805160a05160c05160e051610100516119f5620006c06000396000818161046f0152818161061c01528181610dfa01528181610e3f0152610e7701526000818161034901528181610a0001528181610b7b0152610fc4015260006108f0015260006108c00152600061030801526119f56000f3fe608060405234801561001057600080fd5b50600436106102695760003560e01c80638da5cb5b11610151578063ba087652116100c3578063d8492e0811610087578063d8492e0814610597578063d905777e14610398578063dd62ed3e146105a0578063ef8b30f7146105cb578063f2fde38b146105de578063f63d87c8146105f157600080fd5b8063ba0876521461054b578063c63d75b614610383578063c6e6f5921461055e578063ce96cb7714610571578063d505accf1461058457600080fd5b80639fd8c129116101155780639fd8c129146104e3578063a42dce80146104ec578063a9059cbb146104ff578063ac4932c914610512578063b3d7f6b914610525578063b460af941461053857600080fd5b80638da5cb5b1461049157806392dc6100146104a257806394bf804d146104b557806395190275146104c857806395d89b41146104db57600080fd5b8063402d267d116101ea57806370a08231116101ae57806370a08231146103fc578063715018a61461041c5780637709b6ab1461042457806378238c37146104375780637ecebe001461044a57806389c078de1461046a57600080fd5b8063402d267d1461038357806344a6c0fc146103985780634cdad506146103c157806354fe8fb7146103d45780636e553f65146103e957600080fd5b806318160ddd1161023157806318160ddd146102e757806323b872dd146102f0578063313ce567146103035780633644e5151461033c57806338d52e0f1461034457600080fd5b806301e1d1141461026e57806306fdde031461028957806307a2d13a1461029e578063095ea7b3146102b15780630a28a477146102d4575b600080fd5b610276610604565b6040519081526020015b60405180910390f35b610291610694565b6040516102809190611645565b6102766102ac366004611693565b610722565b6102c46102bf3660046116c8565b61074f565b6040519015158152602001610280565b6102766102e2366004611693565b6107bc565b61027660025481565b6102c46102fe3660046116f2565b6107dc565b61032a7f000000000000000000000000000000000000000000000000000000000000000081565b60405160ff9091168152602001610280565b6102766108bc565b61036b7f000000000000000000000000000000000000000000000000000000000000000081565b6040516001600160a01b039091168152602001610280565b61027661039136600461172e565b5060001990565b6102766103a636600461172e565b6001600160a01b031660009081526003602052604090205490565b6102766103cf366004611693565b610912565b6103e76103e2366004611749565b61091d565b005b6102766103f7366004611785565b6109a3565b61027661040a36600461172e565b60036020526000908152604090205481565b6103e7610a7e565b6103e7610432366004611693565b610a92565b6103e761044536600461172e565b610ad8565b61027661045836600461172e565b60056020526000908152604090205481565b61036b7f000000000000000000000000000000000000000000000000000000000000000081565b6006546001600160a01b031661036b565b6103e76104b03660046117c2565b610b2b565b6102766104c3366004611785565b610b61565b6103e76104d63660046117c2565b610bf0565b610291610c26565b61027660085481565b6103e76104fa36600461172e565b610c33565b6102c461050d3660046116c8565b610c86565b60095461036b906001600160a01b031681565b610276610533366004611693565b610cec565b610276610546366004611749565b610d0b565b610276610559366004611749565b610ea9565b61027661056c366004611693565b610feb565b61027661057f36600461172e565b61100b565b6103e76105923660046117dd565b61102d565b61027660075481565b6102766105ae366004611847565b600460209081526000928352604080842090915290825290205481565b6102766105d9366004611693565b611271565b6103e76105ec36600461172e565b61127c565b600a5461036b906001600160a01b031681565b6040516370a0823160e01b81523060048201526000907f00000000000000000000000000000000000000000000000000000000000000006001600160a01b0316906370a0823190602401602060405180830381865afa15801561066b573d6000803e3d6000fd5b505050506040513d601f19601f8201168201806040525081019061068f9190611871565b905090565b600080546106a19061188a565b80601f01602080910402602001604051908101604052809291908181526020018280546106cd9061188a565b801561071a5780601f106106ef5761010080835404028352916020019161071a565b820191906000526020600020905b8154815290600101906020018083116106fd57829003601f168201915b505050505081565b600254600090801561074657610741610739610604565b8490836112ba565b610748565b825b9392505050565b3360008181526004602090815260408083206001600160a01b038716808552925280832085905551919290917f8c5be1e5ebec7d5bd14f71427d1e84f3dd0314c0f7b2291e5b200ac8c7c3b925906107aa9086815260200190565b60405180910390a35060015b92915050565b600254600090801561074657610741816107d4610604565b8591906112d8565b6001600160a01b038316600090815260046020908152604080832033845290915281205460001981146108385761081383826118da565b6001600160a01b03861660009081526004602090815260408083203384529091529020555b6001600160a01b038516600090815260036020526040812080548592906108609084906118da565b90915550506001600160a01b03808516600081815260036020526040908190208054870190555190918716906000805160206119a0833981519152906108a99087815260200190565b60405180910390a3506001949350505050565b60007f000000000000000000000000000000000000000000000000000000000000000046146108ed5761068f6112fe565b507f000000000000000000000000000000000000000000000000000000000000000090565b60006107b682610722565b828060000361093f57604051633549ac7960e01b815260040160405180910390fd5b826001600160a01b0381166109675760405163634f57cd60e01b815260040160405180910390fd5b826001600160a01b03811661098f5760405163634f57cd60e01b815260040160405180910390fd5b61099a868686610d0b565b50505050505050565b60006109ae83611271565b9050806000036109f35760405162461bcd60e51b815260206004820152600b60248201526a5a45524f5f53484152455360a81b60448201526064015b60405180910390fd5b610a286001600160a01b037f000000000000000000000000000000000000000000000000000000000000000016333086611398565b610a328282611434565b60408051848152602081018390526001600160a01b0384169133917fdcbc1c05240f31ff3ad067ef1ee35ce4997762752e3a095284754544f4c709d791015b60405180910390a36107b6565b610a8661148e565b610a9060006114bb565b565b8080600003610ab457604051633549ac7960e01b815260040160405180910390fd5b610abc61148e565b600954610ad39083906001600160a01b03166109a3565b505050565b806001600160a01b038116610b005760405163634f57cd60e01b815260040160405180910390fd5b610b0861148e565b50600980546001600160a01b0319166001600160a01b0392909216919091179055565b8060ff1680600003610b5057604051633549ac7960e01b815260040160405180910390fd5b610b5861148e565b5060ff16600755565b6000610b6c83610cec565b9050610ba36001600160a01b037f000000000000000000000000000000000000000000000000000000000000000016333084611398565b610bad8284611434565b60408051828152602081018590526001600160a01b0384169133917fdcbc1c05240f31ff3ad067ef1ee35ce4997762752e3a095284754544f4c709d79101610a71565b8060ff1680600003610c1557604051633549ac7960e01b815260040160405180910390fd5b610c1d61148e565b5060ff16600855565b600180546106a19061188a565b806001600160a01b038116610c5b5760405163634f57cd60e01b815260040160405180910390fd5b610c6361148e565b50600a80546001600160a01b0319166001600160a01b0392909216919091179055565b33600090815260036020526040812080548391908390610ca79084906118da565b90915550506001600160a01b038316600081815260036020526040908190208054850190555133906000805160206119a0833981519152906107aa9086815260200190565b600254600090801561074657610741610d03610604565b8490836112d8565b6000610d16846107bc565b9050336001600160a01b03831614610d86576001600160a01b03821660009081526004602090815260408083203384529091529020546000198114610d8457610d5f82826118da565b6001600160a01b03841660009081526004602090815260408083203384529091529020555b505b610d90828261150d565b60408051858152602081018390526001600160a01b03808516929086169133917ffbde797d201c681b91056529119e0b02407c7bb96a4a2c75c01fc9667232c8db910160405180910390a46006546001600160a01b03163303610e21576107416001600160a01b037f000000000000000000000000000000000000000000000000000000000000000016848661156f565b600080610e2d866115f6565b9092509050610e666001600160a01b037f000000000000000000000000000000000000000000000000000000000000000016868461156f565b600a54610ea0906001600160a01b037f0000000000000000000000000000000000000000000000000000000000000000811691168361156f565b50509392505050565b6000336001600160a01b03831614610f19576001600160a01b03821660009081526004602090815260408083203384529091529020546000198114610f1757610ef285826118da565b6001600160a01b03841660009081526004602090815260408083203384529091529020555b505b610f2284610912565b905080600003610f625760405162461bcd60e51b815260206004820152600b60248201526a5a45524f5f41535345545360a81b60448201526064016109ea565b610f6c828561150d565b60408051828152602081018690526001600160a01b03808516929086169133917ffbde797d201c681b91056529119e0b02407c7bb96a4a2c75c01fc9667232c8db910160405180910390a46107486001600160a01b037f000000000000000000000000000000000000000000000000000000000000000016848361156f565b60025460009080156107465761074181611003610604565b8591906112ba565b6001600160a01b0381166000908152600360205260408120546107b690610722565b4284101561107d5760405162461bcd60e51b815260206004820152601760248201527f5045524d49545f444541444c494e455f4558504952454400000000000000000060448201526064016109ea565b600060016110896108bc565b6001600160a01b038a811660008181526005602090815260409182902080546001810190915582517f6e71edae12b1b97f4d1f60370fef10105fa2faae0126114a169c64845d6126c98184015280840194909452938d166060840152608083018c905260a083019390935260c08083018b90528151808403909101815260e08301909152805192019190912061190160f01b6101008301526101028201929092526101228101919091526101420160408051601f198184030181528282528051602091820120600084529083018083525260ff871690820152606081018590526080810184905260a0016020604051602081039080840390855afa158015611195573d6000803e3d6000fd5b5050604051601f1901519150506001600160a01b038116158015906111cb5750876001600160a01b0316816001600160a01b0316145b6112085760405162461bcd60e51b815260206004820152600e60248201526d24a72b20a624a22fa9a4a3a722a960911b60448201526064016109ea565b6001600160a01b0390811660009081526004602090815260408083208a8516808552908352928190208990555188815291928a16917f8c5be1e5ebec7d5bd14f71427d1e84f3dd0314c0f7b2291e5b200ac8c7c3b925910160405180910390a350505050505050565b60006107b682610feb565b61128461148e565b6001600160a01b0381166112ae57604051631e4fbdf760e01b8152600060048201526024016109ea565b6112b7816114bb565b50565b60008260001904841183021582026112d157600080fd5b5091020490565b60008260001904841183021582026112ef57600080fd5b50910281810615159190040190565b60007f8b73c3c69bb8fe3d512ecc4cf759cc79239f7b179b0ffacaa9a75d522b39400f600060405161133091906118ed565b6040805191829003822060208301939093528101919091527fc89efdaa54c0f20c7adf612882df0950f5a951637e0307cdcb4c672f298b8bc660608201524660808201523060a082015260c00160405160208183030381529060405280519060200120905090565b60006040516323b872dd60e01b81526001600160a01b03851660048201526001600160a01b03841660248201528260448201526020600060648360008a5af13d15601f3d116001600051141617169150508061142d5760405162461bcd60e51b81526020600482015260146024820152731514905394d1915497d19493d357d1905253115160621b60448201526064016109ea565b5050505050565b8060026000828254611446919061198c565b90915550506001600160a01b0382166000818152600360209081526040808320805486019055518481526000805160206119a083398151915291015b60405180910390a35050565b6006546001600160a01b03163314610a905760405163118cdaa760e01b81523360048201526024016109ea565b600680546001600160a01b038381166001600160a01b0319831681179093556040519116919082907f8be0079c531659141344cd1fd0a4f28419497f9722a3daafe3b4186f6b6457e090600090a35050565b6001600160a01b038216600090815260036020526040812080548392906115359084906118da565b90915550506002805482900390556040518181526000906001600160a01b038416906000805160206119a083398151915290602001611482565b600060405163a9059cbb60e01b81526001600160a01b0384166004820152826024820152602060006044836000895af13d15601f3d11600160005114161716915050806115f05760405162461bcd60e51b815260206004820152600f60248201526e1514905394d1915497d19052531151608a1b60448201526064016109ea565b50505050565b600080600061160484611626565b905061161281600854611630565b915061161e81856118da565b925050915091565b60006107b6826007545b60006107488383670de0b6b3a76400006112d8565b600060208083528351808285015260005b8181101561167257858101830151858201604001528201611656565b506000604082860101526040601f19601f8301168501019250505092915050565b6000602082840312156116a557600080fd5b5035919050565b80356001600160a01b03811681146116c357600080fd5b919050565b600080604083850312156116db57600080fd5b6116e4836116ac565b946020939093013593505050565b60008060006060848603121561170757600080fd5b611710846116ac565b925061171e602085016116ac565b9150604084013590509250925092565b60006020828403121561174057600080fd5b610748826116ac565b60008060006060848603121561175e57600080fd5b8335925061176e602085016116ac565b915061177c604085016116ac565b90509250925092565b6000806040838503121561179857600080fd5b823591506117a8602084016116ac565b90509250929050565b803560ff811681146116c357600080fd5b6000602082840312156117d457600080fd5b610748826117b1565b600080600080600080600060e0888a0312156117f857600080fd5b611801886116ac565b965061180f602089016116ac565b9550604088013594506060880135935061182b608089016117b1565b925060a0880135915060c0880135905092959891949750929550565b6000806040838503121561185a57600080fd5b611863836116ac565b91506117a8602084016116ac565b60006020828403121561188357600080fd5b5051919050565b600181811c9082168061189e57607f821691505b6020821081036118be57634e487b7160e01b600052602260045260246000fd5b50919050565b634e487b7160e01b600052601160045260246000fd5b818103818111156107b6576107b66118c4565b600080835481600182811c91508083168061190957607f831692505b6020808410820361192857634e487b7160e01b86526022600452602486fd5b81801561193c57600181146119515761197e565b60ff198616895284151585028901965061197e565b60008a81526020902060005b868110156119765781548b82015290850190830161195d565b505084890196505b509498975050505050505050565b808201808211156107b6576107b66118c456feddf252ad1be2c89b69c2b068fc378daa952ba7f163c4a11628f55a4df523b3efa2646970667358221220996635c022ed524c5d48cb5d8a87c6f8dce452aea3fb98ffb5905d87b903966564736f6c63430008140033",
    "linkReferences": {}
  },
  "methodIdentifiers": {
    "DOMAIN_SEPARATOR()": "3644e515",
    "allowance(address,address)": "dd62ed3e",
    "approve(address,uint256)": "095ea7b3",
    "asset()": "38d52e0f",
    "balanceOf(address)": "70a08231",
    "convertToAssets(uint256)": "07a2d13a",
    "convertToShares(uint256)": "c6e6f592",
    "decimals()": "313ce567",
    "deposit(uint256,address)": "6e553f65",
    "depositGHO(uint256)": "7709b6ab",
    "i_ghoToken()": "89c078de",
    "maxDeposit(address)": "402d267d",
    "maxMint(address)": "c63d75b6",
    "maxRedeem(address)": "d905777e",
    "maxWithdraw(address)": "ce96cb77",
    "mint(uint256,address)": "94bf804d",
    "name()": "06fdde03",
    "nonces(address)": "7ecebe00",
    "owner()": "8da5cb5b",
    "permit(address,address,uint256,uint256,uint8,bytes32,bytes32)": "d505accf",
    "previewDeposit(uint256)": "ef8b30f7",
    "previewMint(uint256)": "b3d7f6b9",
    "previewRedeem(uint256)": "4cdad506",
    "previewWithdraw(uint256)": "0a28a477",
    "redeem(uint256,address,address)": "ba087652",
    "renounceOwnership()": "715018a6",
    "rpTokenBalance(address)": "44a6c0fc",
    "s_partnerFee()": "9fd8c129",
    "s_partnerFeeCollector()": "f63d87c8",
    "s_rewardPool()": "ac4932c9",
    "s_withdrawalFee()": "d8492e08",
    "setFeeCollector(address)": "a42dce80",
    "setPartnerFee(uint8)": "95190275",
    "setRewardPool(address)": "78238c37",
    "setWithdrawalFee(uint8)": "92dc6100",
    "symbol()": "95d89b41",
    "totalAssets()": "01e1d114",
    "totalSupply()": "18160ddd",
    "transfer(address,uint256)": "a9059cbb",
    "transferFrom(address,address,uint256)": "23b872dd",
    "transferOwnership(address)": "f2fde38b",
    "withdraw(uint256,address,address)": "b460af94",
    "withdrawGHO(uint256,address,address)": "54fe8fb7"
  },
  "id": 48
}