{
  "abi": [
    {
      "inputs": [
        {
          "internalType": "contract ERC20",
          "name": "_ghoToken",
          "type": "address"
        },
        {
          "internalType": "string",
          "name": "_name",
          "type": "string"
        },
        {
          "internalType": "string",
          "name": "_symbol",
          "type": "string"
        },
        {
          "internalType": "address",
          "name": "_partnerAddress",
          "type": "address"
        },
        {
          "internalType": "address",
          "name": "_rewardPool",
          "type": "address"
        },
        {
          "internalType": "address",
          "name": "_mainAdminFeeCollector",
          "type": "address"
        },
        {
          "internalType": "uint8",
          "name": "ratio",
          "type": "uint8"
        }
      ],
      "stateMutability": "nonpayable",
      "type": "constructor"
    },
    {
      "inputs": [
        {
          "internalType": "address",
          "name": "owner",
          "type": "address"
        }
      ],
      "name": "OwnableInvalidOwner",
      "type": "error"
    },
    {
      "inputs": [
        {
          "internalType": "address",
          "name": "account",
          "type": "address"
        }
      ],
      "name": "OwnableUnauthorizedAccount",
      "type": "error"
    },
    {
      "inputs": [],
      "name": "PartnerVault__ZeroAddress",
      "type": "error"
    },
    {
      "inputs": [],
      "name": "PartnerVault__ZeroAmount",
      "type": "error"
    },
    {
      "anonymous": false,
      "inputs": [
        {
          "indexed": true,
          "internalType": "address",
          "name": "owner",
          "type": "address"
        },
        {
          "indexed": true,
          "internalType": "address",
          "name": "spender",
          "type": "address"
        },
        {
          "indexed": false,
          "internalType": "uint256",
          "name": "amount",
          "type": "uint256"
        }
      ],
      "name": "Approval",
      "type": "event"
    },
    {
      "anonymous": false,
      "inputs": [
        {
          "indexed": true,
          "internalType": "address",
          "name": "caller",
          "type": "address"
        },
        {
          "indexed": true,
          "internalType": "address",
          "name": "owner",
          "type": "address"
        },
        {
          "indexed": false,
          "internalType": "uint256",
          "name": "assets",
          "type": "uint256"
        },
        {
          "indexed": false,
          "internalType": "uint256",
          "name": "shares",
          "type": "uint256"
        }
      ],
      "name": "Deposit",
      "type": "event"
    },
    {
      "anonymous": false,
      "inputs": [
        {
          "indexed": true,
          "internalType": "address",
          "name": "previousOwner",
          "type": "address"
        },
        {
          "indexed": true,
          "internalType": "address",
          "name": "newOwner",
          "type": "address"
        }
      ],
      "name": "OwnershipTransferred",
      "type": "event"
    },
    {
      "anonymous": false,
      "inputs": [
        {
          "indexed": true,
          "internalType": "address",
          "name": "from",
          "type": "address"
        },
        {
          "indexed": true,
          "internalType": "address",
          "name": "to",
          "type": "address"
        },
        {
          "indexed": false,
          "internalType": "uint256",
          "name": "amount",
          "type": "uint256"
        }
      ],
      "name": "Transfer",
      "type": "event"
    },
    {
      "anonymous": false,
      "inputs": [
        {
          "indexed": true,
          "internalType": "address",
          "name": "caller",
          "type": "address"
        },
        {
          "indexed": true,
          "internalType": "address",
          "name": "receiver",
          "type": "address"
        },
        {
          "indexed": true,
          "internalType": "address",
          "name": "owner",
          "type": "address"
        },
        {
          "indexed": false,
          "internalType": "uint256",
          "name": "assets",
          "type": "uint256"
        },
        {
          "indexed": false,
          "internalType": "uint256",
          "name": "shares",
          "type": "uint256"
        }
      ],
      "name": "Withdraw",
      "type": "event"
    },
    {
      "inputs": [],
      "name": "DOMAIN_SEPARATOR",
      "outputs": [
        {
          "internalType": "bytes32",
          "name": "",
          "type": "bytes32"
        }
      ],
      "stateMutability": "view",
      "type": "function"
    },
    {
      "inputs": [
        {
          "internalType": "address",
          "name": "",
          "type": "address"
        },
        {
          "internalType": "address",
          "name": "",
          "type": "address"
        }
      ],
      "name": "allowance",
      "outputs": [
        {
          "internalType": "uint256",
          "name": "",
          "type": "uint256"
        }
      ],
      "stateMutability": "view",
      "type": "function"
    },
    {
      "inputs": [
        {
          "internalType": "address",
          "name": "spender",
          "type": "address"
        },
        {
          "internalType": "uint256",
          "name": "amount",
          "type": "uint256"
        }
      ],
      "name": "approve",
      "outputs": [
        {
          "internalType": "bool",
          "name": "",
          "type": "bool"
        }
      ],
      "stateMutability": "nonpayable",
      "type": "function"
    },
    {
      "inputs": [],
      "name": "asset",
      "outputs": [
        {
          "internalType": "contract ERC20",
          "name": "",
          "type": "address"
        }
      ],
      "stateMutability": "view",
      "type": "function"
    },
    {
      "inputs": [
        {
          "internalType": "address",
          "name": "",
          "type": "address"
        }
      ],
      "name": "balanceOf",
      "outputs": [
        {
          "internalType": "uint256",
          "name": "",
          "type": "uint256"
        }
      ],
      "stateMutability": "view",
      "type": "function"
    },
    {
      "inputs": [
        {
          "internalType": "uint256",
          "name": "shares",
          "type": "uint256"
        }
      ],
      "name": "convertToAssets",
      "outputs": [
        {
          "internalType": "uint256",
          "name": "",
          "type": "uint256"
        }
      ],
      "stateMutability": "view",
      "type": "function"
    },
    {
      "inputs": [
        {
          "internalType": "uint256",
          "name": "assets",
          "type": "uint256"
        }
      ],
      "name": "convertToShares",
      "outputs": [
        {
          "internalType": "uint256",
          "name": "",
          "type": "uint256"
        }
      ],
      "stateMutability": "view",
      "type": "function"
    },
    {
      "inputs": [],
      "name": "decimals",
      "outputs": [
        {
          "internalType": "uint8",
          "name": "",
          "type": "uint8"
        }
      ],
      "stateMutability": "view",
      "type": "function"
    },
    {
      "inputs": [
        {
          "internalType": "uint256",
          "name": "assets",
          "type": "uint256"
        },
        {
          "internalType": "address",
          "name": "receiver",
          "type": "address"
        }
      ],
      "name": "deposit",
      "outputs": [
        {
          "internalType": "uint256",
          "name": "shares",
          "type": "uint256"
        }
      ],
      "stateMutability": "nonpayable",
      "type": "function"
    },
    {
      "inputs": [
        {
          "internalType": "uint256",
          "name": "_ghoAmount",
          "type": "uint256"
        }
      ],
      "name": "depositGHO",
      "outputs": [],
      "stateMutability": "nonpayable",
      "type": "function"
    },
    {
      "inputs": [],
      "name": "i_ghoToken",
      "outputs": [
        {
          "internalType": "contract ERC20",
          "name": "",
          "type": "address"
        }
      ],
      "stateMutability": "view",
      "type": "function"
    },
    {
      "inputs": [
        {
          "internalType": "address",
          "name": "",
          "type": "address"
        }
      ],
      "name": "maxDeposit",
      "outputs": [
        {
          "internalType": "uint256",
          "name": "",
          "type": "uint256"
        }
      ],
      "stateMutability": "view",
      "type": "function"
    },
    {
      "inputs": [
        {
          "internalType": "address",
          "name": "",
          "type": "address"
        }
      ],
      "name": "maxMint",
      "outputs": [
        {
          "internalType": "uint256",
          "name": "",
          "type": "uint256"
        }
      ],
      "stateMutability": "view",
      "type": "function"
    },
    {
      "inputs": [
        {
          "internalType": "address",
          "name": "owner",
          "type": "address"
        }
      ],
      "name": "maxRedeem",
      "outputs": [
        {
          "internalType": "uint256",
          "name": "",
          "type": "uint256"
        }
      ],
      "stateMutability": "view",
      "type": "function"
    },
    {
      "inputs": [
        {
          "internalType": "address",
          "name": "owner",
          "type": "address"
        }
      ],
      "name": "maxWithdraw",
      "outputs": [
        {
          "internalType": "uint256",
          "name": "",
          "type": "uint256"
        }
      ],
      "stateMutability": "view",
      "type": "function"
    },
    {
      "inputs": [
        {
          "internalType": "uint256",
          "name": "shares",
          "type": "uint256"
        },
        {
          "internalType": "address",
          "name": "receiver",
          "type": "address"
        }
      ],
      "name": "mint",
      "outputs": [
        {
          "internalType": "uint256",
          "name": "assets",
          "type": "uint256"
        }
      ],
      "stateMutability": "nonpayable",
      "type": "function"
    },
    {
      "inputs": [],
      "name": "name",
      "outputs": [
        {
          "internalType": "string",
          "name": "",
          "type": "string"
        }
      ],
      "stateMutability": "view",
      "type": "function"
    },
    {
      "inputs": [
        {
          "internalType": "address",
          "name": "",
          "type": "address"
        }
      ],
      "name": "nonces",
      "outputs": [
        {
          "internalType": "uint256",
          "name": "",
          "type": "uint256"
        }
      ],
      "stateMutability": "view",
      "type": "function"
    },
    {
      "inputs": [],
      "name": "owner",
      "outputs": [
        {
          "internalType": "address",
          "name": "",
          "type": "address"
        }
      ],
      "stateMutability": "view",
      "type": "function"
    },
    {
      "inputs": [
        {
          "internalType": "address",
          "name": "owner",
          "type": "address"
        },
        {
          "internalType": "address",
          "name": "spender",
          "type": "address"
        },
        {
          "internalType": "uint256",
          "name": "value",
          "type": "uint256"
        },
        {
          "internalType": "uint256",
          "name": "deadline",
          "type": "uint256"
        },
        {
          "internalType": "uint8",
          "name": "v",
          "type": "uint8"
        },
        {
          "internalType": "bytes32",
          "name": "r",
          "type": "bytes32"
        },
        {
          "internalType": "bytes32",
          "name": "s",
          "type": "bytes32"
        }
      ],
      "name": "permit",
      "outputs": [],
      "stateMutability": "nonpayable",
      "type": "function"
    },
    {
      "inputs": [
        {
          "internalType": "uint256",
          "name": "assets",
          "type": "uint256"
        }
      ],
      "name": "previewDeposit",
      "outputs": [
        {
          "internalType": "uint256",
          "name": "",
          "type": "uint256"
        }
      ],
      "stateMutability": "view",
      "type": "function"
    },
    {
      "inputs": [
        {
          "internalType": "uint256",
          "name": "shares",
          "type": "uint256"
        }
      ],
      "name": "previewMint",
      "outputs": [
        {
          "internalType": "uint256",
          "name": "",
          "type": "uint256"
        }
      ],
      "stateMutability": "view",
      "type": "function"
    },
    {
      "inputs": [
        {
          "internalType": "uint256",
          "name": "shares",
          "type": "uint256"
        }
      ],
      "name": "previewRedeem",
      "outputs": [
        {
          "internalType": "uint256",
          "name": "",
          "type": "uint256"
        }
      ],
      "stateMutability": "view",
      "type": "function"
    },
    {
      "inputs": [
        {
          "internalType": "uint256",
          "name": "assets",
          "type": "uint256"
        }
      ],
      "name": "previewWithdraw",
      "outputs": [
        {
          "internalType": "uint256",
          "name": "",
          "type": "uint256"
        }
      ],
      "stateMutability": "view",
      "type": "function"
    },
    {
      "inputs": [
        {
          "internalType": "uint256",
          "name": "shares",
          "type": "uint256"
        },
        {
          "internalType": "address",
          "name": "receiver",
          "type": "address"
        },
        {
          "internalType": "address",
          "name": "owner",
          "type": "address"
        }
      ],
      "name": "redeem",
      "outputs": [
        {
          "internalType": "uint256",
          "name": "assets",
          "type": "uint256"
        }
      ],
      "stateMutability": "nonpayable",
      "type": "function"
    },
    {
      "inputs": [],
      "name": "renounceOwnership",
      "outputs": [],
      "stateMutability": "nonpayable",
      "type": "function"
    },
    {
      "inputs": [
        {
          "internalType": "address",
          "name": "_user",
          "type": "address"
        }
      ],
      "name": "rpTokenBalance",
      "outputs": [
        {
          "internalType": "uint256",
          "name": "",
          "type": "uint256"
        }
      ],
      "stateMutability": "view",
      "type": "function"
    },
    {
      "inputs": [],
      "name": "s_partnerFee",
      "outputs": [
        {
          "internalType": "uint256",
          "name": "",
          "type": "uint256"
        }
      ],
      "stateMutability": "view",
      "type": "function"
    },
    {
      "inputs": [],
      "name": "s_partnerFeeCollector",
      "outputs": [
        {
          "internalType": "address",
          "name": "",
          "type": "address"
        }
      ],
      "stateMutability": "view",
      "type": "function"
    },
    {
      "inputs": [],
      "name": "s_rewardPool",
      "outputs": [
        {
          "internalType": "address",
          "name": "",
          "type": "address"
        }
      ],
      "stateMutability": "view",
      "type": "function"
    },
    {
      "inputs": [],
      "name": "s_withdrawalFee",
      "outputs": [
        {
          "internalType": "uint256",
          "name": "",
          "type": "uint256"
        }
      ],
      "stateMutability": "view",
      "type": "function"
    },
    {
      "inputs": [
        {
          "internalType": "address",
          "name": "_feeCollector",
          "type": "address"
        }
      ],
      "name": "setFeeCollector",
      "outputs": [],
      "stateMutability": "nonpayable",
      "type": "function"
    },
    {
      "inputs": [
        {
          "internalType": "uint8",
          "name": "_partnerFee",
          "type": "uint8"
        }
      ],
      "name": "setPartnerFee",
      "outputs": [],
      "stateMutability": "nonpayable",
      "type": "function"
    },
    {
      "inputs": [
        {
          "internalType": "address",
          "name": "_rewardPool",
          "type": "address"
        }
      ],
      "name": "setRewardPool",
      "outputs": [],
      "stateMutability": "nonpayable",
      "type": "function"
    },
    {
      "inputs": [
        {
          "internalType": "uint8",
          "name": "_withdrawalFee",
          "type": "uint8"
        }
      ],
      "name": "setWithdrawalFee",
      "outputs": [],
      "stateMutability": "nonpayable",
      "type": "function"
    },
    {
      "inputs": [],
      "name": "symbol",
      "outputs": [
        {
          "internalType": "string",
          "name": "",
          "type": "string"
        }
      ],
      "stateMutability": "view",
      "type": "function"
    },
    {
      "inputs": [],
      "name": "totalAssets",
      "outputs": [
        {
          "internalType": "uint256",
          "name": "",
          "type": "uint256"
        }
      ],
      "stateMutability": "view",
      "type": "function"
    },
    {
      "inputs": [],
      "name": "totalSupply",
      "outputs": [
        {
          "internalType": "uint256",
          "name": "",
          "type": "uint256"
        }
      ],
      "stateMutability": "view",
      "type": "function"
    },
    {
      "inputs": [
        {
          "internalType": "address",
          "name": "to",
          "type": "address"
        },
        {
          "internalType": "uint256",
          "name": "amount",
          "type": "uint256"
        }
      ],
      "name": "transfer",
      "outputs": [
        {
          "internalType": "bool",
          "name": "",
          "type": "bool"
        }
      ],
      "stateMutability": "nonpayable",
      "type": "function"
    },
    {
      "inputs": [
        {
          "internalType": "address",
          "name": "from",
          "type": "address"
        },
        {
          "internalType": "address",
          "name": "to",
          "type": "address"
        },
        {
          "internalType": "uint256",
          "name": "amount",
          "type": "uint256"
        }
      ],
      "name": "transferFrom",
      "outputs": [
        {
          "internalType": "bool",
          "name": "",
          "type": "bool"
        }
      ],
      "stateMutability": "nonpayable",
      "type": "function"
    },
    {
      "inputs": [
        {
          "internalType": "address",
          "name": "newOwner",
          "type": "address"
        }
      ],
      "name": "transferOwnership",
      "outputs": [],
      "stateMutability": "nonpayable",
      "type": "function"
    },
    {
      "inputs": [
        {
          "internalType": "uint256",
          "name": "_rpAmount",
          "type": "uint256"
        },
        {
          "internalType": "address",
          "name": "_receiver",
          "type": "address"
        },
        {
          "internalType": "address",
          "name": "_owner",
          "type": "address"
        }
      ],
      "name": "withdraw",
      "outputs": [
        {
          "internalType": "uint256",
          "name": "shares",
          "type": "uint256"
        }
      ],
      "stateMutability": "nonpayable",
      "type": "function"
    },
    {
      "inputs": [
        {
          "internalType": "uint256",
          "name": "_rp",
          "type": "uint256"
        },
        {
          "internalType": "address",
          "name": "_receiver",
          "type": "address"
        },
        {
          "internalType": "address",
          "name": "_owner",
          "type": "address"
        }
      ],
      "name": "withdrawGHO",
      "outputs": [],
      "stateMutability": "nonpayable",
      "type": "function"
    },
    {
      "inputs": [
        {
          "internalType": "uint256",
          "name": "_rpTokenAmount",
          "type": "uint256"
        }
      ],
      "name": "withdrawWithFee",
      "outputs": [
        {
          "internalType": "uint256",
          "name": "amountPayable",
          "type": "uint256"
        },
        {
          "internalType": "uint256",
          "name": "feeForPartner",
          "type": "uint256"
        }
      ],
      "stateMutability": "view",
      "type": "function"
    }
  ],
  "bytecode": {
    "object": "0x6101206040523480156200001257600080fd5b50604051620020e8380380620020e883398101604081905262000035916200034c565b83878787848b6001600160a01b031663313ce5676040518163ffffffff1660e01b8152600401602060405180830381865afa15801562000079573d6000803e3d6000fd5b505050506040513d601f19601f820116820180604052508101906200009f91906200041e565b620000ab919062000443565b8282826000620000bc848262000500565b506001620000cb838262000500565b5060ff81166080524660a052620000e162000169565b60c0525050506001600160a01b0393841660e05250505081166200011f57604051631e4fbdf760e01b81526000600482015260240160405180910390fd5b6200012a8162000205565b50506001600160a01b0395861661010052600980549287166001600160a01b0319938416179055600a805491909616911617909355506200064a915050565b60007f8b73c3c69bb8fe3d512ecc4cf759cc79239f7b179b0ffacaa9a75d522b39400f60006040516200019d9190620005cc565b6040805191829003822060208301939093528101919091527fc89efdaa54c0f20c7adf612882df0950f5a951637e0307cdcb4c672f298b8bc660608201524660808201523060a082015260c00160405160208183030381529060405280519060200120905090565b600680546001600160a01b038381166001600160a01b0319831681179093556040519116919082907f8be0079c531659141344cd1fd0a4f28419497f9722a3daafe3b4186f6b6457e090600090a35050565b6001600160a01b03811681146200026d57600080fd5b50565b634e487b7160e01b600052604160045260246000fd5b600082601f8301126200029857600080fd5b81516001600160401b0380821115620002b557620002b562000270565b604051601f8301601f19908116603f01168101908282118183101715620002e057620002e062000270565b81604052838152602092508683858801011115620002fd57600080fd5b600091505b8382101562000321578582018301518183018401529082019062000302565b600093810190920192909252949350505050565b805160ff811681146200034757600080fd5b919050565b600080600080600080600060e0888a0312156200036857600080fd5b8751620003758162000257565b60208901519097506001600160401b03808211156200039357600080fd5b620003a18b838c0162000286565b975060408a0151915080821115620003b857600080fd5b50620003c78a828b0162000286565b9550506060880151620003da8162000257565b6080890151909450620003ed8162000257565b60a0890151909350620004008162000257565b91506200041060c0890162000335565b905092959891949750929550565b6000602082840312156200043157600080fd5b6200043c8262000335565b9392505050565b60ff81811683821601908111156200046b57634e487b7160e01b600052601160045260246000fd5b92915050565b600181811c908216806200048657607f821691505b602082108103620004a757634e487b7160e01b600052602260045260246000fd5b50919050565b601f821115620004fb57600081815260208120601f850160051c81016020861015620004d65750805b601f850160051c820191505b81811015620004f757828155600101620004e2565b5050505b505050565b81516001600160401b038111156200051c576200051c62000270565b62000534816200052d845462000471565b84620004ad565b602080601f8311600181146200056c5760008415620005535750858301515b600019600386901b1c1916600185901b178555620004f7565b600085815260208120601f198616915b828110156200059d578886015182559484019460019091019084016200057c565b5085821015620005bc5787850151600019600388901b60f8161c191681555b5050505050600190811b01905550565b6000808354620005dc8162000471565b60018281168015620005f757600181146200060d576200063e565b60ff19841687528215158302870194506200063e565b8760005260208060002060005b85811015620006355781548a8201529084019082016200061a565b50505082870194505b50929695505050505050565b60805160a05160c05160e05161010051611a28620006c06000396000818161047a0152818161064f01528181610e2d01528181610e720152610eaa01526000818161035401528181610a3301528181610bae0152610ff701526000610923015260006108f3015260006103130152611a286000f3fe608060405234801561001057600080fd5b50600436106102745760003560e01c806392dc610011610151578063c63d75b6116100c3578063d8492e0811610087578063d8492e08146105ca578063d905777e146103a3578063dd62ed3e146105d3578063ef8b30f7146105fe578063f2fde38b14610611578063f63d87c81461062457600080fd5b8063c63d75b61461038e578063c6e6f59214610569578063cc9e5a3a1461057c578063ce96cb77146105a4578063d505accf146105b757600080fd5b8063a42dce8011610115578063a42dce80146104f7578063a9059cbb1461050a578063ac4932c91461051d578063b3d7f6b914610530578063b460af9414610543578063ba0876521461055657600080fd5b806392dc6100146104ad57806394bf804d146104c057806395190275146104d357806395d89b41146104e65780639fd8c129146104ee57600080fd5b806344a6c0fc116101ea578063715018a6116101ae578063715018a6146104275780637709b6ab1461042f57806378238c37146104425780637ecebe001461045557806389c078de146104755780638da5cb5b1461049c57600080fd5b806344a6c0fc146103a35780634cdad506146103cc57806354fe8fb7146103df5780636e553f65146103f457806370a082311461040757600080fd5b806318160ddd1161023c57806318160ddd146102f257806323b872dd146102fb578063313ce5671461030e5780633644e5151461034757806338d52e0f1461034f578063402d267d1461038e57600080fd5b806301e1d1141461027957806306fdde031461029457806307a2d13a146102a9578063095ea7b3146102bc5780630a28a477146102df575b600080fd5b610281610637565b6040519081526020015b60405180910390f35b61029c6106c7565b60405161028b9190611678565b6102816102b73660046116c6565b610755565b6102cf6102ca3660046116fb565b610782565b604051901515815260200161028b565b6102816102ed3660046116c6565b6107ef565b61028160025481565b6102cf610309366004611725565b61080f565b6103357f000000000000000000000000000000000000000000000000000000000000000081565b60405160ff909116815260200161028b565b6102816108ef565b6103767f000000000000000000000000000000000000000000000000000000000000000081565b6040516001600160a01b03909116815260200161028b565b61028161039c366004611761565b5060001990565b6102816103b1366004611761565b6001600160a01b031660009081526003602052604090205490565b6102816103da3660046116c6565b610945565b6103f26103ed36600461177c565b610950565b005b6102816104023660046117b8565b6109d6565b610281610415366004611761565b60036020526000908152604090205481565b6103f2610ab1565b6103f261043d3660046116c6565b610ac5565b6103f2610450366004611761565b610b0b565b610281610463366004611761565b60056020526000908152604090205481565b6103767f000000000000000000000000000000000000000000000000000000000000000081565b6006546001600160a01b0316610376565b6103f26104bb3660046117f5565b610b5e565b6102816104ce3660046117b8565b610b94565b6103f26104e13660046117f5565b610c23565b61029c610c59565b61028160085481565b6103f2610505366004611761565b610c66565b6102cf6105183660046116fb565b610cb9565b600954610376906001600160a01b031681565b61028161053e3660046116c6565b610d1f565b61028161055136600461177c565b610d3e565b61028161056436600461177c565b610edc565b6102816105773660046116c6565b61101e565b61058f61058a3660046116c6565b61103e565b6040805192835260208301919091520161028b565b6102816105b2366004611761565b61106e565b6103f26105c5366004611810565b611090565b61028160075481565b6102816105e136600461187a565b600460209081526000928352604080842090915290825290205481565b61028161060c3660046116c6565b6112d4565b6103f261061f366004611761565b6112df565b600a54610376906001600160a01b031681565b6040516370a0823160e01b81523060048201526000907f00000000000000000000000000000000000000000000000000000000000000006001600160a01b0316906370a0823190602401602060405180830381865afa15801561069e573d6000803e3d6000fd5b505050506040513d601f19601f820116820180604052508101906106c291906118a4565b905090565b600080546106d4906118bd565b80601f0160208091040260200160405190810160405280929190818152602001828054610700906118bd565b801561074d5780601f106107225761010080835404028352916020019161074d565b820191906000526020600020905b81548152906001019060200180831161073057829003601f168201915b505050505081565b60025460009080156107795761077461076c610637565b84908361131d565b61077b565b825b9392505050565b3360008181526004602090815260408083206001600160a01b038716808552925280832085905551919290917f8c5be1e5ebec7d5bd14f71427d1e84f3dd0314c0f7b2291e5b200ac8c7c3b925906107dd9086815260200190565b60405180910390a35060015b92915050565b60025460009080156107795761077481610807610637565b85919061133b565b6001600160a01b0383166000908152600460209081526040808320338452909152812054600019811461086b57610846838261190d565b6001600160a01b03861660009081526004602090815260408083203384529091529020555b6001600160a01b0385166000908152600360205260408120805485929061089390849061190d565b90915550506001600160a01b03808516600081815260036020526040908190208054870190555190918716906000805160206119d3833981519152906108dc9087815260200190565b60405180910390a3506001949350505050565b60007f00000000000000000000000000000000000000000000000000000000000000004614610920576106c2611361565b507f000000000000000000000000000000000000000000000000000000000000000090565b60006107e982610755565b828060000361097257604051633549ac7960e01b815260040160405180910390fd5b826001600160a01b03811661099a5760405163634f57cd60e01b815260040160405180910390fd5b826001600160a01b0381166109c25760405163634f57cd60e01b815260040160405180910390fd5b6109cd868686610d3e565b50505050505050565b60006109e1836112d4565b905080600003610a265760405162461bcd60e51b815260206004820152600b60248201526a5a45524f5f53484152455360a81b60448201526064015b60405180910390fd5b610a5b6001600160a01b037f0000000000000000000000000000000000000000000000000000000000000000163330866113fb565b610a658282611497565b60408051848152602081018390526001600160a01b0384169133917fdcbc1c05240f31ff3ad067ef1ee35ce4997762752e3a095284754544f4c709d791015b60405180910390a36107e9565b610ab96114f1565b610ac3600061151e565b565b8080600003610ae757604051633549ac7960e01b815260040160405180910390fd5b610aef6114f1565b600954610b069083906001600160a01b03166109d6565b505050565b806001600160a01b038116610b335760405163634f57cd60e01b815260040160405180910390fd5b610b3b6114f1565b50600980546001600160a01b0319166001600160a01b0392909216919091179055565b8060ff1680600003610b8357604051633549ac7960e01b815260040160405180910390fd5b610b8b6114f1565b5060ff16600755565b6000610b9f83610d1f565b9050610bd66001600160a01b037f0000000000000000000000000000000000000000000000000000000000000000163330846113fb565b610be08284611497565b60408051828152602081018590526001600160a01b0384169133917fdcbc1c05240f31ff3ad067ef1ee35ce4997762752e3a095284754544f4c709d79101610aa4565b8060ff1680600003610c4857604051633549ac7960e01b815260040160405180910390fd5b610c506114f1565b5060ff16600855565b600180546106d4906118bd565b806001600160a01b038116610c8e5760405163634f57cd60e01b815260040160405180910390fd5b610c966114f1565b50600a80546001600160a01b0319166001600160a01b0392909216919091179055565b33600090815260036020526040812080548391908390610cda90849061190d565b90915550506001600160a01b038316600081815260036020526040908190208054850190555133906000805160206119d3833981519152906107dd9086815260200190565b600254600090801561077957610774610d36610637565b84908361133b565b6000610d49846107ef565b9050336001600160a01b03831614610db9576001600160a01b03821660009081526004602090815260408083203384529091529020546000198114610db757610d92828261190d565b6001600160a01b03841660009081526004602090815260408083203384529091529020555b505b610dc38282611570565b60408051858152602081018390526001600160a01b03808516929086169133917ffbde797d201c681b91056529119e0b02407c7bb96a4a2c75c01fc9667232c8db910160405180910390a46006546001600160a01b03163303610e54576107746001600160a01b037f00000000000000000000000000000000000000000000000000000000000000001684866115d2565b600080610e608661103e565b9092509050610e996001600160a01b037f00000000000000000000000000000000000000000000000000000000000000001686846115d2565b600a54610ed3906001600160a01b037f000000000000000000000000000000000000000000000000000000000000000081169116836115d2565b50509392505050565b6000336001600160a01b03831614610f4c576001600160a01b03821660009081526004602090815260408083203384529091529020546000198114610f4a57610f25858261190d565b6001600160a01b03841660009081526004602090815260408083203384529091529020555b505b610f5584610945565b905080600003610f955760405162461bcd60e51b815260206004820152600b60248201526a5a45524f5f41535345545360a81b6044820152606401610a1d565b610f9f8285611570565b60408051828152602081018690526001600160a01b03808516929086169133917ffbde797d201c681b91056529119e0b02407c7bb96a4a2c75c01fc9667232c8db910160405180910390a461077b6001600160a01b037f00000000000000000000000000000000000000000000000000000000000000001684836115d2565b60025460009080156107795761077481611036610637565b85919061131d565b600080600061104c84611659565b905061105a81600854611663565b9150611066818561190d565b925050915091565b6001600160a01b0381166000908152600360205260408120546107e990610755565b428410156110e05760405162461bcd60e51b815260206004820152601760248201527f5045524d49545f444541444c494e455f455850495245440000000000000000006044820152606401610a1d565b600060016110ec6108ef565b6001600160a01b038a811660008181526005602090815260409182902080546001810190915582517f6e71edae12b1b97f4d1f60370fef10105fa2faae0126114a169c64845d6126c98184015280840194909452938d166060840152608083018c905260a083019390935260c08083018b90528151808403909101815260e08301909152805192019190912061190160f01b6101008301526101028201929092526101228101919091526101420160408051601f198184030181528282528051602091820120600084529083018083525260ff871690820152606081018590526080810184905260a0016020604051602081039080840390855afa1580156111f8573d6000803e3d6000fd5b5050604051601f1901519150506001600160a01b0381161580159061122e5750876001600160a01b0316816001600160a01b0316145b61126b5760405162461bcd60e51b815260206004820152600e60248201526d24a72b20a624a22fa9a4a3a722a960911b6044820152606401610a1d565b6001600160a01b0390811660009081526004602090815260408083208a8516808552908352928190208990555188815291928a16917f8c5be1e5ebec7d5bd14f71427d1e84f3dd0314c0f7b2291e5b200ac8c7c3b925910160405180910390a350505050505050565b60006107e98261101e565b6112e76114f1565b6001600160a01b03811661131157604051631e4fbdf760e01b815260006004820152602401610a1d565b61131a8161151e565b50565b600082600019048411830215820261133457600080fd5b5091020490565b600082600019048411830215820261135257600080fd5b50910281810615159190040190565b60007f8b73c3c69bb8fe3d512ecc4cf759cc79239f7b179b0ffacaa9a75d522b39400f60006040516113939190611920565b6040805191829003822060208301939093528101919091527fc89efdaa54c0f20c7adf612882df0950f5a951637e0307cdcb4c672f298b8bc660608201524660808201523060a082015260c00160405160208183030381529060405280519060200120905090565b60006040516323b872dd60e01b81526001600160a01b03851660048201526001600160a01b03841660248201528260448201526020600060648360008a5af13d15601f3d11600160005114161716915050806114905760405162461bcd60e51b81526020600482015260146024820152731514905394d1915497d19493d357d1905253115160621b6044820152606401610a1d565b5050505050565b80600260008282546114a991906119bf565b90915550506001600160a01b0382166000818152600360209081526040808320805486019055518481526000805160206119d383398151915291015b60405180910390a35050565b6006546001600160a01b03163314610ac35760405163118cdaa760e01b8152336004820152602401610a1d565b600680546001600160a01b038381166001600160a01b0319831681179093556040519116919082907f8be0079c531659141344cd1fd0a4f28419497f9722a3daafe3b4186f6b6457e090600090a35050565b6001600160a01b0382166000908152600360205260408120805483929061159890849061190d565b90915550506002805482900390556040518181526000906001600160a01b038416906000805160206119d3833981519152906020016114e5565b600060405163a9059cbb60e01b81526001600160a01b0384166004820152826024820152602060006044836000895af13d15601f3d11600160005114161716915050806116535760405162461bcd60e51b815260206004820152600f60248201526e1514905394d1915497d19052531151608a1b6044820152606401610a1d565b50505050565b60006107e9826007545b600061077b8383670de0b6b3a764000061133b565b600060208083528351808285015260005b818110156116a557858101830151858201604001528201611689565b506000604082860101526040601f19601f8301168501019250505092915050565b6000602082840312156116d857600080fd5b5035919050565b80356001600160a01b03811681146116f657600080fd5b919050565b6000806040838503121561170e57600080fd5b611717836116df565b946020939093013593505050565b60008060006060848603121561173a57600080fd5b611743846116df565b9250611751602085016116df565b9150604084013590509250925092565b60006020828403121561177357600080fd5b61077b826116df565b60008060006060848603121561179157600080fd5b833592506117a1602085016116df565b91506117af604085016116df565b90509250925092565b600080604083850312156117cb57600080fd5b823591506117db602084016116df565b90509250929050565b803560ff811681146116f657600080fd5b60006020828403121561180757600080fd5b61077b826117e4565b600080600080600080600060e0888a03121561182b57600080fd5b611834886116df565b9650611842602089016116df565b9550604088013594506060880135935061185e608089016117e4565b925060a0880135915060c0880135905092959891949750929550565b6000806040838503121561188d57600080fd5b611896836116df565b91506117db602084016116df565b6000602082840312156118b657600080fd5b5051919050565b600181811c908216806118d157607f821691505b6020821081036118f157634e487b7160e01b600052602260045260246000fd5b50919050565b634e487b7160e01b600052601160045260246000fd5b818103818111156107e9576107e96118f7565b600080835481600182811c91508083168061193c57607f831692505b6020808410820361195b57634e487b7160e01b86526022600452602486fd5b81801561196f5760018114611984576119b1565b60ff19861689528415158502890196506119b1565b60008a81526020902060005b868110156119a95781548b820152908501908301611990565b505084890196505b509498975050505050505050565b808201808211156107e9576107e96118f756feddf252ad1be2c89b69c2b068fc378daa952ba7f163c4a11628f55a4df523b3efa26469706673582212203ce07509c0ed7bfd41db44d14711ef07f58b46c8a2077dbbf490f6d73884df5a64736f6c63430008140033",
    "linkReferences": {}
  },
  "methodIdentifiers": {
    "DOMAIN_SEPARATOR()": "3644e515",
    "allowance(address,address)": "dd62ed3e",
    "approve(address,uint256)": "095ea7b3",
    "asset()": "38d52e0f",
    "balanceOf(address)": "70a08231",
    "convertToAssets(uint256)": "07a2d13a",
    "convertToShares(uint256)": "c6e6f592",
    "decimals()": "313ce567",
    "deposit(uint256,address)": "6e553f65",
    "depositGHO(uint256)": "7709b6ab",
    "i_ghoToken()": "89c078de",
    "maxDeposit(address)": "402d267d",
    "maxMint(address)": "c63d75b6",
    "maxRedeem(address)": "d905777e",
    "maxWithdraw(address)": "ce96cb77",
    "mint(uint256,address)": "94bf804d",
    "name()": "06fdde03",
    "nonces(address)": "7ecebe00",
    "owner()": "8da5cb5b",
    "permit(address,address,uint256,uint256,uint8,bytes32,bytes32)": "d505accf",
    "previewDeposit(uint256)": "ef8b30f7",
    "previewMint(uint256)": "b3d7f6b9",
    "previewRedeem(uint256)": "4cdad506",
    "previewWithdraw(uint256)": "0a28a477",
    "redeem(uint256,address,address)": "ba087652",
    "renounceOwnership()": "715018a6",
    "rpTokenBalance(address)": "44a6c0fc",
    "s_partnerFee()": "9fd8c129",
    "s_partnerFeeCollector()": "f63d87c8",
    "s_rewardPool()": "ac4932c9",
    "s_withdrawalFee()": "d8492e08",
    "setFeeCollector(address)": "a42dce80",
    "setPartnerFee(uint8)": "95190275",
    "setRewardPool(address)": "78238c37",
    "setWithdrawalFee(uint8)": "92dc6100",
    "symbol()": "95d89b41",
    "totalAssets()": "01e1d114",
    "totalSupply()": "18160ddd",
    "transfer(address,uint256)": "a9059cbb",
    "transferFrom(address,address,uint256)": "23b872dd",
    "transferOwnership(address)": "f2fde38b",
    "withdraw(uint256,address,address)": "b460af94",
    "withdrawGHO(uint256,address,address)": "54fe8fb7",
    "withdrawWithFee(uint256)": "cc9e5a3a"
  },
  "id": 51
}