{
  "abi": [
    {
      "inputs": [
        {
          "internalType": "address",
          "name": "_ghoToken",
          "type": "address"
        },
        {
          "internalType": "address",
          "name": "_gpToken",
          "type": "address"
        },
        {
          "internalType": "address",
          "name": "_ghoPassport",
          "type": "address"
        },
        {
          "internalType": "address",
          "name": "_utils",
          "type": "address"
        },
        {
          "internalType": "uint256",
          "name": "_minimumAmt",
          "type": "uint256"
        },
        {
          "internalType": "address",
          "name": "_mainAdmin",
          "type": "address"
        }
      ],
      "stateMutability": "nonpayable",
      "type": "constructor"
    },
    {
      "inputs": [],
      "name": "MainPayment__NotEnoughGHO",
      "type": "error"
    },
    {
      "inputs": [
        {
          "internalType": "uint256",
          "name": "_gpAmountLeft",
          "type": "uint256"
        },
        {
          "internalType": "uint256",
          "name": "_gpRewardAmount",
          "type": "uint256"
        }
      ],
      "name": "MainPayment__NotEnoughGP",
      "type": "error"
    },
    {
      "inputs": [],
      "name": "MainPayment__OnlyGHOPassportHolders",
      "type": "error"
    },
    {
      "inputs": [],
      "name": "MainPayment__OnlyPartnerBookingContract",
      "type": "error"
    },
    {
      "inputs": [],
      "name": "MainPayment__ZeroAddress",
      "type": "error"
    },
    {
      "inputs": [],
      "name": "MainPayment__ZeroAmount",
      "type": "error"
    },
    {
      "inputs": [
        {
          "internalType": "address",
          "name": "owner",
          "type": "address"
        }
      ],
      "name": "OwnableInvalidOwner",
      "type": "error"
    },
    {
      "inputs": [
        {
          "internalType": "address",
          "name": "account",
          "type": "address"
        }
      ],
      "name": "OwnableUnauthorizedAccount",
      "type": "error"
    },
    {
      "anonymous": false,
      "inputs": [
        {
          "indexed": true,
          "internalType": "address",
          "name": "_user",
          "type": "address"
        },
        {
          "indexed": true,
          "internalType": "uint256",
          "name": "_amountPaid",
          "type": "uint256"
        },
        {
          "indexed": true,
          "internalType": "uint256",
          "name": "_gpAmountLeft",
          "type": "uint256"
        }
      ],
      "name": "MainPayment__GPRewarded",
      "type": "event"
    },
    {
      "anonymous": false,
      "inputs": [
        {
          "indexed": true,
          "internalType": "address",
          "name": "_recipient",
          "type": "address"
        },
        {
          "indexed": false,
          "internalType": "uint256",
          "name": "_amount",
          "type": "uint256"
        }
      ],
      "name": "MainPayment__PaidWithGHO",
      "type": "event"
    },
    {
      "anonymous": false,
      "inputs": [
        {
          "indexed": true,
          "internalType": "address",
          "name": "previousOwner",
          "type": "address"
        },
        {
          "indexed": true,
          "internalType": "address",
          "name": "newOwner",
          "type": "address"
        }
      ],
      "name": "OwnershipTransferred",
      "type": "event"
    },
    {
      "inputs": [],
      "name": "owner",
      "outputs": [
        {
          "internalType": "address",
          "name": "",
          "type": "address"
        }
      ],
      "stateMutability": "view",
      "type": "function"
    },
    {
      "inputs": [
        {
          "internalType": "address",
          "name": "_sender",
          "type": "address"
        },
        {
          "internalType": "address",
          "name": "_recipient",
          "type": "address"
        },
        {
          "internalType": "uint256",
          "name": "_amount",
          "type": "uint256"
        }
      ],
      "name": "payWithGHO",
      "outputs": [],
      "stateMutability": "nonpayable",
      "type": "function"
    },
    {
      "inputs": [
        {
          "internalType": "address",
          "name": "_recipient",
          "type": "address"
        },
        {
          "internalType": "uint256",
          "name": "_amount",
          "type": "uint256"
        }
      ],
      "name": "payWithGHO",
      "outputs": [],
      "stateMutability": "nonpayable",
      "type": "function"
    },
    {
      "inputs": [],
      "name": "renounceOwnership",
      "outputs": [],
      "stateMutability": "nonpayable",
      "type": "function"
    },
    {
      "inputs": [],
      "name": "s_ghoPassport",
      "outputs": [
        {
          "internalType": "contract IERC721",
          "name": "",
          "type": "address"
        }
      ],
      "stateMutability": "view",
      "type": "function"
    },
    {
      "inputs": [],
      "name": "s_ghoToken",
      "outputs": [
        {
          "internalType": "contract ERC20",
          "name": "",
          "type": "address"
        }
      ],
      "stateMutability": "view",
      "type": "function"
    },
    {
      "inputs": [],
      "name": "s_gpToken",
      "outputs": [
        {
          "internalType": "contract ERC20",
          "name": "",
          "type": "address"
        }
      ],
      "stateMutability": "view",
      "type": "function"
    },
    {
      "inputs": [],
      "name": "s_minimumAmt",
      "outputs": [
        {
          "internalType": "uint256",
          "name": "",
          "type": "uint256"
        }
      ],
      "stateMutability": "view",
      "type": "function"
    },
    {
      "inputs": [],
      "name": "s_utils",
      "outputs": [
        {
          "internalType": "contract Utils",
          "name": "",
          "type": "address"
        }
      ],
      "stateMutability": "view",
      "type": "function"
    },
    {
      "inputs": [
        {
          "internalType": "uint256",
          "name": "_minimumAmt",
          "type": "uint256"
        }
      ],
      "name": "setMinimumAmt",
      "outputs": [],
      "stateMutability": "nonpayable",
      "type": "function"
    },
    {
      "inputs": [
        {
          "internalType": "address",
          "name": "newOwner",
          "type": "address"
        }
      ],
      "name": "transferOwnership",
      "outputs": [],
      "stateMutability": "nonpayable",
      "type": "function"
    }
  ],
  "bytecode": {
    "object": "0x608060405234801561001057600080fd5b50604051610cf1380380610cf183398101604081905261002f9161012b565b806001600160a01b03811661005e57604051631e4fbdf760e01b81526000600482015260240160405180910390fd5b610067816100bf565b5050600380546001600160a01b03199081166001600160a01b03978816179091556002805482169587169590951790945560048054851693861693909317909255600180549093169316929092179055600555610198565b600080546001600160a01b038381166001600160a01b0319831681178455604051919092169283917f8be0079c531659141344cd1fd0a4f28419497f9722a3daafe3b4186f6b6457e09190a35050565b80516001600160a01b038116811461012657600080fd5b919050565b60008060008060008060c0878903121561014457600080fd5b61014d8761010f565b955061015b6020880161010f565b94506101696040880161010f565b93506101776060880161010f565b92506080870151915061018c60a0880161010f565b90509295509295509295565b610b4a806101a76000396000f3fe608060405234801561001057600080fd5b50600436106100a95760003560e01c806362c2545f1161007157806362c2545f14610130578063715018a6146101435780638da5cb5b1461014b578063adafa4301461015c578063de2cf4171461016f578063f2fde38b1461018257600080fd5b80631f55a30f146100ae578063273c8340146100ca5780633003d9f4146100f557806354c216dc1461010a5780635f18023c1461011d575b600080fd5b6100b760055481565b6040519081526020015b60405180910390f35b6002546100dd906001600160a01b031681565b6040516001600160a01b0390911681526020016100c1565b610108610103366004610a02565b610195565b005b6003546100dd906001600160a01b031681565b6004546100dd906001600160a01b031681565b61010861013e366004610a37565b6101a2565b61010861053a565b6000546001600160a01b03166100dd565b6001546100dd906001600160a01b031681565b61010861017d366004610a73565b61054e565b610108610190366004610a9d565b6108e7565b61019d610925565b600555565b600154604051630dbf953d60e01b81523360048201526001600160a01b0390911690630dbf953d90602401602060405180830381865afa1580156101ea573d6000803e3d6000fd5b505050506040513d601f19601f8201168201806040525081019061020e9190610ab8565b61022b57604051630c62eed360e01b815260040160405180910390fd5b816001600160a01b0381166102535760405163b42a6f2f60e01b815260040160405180910390fd5b81806000036102755760405163553f8f0160e01b815260040160405180910390fd5b6002546040516370a0823160e01b815230600482015286916000916001600160a01b03909116906370a0823190602401602060405180830381865afa1580156102c2573d6000803e3d6000fd5b505050506040513d601f19601f820116820180604052508101906102e69190610ada565b6003546040516370a0823160e01b81526001600160a01b0385811660048301529293508792909116906370a0823190602401602060405180830381865afa158015610335573d6000803e3d6000fd5b505050506040513d601f19601f820116820180604052508101906103599190610ada565b10156103785760405163f09e65b560e01b815260040160405180910390fd5b600061038386610952565b9050808210156103b55760405163142f29ab60e11b815260048101839052602481018290526044015b60405180910390fd5b6003546040516323b872dd60e01b81526001600160a01b038581166004830152898116602483015260448201899052909116906323b872dd906064016020604051808303816000875af1158015610410573d6000803e3d6000fd5b505050506040513d601f19601f820116820180604052508101906104349190610ab8565b50866001600160a01b03167f9741c37461d0acf27cfb2ebb6c5a8427f1610ea3f343f2d31e0ead8bfa037c148760405161047091815260200190565b60405180910390a260025460405163a9059cbb60e01b81526001600160a01b038581166004830152602482018490529091169063a9059cbb906044016020604051808303816000875af11580156104cb573d6000803e3d6000fd5b505050506040513d601f19601f820116820180604052508101906104ef9190610ab8565b506104fa8183610af3565b60405182906001600160a01b038616907f54633ee10d3a9f90d7c23962d790e85ef95fdfe0b753ff330cd188ce6b26b8cc90600090a45050505050505050565b610542610925565b61054c6000610978565b565b600480546040516370a0823160e01b815233928101929092526000916001600160a01b03909116906370a0823190602401602060405180830381865afa15801561059c573d6000803e3d6000fd5b505050506040513d601f19601f820116820180604052508101906105c09190610ada565b116105de57604051637336bbab60e01b815260040160405180910390fd5b816001600160a01b0381166106065760405163b42a6f2f60e01b815260040160405180910390fd5b81806000036106285760405163553f8f0160e01b815260040160405180910390fd5b6002546040516370a0823160e01b815230600482015233916000916001600160a01b03909116906370a0823190602401602060405180830381865afa158015610675573d6000803e3d6000fd5b505050506040513d601f19601f820116820180604052508101906106999190610ada565b6003546040516370a0823160e01b81526001600160a01b0385811660048301529293508792909116906370a0823190602401602060405180830381865afa1580156106e8573d6000803e3d6000fd5b505050506040513d601f19601f8201168201806040525081019061070c9190610ada565b101561072b5760405163f09e65b560e01b815260040160405180910390fd5b600061073686610952565b9050808210156107635760405163142f29ab60e11b815260048101839052602481018290526044016103ac565b6003546040516323b872dd60e01b81526001600160a01b038581166004830152898116602483015260448201899052909116906323b872dd906064016020604051808303816000875af11580156107be573d6000803e3d6000fd5b505050506040513d601f19601f820116820180604052508101906107e29190610ab8565b50866001600160a01b03167f9741c37461d0acf27cfb2ebb6c5a8427f1610ea3f343f2d31e0ead8bfa037c148760405161081e91815260200190565b60405180910390a260025460405163a9059cbb60e01b81526001600160a01b038581166004830152602482018490529091169063a9059cbb906044016020604051808303816000875af1158015610879573d6000803e3d6000fd5b505050506040513d601f19601f8201168201806040525081019061089d9190610ab8565b506108a88183610af3565b60405182906001600160a01b038616907f54633ee10d3a9f90d7c23962d790e85ef95fdfe0b753ff330cd188ce6b26b8cc90600090a450505050505050565b6108ef610925565b6001600160a01b03811661091957604051631e4fbdf760e01b8152600060048201526024016103ac565b61092281610978565b50565b6000546001600160a01b0316331461054c5760405163118cdaa760e01b81523360048201526024016103ac565b600060055482101561096657506000919050565b610972826005546109c8565b92915050565b600080546001600160a01b038381166001600160a01b0319831681178455604051919092169283917f8be0079c531659141344cd1fd0a4f28419497f9722a3daafe3b4186f6b6457e09190a35050565b60006109dd83670de0b6b3a7640000846109e4565b9392505050565b60008260001904841183021582026109fb57600080fd5b5091020490565b600060208284031215610a1457600080fd5b5035919050565b80356001600160a01b0381168114610a3257600080fd5b919050565b600080600060608486031215610a4c57600080fd5b610a5584610a1b565b9250610a6360208501610a1b565b9150604084013590509250925092565b60008060408385031215610a8657600080fd5b610a8f83610a1b565b946020939093013593505050565b600060208284031215610aaf57600080fd5b6109dd82610a1b565b600060208284031215610aca57600080fd5b815180151581146109dd57600080fd5b600060208284031215610aec57600080fd5b5051919050565b8181038181111561097257634e487b7160e01b600052601160045260246000fdfea2646970667358221220ad543de317ef16068de896acba136b6c538e70a27ca44932722467fa49a608ab64736f6c63430008140033",
    "linkReferences": {}
  },
  "methodIdentifiers": {
    "owner()": "8da5cb5b",
    "payWithGHO(address,address,uint256)": "62c2545f",
    "payWithGHO(address,uint256)": "de2cf417",
    "renounceOwnership()": "715018a6",
    "s_ghoPassport()": "5f18023c",
    "s_ghoToken()": "54c216dc",
    "s_gpToken()": "273c8340",
    "s_minimumAmt()": "1f55a30f",
    "s_utils()": "adafa430",
    "setMinimumAmt(uint256)": "3003d9f4",
    "transferOwnership(address)": "f2fde38b"
  },
  "id": 45
}