{
  "abi": [
    {
      "anonymous": false,
      "inputs": [
        {
          "indexed": true,
          "internalType": "address",
          "name": "partner",
          "type": "address"
        },
        {
          "indexed": true,
          "internalType": "address",
          "name": "partnerPayment",
          "type": "address"
        },
        {
          "indexed": true,
          "internalType": "address",
          "name": "partnerVault",
          "type": "address"
        }
      ],
      "name": "Utils__PartnerContractsAdded",
      "type": "event"
    },
    {
      "inputs": [
        {
          "internalType": "address",
          "name": "partner",
          "type": "address"
        },
        {
          "internalType": "address",
          "name": "_partnerPayment",
          "type": "address"
        },
        {
          "internalType": "address",
          "name": "_partnerVault",
          "type": "address"
        }
      ],
      "name": "addPartnerContracts",
      "outputs": [],
      "stateMutability": "nonpayable",
      "type": "function"
    },
    {
      "inputs": [
        {
          "internalType": "address",
          "name": "_user",
          "type": "address"
        }
      ],
      "name": "balanceOf",
      "outputs": [
        {
          "internalType": "address[]",
          "name": "",
          "type": "address[]"
        },
        {
          "internalType": "uint256[]",
          "name": "",
          "type": "uint256[]"
        }
      ],
      "stateMutability": "view",
      "type": "function"
    },
    {
      "inputs": [
        {
          "internalType": "address",
          "name": "_partner",
          "type": "address"
        }
      ],
      "name": "getPartnerDetails",
      "outputs": [
        {
          "internalType": "address",
          "name": "_partnerVault",
          "type": "address"
        },
        {
          "internalType": "address",
          "name": "_partnerPayment",
          "type": "address"
        }
      ],
      "stateMutability": "view",
      "type": "function"
    },
    {
      "inputs": [
        {
          "internalType": "address",
          "name": "_partner",
          "type": "address"
        }
      ],
      "name": "isPartner",
      "outputs": [
        {
          "internalType": "bool",
          "name": "",
          "type": "bool"
        }
      ],
      "stateMutability": "view",
      "type": "function"
    },
    {
      "inputs": [
        {
          "internalType": "address",
          "name": "_partner",
          "type": "address"
        }
      ],
      "name": "isPartnerAlreadyAdded",
      "outputs": [
        {
          "internalType": "bool",
          "name": "",
          "type": "bool"
        }
      ],
      "stateMutability": "view",
      "type": "function"
    },
    {
      "inputs": [
        {
          "internalType": "address",
          "name": "_partnerPayment",
          "type": "address"
        }
      ],
      "name": "isPartnerPaymentContract",
      "outputs": [
        {
          "internalType": "bool",
          "name": "",
          "type": "bool"
        }
      ],
      "stateMutability": "view",
      "type": "function"
    },
    {
      "inputs": [
        {
          "internalType": "address",
          "name": "",
          "type": "address"
        }
      ],
      "name": "s_addressToPartnerDetails",
      "outputs": [
        {
          "internalType": "address",
          "name": "s_partnerVault",
          "type": "address"
        },
        {
          "internalType": "address",
          "name": "s_partnerPayment",
          "type": "address"
        }
      ],
      "stateMutability": "view",
      "type": "function"
    },
    {
      "inputs": [
        {
          "internalType": "address",
          "name": "",
          "type": "address"
        }
      ],
      "name": "s_isPartner",
      "outputs": [
        {
          "internalType": "bool",
          "name": "",
          "type": "bool"
        }
      ],
      "stateMutability": "view",
      "type": "function"
    },
    {
      "inputs": [
        {
          "internalType": "address",
          "name": "",
          "type": "address"
        }
      ],
      "name": "s_isPartnerPaymentContract",
      "outputs": [
        {
          "internalType": "bool",
          "name": "",
          "type": "bool"
        }
      ],
      "stateMutability": "view",
      "type": "function"
    },
    {
      "inputs": [
        {
          "internalType": "uint256",
          "name": "",
          "type": "uint256"
        }
      ],
      "name": "s_partners",
      "outputs": [
        {
          "internalType": "address",
          "name": "",
          "type": "address"
        }
      ],
      "stateMutability": "view",
      "type": "function"
    }
  ],
  "bytecode": {
    "object": "0x608060405234801561001057600080fd5b50610790806100206000396000f3fe608060405234801561001057600080fd5b506004361061009e5760003560e01c80637dd949d6116100665780637dd949d6146101995780638c0f9aac146101bc578063ccb22a9e146101e8578063dacc52b0146101fb578063fddf11cf1461021e57600080fd5b806305f74a33146100a35780630dbf953d146100b857806338df465a146100f95780634a9f4fce1461012457806370a0823114610178575b600080fd5b6100b66100b13660046105ec565b610231565b005b6100e46100c636600461062f565b6001600160a01b031660009081526002602052604090205460ff1690565b60405190151581526020015b60405180910390f35b61010c610107366004610651565b610355565b6040516001600160a01b0390911681526020016100f0565b61015861013236600461062f565b600160208190526000918252604090912080549101546001600160a01b03918216911682565b604080516001600160a01b039384168152929091166020830152016100f0565b61018b61018636600461062f565b61037f565b6040516100f092919061066a565b6100e46101a736600461062f565b60036020526000908152604090205460ff1681565b6100e46101ca36600461062f565b6001600160a01b031660009081526003602052604090205460ff1690565b6101586101f636600461062f565b61052a565b6100e461020936600461062f565b60026020526000908152604090205460ff1681565b6100e461022c36600461062f565b610567565b6040805180820182526001600160a01b0380841682528481166020808401918252878316600090815260019182905294909420925183549083166001600160a01b03199182161784559051929093018054929091169190921617905561029683610567565b6102e357600080546001810182559080527f290decd9548b62a8d60345a988386fc84ba6bc95484008f6362f93160ef3e5630180546001600160a01b0319166001600160a01b0385161790555b6001600160a01b0382811660008181526002602090815260408083208054600160ff199182168117909255898716808652600390945282852080549091169091179055519385169390917fdf90f54fcb354012a5ea71e6690edb056081f3a39f5929adcc40e749f0b8f3d291a4505050565b6000818154811061036557600080fd5b6000918252602090912001546001600160a01b0316905081565b60008054606091829167ffffffffffffffff8111156103a0576103a06106ee565b6040519080825280602002602001820160405280156103c9578160200160208202803683370190505b50600080549192509067ffffffffffffffff8111156103ea576103ea6106ee565b604051908082528060200260200182016040528015610413578160200160208202803683370190505b50905060005b6000548110156105205760006104556000838154811061043b5761043b610704565b6000918252602090912001546001600160a01b031661052a565b506040516370a0823160e01b81526001600160a01b038981166004830152919250908216906370a0823190602401602060405180830381865afa1580156104a0573d6000803e3d6000fd5b505050506040513d601f19601f820116820180604052508101906104c4919061071a565b8483815181106104d6576104d6610704565b602002602001018181525050808383815181106104f5576104f5610704565b6001600160a01b0390921660209283029190910190910152508061051881610733565b915050610419565b5094909350915050565b6001600160a01b03908116600090815260016020818152604092839020835180850190945280548516808552920154909316919092018190529091565b6000805b6000548110156105c757826001600160a01b03166000828154811061059257610592610704565b6000918252602090912001546001600160a01b0316036105b55750600192915050565b806105bf81610733565b91505061056b565b50600092915050565b80356001600160a01b03811681146105e757600080fd5b919050565b60008060006060848603121561060157600080fd5b61060a846105d0565b9250610618602085016105d0565b9150610626604085016105d0565b90509250925092565b60006020828403121561064157600080fd5b61064a826105d0565b9392505050565b60006020828403121561066357600080fd5b5035919050565b604080825283519082018190526000906020906060840190828701845b828110156106ac5781516001600160a01b031684529284019290840190600101610687565b5050508381038285015284518082528583019183019060005b818110156106e1578351835292840192918401916001016106c5565b5090979650505050505050565b634e487b7160e01b600052604160045260246000fd5b634e487b7160e01b600052603260045260246000fd5b60006020828403121561072c57600080fd5b5051919050565b60006001820161075357634e487b7160e01b600052601160045260246000fd5b506001019056fea26469706673582212205bda632bd3ab2a234ca941229f6726eb9b615fe18c23fef914cefa7f96d742dd64736f6c63430008140033",
    "linkReferences": {}
  },
  "methodIdentifiers": {
    "addPartnerContracts(address,address,address)": "05f74a33",
    "balanceOf(address)": "70a08231",
    "getPartnerDetails(address)": "ccb22a9e",
    "isPartner(address)": "8c0f9aac",
    "isPartnerAlreadyAdded(address)": "fddf11cf",
    "isPartnerPaymentContract(address)": "0dbf953d",
    "s_addressToPartnerDetails(address)": "4a9f4fce",
    "s_isPartner(address)": "7dd949d6",
    "s_isPartnerPaymentContract(address)": "dacc52b0",
    "s_partners(uint256)": "38df465a"
  },
  "id": 53
}