{
  "abi": [
    {
      "inputs": [
        {
          "internalType": "address",
          "name": "partner",
          "type": "address"
        },
        {
          "internalType": "address",
          "name": "_partnerPayment",
          "type": "address"
        },
        {
          "internalType": "address",
          "name": "_partnerVault",
          "type": "address"
        }
      ],
      "name": "addPartnerContracts",
      "outputs": [],
      "stateMutability": "nonpayable",
      "type": "function"
    },
    {
      "inputs": [
        {
          "internalType": "address",
          "name": "_partner",
          "type": "address"
        }
      ],
      "name": "isPartner",
      "outputs": [
        {
          "internalType": "bool",
          "name": "",
          "type": "bool"
        }
      ],
      "stateMutability": "view",
      "type": "function"
    },
    {
      "inputs": [
        {
          "internalType": "address",
          "name": "_partnerPayment",
          "type": "address"
        }
      ],
      "name": "isPartnerPaymentContract",
      "outputs": [
        {
          "internalType": "bool",
          "name": "",
          "type": "bool"
        }
      ],
      "stateMutability": "view",
      "type": "function"
    },
    {
      "inputs": [
        {
          "internalType": "address",
          "name": "",
          "type": "address"
        }
      ],
      "name": "s_addressToPartnerDetails",
      "outputs": [
        {
          "internalType": "address",
          "name": "s_partnerVault",
          "type": "address"
        },
        {
          "internalType": "address",
          "name": "s_partnerPayment",
          "type": "address"
        }
      ],
      "stateMutability": "view",
      "type": "function"
    },
    {
      "inputs": [
        {
          "internalType": "address",
          "name": "",
          "type": "address"
        }
      ],
      "name": "s_isPartner",
      "outputs": [
        {
          "internalType": "bool",
          "name": "",
          "type": "bool"
        }
      ],
      "stateMutability": "view",
      "type": "function"
    },
    {
      "inputs": [
        {
          "internalType": "address",
          "name": "",
          "type": "address"
        }
      ],
      "name": "s_isPartnerPaymentContract",
      "outputs": [
        {
          "internalType": "bool",
          "name": "",
          "type": "bool"
        }
      ],
      "stateMutability": "view",
      "type": "function"
    },
    {
      "inputs": [
        {
          "internalType": "uint256",
          "name": "",
          "type": "uint256"
        }
      ],
      "name": "s_partners",
      "outputs": [
        {
          "internalType": "address",
          "name": "",
          "type": "address"
        }
      ],
      "stateMutability": "view",
      "type": "function"
    }
  ],
  "bytecode": {
    "object": "0x608060405234801561001057600080fd5b50610377806100206000396000f3fe608060405234801561001057600080fd5b506004361061007d5760003560e01c80634a9f4fce1161005b5780634a9f4fce146101b75780637dd949d61461020b5780638c0f9aac1461022e578063dacc52b01461025a57600080fd5b806305f74a33146100825780630dbf953d1461014b57806338df465a1461018c575b600080fd5b6101496100903660046102c3565b6040805180820182526001600160a01b039283168152928216602080850182815295841660008181526001808452858220975188549088166001600160a01b0319918216178955985197810180549890971697891697909717909555845480870186557f290decd9548b62a8d60345a988386fc84ba6bc95484008f6362f93160ef3e563018054909716831790965590835260028152818320805460ff1990811686179091559483526003905290208054909216179055565b005b610177610159366004610306565b6001600160a01b031660009081526002602052604090205460ff1690565b60405190151581526020015b60405180910390f35b61019f61019a366004610328565b61027d565b6040516001600160a01b039091168152602001610183565b6101eb6101c5366004610306565b600160208190526000918252604090912080549101546001600160a01b03918216911682565b604080516001600160a01b03938416815292909116602083015201610183565b610177610219366004610306565b60036020526000908152604090205460ff1681565b61017761023c366004610306565b6001600160a01b031660009081526003602052604090205460ff1690565b610177610268366004610306565b60026020526000908152604090205460ff1681565b6000818154811061028d57600080fd5b6000918252602090912001546001600160a01b0316905081565b80356001600160a01b03811681146102be57600080fd5b919050565b6000806000606084860312156102d857600080fd5b6102e1846102a7565b92506102ef602085016102a7565b91506102fd604085016102a7565b90509250925092565b60006020828403121561031857600080fd5b610321826102a7565b9392505050565b60006020828403121561033a57600080fd5b503591905056fea2646970667358221220c94e7514f01c673a6bdb6dde790b7d17f0479ffa2937fac3b66d756c049e287564736f6c63430008140033",
    "linkReferences": {}
  },
  "methodIdentifiers": {
    "addPartnerContracts(address,address,address)": "05f74a33",
    "isPartner(address)": "8c0f9aac",
    "isPartnerPaymentContract(address)": "0dbf953d",
    "s_addressToPartnerDetails(address)": "4a9f4fce",
    "s_isPartner(address)": "7dd949d6",
    "s_isPartnerPaymentContract(address)": "dacc52b0",
    "s_partners(uint256)": "38df465a"
  },
  "id": 51
}