{
  "abi": [
    {
      "anonymous": false,
      "inputs": [
        {
          "indexed": true,
          "internalType": "address",
          "name": "partner",
          "type": "address"
        },
        {
          "indexed": true,
          "internalType": "address",
          "name": "partnerPayment",
          "type": "address"
        },
        {
          "indexed": true,
          "internalType": "address",
          "name": "partnerVault",
          "type": "address"
        }
      ],
      "name": "Utils__PartnerContractsAdded",
      "type": "event"
    },
    {
      "inputs": [
        {
          "internalType": "address",
          "name": "partner",
          "type": "address"
        },
        {
          "internalType": "address",
          "name": "_partnerPayment",
          "type": "address"
        },
        {
          "internalType": "address",
          "name": "_partnerVault",
          "type": "address"
        }
      ],
      "name": "addPartnerContracts",
      "outputs": [],
      "stateMutability": "nonpayable",
      "type": "function"
    },
    {
      "inputs": [
        {
          "internalType": "address",
          "name": "_user",
          "type": "address"
        }
      ],
      "name": "balanceOf",
      "outputs": [
        {
          "internalType": "address[]",
          "name": "",
          "type": "address[]"
        },
        {
          "internalType": "uint256[]",
          "name": "",
          "type": "uint256[]"
        }
      ],
      "stateMutability": "view",
      "type": "function"
    },
    {
      "inputs": [
        {
          "internalType": "address",
          "name": "_partner",
          "type": "address"
        }
      ],
      "name": "getPartnerDetails",
      "outputs": [
        {
          "internalType": "address",
          "name": "_partnerVault",
          "type": "address"
        },
        {
          "internalType": "address",
          "name": "_partnerPayment",
          "type": "address"
        }
      ],
      "stateMutability": "view",
      "type": "function"
    },
    {
      "inputs": [],
      "name": "getPartners",
      "outputs": [
        {
          "internalType": "address[]",
          "name": "",
          "type": "address[]"
        }
      ],
      "stateMutability": "view",
      "type": "function"
    },
    {
      "inputs": [
        {
          "internalType": "address",
          "name": "_partner",
          "type": "address"
        }
      ],
      "name": "isPartner",
      "outputs": [
        {
          "internalType": "bool",
          "name": "",
          "type": "bool"
        }
      ],
      "stateMutability": "view",
      "type": "function"
    },
    {
      "inputs": [
        {
          "internalType": "address",
          "name": "_partner",
          "type": "address"
        }
      ],
      "name": "isPartnerAlreadyAdded",
      "outputs": [
        {
          "internalType": "bool",
          "name": "",
          "type": "bool"
        }
      ],
      "stateMutability": "view",
      "type": "function"
    },
    {
      "inputs": [
        {
          "internalType": "address",
          "name": "_partnerPayment",
          "type": "address"
        }
      ],
      "name": "isPartnerPaymentContract",
      "outputs": [
        {
          "internalType": "bool",
          "name": "",
          "type": "bool"
        }
      ],
      "stateMutability": "view",
      "type": "function"
    },
    {
      "inputs": [
        {
          "internalType": "address",
          "name": "",
          "type": "address"
        }
      ],
      "name": "s_addressToPartnerDetails",
      "outputs": [
        {
          "internalType": "address",
          "name": "s_partnerVault",
          "type": "address"
        },
        {
          "internalType": "address",
          "name": "s_partnerPayment",
          "type": "address"
        }
      ],
      "stateMutability": "view",
      "type": "function"
    },
    {
      "inputs": [
        {
          "internalType": "address",
          "name": "",
          "type": "address"
        }
      ],
      "name": "s_isPartner",
      "outputs": [
        {
          "internalType": "bool",
          "name": "",
          "type": "bool"
        }
      ],
      "stateMutability": "view",
      "type": "function"
    },
    {
      "inputs": [
        {
          "internalType": "address",
          "name": "",
          "type": "address"
        }
      ],
      "name": "s_isPartnerPaymentContract",
      "outputs": [
        {
          "internalType": "bool",
          "name": "",
          "type": "bool"
        }
      ],
      "stateMutability": "view",
      "type": "function"
    },
    {
      "inputs": [
        {
          "internalType": "uint256",
          "name": "",
          "type": "uint256"
        }
      ],
      "name": "s_partners",
      "outputs": [
        {
          "internalType": "address",
          "name": "",
          "type": "address"
        }
      ],
      "stateMutability": "view",
      "type": "function"
    }
  ],
  "bytecode": {
    "object": "0x608060405234801561001057600080fd5b5061083c806100206000396000f3fe608060405234801561001057600080fd5b50600436106100a95760003560e01c806373e29b0d1161007157806373e29b0d146101a45780637dd949d6146101b95780638c0f9aac146101dc578063ccb22a9e14610208578063dacc52b01461021b578063fddf11cf1461023e57600080fd5b806305f74a33146100ae5780630dbf953d146100c357806338df465a146101045780634a9f4fce1461012f57806370a0823114610183575b600080fd5b6100c16100bc36600461066e565b610251565b005b6100ef6100d13660046106b1565b6001600160a01b031660009081526002602052604090205460ff1690565b60405190151581526020015b60405180910390f35b6101176101123660046106d3565b610375565b6040516001600160a01b0390911681526020016100fb565b61016361013d3660046106b1565b600160208190526000918252604090912080549101546001600160a01b03918216911682565b604080516001600160a01b039384168152929091166020830152016100fb565b6101966101913660046106b1565b61039f565b6040516100fb929190610730565b6101ac61054a565b6040516100fb9190610787565b6100ef6101c73660046106b1565b60036020526000908152604090205460ff1681565b6100ef6101ea3660046106b1565b6001600160a01b031660009081526003602052604090205460ff1690565b6101636102163660046106b1565b6105ac565b6100ef6102293660046106b1565b60026020526000908152604090205460ff1681565b6100ef61024c3660046106b1565b6105e9565b6040805180820182526001600160a01b0380841682528481166020808401918252878316600090815260019182905294909420925183549083166001600160a01b0319918216178455905192909301805492909116919092161790556102b6836105e9565b61030357600080546001810182559080527f290decd9548b62a8d60345a988386fc84ba6bc95484008f6362f93160ef3e5630180546001600160a01b0319166001600160a01b0385161790555b6001600160a01b0382811660008181526002602090815260408083208054600160ff199182168117909255898716808652600390945282852080549091169091179055519385169390917fdf90f54fcb354012a5ea71e6690edb056081f3a39f5929adcc40e749f0b8f3d291a4505050565b6000818154811061038557600080fd5b6000918252602090912001546001600160a01b0316905081565b60008054606091829167ffffffffffffffff8111156103c0576103c061079a565b6040519080825280602002602001820160405280156103e9578160200160208202803683370190505b50600080549192509067ffffffffffffffff81111561040a5761040a61079a565b604051908082528060200260200182016040528015610433578160200160208202803683370190505b50905060005b6000548110156105405760006104756000838154811061045b5761045b6107b0565b6000918252602090912001546001600160a01b03166105ac565b506040516370a0823160e01b81526001600160a01b038981166004830152919250908216906370a0823190602401602060405180830381865afa1580156104c0573d6000803e3d6000fd5b505050506040513d601f19601f820116820180604052508101906104e491906107c6565b8483815181106104f6576104f66107b0565b60200260200101818152505080838381518110610515576105156107b0565b6001600160a01b03909216602092830291909101909101525080610538816107df565b915050610439565b5094909350915050565b606060008054806020026020016040519081016040528092919081815260200182805480156105a257602002820191906000526020600020905b81546001600160a01b03168152600190910190602001808311610584575b5050505050905090565b6001600160a01b03908116600090815260016020818152604092839020835180850190945280548516808552920154909316919092018190529091565b6000805b60005481101561064957826001600160a01b031660008281548110610614576106146107b0565b6000918252602090912001546001600160a01b0316036106375750600192915050565b80610641816107df565b9150506105ed565b50600092915050565b80356001600160a01b038116811461066957600080fd5b919050565b60008060006060848603121561068357600080fd5b61068c84610652565b925061069a60208501610652565b91506106a860408501610652565b90509250925092565b6000602082840312156106c357600080fd5b6106cc82610652565b9392505050565b6000602082840312156106e557600080fd5b5035919050565b600081518084526020808501945080840160005b838110156107255781516001600160a01b031687529582019590820190600101610700565b509495945050505050565b60408152600061074360408301856106ec565b82810360208481019190915284518083528582019282019060005b8181101561077a5784518352938301939183019160010161075e565b5090979650505050505050565b6020815260006106cc60208301846106ec565b634e487b7160e01b600052604160045260246000fd5b634e487b7160e01b600052603260045260246000fd5b6000602082840312156107d857600080fd5b5051919050565b6000600182016107ff57634e487b7160e01b600052601160045260246000fd5b506001019056fea26469706673582212208c1bb5f740d70332d1c23c8a9cc24794680cf9ce442b1e6a5a20b4f790f725a964736f6c63430008140033",
    "linkReferences": {}
  },
  "methodIdentifiers": {
    "addPartnerContracts(address,address,address)": "05f74a33",
    "balanceOf(address)": "70a08231",
    "getPartnerDetails(address)": "ccb22a9e",
    "getPartners()": "73e29b0d",
    "isPartner(address)": "8c0f9aac",
    "isPartnerAlreadyAdded(address)": "fddf11cf",
    "isPartnerPaymentContract(address)": "0dbf953d",
    "s_addressToPartnerDetails(address)": "4a9f4fce",
    "s_isPartner(address)": "7dd949d6",
    "s_isPartnerPaymentContract(address)": "dacc52b0",
    "s_partners(uint256)": "38df465a"
  },
  "id": 53
}