{
  "abi": [
    {
      "inputs": [],
      "name": "Utils__GHOCannotBeUsedForSwap",
      "type": "error"
    },
    {
      "anonymous": false,
      "inputs": [
        {
          "indexed": true,
          "internalType": "address",
          "name": "partner",
          "type": "address"
        },
        {
          "indexed": true,
          "internalType": "address",
          "name": "partnerPayment",
          "type": "address"
        },
        {
          "indexed": true,
          "internalType": "address",
          "name": "partnerVault",
          "type": "address"
        }
      ],
      "name": "Utils__PartnerContractsAdded",
      "type": "event"
    },
    {
      "inputs": [
        {
          "internalType": "address",
          "name": "partner",
          "type": "address"
        },
        {
          "internalType": "address",
          "name": "_partnerPayment",
          "type": "address"
        },
        {
          "internalType": "address",
          "name": "_partnerVault",
          "type": "address"
        }
      ],
      "name": "addPartnerContracts",
      "outputs": [],
      "stateMutability": "nonpayable",
      "type": "function"
    },
    {
      "inputs": [
        {
          "internalType": "address",
          "name": "_user",
          "type": "address"
        }
      ],
      "name": "balanceOf",
      "outputs": [
        {
          "internalType": "address[]",
          "name": "",
          "type": "address[]"
        },
        {
          "internalType": "uint256[]",
          "name": "",
          "type": "uint256[]"
        }
      ],
      "stateMutability": "view",
      "type": "function"
    },
    {
      "inputs": [],
      "name": "getAllDetails",
      "outputs": [
        {
          "internalType": "address[]",
          "name": "_partners",
          "type": "address[]"
        },
        {
          "internalType": "address[]",
          "name": "_partnerVaults",
          "type": "address[]"
        },
        {
          "internalType": "address[]",
          "name": "_partnerPayments",
          "type": "address[]"
        }
      ],
      "stateMutability": "view",
      "type": "function"
    },
    {
      "inputs": [],
      "name": "getPartners",
      "outputs": [
        {
          "internalType": "address[]",
          "name": "",
          "type": "address[]"
        }
      ],
      "stateMutability": "view",
      "type": "function"
    },
    {
      "inputs": [
        {
          "internalType": "address",
          "name": "_partner",
          "type": "address"
        }
      ],
      "name": "getSpecificPartnerDetails",
      "outputs": [
        {
          "internalType": "address",
          "name": "_partnerVault",
          "type": "address"
        },
        {
          "internalType": "address",
          "name": "_partnerPayment",
          "type": "address"
        }
      ],
      "stateMutability": "view",
      "type": "function"
    },
    {
      "inputs": [
        {
          "internalType": "address",
          "name": "_user",
          "type": "address"
        },
        {
          "internalType": "address",
          "name": "_initialToken",
          "type": "address"
        },
        {
          "internalType": "address",
          "name": "_finalToken",
          "type": "address"
        },
        {
          "internalType": "uint256",
          "name": "_initialTokenAmount",
          "type": "uint256"
        }
      ],
      "name": "getSwapFinalAmount",
      "outputs": [
        {
          "internalType": "uint256",
          "name": "_finalTokenAmount",
          "type": "uint256"
        }
      ],
      "stateMutability": "view",
      "type": "function"
    },
    {
      "inputs": [
        {
          "internalType": "address",
          "name": "_partner",
          "type": "address"
        }
      ],
      "name": "isPartner",
      "outputs": [
        {
          "internalType": "bool",
          "name": "",
          "type": "bool"
        }
      ],
      "stateMutability": "view",
      "type": "function"
    },
    {
      "inputs": [
        {
          "internalType": "address",
          "name": "_partner",
          "type": "address"
        }
      ],
      "name": "isPartnerAlreadyAdded",
      "outputs": [
        {
          "internalType": "bool",
          "name": "",
          "type": "bool"
        }
      ],
      "stateMutability": "view",
      "type": "function"
    },
    {
      "inputs": [
        {
          "internalType": "address",
          "name": "_partnerPayment",
          "type": "address"
        }
      ],
      "name": "isPartnerPaymentContract",
      "outputs": [
        {
          "internalType": "bool",
          "name": "",
          "type": "bool"
        }
      ],
      "stateMutability": "view",
      "type": "function"
    },
    {
      "inputs": [
        {
          "internalType": "address",
          "name": "",
          "type": "address"
        }
      ],
      "name": "s_addressToPartnerDetails",
      "outputs": [
        {
          "internalType": "address",
          "name": "s_partnerVault",
          "type": "address"
        },
        {
          "internalType": "address",
          "name": "s_partnerPayment",
          "type": "address"
        }
      ],
      "stateMutability": "view",
      "type": "function"
    },
    {
      "inputs": [],
      "name": "s_ghoToken",
      "outputs": [
        {
          "internalType": "address",
          "name": "",
          "type": "address"
        }
      ],
      "stateMutability": "view",
      "type": "function"
    },
    {
      "inputs": [],
      "name": "s_gpToken",
      "outputs": [
        {
          "internalType": "address",
          "name": "",
          "type": "address"
        }
      ],
      "stateMutability": "view",
      "type": "function"
    },
    {
      "inputs": [
        {
          "internalType": "address",
          "name": "",
          "type": "address"
        }
      ],
      "name": "s_isPartner",
      "outputs": [
        {
          "internalType": "bool",
          "name": "",
          "type": "bool"
        }
      ],
      "stateMutability": "view",
      "type": "function"
    },
    {
      "inputs": [
        {
          "internalType": "address",
          "name": "",
          "type": "address"
        }
      ],
      "name": "s_isPartnerPaymentContract",
      "outputs": [
        {
          "internalType": "bool",
          "name": "",
          "type": "bool"
        }
      ],
      "stateMutability": "view",
      "type": "function"
    },
    {
      "inputs": [
        {
          "internalType": "uint256",
          "name": "",
          "type": "uint256"
        }
      ],
      "name": "s_partners",
      "outputs": [
        {
          "internalType": "address",
          "name": "",
          "type": "address"
        }
      ],
      "stateMutability": "view",
      "type": "function"
    },
    {
      "inputs": [],
      "name": "s_rPool",
      "outputs": [
        {
          "internalType": "address",
          "name": "",
          "type": "address"
        }
      ],
      "stateMutability": "view",
      "type": "function"
    }
  ],
  "bytecode": {
    "object": "0x608060405234801561001057600080fd5b50610efc806100206000396000f3fe608060405234801561001057600080fd5b50600436106101005760003560e01c806370a0823111610097578063ccc5d7d411610066578063ccc5d7d4146102ab578063dacc52b0146102c2578063e41f47c1146102e5578063fddf11cf1461030657600080fd5b806370a082311461022657806373e29b0d146102475780637dd949d61461025c5780638c0f9aac1461027f57600080fd5b806338df465a116100d357806338df465a146101b95780634a9f4fce146101cc57806354c216dc1461020057806369e65a131461021357600080fd5b806305f74a33146101055780630dbf953d1461011a5780631a33b98b1461015b578063273c83401461018e575b600080fd5b610118610113366004610c3b565b610319565b005b610146610128366004610c86565b6001600160a01b031660009081526005602052604090205460ff1690565b60405190151581526020015b60405180910390f35b61016e610169366004610c86565b61043d565b604080516001600160a01b03938416815292909116602083015201610152565b6002546101a1906001600160a01b031681565b6040516001600160a01b039091168152602001610152565b6101a16101c7366004610ca3565b61047b565b61016e6101da366004610c86565b600460205260009081526040902080546001909101546001600160a01b03918216911682565b6001546101a1906001600160a01b031681565b6003546101a1906001600160a01b031681565b610239610234366004610c86565b6104a5565b604051610152929190610d00565b61024f610650565b6040516101529190610d57565b61014661026a366004610c86565b60066020526000908152604090205460ff1681565b61014661028d366004610c86565b6001600160a01b031660009081526006602052604090205460ff1690565b6102b36106b2565b60405161015293929190610d6a565b6101466102d0366004610c86565b60056020526000908152604090205460ff1681565b6102f86102f3366004610dad565b61085f565b604051908152602001610152565b610146610314366004610c86565b610b5d565b6040805180820182526001600160a01b03808416825284811660208084019182528783166000908152600490915293909320915182549082166001600160a01b0319918216178355925160019092018054929091169190921617905561037e83610b5d565b6103cb57600080546001810182559080527f290decd9548b62a8d60345a988386fc84ba6bc95484008f6362f93160ef3e5630180546001600160a01b0319166001600160a01b0385161790555b6001600160a01b0382811660008181526005602090815260408083208054600160ff199182168117909255898716808652600690945282852080549091169091179055519385169390917fdf90f54fcb354012a5ea71e6690edb056081f3a39f5929adcc40e749f0b8f3d291a4505050565b6001600160a01b0390811660009081526004602090815260409182902082518084019093528054841680845260019091015490931691018190529091565b6000818154811061048b57600080fd5b6000918252602090912001546001600160a01b0316905081565b60008054606091829167ffffffffffffffff8111156104c6576104c6610dfe565b6040519080825280602002602001820160405280156104ef578160200160208202803683370190505b50600080549192509067ffffffffffffffff81111561051057610510610dfe565b604051908082528060200260200182016040528015610539578160200160208202803683370190505b50905060005b60005481101561064657600061057b6000838154811061056157610561610e14565b6000918252602090912001546001600160a01b031661043d565b506040516370a0823160e01b81526001600160a01b038981166004830152919250908216906370a0823190602401602060405180830381865afa1580156105c6573d6000803e3d6000fd5b505050506040513d601f19601f820116820180604052508101906105ea9190610e2a565b8483815181106105fc576105fc610e14565b6020026020010181815250508083838151811061061b5761061b610e14565b6001600160a01b0390921660209283029190910190910152508061063e81610e59565b91505061053f565b5094909350915050565b606060008054806020026020016040519081016040528092919081815260200182805480156106a857602002820191906000526020600020905b81546001600160a01b0316815260019091019060200180831161068a575b5050505050905090565b60608060606000808054905067ffffffffffffffff8111156106d6576106d6610dfe565b6040519080825280602002602001820160405280156106ff578160200160208202803683370190505b50600080549192509067ffffffffffffffff81111561072057610720610dfe565b604051908082528060200260200182016040528015610749578160200160208202803683370190505b50905060005b6000548110156107f1576000806107726000848154811061056157610561610e14565b915091508185848151811061078957610789610e14565b60200260200101906001600160a01b031690816001600160a01b031681525050808484815181106107bc576107bc610e14565b60200260200101906001600160a01b031690816001600160a01b031681525050505080806107e990610e59565b91505061074f565b50600082828280548060200260200160405190810160405280929190818152602001828054801561084b57602002820191906000526020600020905b81546001600160a01b0316815260019091019060200180831161082d575b505050505092509450945094505050909192565b6001546000906001600160a01b039081169085160361089157604051631c9c704d60e11b815260040160405180910390fd5b6002546001600160a01b0385811691161480156108bb57506001546001600160a01b038481169116145b156109ad576001600160a01b03851660009081526006602052604090205460ff16156109635760025460408051639fd8c12960e01b815290516000926001600160a01b031691639fd8c1299160048083019260209291908290030181865afa15801561092b573d6000803e3d6000fd5b505050506040513d601f19601f8201168201806040525081019061094f9190610e2a565b905061095b8382610bc6565b915050610b55565b6002546040805163bbf3bac960e01b815290516000926001600160a01b03169163bbf3bac99160048083019260209291908290030181865afa15801561092b573d6000803e3d6000fd5b6002546001600160a01b038581169116148015906109d857506001546001600160a01b038481169116145b15610ad357846001600160a01b0316846001600160a01b0316638da5cb5b6040518163ffffffff1660e01b8152600401602060405180830381865afa158015610a25573d6000803e3d6000fd5b505050506040513d601f19601f82011682018060405250810190610a499190610e72565b6001600160a01b031603610a5e575080610b55565b60405163664f2d1d60e11b8152600481018390526000906001600160a01b0386169063cc9e5a3a906024016040805180830381865afa158015610aa5573d6000803e3d6000fd5b505050506040513d601f19601f82011682018060405250810190610ac99190610e8f565b509150610b559050565b600354604051632fdae44560e01b81526001600160a01b0386811660048301528581166024830152604482018590526000921690632fdae445906064016040805180830381865afa158015610b2c573d6000803e3d6000fd5b505050506040513d601f19601f82011682018060405250810190610b509190610e8f565b509150505b949350505050565b6000805b600054811015610bbd57826001600160a01b031660008281548110610b8857610b88610e14565b6000918252602090912001546001600160a01b031603610bab5750600192915050565b80610bb581610e59565b915050610b61565b50600092915050565b600080610bd38484610be9565b9050610bdf8185610eb3565b9150505b92915050565b6000610bfe8383670de0b6b3a7640000610c05565b9392505050565b6000826000190484118302158202610c1c57600080fd5b5091020490565b6001600160a01b0381168114610c3857600080fd5b50565b600080600060608486031215610c5057600080fd5b8335610c5b81610c23565b92506020840135610c6b81610c23565b91506040840135610c7b81610c23565b809150509250925092565b600060208284031215610c9857600080fd5b8135610bfe81610c23565b600060208284031215610cb557600080fd5b5035919050565b600081518084526020808501945080840160005b83811015610cf55781516001600160a01b031687529582019590820190600101610cd0565b509495945050505050565b604081526000610d136040830185610cbc565b82810360208481019190915284518083528582019282019060005b81811015610d4a57845183529383019391830191600101610d2e565b5090979650505050505050565b602081526000610bfe6020830184610cbc565b606081526000610d7d6060830186610cbc565b8281036020840152610d8f8186610cbc565b90508281036040840152610da38185610cbc565b9695505050505050565b60008060008060808587031215610dc357600080fd5b8435610dce81610c23565b93506020850135610dde81610c23565b92506040850135610dee81610c23565b9396929550929360600135925050565b634e487b7160e01b600052604160045260246000fd5b634e487b7160e01b600052603260045260246000fd5b600060208284031215610e3c57600080fd5b5051919050565b634e487b7160e01b600052601160045260246000fd5b600060018201610e6b57610e6b610e43565b5060010190565b600060208284031215610e8457600080fd5b8151610bfe81610c23565b60008060408385031215610ea257600080fd5b505080516020909101519092909150565b81810381811115610be357610be3610e4356fea26469706673582212206edd0b63ed0008d064504085789e5a69132419db68972f36c6aafaee264ea15664736f6c63430008140033",
    "linkReferences": {}
  },
  "methodIdentifiers": {
    "addPartnerContracts(address,address,address)": "05f74a33",
    "balanceOf(address)": "70a08231",
    "getAllDetails()": "ccc5d7d4",
    "getPartners()": "73e29b0d",
    "getSpecificPartnerDetails(address)": "1a33b98b",
    "getSwapFinalAmount(address,address,address,uint256)": "e41f47c1",
    "isPartner(address)": "8c0f9aac",
    "isPartnerAlreadyAdded(address)": "fddf11cf",
    "isPartnerPaymentContract(address)": "0dbf953d",
    "s_addressToPartnerDetails(address)": "4a9f4fce",
    "s_ghoToken()": "54c216dc",
    "s_gpToken()": "273c8340",
    "s_isPartner(address)": "7dd949d6",
    "s_isPartnerPaymentContract(address)": "dacc52b0",
    "s_partners(uint256)": "38df465a",
    "s_rPool()": "69e65a13"
  },
  "id": 53
}