{
  "abi": [
    {
      "anonymous": false,
      "inputs": [
        {
          "indexed": true,
          "internalType": "address",
          "name": "partner",
          "type": "address"
        },
        {
          "indexed": true,
          "internalType": "address",
          "name": "partnerPayment",
          "type": "address"
        },
        {
          "indexed": true,
          "internalType": "address",
          "name": "partnerVault",
          "type": "address"
        }
      ],
      "name": "Utils__PartnerContractsAdded",
      "type": "event"
    },
    {
      "inputs": [
        {
          "internalType": "address",
          "name": "partner",
          "type": "address"
        },
        {
          "internalType": "address",
          "name": "_partnerPayment",
          "type": "address"
        },
        {
          "internalType": "address",
          "name": "_partnerVault",
          "type": "address"
        }
      ],
      "name": "addPartnerContracts",
      "outputs": [],
      "stateMutability": "nonpayable",
      "type": "function"
    },
    {
      "inputs": [
        {
          "internalType": "address",
          "name": "_user",
          "type": "address"
        }
      ],
      "name": "balanceOf",
      "outputs": [
        {
          "internalType": "address[]",
          "name": "",
          "type": "address[]"
        },
        {
          "internalType": "uint256[]",
          "name": "",
          "type": "uint256[]"
        }
      ],
      "stateMutability": "view",
      "type": "function"
    },
    {
      "inputs": [],
      "name": "getPartners",
      "outputs": [
        {
          "internalType": "address[]",
          "name": "",
          "type": "address[]"
        }
      ],
      "stateMutability": "view",
      "type": "function"
    },
    {
      "inputs": [],
      "name": "getPartnersDetails",
      "outputs": [
        {
          "internalType": "address[]",
          "name": "_partnerVaults",
          "type": "address[]"
        },
        {
          "internalType": "address[]",
          "name": "_partnerPayments",
          "type": "address[]"
        }
      ],
      "stateMutability": "view",
      "type": "function"
    },
    {
      "inputs": [
        {
          "internalType": "address",
          "name": "_partner",
          "type": "address"
        }
      ],
      "name": "getSpecificPartnerDetails",
      "outputs": [
        {
          "internalType": "address",
          "name": "_partnerVault",
          "type": "address"
        },
        {
          "internalType": "address",
          "name": "_partnerPayment",
          "type": "address"
        }
      ],
      "stateMutability": "view",
      "type": "function"
    },
    {
      "inputs": [
        {
          "internalType": "address",
          "name": "_partner",
          "type": "address"
        }
      ],
      "name": "isPartner",
      "outputs": [
        {
          "internalType": "bool",
          "name": "",
          "type": "bool"
        }
      ],
      "stateMutability": "view",
      "type": "function"
    },
    {
      "inputs": [
        {
          "internalType": "address",
          "name": "_partner",
          "type": "address"
        }
      ],
      "name": "isPartnerAlreadyAdded",
      "outputs": [
        {
          "internalType": "bool",
          "name": "",
          "type": "bool"
        }
      ],
      "stateMutability": "view",
      "type": "function"
    },
    {
      "inputs": [
        {
          "internalType": "address",
          "name": "_partnerPayment",
          "type": "address"
        }
      ],
      "name": "isPartnerPaymentContract",
      "outputs": [
        {
          "internalType": "bool",
          "name": "",
          "type": "bool"
        }
      ],
      "stateMutability": "view",
      "type": "function"
    },
    {
      "inputs": [
        {
          "internalType": "address",
          "name": "",
          "type": "address"
        }
      ],
      "name": "s_addressToPartnerDetails",
      "outputs": [
        {
          "internalType": "address",
          "name": "s_partnerVault",
          "type": "address"
        },
        {
          "internalType": "address",
          "name": "s_partnerPayment",
          "type": "address"
        }
      ],
      "stateMutability": "view",
      "type": "function"
    },
    {
      "inputs": [
        {
          "internalType": "address",
          "name": "",
          "type": "address"
        }
      ],
      "name": "s_isPartner",
      "outputs": [
        {
          "internalType": "bool",
          "name": "",
          "type": "bool"
        }
      ],
      "stateMutability": "view",
      "type": "function"
    },
    {
      "inputs": [
        {
          "internalType": "address",
          "name": "",
          "type": "address"
        }
      ],
      "name": "s_isPartnerPaymentContract",
      "outputs": [
        {
          "internalType": "bool",
          "name": "",
          "type": "bool"
        }
      ],
      "stateMutability": "view",
      "type": "function"
    },
    {
      "inputs": [
        {
          "internalType": "uint256",
          "name": "",
          "type": "uint256"
        }
      ],
      "name": "s_partners",
      "outputs": [
        {
          "internalType": "address",
          "name": "",
          "type": "address"
        }
      ],
      "stateMutability": "view",
      "type": "function"
    }
  ],
  "bytecode": {
    "object": "0x608060405234801561001057600080fd5b506109d1806100206000396000f3fe608060405234801561001057600080fd5b50600436106100b45760003560e01c806370a082311161007157806370a08231146101b757806373e29b0d146101d85780637dd949d6146101ed5780638c0f9aac14610210578063dacc52b01461023c578063fddf11cf1461025f57600080fd5b806305f74a33146100b95780630dbf953d146100ce5780631a33b98b1461010f5780632350ab091461014257806338df465a146101585780634a9f4fce14610183575b600080fd5b6100cc6100c73660046107d5565b610272565b005b6100fa6100dc366004610818565b6001600160a01b031660009081526002602052604090205460ff1690565b60405190151581526020015b60405180910390f35b61012261011d366004610818565b610396565b604080516001600160a01b03938416815292909116602083015201610106565b61014a6103d3565b60405161010692919061087e565b61016b6101663660046108ac565b610533565b6040516001600160a01b039091168152602001610106565b610122610191366004610818565b600160208190526000918252604090912080549101546001600160a01b03918216911682565b6101ca6101c5366004610818565b61055d565b6040516101069291906108c5565b6101e06106ee565b604051610106919061091c565b6100fa6101fb366004610818565b60036020526000908152604090205460ff1681565b6100fa61021e366004610818565b6001600160a01b031660009081526003602052604090205460ff1690565b6100fa61024a366004610818565b60026020526000908152604090205460ff1681565b6100fa61026d366004610818565b610750565b6040805180820182526001600160a01b0380841682528481166020808401918252878316600090815260019182905294909420925183549083166001600160a01b0319918216178455905192909301805492909116919092161790556102d783610750565b61032457600080546001810182559080527f290decd9548b62a8d60345a988386fc84ba6bc95484008f6362f93160ef3e5630180546001600160a01b0319166001600160a01b0385161790555b6001600160a01b0382811660008181526002602090815260408083208054600160ff199182168117909255898716808652600390945282852080549091169091179055519385169390917fdf90f54fcb354012a5ea71e6690edb056081f3a39f5929adcc40e749f0b8f3d291a4505050565b6001600160a01b03908116600090815260016020818152604092839020835180850190945280548516808552920154909316919092018190529091565b60008054606091829167ffffffffffffffff8111156103f4576103f461092f565b60405190808252806020026020018201604052801561041d578160200160208202803683370190505b50600080549192509067ffffffffffffffff81111561043e5761043e61092f565b604051908082528060200260200182016040528015610467578160200160208202803683370190505b50905060005b600054811015610529576000806104aa6000848154811061049057610490610945565b6000918252602090912001546001600160a01b0316610396565b91509150818584815181106104c1576104c1610945565b60200260200101906001600160a01b031690816001600160a01b031681525050808484815181106104f4576104f4610945565b60200260200101906001600160a01b031690816001600160a01b031681525050505080806105219061095b565b91505061046d565b5090939092509050565b6000818154811061054357600080fd5b6000918252602090912001546001600160a01b0316905081565b60008054606091829167ffffffffffffffff81111561057e5761057e61092f565b6040519080825280602002602001820160405280156105a7578160200160208202803683370190505b50600080549192509067ffffffffffffffff8111156105c8576105c861092f565b6040519080825280602002602001820160405280156105f1578160200160208202803683370190505b50905060005b6000548110156106e45760006106196000838154811061049057610490610945565b506040516370a0823160e01b81526001600160a01b038981166004830152919250908216906370a0823190602401602060405180830381865afa158015610664573d6000803e3d6000fd5b505050506040513d601f19601f820116820180604052508101906106889190610982565b84838151811061069a5761069a610945565b602002602001018181525050808383815181106106b9576106b9610945565b6001600160a01b039092166020928302919091019091015250806106dc8161095b565b9150506105f7565b5094909350915050565b6060600080548060200260200160405190810160405280929190818152602001828054801561074657602002820191906000526020600020905b81546001600160a01b03168152600190910190602001808311610728575b5050505050905090565b6000805b6000548110156107b057826001600160a01b03166000828154811061077b5761077b610945565b6000918252602090912001546001600160a01b03160361079e5750600192915050565b806107a88161095b565b915050610754565b50600092915050565b80356001600160a01b03811681146107d057600080fd5b919050565b6000806000606084860312156107ea57600080fd5b6107f3846107b9565b9250610801602085016107b9565b915061080f604085016107b9565b90509250925092565b60006020828403121561082a57600080fd5b610833826107b9565b9392505050565b600081518084526020808501945080840160005b838110156108735781516001600160a01b03168752958201959082019060010161084e565b509495945050505050565b604081526000610891604083018561083a565b82810360208401526108a3818561083a565b95945050505050565b6000602082840312156108be57600080fd5b5035919050565b6040815260006108d8604083018561083a565b82810360208481019190915284518083528582019282019060005b8181101561090f578451835293830193918301916001016108f3565b5090979650505050505050565b602081526000610833602083018461083a565b634e487b7160e01b600052604160045260246000fd5b634e487b7160e01b600052603260045260246000fd5b60006001820161097b57634e487b7160e01b600052601160045260246000fd5b5060010190565b60006020828403121561099457600080fd5b505191905056fea264697066735822122023a213e30003160b89fb1f0d89e0a49bf7801859aeac8654bbbd7738525f354864736f6c63430008140033",
    "linkReferences": {}
  },
  "methodIdentifiers": {
    "addPartnerContracts(address,address,address)": "05f74a33",
    "balanceOf(address)": "70a08231",
    "getPartners()": "73e29b0d",
    "getPartnersDetails()": "2350ab09",
    "getSpecificPartnerDetails(address)": "1a33b98b",
    "isPartner(address)": "8c0f9aac",
    "isPartnerAlreadyAdded(address)": "fddf11cf",
    "isPartnerPaymentContract(address)": "0dbf953d",
    "s_addressToPartnerDetails(address)": "4a9f4fce",
    "s_isPartner(address)": "7dd949d6",
    "s_isPartnerPaymentContract(address)": "dacc52b0",
    "s_partners(uint256)": "38df465a"
  },
  "id": 53
}