{
  "abi": [
    {
      "anonymous": false,
      "inputs": [
        {
          "indexed": true,
          "internalType": "address",
          "name": "partner",
          "type": "address"
        },
        {
          "indexed": true,
          "internalType": "address",
          "name": "partnerPayment",
          "type": "address"
        },
        {
          "indexed": true,
          "internalType": "address",
          "name": "partnerVault",
          "type": "address"
        }
      ],
      "name": "Utils__PartnerContractsAdded",
      "type": "event"
    },
    {
      "inputs": [
        {
          "internalType": "address",
          "name": "partner",
          "type": "address"
        },
        {
          "internalType": "address",
          "name": "_partnerPayment",
          "type": "address"
        },
        {
          "internalType": "address",
          "name": "_partnerVault",
          "type": "address"
        }
      ],
      "name": "addPartnerContracts",
      "outputs": [],
      "stateMutability": "nonpayable",
      "type": "function"
    },
    {
      "inputs": [
        {
          "internalType": "address",
          "name": "_user",
          "type": "address"
        }
      ],
      "name": "balanceOf",
      "outputs": [
        {
          "internalType": "address[]",
          "name": "",
          "type": "address[]"
        },
        {
          "internalType": "uint256[]",
          "name": "",
          "type": "uint256[]"
        }
      ],
      "stateMutability": "view",
      "type": "function"
    },
    {
      "inputs": [],
      "name": "getAllDetails",
      "outputs": [
        {
          "internalType": "address[]",
          "name": "_partners",
          "type": "address[]"
        },
        {
          "internalType": "address[]",
          "name": "_partnerVaults",
          "type": "address[]"
        },
        {
          "internalType": "address[]",
          "name": "_partnerPayments",
          "type": "address[]"
        }
      ],
      "stateMutability": "view",
      "type": "function"
    },
    {
      "inputs": [],
      "name": "getPartners",
      "outputs": [
        {
          "internalType": "address[]",
          "name": "",
          "type": "address[]"
        }
      ],
      "stateMutability": "view",
      "type": "function"
    },
    {
      "inputs": [
        {
          "internalType": "address",
          "name": "_partner",
          "type": "address"
        }
      ],
      "name": "getSpecificPartnerDetails",
      "outputs": [
        {
          "internalType": "address",
          "name": "_partnerVault",
          "type": "address"
        },
        {
          "internalType": "address",
          "name": "_partnerPayment",
          "type": "address"
        }
      ],
      "stateMutability": "view",
      "type": "function"
    },
    {
      "inputs": [
        {
          "internalType": "address",
          "name": "_partner",
          "type": "address"
        }
      ],
      "name": "isPartner",
      "outputs": [
        {
          "internalType": "bool",
          "name": "",
          "type": "bool"
        }
      ],
      "stateMutability": "view",
      "type": "function"
    },
    {
      "inputs": [
        {
          "internalType": "address",
          "name": "_partner",
          "type": "address"
        }
      ],
      "name": "isPartnerAlreadyAdded",
      "outputs": [
        {
          "internalType": "bool",
          "name": "",
          "type": "bool"
        }
      ],
      "stateMutability": "view",
      "type": "function"
    },
    {
      "inputs": [
        {
          "internalType": "address",
          "name": "_partnerPayment",
          "type": "address"
        }
      ],
      "name": "isPartnerPaymentContract",
      "outputs": [
        {
          "internalType": "bool",
          "name": "",
          "type": "bool"
        }
      ],
      "stateMutability": "view",
      "type": "function"
    },
    {
      "inputs": [
        {
          "internalType": "address",
          "name": "",
          "type": "address"
        }
      ],
      "name": "s_addressToPartnerDetails",
      "outputs": [
        {
          "internalType": "address",
          "name": "s_partnerVault",
          "type": "address"
        },
        {
          "internalType": "address",
          "name": "s_partnerPayment",
          "type": "address"
        }
      ],
      "stateMutability": "view",
      "type": "function"
    },
    {
      "inputs": [
        {
          "internalType": "address",
          "name": "",
          "type": "address"
        }
      ],
      "name": "s_isPartner",
      "outputs": [
        {
          "internalType": "bool",
          "name": "",
          "type": "bool"
        }
      ],
      "stateMutability": "view",
      "type": "function"
    },
    {
      "inputs": [
        {
          "internalType": "address",
          "name": "",
          "type": "address"
        }
      ],
      "name": "s_isPartnerPaymentContract",
      "outputs": [
        {
          "internalType": "bool",
          "name": "",
          "type": "bool"
        }
      ],
      "stateMutability": "view",
      "type": "function"
    },
    {
      "inputs": [
        {
          "internalType": "uint256",
          "name": "",
          "type": "uint256"
        }
      ],
      "name": "s_partners",
      "outputs": [
        {
          "internalType": "address",
          "name": "",
          "type": "address"
        }
      ],
      "stateMutability": "view",
      "type": "function"
    }
  ],
  "bytecode": {
    "object": "0x608060405234801561001057600080fd5b50610a4e806100206000396000f3fe608060405234801561001057600080fd5b50600436106100b45760003560e01c806373e29b0d1161007157806373e29b0d146101c25780637dd949d6146101d75780638c0f9aac146101fa578063ccc5d7d414610226578063dacc52b01461023d578063fddf11cf1461026057600080fd5b806305f74a33146100b95780630dbf953d146100ce5780631a33b98b1461010f57806338df465a146101425780634a9f4fce1461016d57806370a08231146101a1575b600080fd5b6100cc6100c736600461083d565b610273565b005b6100fa6100dc366004610880565b6001600160a01b031660009081526002602052604090205460ff1690565b60405190151581526020015b60405180910390f35b61012261011d366004610880565b610397565b604080516001600160a01b03938416815292909116602083015201610106565b6101556101503660046108a2565b6103d4565b6040516001600160a01b039091168152602001610106565b61012261017b366004610880565b600160208190526000918252604090912080549101546001600160a01b03918216911682565b6101b46101af366004610880565b6103fe565b6040516101069291906108ff565b6101ca6105a9565b6040516101069190610956565b6100fa6101e5366004610880565b60036020526000908152604090205460ff1681565b6100fa610208366004610880565b6001600160a01b031660009081526003602052604090205460ff1690565b61022e61060b565b60405161010693929190610969565b6100fa61024b366004610880565b60026020526000908152604090205460ff1681565b6100fa61026e366004610880565b6107b8565b6040805180820182526001600160a01b0380841682528481166020808401918252878316600090815260019182905294909420925183549083166001600160a01b0319918216178455905192909301805492909116919092161790556102d8836107b8565b61032557600080546001810182559080527f290decd9548b62a8d60345a988386fc84ba6bc95484008f6362f93160ef3e5630180546001600160a01b0319166001600160a01b0385161790555b6001600160a01b0382811660008181526002602090815260408083208054600160ff199182168117909255898716808652600390945282852080549091169091179055519385169390917fdf90f54fcb354012a5ea71e6690edb056081f3a39f5929adcc40e749f0b8f3d291a4505050565b6001600160a01b03908116600090815260016020818152604092839020835180850190945280548516808552920154909316919092018190529091565b600081815481106103e457600080fd5b6000918252602090912001546001600160a01b0316905081565b60008054606091829167ffffffffffffffff81111561041f5761041f6109ac565b604051908082528060200260200182016040528015610448578160200160208202803683370190505b50600080549192509067ffffffffffffffff811115610469576104696109ac565b604051908082528060200260200182016040528015610492578160200160208202803683370190505b50905060005b60005481101561059f5760006104d4600083815481106104ba576104ba6109c2565b6000918252602090912001546001600160a01b0316610397565b506040516370a0823160e01b81526001600160a01b038981166004830152919250908216906370a0823190602401602060405180830381865afa15801561051f573d6000803e3d6000fd5b505050506040513d601f19601f8201168201806040525081019061054391906109d8565b848381518110610555576105556109c2565b60200260200101818152505080838381518110610574576105746109c2565b6001600160a01b03909216602092830291909101909101525080610597816109f1565b915050610498565b5094909350915050565b6060600080548060200260200160405190810160405280929190818152602001828054801561060157602002820191906000526020600020905b81546001600160a01b031681526001909101906020018083116105e3575b5050505050905090565b60608060606000808054905067ffffffffffffffff81111561062f5761062f6109ac565b604051908082528060200260200182016040528015610658578160200160208202803683370190505b50600080549192509067ffffffffffffffff811115610679576106796109ac565b6040519080825280602002602001820160405280156106a2578160200160208202803683370190505b50905060005b60005481101561074a576000806106cb600084815481106104ba576104ba6109c2565b91509150818584815181106106e2576106e26109c2565b60200260200101906001600160a01b031690816001600160a01b03168152505080848481518110610715576107156109c2565b60200260200101906001600160a01b031690816001600160a01b03168152505050508080610742906109f1565b9150506106a8565b5060008282828054806020026020016040519081016040528092919081815260200182805480156107a457602002820191906000526020600020905b81546001600160a01b03168152600190910190602001808311610786575b505050505092509450945094505050909192565b6000805b60005481101561081857826001600160a01b0316600082815481106107e3576107e36109c2565b6000918252602090912001546001600160a01b0316036108065750600192915050565b80610810816109f1565b9150506107bc565b50600092915050565b80356001600160a01b038116811461083857600080fd5b919050565b60008060006060848603121561085257600080fd5b61085b84610821565b925061086960208501610821565b915061087760408501610821565b90509250925092565b60006020828403121561089257600080fd5b61089b82610821565b9392505050565b6000602082840312156108b457600080fd5b5035919050565b600081518084526020808501945080840160005b838110156108f45781516001600160a01b0316875295820195908201906001016108cf565b509495945050505050565b60408152600061091260408301856108bb565b82810360208481019190915284518083528582019282019060005b818110156109495784518352938301939183019160010161092d565b5090979650505050505050565b60208152600061089b60208301846108bb565b60608152600061097c60608301866108bb565b828103602084015261098e81866108bb565b905082810360408401526109a281856108bb565b9695505050505050565b634e487b7160e01b600052604160045260246000fd5b634e487b7160e01b600052603260045260246000fd5b6000602082840312156109ea57600080fd5b5051919050565b600060018201610a1157634e487b7160e01b600052601160045260246000fd5b506001019056fea2646970667358221220604bde63ed96192b2196787cb2a56f22d0c0213e3ac9ec2f02ecd5cf0d3060e364736f6c63430008140033",
    "linkReferences": {}
  },
  "methodIdentifiers": {
    "addPartnerContracts(address,address,address)": "05f74a33",
    "balanceOf(address)": "70a08231",
    "getAllDetails()": "ccc5d7d4",
    "getPartners()": "73e29b0d",
    "getSpecificPartnerDetails(address)": "1a33b98b",
    "isPartner(address)": "8c0f9aac",
    "isPartnerAlreadyAdded(address)": "fddf11cf",
    "isPartnerPaymentContract(address)": "0dbf953d",
    "s_addressToPartnerDetails(address)": "4a9f4fce",
    "s_isPartner(address)": "7dd949d6",
    "s_isPartnerPaymentContract(address)": "dacc52b0",
    "s_partners(uint256)": "38df465a"
  },
  "id": 53
}