{
  "abi": [
    {
      "anonymous": false,
      "inputs": [
        {
          "indexed": true,
          "internalType": "address",
          "name": "partner",
          "type": "address"
        },
        {
          "indexed": true,
          "internalType": "address",
          "name": "partnerPayment",
          "type": "address"
        },
        {
          "indexed": true,
          "internalType": "address",
          "name": "partnerVault",
          "type": "address"
        }
      ],
      "name": "Utils__PartnerContractsAdded",
      "type": "event"
    },
    {
      "inputs": [
        {
          "internalType": "address",
          "name": "partner",
          "type": "address"
        },
        {
          "internalType": "address",
          "name": "_partnerPayment",
          "type": "address"
        },
        {
          "internalType": "address",
          "name": "_partnerVault",
          "type": "address"
        }
      ],
      "name": "addPartnerContracts",
      "outputs": [],
      "stateMutability": "nonpayable",
      "type": "function"
    },
    {
      "inputs": [
        {
          "internalType": "address",
          "name": "_user",
          "type": "address"
        }
      ],
      "name": "balanceOf",
      "outputs": [
        {
          "internalType": "address[]",
          "name": "",
          "type": "address[]"
        },
        {
          "internalType": "uint256[]",
          "name": "",
          "type": "uint256[]"
        }
      ],
      "stateMutability": "view",
      "type": "function"
    },
    {
      "inputs": [
        {
          "internalType": "address",
          "name": "_partner",
          "type": "address"
        }
      ],
      "name": "getPartnerDetails",
      "outputs": [
        {
          "internalType": "address",
          "name": "_partnerVault",
          "type": "address"
        },
        {
          "internalType": "address",
          "name": "_partnerPayment",
          "type": "address"
        }
      ],
      "stateMutability": "view",
      "type": "function"
    },
    {
      "inputs": [
        {
          "internalType": "address",
          "name": "_partner",
          "type": "address"
        }
      ],
      "name": "isPartner",
      "outputs": [
        {
          "internalType": "bool",
          "name": "",
          "type": "bool"
        }
      ],
      "stateMutability": "view",
      "type": "function"
    },
    {
      "inputs": [
        {
          "internalType": "address",
          "name": "_partnerPayment",
          "type": "address"
        }
      ],
      "name": "isPartnerPaymentContract",
      "outputs": [
        {
          "internalType": "bool",
          "name": "",
          "type": "bool"
        }
      ],
      "stateMutability": "view",
      "type": "function"
    },
    {
      "inputs": [
        {
          "internalType": "address",
          "name": "",
          "type": "address"
        }
      ],
      "name": "s_addressToPartnerDetails",
      "outputs": [
        {
          "internalType": "address",
          "name": "s_partnerVault",
          "type": "address"
        },
        {
          "internalType": "address",
          "name": "s_partnerPayment",
          "type": "address"
        }
      ],
      "stateMutability": "view",
      "type": "function"
    },
    {
      "inputs": [
        {
          "internalType": "address",
          "name": "",
          "type": "address"
        }
      ],
      "name": "s_isPartner",
      "outputs": [
        {
          "internalType": "bool",
          "name": "",
          "type": "bool"
        }
      ],
      "stateMutability": "view",
      "type": "function"
    },
    {
      "inputs": [
        {
          "internalType": "address",
          "name": "",
          "type": "address"
        }
      ],
      "name": "s_isPartnerPaymentContract",
      "outputs": [
        {
          "internalType": "bool",
          "name": "",
          "type": "bool"
        }
      ],
      "stateMutability": "view",
      "type": "function"
    },
    {
      "inputs": [
        {
          "internalType": "uint256",
          "name": "",
          "type": "uint256"
        }
      ],
      "name": "s_partners",
      "outputs": [
        {
          "internalType": "address",
          "name": "",
          "type": "address"
        }
      ],
      "stateMutability": "view",
      "type": "function"
    }
  ],
  "bytecode": {
    "object": "0x608060405234801561001057600080fd5b506106cf806100206000396000f3fe608060405234801561001057600080fd5b50600436106100935760003560e01c806370a082311161006657806370a082311461016d5780637dd949d61461018e5780638c0f9aac146101b1578063ccb22a9e146101dd578063dacc52b0146101f057600080fd5b806305f74a33146100985780630dbf953d146100ad57806338df465a146100ee5780634a9f4fce14610119575b600080fd5b6100ab6100a636600461052b565b610213565b005b6100d96100bb36600461056e565b6001600160a01b031660009081526002602052604090205460ff1690565b60405190151581526020015b60405180910390f35b6101016100fc366004610590565b6102fd565b6040516001600160a01b0390911681526020016100e5565b61014d61012736600461056e565b600160208190526000918252604090912080549101546001600160a01b03918216911682565b604080516001600160a01b039384168152929091166020830152016100e5565b61018061017b36600461056e565b610327565b6040516100e59291906105a9565b6100d961019c36600461056e565b60036020526000908152604090205460ff1681565b6100d96101bf36600461056e565b6001600160a01b031660009081526003602052604090205460ff1690565b61014d6101eb36600461056e565b6104d2565b6100d96101fe36600461056e565b60026020526000908152604090205460ff1681565b6040805180820182526001600160a01b03808416808352858216602080850182815289851660008181526001808552898220985189549089166001600160a01b0319918216178a55935198810180549990981698841698909817909655855480880187557f290decd9548b62a8d60345a988386fc84ba6bc95484008f6362f93160ef3e563018054909216811790915582855260028252868520805460ff1990811688179091558186526003909252868520805490921690951790559351909392917fdf90f54fcb354012a5ea71e6690edb056081f3a39f5929adcc40e749f0b8f3d291a4505050565b6000818154811061030d57600080fd5b6000918252602090912001546001600160a01b0316905081565b60008054606091829167ffffffffffffffff8111156103485761034861062d565b604051908082528060200260200182016040528015610371578160200160208202803683370190505b50600080549192509067ffffffffffffffff8111156103925761039261062d565b6040519080825280602002602001820160405280156103bb578160200160208202803683370190505b50905060005b6000548110156104c85760006103fd600083815481106103e3576103e3610643565b6000918252602090912001546001600160a01b03166104d2565b506040516370a0823160e01b81526001600160a01b038981166004830152919250908216906370a0823190602401602060405180830381865afa158015610448573d6000803e3d6000fd5b505050506040513d601f19601f8201168201806040525081019061046c9190610659565b84838151811061047e5761047e610643565b6020026020010181815250508083838151811061049d5761049d610643565b6001600160a01b039092166020928302919091019091015250806104c081610672565b9150506103c1565b5094909350915050565b6001600160a01b03908116600090815260016020818152604092839020835180850190945280548516808552920154909316919092018190529091565b80356001600160a01b038116811461052657600080fd5b919050565b60008060006060848603121561054057600080fd5b6105498461050f565b92506105576020850161050f565b91506105656040850161050f565b90509250925092565b60006020828403121561058057600080fd5b6105898261050f565b9392505050565b6000602082840312156105a257600080fd5b5035919050565b604080825283519082018190526000906020906060840190828701845b828110156105eb5781516001600160a01b0316845292840192908401906001016105c6565b5050508381038285015284518082528583019183019060005b8181101561062057835183529284019291840191600101610604565b5090979650505050505050565b634e487b7160e01b600052604160045260246000fd5b634e487b7160e01b600052603260045260246000fd5b60006020828403121561066b57600080fd5b5051919050565b60006001820161069257634e487b7160e01b600052601160045260246000fd5b506001019056fea264697066735822122030e72fa5ff76d6e825195d1ddbdec1e4ec749cd08aa6ed05f8c800d733f4a56d64736f6c63430008140033",
    "linkReferences": {}
  },
  "methodIdentifiers": {
    "addPartnerContracts(address,address,address)": "05f74a33",
    "balanceOf(address)": "70a08231",
    "getPartnerDetails(address)": "ccb22a9e",
    "isPartner(address)": "8c0f9aac",
    "isPartnerPaymentContract(address)": "0dbf953d",
    "s_addressToPartnerDetails(address)": "4a9f4fce",
    "s_isPartner(address)": "7dd949d6",
    "s_isPartnerPaymentContract(address)": "dacc52b0",
    "s_partners(uint256)": "38df465a"
  },
  "id": 53
}