{
  "abi": [
    {
      "inputs": [
        {
          "internalType": "contract ERC20",
          "name": "_ghoToken",
          "type": "address"
        },
        {
          "internalType": "address",
          "name": "ghoPartnerPassport",
          "type": "address"
        },
        {
          "internalType": "address",
          "name": "_mainAdmin",
          "type": "address"
        }
      ],
      "stateMutability": "nonpayable",
      "type": "constructor"
    },
    {
      "inputs": [],
      "name": "MainVault__ZeroAddress",
      "type": "error"
    },
    {
      "inputs": [],
      "name": "MainVault__ZeroAmount",
      "type": "error"
    },
    {
      "inputs": [
        {
          "internalType": "address",
          "name": "owner",
          "type": "address"
        }
      ],
      "name": "OwnableInvalidOwner",
      "type": "error"
    },
    {
      "inputs": [
        {
          "internalType": "address",
          "name": "account",
          "type": "address"
        }
      ],
      "name": "OwnableUnauthorizedAccount",
      "type": "error"
    },
    {
      "anonymous": false,
      "inputs": [
        {
          "indexed": true,
          "internalType": "address",
          "name": "owner",
          "type": "address"
        },
        {
          "indexed": true,
          "internalType": "address",
          "name": "spender",
          "type": "address"
        },
        {
          "indexed": false,
          "internalType": "uint256",
          "name": "amount",
          "type": "uint256"
        }
      ],
      "name": "Approval",
      "type": "event"
    },
    {
      "anonymous": false,
      "inputs": [
        {
          "indexed": true,
          "internalType": "address",
          "name": "caller",
          "type": "address"
        },
        {
          "indexed": true,
          "internalType": "address",
          "name": "owner",
          "type": "address"
        },
        {
          "indexed": false,
          "internalType": "uint256",
          "name": "assets",
          "type": "uint256"
        },
        {
          "indexed": false,
          "internalType": "uint256",
          "name": "shares",
          "type": "uint256"
        }
      ],
      "name": "Deposit",
      "type": "event"
    },
    {
      "anonymous": false,
      "inputs": [
        {
          "indexed": false,
          "internalType": "uint256",
          "name": "amount",
          "type": "uint256"
        }
      ],
      "name": "MainVault__GHODeposited",
      "type": "event"
    },
    {
      "anonymous": false,
      "inputs": [
        {
          "indexed": true,
          "internalType": "uint256",
          "name": "amount",
          "type": "uint256"
        },
        {
          "indexed": true,
          "internalType": "address",
          "name": "receiver",
          "type": "address"
        },
        {
          "indexed": true,
          "internalType": "address",
          "name": "owner",
          "type": "address"
        }
      ],
      "name": "MainVault__GHOWithdrawn",
      "type": "event"
    },
    {
      "anonymous": false,
      "inputs": [
        {
          "indexed": false,
          "internalType": "uint256",
          "name": "partnerFee",
          "type": "uint256"
        }
      ],
      "name": "MainVault__PartnerFeeSet",
      "type": "event"
    },
    {
      "anonymous": false,
      "inputs": [
        {
          "indexed": false,
          "internalType": "address",
          "name": "rewardPool",
          "type": "address"
        }
      ],
      "name": "MainVault__RewardPoolSet",
      "type": "event"
    },
    {
      "anonymous": false,
      "inputs": [
        {
          "indexed": false,
          "internalType": "address",
          "name": "mainAdmin",
          "type": "address"
        }
      ],
      "name": "MainVault__UpdatedMainAdmin",
      "type": "event"
    },
    {
      "anonymous": false,
      "inputs": [
        {
          "indexed": false,
          "internalType": "uint256",
          "name": "userFee",
          "type": "uint256"
        }
      ],
      "name": "MainVault__UserFeeSet",
      "type": "event"
    },
    {
      "anonymous": false,
      "inputs": [
        {
          "indexed": false,
          "internalType": "address",
          "name": "utils",
          "type": "address"
        }
      ],
      "name": "MainVault__UtilsSet",
      "type": "event"
    },
    {
      "anonymous": false,
      "inputs": [
        {
          "indexed": true,
          "internalType": "address",
          "name": "previousOwner",
          "type": "address"
        },
        {
          "indexed": true,
          "internalType": "address",
          "name": "newOwner",
          "type": "address"
        }
      ],
      "name": "OwnershipTransferred",
      "type": "event"
    },
    {
      "anonymous": false,
      "inputs": [
        {
          "indexed": true,
          "internalType": "address",
          "name": "from",
          "type": "address"
        },
        {
          "indexed": true,
          "internalType": "address",
          "name": "to",
          "type": "address"
        },
        {
          "indexed": false,
          "internalType": "uint256",
          "name": "amount",
          "type": "uint256"
        }
      ],
      "name": "Transfer",
      "type": "event"
    },
    {
      "anonymous": false,
      "inputs": [
        {
          "indexed": true,
          "internalType": "address",
          "name": "caller",
          "type": "address"
        },
        {
          "indexed": true,
          "internalType": "address",
          "name": "receiver",
          "type": "address"
        },
        {
          "indexed": true,
          "internalType": "address",
          "name": "owner",
          "type": "address"
        },
        {
          "indexed": false,
          "internalType": "uint256",
          "name": "assets",
          "type": "uint256"
        },
        {
          "indexed": false,
          "internalType": "uint256",
          "name": "shares",
          "type": "uint256"
        }
      ],
      "name": "Withdraw",
      "type": "event"
    },
    {
      "inputs": [],
      "name": "DOMAIN_SEPARATOR",
      "outputs": [
        {
          "internalType": "bytes32",
          "name": "",
          "type": "bytes32"
        }
      ],
      "stateMutability": "view",
      "type": "function"
    },
    {
      "inputs": [
        {
          "internalType": "address",
          "name": "",
          "type": "address"
        },
        {
          "internalType": "address",
          "name": "",
          "type": "address"
        }
      ],
      "name": "allowance",
      "outputs": [
        {
          "internalType": "uint256",
          "name": "",
          "type": "uint256"
        }
      ],
      "stateMutability": "view",
      "type": "function"
    },
    {
      "inputs": [
        {
          "internalType": "address",
          "name": "spender",
          "type": "address"
        },
        {
          "internalType": "uint256",
          "name": "amount",
          "type": "uint256"
        }
      ],
      "name": "approve",
      "outputs": [
        {
          "internalType": "bool",
          "name": "",
          "type": "bool"
        }
      ],
      "stateMutability": "nonpayable",
      "type": "function"
    },
    {
      "inputs": [],
      "name": "asset",
      "outputs": [
        {
          "internalType": "contract ERC20",
          "name": "",
          "type": "address"
        }
      ],
      "stateMutability": "view",
      "type": "function"
    },
    {
      "inputs": [
        {
          "internalType": "address",
          "name": "",
          "type": "address"
        }
      ],
      "name": "balanceOf",
      "outputs": [
        {
          "internalType": "uint256",
          "name": "",
          "type": "uint256"
        }
      ],
      "stateMutability": "view",
      "type": "function"
    },
    {
      "inputs": [
        {
          "internalType": "uint256",
          "name": "shares",
          "type": "uint256"
        }
      ],
      "name": "convertToAssets",
      "outputs": [
        {
          "internalType": "uint256",
          "name": "",
          "type": "uint256"
        }
      ],
      "stateMutability": "view",
      "type": "function"
    },
    {
      "inputs": [
        {
          "internalType": "uint256",
          "name": "assets",
          "type": "uint256"
        }
      ],
      "name": "convertToShares",
      "outputs": [
        {
          "internalType": "uint256",
          "name": "",
          "type": "uint256"
        }
      ],
      "stateMutability": "view",
      "type": "function"
    },
    {
      "inputs": [],
      "name": "decimals",
      "outputs": [
        {
          "internalType": "uint8",
          "name": "",
          "type": "uint8"
        }
      ],
      "stateMutability": "view",
      "type": "function"
    },
    {
      "inputs": [
        {
          "internalType": "uint256",
          "name": "assets",
          "type": "uint256"
        },
        {
          "internalType": "address",
          "name": "receiver",
          "type": "address"
        }
      ],
      "name": "deposit",
      "outputs": [
        {
          "internalType": "uint256",
          "name": "shares",
          "type": "uint256"
        }
      ],
      "stateMutability": "nonpayable",
      "type": "function"
    },
    {
      "inputs": [
        {
          "internalType": "uint256",
          "name": "_ghoAmount",
          "type": "uint256"
        }
      ],
      "name": "depositGHO",
      "outputs": [],
      "stateMutability": "nonpayable",
      "type": "function"
    },
    {
      "inputs": [
        {
          "internalType": "address",
          "name": "_user",
          "type": "address"
        }
      ],
      "name": "gpTokenBalance",
      "outputs": [
        {
          "internalType": "uint256",
          "name": "",
          "type": "uint256"
        }
      ],
      "stateMutability": "view",
      "type": "function"
    },
    {
      "inputs": [],
      "name": "i_ghoToken",
      "outputs": [
        {
          "internalType": "contract ERC20",
          "name": "",
          "type": "address"
        }
      ],
      "stateMutability": "view",
      "type": "function"
    },
    {
      "inputs": [
        {
          "internalType": "address",
          "name": "",
          "type": "address"
        }
      ],
      "name": "maxDeposit",
      "outputs": [
        {
          "internalType": "uint256",
          "name": "",
          "type": "uint256"
        }
      ],
      "stateMutability": "view",
      "type": "function"
    },
    {
      "inputs": [
        {
          "internalType": "address",
          "name": "",
          "type": "address"
        }
      ],
      "name": "maxMint",
      "outputs": [
        {
          "internalType": "uint256",
          "name": "",
          "type": "uint256"
        }
      ],
      "stateMutability": "view",
      "type": "function"
    },
    {
      "inputs": [
        {
          "internalType": "address",
          "name": "owner",
          "type": "address"
        }
      ],
      "name": "maxRedeem",
      "outputs": [
        {
          "internalType": "uint256",
          "name": "",
          "type": "uint256"
        }
      ],
      "stateMutability": "view",
      "type": "function"
    },
    {
      "inputs": [
        {
          "internalType": "address",
          "name": "owner",
          "type": "address"
        }
      ],
      "name": "maxWithdraw",
      "outputs": [
        {
          "internalType": "uint256",
          "name": "",
          "type": "uint256"
        }
      ],
      "stateMutability": "view",
      "type": "function"
    },
    {
      "inputs": [
        {
          "internalType": "uint256",
          "name": "shares",
          "type": "uint256"
        },
        {
          "internalType": "address",
          "name": "receiver",
          "type": "address"
        }
      ],
      "name": "mint",
      "outputs": [
        {
          "internalType": "uint256",
          "name": "assets",
          "type": "uint256"
        }
      ],
      "stateMutability": "nonpayable",
      "type": "function"
    },
    {
      "inputs": [],
      "name": "name",
      "outputs": [
        {
          "internalType": "string",
          "name": "",
          "type": "string"
        }
      ],
      "stateMutability": "view",
      "type": "function"
    },
    {
      "inputs": [
        {
          "internalType": "address",
          "name": "",
          "type": "address"
        }
      ],
      "name": "nonces",
      "outputs": [
        {
          "internalType": "uint256",
          "name": "",
          "type": "uint256"
        }
      ],
      "stateMutability": "view",
      "type": "function"
    },
    {
      "inputs": [],
      "name": "owner",
      "outputs": [
        {
          "internalType": "address",
          "name": "",
          "type": "address"
        }
      ],
      "stateMutability": "view",
      "type": "function"
    },
    {
      "inputs": [
        {
          "internalType": "address",
          "name": "owner",
          "type": "address"
        },
        {
          "internalType": "address",
          "name": "spender",
          "type": "address"
        },
        {
          "internalType": "uint256",
          "name": "value",
          "type": "uint256"
        },
        {
          "internalType": "uint256",
          "name": "deadline",
          "type": "uint256"
        },
        {
          "internalType": "uint8",
          "name": "v",
          "type": "uint8"
        },
        {
          "internalType": "bytes32",
          "name": "r",
          "type": "bytes32"
        },
        {
          "internalType": "bytes32",
          "name": "s",
          "type": "bytes32"
        }
      ],
      "name": "permit",
      "outputs": [],
      "stateMutability": "nonpayable",
      "type": "function"
    },
    {
      "inputs": [
        {
          "internalType": "uint256",
          "name": "assets",
          "type": "uint256"
        }
      ],
      "name": "previewDeposit",
      "outputs": [
        {
          "internalType": "uint256",
          "name": "",
          "type": "uint256"
        }
      ],
      "stateMutability": "view",
      "type": "function"
    },
    {
      "inputs": [
        {
          "internalType": "uint256",
          "name": "shares",
          "type": "uint256"
        }
      ],
      "name": "previewMint",
      "outputs": [
        {
          "internalType": "uint256",
          "name": "",
          "type": "uint256"
        }
      ],
      "stateMutability": "view",
      "type": "function"
    },
    {
      "inputs": [
        {
          "internalType": "uint256",
          "name": "shares",
          "type": "uint256"
        }
      ],
      "name": "previewRedeem",
      "outputs": [
        {
          "internalType": "uint256",
          "name": "",
          "type": "uint256"
        }
      ],
      "stateMutability": "view",
      "type": "function"
    },
    {
      "inputs": [
        {
          "internalType": "uint256",
          "name": "assets",
          "type": "uint256"
        }
      ],
      "name": "previewWithdraw",
      "outputs": [
        {
          "internalType": "uint256",
          "name": "",
          "type": "uint256"
        }
      ],
      "stateMutability": "view",
      "type": "function"
    },
    {
      "inputs": [
        {
          "internalType": "uint256",
          "name": "shares",
          "type": "uint256"
        },
        {
          "internalType": "address",
          "name": "receiver",
          "type": "address"
        },
        {
          "internalType": "address",
          "name": "owner",
          "type": "address"
        }
      ],
      "name": "redeem",
      "outputs": [
        {
          "internalType": "uint256",
          "name": "assets",
          "type": "uint256"
        }
      ],
      "stateMutability": "nonpayable",
      "type": "function"
    },
    {
      "inputs": [],
      "name": "renounceOwnership",
      "outputs": [],
      "stateMutability": "nonpayable",
      "type": "function"
    },
    {
      "inputs": [],
      "name": "s_ghoPartnerPassport",
      "outputs": [
        {
          "internalType": "contract IERC721",
          "name": "",
          "type": "address"
        }
      ],
      "stateMutability": "view",
      "type": "function"
    },
    {
      "inputs": [],
      "name": "s_mainAdmin",
      "outputs": [
        {
          "internalType": "address",
          "name": "",
          "type": "address"
        }
      ],
      "stateMutability": "view",
      "type": "function"
    },
    {
      "inputs": [],
      "name": "s_mainPayment",
      "outputs": [
        {
          "internalType": "address",
          "name": "",
          "type": "address"
        }
      ],
      "stateMutability": "view",
      "type": "function"
    },
    {
      "inputs": [],
      "name": "s_partnerFee",
      "outputs": [
        {
          "internalType": "uint256",
          "name": "",
          "type": "uint256"
        }
      ],
      "stateMutability": "view",
      "type": "function"
    },
    {
      "inputs": [],
      "name": "s_userFee",
      "outputs": [
        {
          "internalType": "uint256",
          "name": "",
          "type": "uint256"
        }
      ],
      "stateMutability": "view",
      "type": "function"
    },
    {
      "inputs": [
        {
          "internalType": "address",
          "name": "_ghoPartnerPassport",
          "type": "address"
        }
      ],
      "name": "setGHOPartnerPassport",
      "outputs": [],
      "stateMutability": "nonpayable",
      "type": "function"
    },
    {
      "inputs": [
        {
          "internalType": "address",
          "name": "_mainAdmin",
          "type": "address"
        }
      ],
      "name": "setMainAdmin",
      "outputs": [],
      "stateMutability": "nonpayable",
      "type": "function"
    },
    {
      "inputs": [
        {
          "internalType": "address",
          "name": "_mainPayment",
          "type": "address"
        }
      ],
      "name": "setMainPayment",
      "outputs": [],
      "stateMutability": "nonpayable",
      "type": "function"
    },
    {
      "inputs": [
        {
          "internalType": "uint8",
          "name": "_partnerFee",
          "type": "uint8"
        }
      ],
      "name": "setPartnerFee",
      "outputs": [],
      "stateMutability": "nonpayable",
      "type": "function"
    },
    {
      "inputs": [
        {
          "internalType": "uint8",
          "name": "_userFee",
          "type": "uint8"
        }
      ],
      "name": "setUserFee",
      "outputs": [],
      "stateMutability": "nonpayable",
      "type": "function"
    },
    {
      "inputs": [],
      "name": "symbol",
      "outputs": [
        {
          "internalType": "string",
          "name": "",
          "type": "string"
        }
      ],
      "stateMutability": "view",
      "type": "function"
    },
    {
      "inputs": [],
      "name": "totalAssets",
      "outputs": [
        {
          "internalType": "uint256",
          "name": "",
          "type": "uint256"
        }
      ],
      "stateMutability": "view",
      "type": "function"
    },
    {
      "inputs": [],
      "name": "totalSupply",
      "outputs": [
        {
          "internalType": "uint256",
          "name": "",
          "type": "uint256"
        }
      ],
      "stateMutability": "view",
      "type": "function"
    },
    {
      "inputs": [
        {
          "internalType": "address",
          "name": "to",
          "type": "address"
        },
        {
          "internalType": "uint256",
          "name": "amount",
          "type": "uint256"
        }
      ],
      "name": "transfer",
      "outputs": [
        {
          "internalType": "bool",
          "name": "",
          "type": "bool"
        }
      ],
      "stateMutability": "nonpayable",
      "type": "function"
    },
    {
      "inputs": [
        {
          "internalType": "address",
          "name": "from",
          "type": "address"
        },
        {
          "internalType": "address",
          "name": "to",
          "type": "address"
        },
        {
          "internalType": "uint256",
          "name": "amount",
          "type": "uint256"
        }
      ],
      "name": "transferFrom",
      "outputs": [
        {
          "internalType": "bool",
          "name": "",
          "type": "bool"
        }
      ],
      "stateMutability": "nonpayable",
      "type": "function"
    },
    {
      "inputs": [
        {
          "internalType": "address",
          "name": "newOwner",
          "type": "address"
        }
      ],
      "name": "transferOwnership",
      "outputs": [],
      "stateMutability": "nonpayable",
      "type": "function"
    },
    {
      "inputs": [
        {
          "internalType": "uint256",
          "name": "_gpAmount",
          "type": "uint256"
        },
        {
          "internalType": "address",
          "name": "_receiver",
          "type": "address"
        },
        {
          "internalType": "address",
          "name": "_owner",
          "type": "address"
        }
      ],
      "name": "withdraw",
      "outputs": [
        {
          "internalType": "uint256",
          "name": "shares",
          "type": "uint256"
        }
      ],
      "stateMutability": "nonpayable",
      "type": "function"
    },
    {
      "inputs": [
        {
          "internalType": "uint256",
          "name": "_gp",
          "type": "uint256"
        },
        {
          "internalType": "address",
          "name": "_receiver",
          "type": "address"
        },
        {
          "internalType": "address",
          "name": "_owner",
          "type": "address"
        }
      ],
      "name": "withdrawGHO",
      "outputs": [],
      "stateMutability": "nonpayable",
      "type": "function"
    }
  ],
  "bytecode": {
    "object": "0x6101206040523480156200001257600080fd5b50604051620023f7380380620023f7833981016040819052620000359162000239565b80836040518060400160405280600a81526020016947484f20506f696e747360b01b81525060405180604001604052806002815260200161047560f41b815250601282828282600090816200008b919062000332565b5060016200009a838262000332565b5060ff81166080524660a052620000b062000132565b60c0525050506001600160a01b0393841660e0525050508116620000ee57604051631e4fbdf760e01b81526000600482015260240160405180910390fd5b620000f981620001ce565b506001600160a01b0392831661010052600b80549184166001600160a01b0319928316179055600780549290931691161790556200047c565b60007f8b73c3c69bb8fe3d512ecc4cf759cc79239f7b179b0ffacaa9a75d522b39400f6000604051620001669190620003fe565b6040805191829003822060208301939093528101919091527fc89efdaa54c0f20c7adf612882df0950f5a951637e0307cdcb4c672f298b8bc660608201524660808201523060a082015260c00160405160208183030381529060405280519060200120905090565b600680546001600160a01b038381166001600160a01b0319831681179093556040519116919082907f8be0079c531659141344cd1fd0a4f28419497f9722a3daafe3b4186f6b6457e090600090a35050565b6001600160a01b03811681146200023657600080fd5b50565b6000806000606084860312156200024f57600080fd5b83516200025c8162000220565b60208501519093506200026f8162000220565b6040850151909250620002828162000220565b809150509250925092565b634e487b7160e01b600052604160045260246000fd5b600181811c90821680620002b857607f821691505b602082108103620002d957634e487b7160e01b600052602260045260246000fd5b50919050565b601f8211156200032d57600081815260208120601f850160051c81016020861015620003085750805b601f850160051c820191505b81811015620003295782815560010162000314565b5050505b505050565b81516001600160401b038111156200034e576200034e6200028d565b62000366816200035f8454620002a3565b84620002df565b602080601f8311600181146200039e5760008415620003855750858301515b600019600386901b1c1916600185901b17855562000329565b600085815260208120601f198616915b82811015620003cf57888601518255948401946001909101908401620003ae565b5085821015620003ee5787850151600019600388901b60f8161c191681555b5050505050600190811b01905550565b60008083546200040e81620002a3565b600182811680156200042957600181146200043f5762000470565b60ff198416875282151583028701945062000470565b8760005260208060002060005b85811015620004675781548a8201529084019082016200044c565b50505082870194505b50929695505050505050565b60805160a05160c05160e05161010051611ef762000500600039600081816104820152818161065801528181610f8e0152818161104a015281816110e301528181611195015261122e01526000818161038701528181610b5f01528181610c8401526113c20152600061097f0152600061094f015260006103330152611ef76000f3fe608060405234801561001057600080fd5b506004361061027f5760003560e01c80638da5cb5b1161015c578063ba087652116100ce578063ce96cb7711610087578063ce96cb77146105c9578063d505accf146105dc578063d905777e146105a0578063dd62ed3e146105ef578063ef8b30f71461061a578063f2fde38b1461062d57600080fd5b8063ba0876521461055e578063bbf3bac914610571578063c43d5c341461057a578063c63d75b6146103c1578063c6e6f5921461058d578063cd62b083146105a057600080fd5b80639a3aed36116101205780639a3aed36146104f65780639fd8c12914610509578063a9059cbb14610512578063b3d7f6b914610525578063b460af9414610538578063b778eccd1461054b57600080fd5b80638da5cb5b146104a457806394bf804d146104b557806395190275146104c857806395d89b41146104db578063978223d3146104e357600080fd5b806338d52e0f116101f55780636eb4aa45116101b95780636eb4aa451461040f57806370a0823114610422578063715018a6146104425780637709b6ab1461044a5780637ecebe001461045d57806389c078de1461047d57600080fd5b806338d52e0f14610382578063402d267d146103c15780634cdad506146103d657806354fe8fb7146103e95780636e553f65146103fc57600080fd5b806318160ddd1161024757806318160ddd146102fd57806323b872dd146103065780632578ab9714610319578063313ce5671461032e5780633644e515146103675780633674e6d51461036f57600080fd5b806301e1d1141461028457806306fdde031461029f57806307a2d13a146102b4578063095ea7b3146102c75780630a28a477146102ea575b600080fd5b61028c610640565b6040519081526020015b60405180910390f35b6102a76106d0565b6040516102969190611b25565b61028c6102c2366004611b73565b61075e565b6102da6102d5366004611ba8565b61078b565b6040519015158152602001610296565b61028c6102f8366004611b73565b6107f8565b61028c60025481565b6102da610314366004611bd2565b610818565b61032c610327366004611c0e565b6108f8565b005b6103557f000000000000000000000000000000000000000000000000000000000000000081565b60405160ff9091168152602001610296565b61028c61094b565b61032c61037d366004611c0e565b6109a1565b6103a97f000000000000000000000000000000000000000000000000000000000000000081565b6040516001600160a01b039091168152602001610296565b61028c6103cf366004611c0e565b5060001990565b61028c6103e4366004611b73565b610a30565b61032c6103f7366004611c29565b610a3b565b61028c61040a366004611c65565b610b02565b600a546103a9906001600160a01b031681565b61028c610430366004611c0e565b60036020526000908152604090205481565b61032c610bdd565b61032c610458366004611b73565b610bf1565b61028c61046b366004611c0e565b60056020526000908152604090205481565b6103a97f000000000000000000000000000000000000000000000000000000000000000081565b6006546001600160a01b03166103a9565b61028c6104c3366004611c65565b610c6a565b61032c6104d6366004611ca2565b610cf9565b6102a7610d65565b600b546103a9906001600160a01b031681565b61032c610504366004611c0e565b610d72565b61028c60095481565b6102da610520366004611ba8565b610e01565b61028c610533366004611b73565b610e67565b61028c610546366004611c29565b610e86565b6007546103a9906001600160a01b031681565b61028c61056c366004611c29565b6112a7565b61028c60085481565b61032c610588366004611ca2565b6113e9565b61028c61059b366004611b73565b611455565b61028c6105ae366004611c0e565b6001600160a01b031660009081526003602052604090205490565b61028c6105d7366004611c0e565b611475565b61032c6105ea366004611cbd565b611497565b61028c6105fd366004611d27565b600460209081526000928352604080842090915290825290205481565b61028c610628366004611b73565b6116db565b61032c61063b366004611c0e565b6116e6565b6040516370a0823160e01b81523060048201526000907f00000000000000000000000000000000000000000000000000000000000000006001600160a01b0316906370a0823190602401602060405180830381865afa1580156106a7573d6000803e3d6000fd5b505050506040513d601f19601f820116820180604052508101906106cb9190611d51565b905090565b600080546106dd90611d6a565b80601f016020809104026020016040519081016040528092919081815260200182805461070990611d6a565b80156107565780601f1061072b57610100808354040283529160200191610756565b820191906000526020600020905b81548152906001019060200180831161073957829003601f168201915b505050505081565b60025460009080156107825761077d610775610640565b849083611724565b610784565b825b9392505050565b3360008181526004602090815260408083206001600160a01b038716808552925280832085905551919290917f8c5be1e5ebec7d5bd14f71427d1e84f3dd0314c0f7b2291e5b200ac8c7c3b925906107e69086815260200190565b60405180910390a35060015b92915050565b60025460009080156107825761077d81610810610640565b859190611742565b6001600160a01b038316600090815260046020908152604080832033845290915281205460001981146108745761084f8382611dba565b6001600160a01b03861660009081526004602090815260408083203384529091529020555b6001600160a01b0385166000908152600360205260408120805485929061089c908490611dba565b90915550506001600160a01b0380851660008181526003602052604090819020805487019055519091871690600080516020611ea2833981519152906108e59087815260200190565b60405180910390a3506001949350505050565b806001600160a01b038116610920576040516309fafd2b60e41b815260040160405180910390fd5b610928611768565b50600780546001600160a01b0319166001600160a01b0392909216919091179055565b60007f0000000000000000000000000000000000000000000000000000000000000000461461097c576106cb611795565b507f000000000000000000000000000000000000000000000000000000000000000090565b806001600160a01b0381166109c9576040516309fafd2b60e41b815260040160405180910390fd5b6109d1611768565b6040516001600160a01b03831681527f4c070d2bd28acbebea1baca2a0a570d95bcbc30dee9a07c8218065ad38a400fb9060200160405180910390a150600a80546001600160a01b0319166001600160a01b0392909216919091179055565b60006107f28261075e565b8280600003610a5d5760405163e0e0bbe560e01b815260040160405180910390fd5b826001600160a01b038116610a85576040516309fafd2b60e41b815260040160405180910390fd5b826001600160a01b038116610aad576040516309fafd2b60e41b815260040160405180910390fd5b610ab8868686610e86565b50836001600160a01b0316856001600160a01b0316877f08776d462a9ccc9302a2964ce06fc22c72ee3b91019c17424baae6e7481c7fbd60405160405180910390a4505050505050565b6000610b0d836116db565b905080600003610b525760405162461bcd60e51b815260206004820152600b60248201526a5a45524f5f53484152455360a81b60448201526064015b60405180910390fd5b610b876001600160a01b037f00000000000000000000000000000000000000000000000000000000000000001633308661182f565b610b9182826118cb565b60408051848152602081018390526001600160a01b0384169133917fdcbc1c05240f31ff3ad067ef1ee35ce4997762752e3a095284754544f4c709d791015b60405180910390a36107f2565b610be5611768565b610bef6000611925565b565b8080600003610c135760405163e0e0bbe560e01b815260040160405180910390fd5b610c1b611768565b600a54610c329083906001600160a01b0316610b02565b506040518281527f05481d73db532e5e33460a49c151606cfe362daee86a1cab011fda979f1a9fe59060200160405180910390a15050565b6000610c7583610e67565b9050610cac6001600160a01b037f00000000000000000000000000000000000000000000000000000000000000001633308461182f565b610cb682846118cb565b60408051828152602081018590526001600160a01b0384169133917fdcbc1c05240f31ff3ad067ef1ee35ce4997762752e3a095284754544f4c709d79101610bd0565b8060ff1680600003610d1e5760405163e0e0bbe560e01b815260040160405180910390fd5b610d26611768565b60405160ff831681527f7d2f55757a415932d0da2e15c82996e62500df6be2e6391891673497531e7dac9060200160405180910390a15060ff16600955565b600180546106dd90611d6a565b806001600160a01b038116610d9a576040516309fafd2b60e41b815260040160405180910390fd5b610da2611768565b6040516001600160a01b03831681527f2301cf8a0b3843703c165bc6b5998c4b8dd3351af50528d2e8f986727c30ab9b9060200160405180910390a150600b80546001600160a01b0319166001600160a01b0392909216919091179055565b33600090815260036020526040812080548391908390610e22908490611dba565b90915550506001600160a01b03831660008181526003602052604090819020805485019055513390600080516020611ea2833981519152906107e69086815260200190565b60025460009080156107825761077d610e7e610640565b849083611742565b6000610e91846107f8565b9050336001600160a01b03831614610f01576001600160a01b03821660009081526004602090815260408083203384529091529020546000198114610eff57610eda8282611dba565b6001600160a01b03841660009081526004602090815260408083203384529091529020555b505b610f0b8282611977565b60408051858152602081018390526001600160a01b03808516929086169133917ffbde797d201c681b91056529119e0b02407c7bb96a4a2c75c01fc9667232c8db910160405180910390a46006546001600160a01b031633036110015760405163a9059cbb60e01b81526001600160a01b038481166004830152602482018690527f0000000000000000000000000000000000000000000000000000000000000000169063a9059cbb906044016020604051808303816000875af1158015610fd7573d6000803e3d6000fd5b505050506040513d601f19601f82011682018060405250810190610ffb9190611dcd565b50610784565b61100a336119d9565b1561115a5760008061101e86600954611a52565b60405163a9059cbb60e01b81526001600160a01b038881166004830152602482018490529294509092507f00000000000000000000000000000000000000000000000000000000000000009091169063a9059cbb906044016020604051808303816000875af1158015611095573d6000803e3d6000fd5b505050506040513d601f19601f820116820180604052508101906110b99190611dcd565b50600b5460405163a9059cbb60e01b81526001600160a01b039182166004820152602481018390527f00000000000000000000000000000000000000000000000000000000000000009091169063a9059cbb906044016020604051808303816000875af115801561112e573d6000803e3d6000fd5b505050506040513d601f19601f820116820180604052508101906111529190611dcd565b505050610784565b60008061116986600854611a52565b60405163a9059cbb60e01b81526001600160a01b038881166004830152602482018490529294509092507f00000000000000000000000000000000000000000000000000000000000000009091169063a9059cbb906044016020604051808303816000875af11580156111e0573d6000803e3d6000fd5b505050506040513d601f19601f820116820180604052508101906112049190611dcd565b50600b5460405163a9059cbb60e01b81526001600160a01b039182166004820152602481018390527f00000000000000000000000000000000000000000000000000000000000000009091169063a9059cbb906044016020604051808303816000875af1158015611279573d6000803e3d6000fd5b505050506040513d601f19601f8201168201806040525081019061129d9190611dcd565b5050509392505050565b6000336001600160a01b03831614611317576001600160a01b03821660009081526004602090815260408083203384529091529020546000198114611315576112f08582611dba565b6001600160a01b03841660009081526004602090815260408083203384529091529020555b505b61132084610a30565b9050806000036113605760405162461bcd60e51b815260206004820152600b60248201526a5a45524f5f41535345545360a81b6044820152606401610b49565b61136a8285611977565b60408051828152602081018690526001600160a01b03808516929086169133917ffbde797d201c681b91056529119e0b02407c7bb96a4a2c75c01fc9667232c8db910160405180910390a46107846001600160a01b037f0000000000000000000000000000000000000000000000000000000000000000168483611a74565b8060ff168060000361140e5760405163e0e0bbe560e01b815260040160405180910390fd5b611416611768565b60405160ff831681527fc013b8341ea863bfc4571c06021cd8a7c8eeea033e27675ba23ef3a6478e83439060200160405180910390a15060ff16600855565b60025460009080156107825761077d8161146d610640565b859190611724565b6001600160a01b0381166000908152600360205260408120546107f29061075e565b428410156114e75760405162461bcd60e51b815260206004820152601760248201527f5045524d49545f444541444c494e455f455850495245440000000000000000006044820152606401610b49565b600060016114f361094b565b6001600160a01b038a811660008181526005602090815260409182902080546001810190915582517f6e71edae12b1b97f4d1f60370fef10105fa2faae0126114a169c64845d6126c98184015280840194909452938d166060840152608083018c905260a083019390935260c08083018b90528151808403909101815260e08301909152805192019190912061190160f01b6101008301526101028201929092526101228101919091526101420160408051601f198184030181528282528051602091820120600084529083018083525260ff871690820152606081018590526080810184905260a0016020604051602081039080840390855afa1580156115ff573d6000803e3d6000fd5b5050604051601f1901519150506001600160a01b038116158015906116355750876001600160a01b0316816001600160a01b0316145b6116725760405162461bcd60e51b815260206004820152600e60248201526d24a72b20a624a22fa9a4a3a722a960911b6044820152606401610b49565b6001600160a01b0390811660009081526004602090815260408083208a8516808552908352928190208990555188815291928a16917f8c5be1e5ebec7d5bd14f71427d1e84f3dd0314c0f7b2291e5b200ac8c7c3b925910160405180910390a350505050505050565b60006107f282611455565b6116ee611768565b6001600160a01b03811661171857604051631e4fbdf760e01b815260006004820152602401610b49565b61172181611925565b50565b600082600019048411830215820261173b57600080fd5b5091020490565b600082600019048411830215820261175957600080fd5b50910281810615159190040190565b6006546001600160a01b03163314610bef5760405163118cdaa760e01b8152336004820152602401610b49565b60007f8b73c3c69bb8fe3d512ecc4cf759cc79239f7b179b0ffacaa9a75d522b39400f60006040516117c79190611def565b6040805191829003822060208301939093528101919091527fc89efdaa54c0f20c7adf612882df0950f5a951637e0307cdcb4c672f298b8bc660608201524660808201523060a082015260c00160405160208183030381529060405280519060200120905090565b60006040516323b872dd60e01b81526001600160a01b03851660048201526001600160a01b03841660248201528260448201526020600060648360008a5af13d15601f3d11600160005114161716915050806118c45760405162461bcd60e51b81526020600482015260146024820152731514905394d1915497d19493d357d1905253115160621b6044820152606401610b49565b5050505050565b80600260008282546118dd9190611e8e565b90915550506001600160a01b038216600081815260036020908152604080832080548601905551848152600080516020611ea283398151915291015b60405180910390a35050565b600680546001600160a01b038381166001600160a01b0319831681179093556040519116919082907f8be0079c531659141344cd1fd0a4f28419497f9722a3daafe3b4186f6b6457e090600090a35050565b6001600160a01b0382166000908152600360205260408120805483929061199f908490611dba565b90915550506002805482900390556040518181526000906001600160a01b03841690600080516020611ea283398151915290602001611919565b6007546040516370a0823160e01b81526001600160a01b03838116600483015260009283929116906370a0823190602401602060405180830381865afa158015611a27573d6000803e3d6000fd5b505050506040513d601f19601f82011682018060405250810190611a4b9190611d51565b1192915050565b600080611a5f8484611afb565b9050611a6b8185611dba565b91509250929050565b600060405163a9059cbb60e01b81526001600160a01b0384166004820152826024820152602060006044836000895af13d15601f3d1160016000511416171691505080611af55760405162461bcd60e51b815260206004820152600f60248201526e1514905394d1915497d19052531151608a1b6044820152606401610b49565b50505050565b600080611b088484611b10565b949350505050565b60006107848383670de0b6b3a7640000611724565b600060208083528351808285015260005b81811015611b5257858101830151858201604001528201611b36565b506000604082860101526040601f19601f8301168501019250505092915050565b600060208284031215611b8557600080fd5b5035919050565b80356001600160a01b0381168114611ba357600080fd5b919050565b60008060408385031215611bbb57600080fd5b611bc483611b8c565b946020939093013593505050565b600080600060608486031215611be757600080fd5b611bf084611b8c565b9250611bfe60208501611b8c565b9150604084013590509250925092565b600060208284031215611c2057600080fd5b61078482611b8c565b600080600060608486031215611c3e57600080fd5b83359250611c4e60208501611b8c565b9150611c5c60408501611b8c565b90509250925092565b60008060408385031215611c7857600080fd5b82359150611c8860208401611b8c565b90509250929050565b803560ff81168114611ba357600080fd5b600060208284031215611cb457600080fd5b61078482611c91565b600080600080600080600060e0888a031215611cd857600080fd5b611ce188611b8c565b9650611cef60208901611b8c565b95506040880135945060608801359350611d0b60808901611c91565b925060a0880135915060c0880135905092959891949750929550565b60008060408385031215611d3a57600080fd5b611d4383611b8c565b9150611c8860208401611b8c565b600060208284031215611d6357600080fd5b5051919050565b600181811c90821680611d7e57607f821691505b602082108103611d9e57634e487b7160e01b600052602260045260246000fd5b50919050565b634e487b7160e01b600052601160045260246000fd5b818103818111156107f2576107f2611da4565b600060208284031215611ddf57600080fd5b8151801515811461078457600080fd5b600080835481600182811c915080831680611e0b57607f831692505b60208084108203611e2a57634e487b7160e01b86526022600452602486fd5b818015611e3e5760018114611e5357611e80565b60ff1986168952841515850289019650611e80565b60008a81526020902060005b86811015611e785781548b820152908501908301611e5f565b505084890196505b509498975050505050505050565b808201808211156107f2576107f2611da456feddf252ad1be2c89b69c2b068fc378daa952ba7f163c4a11628f55a4df523b3efa26469706673582212203296ff79882177c1700fdf672975e5bad4004786ab217ca2599726e4ab4e24e464736f6c63430008140033",
    "linkReferences": {}
  },
  "methodIdentifiers": {
    "DOMAIN_SEPARATOR()": "3644e515",
    "allowance(address,address)": "dd62ed3e",
    "approve(address,uint256)": "095ea7b3",
    "asset()": "38d52e0f",
    "balanceOf(address)": "70a08231",
    "convertToAssets(uint256)": "07a2d13a",
    "convertToShares(uint256)": "c6e6f592",
    "decimals()": "313ce567",
    "deposit(uint256,address)": "6e553f65",
    "depositGHO(uint256)": "7709b6ab",
    "gpTokenBalance(address)": "cd62b083",
    "i_ghoToken()": "89c078de",
    "maxDeposit(address)": "402d267d",
    "maxMint(address)": "c63d75b6",
    "maxRedeem(address)": "d905777e",
    "maxWithdraw(address)": "ce96cb77",
    "mint(uint256,address)": "94bf804d",
    "name()": "06fdde03",
    "nonces(address)": "7ecebe00",
    "owner()": "8da5cb5b",
    "permit(address,address,uint256,uint256,uint8,bytes32,bytes32)": "d505accf",
    "previewDeposit(uint256)": "ef8b30f7",
    "previewMint(uint256)": "b3d7f6b9",
    "previewRedeem(uint256)": "4cdad506",
    "previewWithdraw(uint256)": "0a28a477",
    "redeem(uint256,address,address)": "ba087652",
    "renounceOwnership()": "715018a6",
    "s_ghoPartnerPassport()": "b778eccd",
    "s_mainAdmin()": "978223d3",
    "s_mainPayment()": "6eb4aa45",
    "s_partnerFee()": "9fd8c129",
    "s_userFee()": "bbf3bac9",
    "setGHOPartnerPassport(address)": "2578ab97",
    "setMainAdmin(address)": "9a3aed36",
    "setMainPayment(address)": "3674e6d5",
    "setPartnerFee(uint8)": "95190275",
    "setUserFee(uint8)": "c43d5c34",
    "symbol()": "95d89b41",
    "totalAssets()": "01e1d114",
    "totalSupply()": "18160ddd",
    "transfer(address,uint256)": "a9059cbb",
    "transferFrom(address,address,uint256)": "23b872dd",
    "transferOwnership(address)": "f2fde38b",
    "withdraw(uint256,address,address)": "b460af94",
    "withdrawGHO(uint256,address,address)": "54fe8fb7"
  },
  "id": 48
}