{
  "abi": [
    {
      "inputs": [
        {
          "internalType": "contract ERC20",
          "name": "_ghoToken",
          "type": "address"
        },
        {
          "internalType": "address",
          "name": "ghoPartnerPassport",
          "type": "address"
        },
        {
          "internalType": "address",
          "name": "_mainAdmin",
          "type": "address"
        }
      ],
      "stateMutability": "nonpayable",
      "type": "constructor"
    },
    {
      "inputs": [],
      "name": "MainVault__ZeroAddress",
      "type": "error"
    },
    {
      "inputs": [],
      "name": "MainVault__ZeroAmount",
      "type": "error"
    },
    {
      "inputs": [
        {
          "internalType": "address",
          "name": "owner",
          "type": "address"
        }
      ],
      "name": "OwnableInvalidOwner",
      "type": "error"
    },
    {
      "inputs": [
        {
          "internalType": "address",
          "name": "account",
          "type": "address"
        }
      ],
      "name": "OwnableUnauthorizedAccount",
      "type": "error"
    },
    {
      "anonymous": false,
      "inputs": [
        {
          "indexed": true,
          "internalType": "address",
          "name": "owner",
          "type": "address"
        },
        {
          "indexed": true,
          "internalType": "address",
          "name": "spender",
          "type": "address"
        },
        {
          "indexed": false,
          "internalType": "uint256",
          "name": "amount",
          "type": "uint256"
        }
      ],
      "name": "Approval",
      "type": "event"
    },
    {
      "anonymous": false,
      "inputs": [
        {
          "indexed": true,
          "internalType": "address",
          "name": "caller",
          "type": "address"
        },
        {
          "indexed": true,
          "internalType": "address",
          "name": "owner",
          "type": "address"
        },
        {
          "indexed": false,
          "internalType": "uint256",
          "name": "assets",
          "type": "uint256"
        },
        {
          "indexed": false,
          "internalType": "uint256",
          "name": "shares",
          "type": "uint256"
        }
      ],
      "name": "Deposit",
      "type": "event"
    },
    {
      "anonymous": false,
      "inputs": [
        {
          "indexed": false,
          "internalType": "uint256",
          "name": "amount",
          "type": "uint256"
        }
      ],
      "name": "MainVault__GHODeposited",
      "type": "event"
    },
    {
      "anonymous": false,
      "inputs": [
        {
          "indexed": true,
          "internalType": "uint256",
          "name": "amount",
          "type": "uint256"
        },
        {
          "indexed": true,
          "internalType": "address",
          "name": "receiver",
          "type": "address"
        },
        {
          "indexed": true,
          "internalType": "address",
          "name": "owner",
          "type": "address"
        }
      ],
      "name": "MainVault__GHOWithdrawn",
      "type": "event"
    },
    {
      "anonymous": false,
      "inputs": [
        {
          "indexed": false,
          "internalType": "uint256",
          "name": "partnerFee",
          "type": "uint256"
        }
      ],
      "name": "MainVault__PartnerFeeSet",
      "type": "event"
    },
    {
      "anonymous": false,
      "inputs": [
        {
          "indexed": false,
          "internalType": "address",
          "name": "rewardPool",
          "type": "address"
        }
      ],
      "name": "MainVault__RewardPoolSet",
      "type": "event"
    },
    {
      "anonymous": false,
      "inputs": [
        {
          "indexed": false,
          "internalType": "address",
          "name": "mainAdmin",
          "type": "address"
        }
      ],
      "name": "MainVault__UpdatedMainAdmin",
      "type": "event"
    },
    {
      "anonymous": false,
      "inputs": [
        {
          "indexed": false,
          "internalType": "uint256",
          "name": "userFee",
          "type": "uint256"
        }
      ],
      "name": "MainVault__UserFeeSet",
      "type": "event"
    },
    {
      "anonymous": false,
      "inputs": [
        {
          "indexed": false,
          "internalType": "address",
          "name": "utils",
          "type": "address"
        }
      ],
      "name": "MainVault__UtilsSet",
      "type": "event"
    },
    {
      "anonymous": false,
      "inputs": [
        {
          "indexed": true,
          "internalType": "address",
          "name": "previousOwner",
          "type": "address"
        },
        {
          "indexed": true,
          "internalType": "address",
          "name": "newOwner",
          "type": "address"
        }
      ],
      "name": "OwnershipTransferred",
      "type": "event"
    },
    {
      "anonymous": false,
      "inputs": [
        {
          "indexed": true,
          "internalType": "address",
          "name": "from",
          "type": "address"
        },
        {
          "indexed": true,
          "internalType": "address",
          "name": "to",
          "type": "address"
        },
        {
          "indexed": false,
          "internalType": "uint256",
          "name": "amount",
          "type": "uint256"
        }
      ],
      "name": "Transfer",
      "type": "event"
    },
    {
      "anonymous": false,
      "inputs": [
        {
          "indexed": true,
          "internalType": "address",
          "name": "caller",
          "type": "address"
        },
        {
          "indexed": true,
          "internalType": "address",
          "name": "receiver",
          "type": "address"
        },
        {
          "indexed": true,
          "internalType": "address",
          "name": "owner",
          "type": "address"
        },
        {
          "indexed": false,
          "internalType": "uint256",
          "name": "assets",
          "type": "uint256"
        },
        {
          "indexed": false,
          "internalType": "uint256",
          "name": "shares",
          "type": "uint256"
        }
      ],
      "name": "Withdraw",
      "type": "event"
    },
    {
      "inputs": [],
      "name": "DOMAIN_SEPARATOR",
      "outputs": [
        {
          "internalType": "bytes32",
          "name": "",
          "type": "bytes32"
        }
      ],
      "stateMutability": "view",
      "type": "function"
    },
    {
      "inputs": [
        {
          "internalType": "address",
          "name": "",
          "type": "address"
        },
        {
          "internalType": "address",
          "name": "",
          "type": "address"
        }
      ],
      "name": "allowance",
      "outputs": [
        {
          "internalType": "uint256",
          "name": "",
          "type": "uint256"
        }
      ],
      "stateMutability": "view",
      "type": "function"
    },
    {
      "inputs": [
        {
          "internalType": "address",
          "name": "spender",
          "type": "address"
        },
        {
          "internalType": "uint256",
          "name": "amount",
          "type": "uint256"
        }
      ],
      "name": "approve",
      "outputs": [
        {
          "internalType": "bool",
          "name": "",
          "type": "bool"
        }
      ],
      "stateMutability": "nonpayable",
      "type": "function"
    },
    {
      "inputs": [],
      "name": "asset",
      "outputs": [
        {
          "internalType": "contract ERC20",
          "name": "",
          "type": "address"
        }
      ],
      "stateMutability": "view",
      "type": "function"
    },
    {
      "inputs": [
        {
          "internalType": "address",
          "name": "",
          "type": "address"
        }
      ],
      "name": "balanceOf",
      "outputs": [
        {
          "internalType": "uint256",
          "name": "",
          "type": "uint256"
        }
      ],
      "stateMutability": "view",
      "type": "function"
    },
    {
      "inputs": [
        {
          "internalType": "uint256",
          "name": "shares",
          "type": "uint256"
        }
      ],
      "name": "convertToAssets",
      "outputs": [
        {
          "internalType": "uint256",
          "name": "",
          "type": "uint256"
        }
      ],
      "stateMutability": "view",
      "type": "function"
    },
    {
      "inputs": [
        {
          "internalType": "uint256",
          "name": "assets",
          "type": "uint256"
        }
      ],
      "name": "convertToShares",
      "outputs": [
        {
          "internalType": "uint256",
          "name": "",
          "type": "uint256"
        }
      ],
      "stateMutability": "view",
      "type": "function"
    },
    {
      "inputs": [],
      "name": "decimals",
      "outputs": [
        {
          "internalType": "uint8",
          "name": "",
          "type": "uint8"
        }
      ],
      "stateMutability": "view",
      "type": "function"
    },
    {
      "inputs": [
        {
          "internalType": "uint256",
          "name": "assets",
          "type": "uint256"
        },
        {
          "internalType": "address",
          "name": "receiver",
          "type": "address"
        }
      ],
      "name": "deposit",
      "outputs": [
        {
          "internalType": "uint256",
          "name": "shares",
          "type": "uint256"
        }
      ],
      "stateMutability": "nonpayable",
      "type": "function"
    },
    {
      "inputs": [
        {
          "internalType": "uint256",
          "name": "_ghoAmount",
          "type": "uint256"
        }
      ],
      "name": "depositGHO",
      "outputs": [],
      "stateMutability": "nonpayable",
      "type": "function"
    },
    {
      "inputs": [
        {
          "internalType": "address",
          "name": "_user",
          "type": "address"
        }
      ],
      "name": "gpTokenBalance",
      "outputs": [
        {
          "internalType": "uint256",
          "name": "",
          "type": "uint256"
        }
      ],
      "stateMutability": "view",
      "type": "function"
    },
    {
      "inputs": [],
      "name": "i_ghoToken",
      "outputs": [
        {
          "internalType": "contract ERC20",
          "name": "",
          "type": "address"
        }
      ],
      "stateMutability": "view",
      "type": "function"
    },
    {
      "inputs": [
        {
          "internalType": "address",
          "name": "",
          "type": "address"
        }
      ],
      "name": "maxDeposit",
      "outputs": [
        {
          "internalType": "uint256",
          "name": "",
          "type": "uint256"
        }
      ],
      "stateMutability": "view",
      "type": "function"
    },
    {
      "inputs": [
        {
          "internalType": "address",
          "name": "",
          "type": "address"
        }
      ],
      "name": "maxMint",
      "outputs": [
        {
          "internalType": "uint256",
          "name": "",
          "type": "uint256"
        }
      ],
      "stateMutability": "view",
      "type": "function"
    },
    {
      "inputs": [
        {
          "internalType": "address",
          "name": "owner",
          "type": "address"
        }
      ],
      "name": "maxRedeem",
      "outputs": [
        {
          "internalType": "uint256",
          "name": "",
          "type": "uint256"
        }
      ],
      "stateMutability": "view",
      "type": "function"
    },
    {
      "inputs": [
        {
          "internalType": "address",
          "name": "owner",
          "type": "address"
        }
      ],
      "name": "maxWithdraw",
      "outputs": [
        {
          "internalType": "uint256",
          "name": "",
          "type": "uint256"
        }
      ],
      "stateMutability": "view",
      "type": "function"
    },
    {
      "inputs": [
        {
          "internalType": "uint256",
          "name": "shares",
          "type": "uint256"
        },
        {
          "internalType": "address",
          "name": "receiver",
          "type": "address"
        }
      ],
      "name": "mint",
      "outputs": [
        {
          "internalType": "uint256",
          "name": "assets",
          "type": "uint256"
        }
      ],
      "stateMutability": "nonpayable",
      "type": "function"
    },
    {
      "inputs": [],
      "name": "name",
      "outputs": [
        {
          "internalType": "string",
          "name": "",
          "type": "string"
        }
      ],
      "stateMutability": "view",
      "type": "function"
    },
    {
      "inputs": [
        {
          "internalType": "address",
          "name": "",
          "type": "address"
        }
      ],
      "name": "nonces",
      "outputs": [
        {
          "internalType": "uint256",
          "name": "",
          "type": "uint256"
        }
      ],
      "stateMutability": "view",
      "type": "function"
    },
    {
      "inputs": [],
      "name": "owner",
      "outputs": [
        {
          "internalType": "address",
          "name": "",
          "type": "address"
        }
      ],
      "stateMutability": "view",
      "type": "function"
    },
    {
      "inputs": [
        {
          "internalType": "address",
          "name": "owner",
          "type": "address"
        },
        {
          "internalType": "address",
          "name": "spender",
          "type": "address"
        },
        {
          "internalType": "uint256",
          "name": "value",
          "type": "uint256"
        },
        {
          "internalType": "uint256",
          "name": "deadline",
          "type": "uint256"
        },
        {
          "internalType": "uint8",
          "name": "v",
          "type": "uint8"
        },
        {
          "internalType": "bytes32",
          "name": "r",
          "type": "bytes32"
        },
        {
          "internalType": "bytes32",
          "name": "s",
          "type": "bytes32"
        }
      ],
      "name": "permit",
      "outputs": [],
      "stateMutability": "nonpayable",
      "type": "function"
    },
    {
      "inputs": [
        {
          "internalType": "uint256",
          "name": "assets",
          "type": "uint256"
        }
      ],
      "name": "previewDeposit",
      "outputs": [
        {
          "internalType": "uint256",
          "name": "",
          "type": "uint256"
        }
      ],
      "stateMutability": "view",
      "type": "function"
    },
    {
      "inputs": [
        {
          "internalType": "uint256",
          "name": "shares",
          "type": "uint256"
        }
      ],
      "name": "previewMint",
      "outputs": [
        {
          "internalType": "uint256",
          "name": "",
          "type": "uint256"
        }
      ],
      "stateMutability": "view",
      "type": "function"
    },
    {
      "inputs": [
        {
          "internalType": "uint256",
          "name": "shares",
          "type": "uint256"
        }
      ],
      "name": "previewRedeem",
      "outputs": [
        {
          "internalType": "uint256",
          "name": "",
          "type": "uint256"
        }
      ],
      "stateMutability": "view",
      "type": "function"
    },
    {
      "inputs": [
        {
          "internalType": "uint256",
          "name": "assets",
          "type": "uint256"
        }
      ],
      "name": "previewWithdraw",
      "outputs": [
        {
          "internalType": "uint256",
          "name": "",
          "type": "uint256"
        }
      ],
      "stateMutability": "view",
      "type": "function"
    },
    {
      "inputs": [
        {
          "internalType": "uint256",
          "name": "shares",
          "type": "uint256"
        },
        {
          "internalType": "address",
          "name": "receiver",
          "type": "address"
        },
        {
          "internalType": "address",
          "name": "owner",
          "type": "address"
        }
      ],
      "name": "redeem",
      "outputs": [
        {
          "internalType": "uint256",
          "name": "assets",
          "type": "uint256"
        }
      ],
      "stateMutability": "nonpayable",
      "type": "function"
    },
    {
      "inputs": [],
      "name": "renounceOwnership",
      "outputs": [],
      "stateMutability": "nonpayable",
      "type": "function"
    },
    {
      "inputs": [],
      "name": "s_ghoPartnerPassport",
      "outputs": [
        {
          "internalType": "contract IERC721",
          "name": "",
          "type": "address"
        }
      ],
      "stateMutability": "view",
      "type": "function"
    },
    {
      "inputs": [],
      "name": "s_mainAdmin",
      "outputs": [
        {
          "internalType": "address",
          "name": "",
          "type": "address"
        }
      ],
      "stateMutability": "view",
      "type": "function"
    },
    {
      "inputs": [],
      "name": "s_mainPayment",
      "outputs": [
        {
          "internalType": "address",
          "name": "",
          "type": "address"
        }
      ],
      "stateMutability": "view",
      "type": "function"
    },
    {
      "inputs": [],
      "name": "s_partnerFee",
      "outputs": [
        {
          "internalType": "uint256",
          "name": "",
          "type": "uint256"
        }
      ],
      "stateMutability": "view",
      "type": "function"
    },
    {
      "inputs": [],
      "name": "s_userFee",
      "outputs": [
        {
          "internalType": "uint256",
          "name": "",
          "type": "uint256"
        }
      ],
      "stateMutability": "view",
      "type": "function"
    },
    {
      "inputs": [
        {
          "internalType": "address",
          "name": "_ghoPartnerPassport",
          "type": "address"
        }
      ],
      "name": "setGHOPartnerPassport",
      "outputs": [],
      "stateMutability": "nonpayable",
      "type": "function"
    },
    {
      "inputs": [
        {
          "internalType": "address",
          "name": "_mainAdmin",
          "type": "address"
        }
      ],
      "name": "setMainAdmin",
      "outputs": [],
      "stateMutability": "nonpayable",
      "type": "function"
    },
    {
      "inputs": [
        {
          "internalType": "address",
          "name": "_mainPayment",
          "type": "address"
        }
      ],
      "name": "setMainPayment",
      "outputs": [],
      "stateMutability": "nonpayable",
      "type": "function"
    },
    {
      "inputs": [
        {
          "internalType": "uint256",
          "name": "_partnerFee",
          "type": "uint256"
        }
      ],
      "name": "setPartnerFee",
      "outputs": [],
      "stateMutability": "nonpayable",
      "type": "function"
    },
    {
      "inputs": [
        {
          "internalType": "uint256",
          "name": "_userFee",
          "type": "uint256"
        }
      ],
      "name": "setUserFee",
      "outputs": [],
      "stateMutability": "nonpayable",
      "type": "function"
    },
    {
      "inputs": [],
      "name": "symbol",
      "outputs": [
        {
          "internalType": "string",
          "name": "",
          "type": "string"
        }
      ],
      "stateMutability": "view",
      "type": "function"
    },
    {
      "inputs": [],
      "name": "totalAssets",
      "outputs": [
        {
          "internalType": "uint256",
          "name": "",
          "type": "uint256"
        }
      ],
      "stateMutability": "view",
      "type": "function"
    },
    {
      "inputs": [],
      "name": "totalSupply",
      "outputs": [
        {
          "internalType": "uint256",
          "name": "",
          "type": "uint256"
        }
      ],
      "stateMutability": "view",
      "type": "function"
    },
    {
      "inputs": [
        {
          "internalType": "address",
          "name": "to",
          "type": "address"
        },
        {
          "internalType": "uint256",
          "name": "amount",
          "type": "uint256"
        }
      ],
      "name": "transfer",
      "outputs": [
        {
          "internalType": "bool",
          "name": "",
          "type": "bool"
        }
      ],
      "stateMutability": "nonpayable",
      "type": "function"
    },
    {
      "inputs": [
        {
          "internalType": "address",
          "name": "from",
          "type": "address"
        },
        {
          "internalType": "address",
          "name": "to",
          "type": "address"
        },
        {
          "internalType": "uint256",
          "name": "amount",
          "type": "uint256"
        }
      ],
      "name": "transferFrom",
      "outputs": [
        {
          "internalType": "bool",
          "name": "",
          "type": "bool"
        }
      ],
      "stateMutability": "nonpayable",
      "type": "function"
    },
    {
      "inputs": [
        {
          "internalType": "address",
          "name": "newOwner",
          "type": "address"
        }
      ],
      "name": "transferOwnership",
      "outputs": [],
      "stateMutability": "nonpayable",
      "type": "function"
    },
    {
      "inputs": [
        {
          "internalType": "uint256",
          "name": "_gpAmount",
          "type": "uint256"
        },
        {
          "internalType": "address",
          "name": "_receiver",
          "type": "address"
        },
        {
          "internalType": "address",
          "name": "_owner",
          "type": "address"
        }
      ],
      "name": "withdraw",
      "outputs": [
        {
          "internalType": "uint256",
          "name": "shares",
          "type": "uint256"
        }
      ],
      "stateMutability": "nonpayable",
      "type": "function"
    },
    {
      "inputs": [
        {
          "internalType": "uint256",
          "name": "_gp",
          "type": "uint256"
        },
        {
          "internalType": "address",
          "name": "_receiver",
          "type": "address"
        },
        {
          "internalType": "address",
          "name": "_owner",
          "type": "address"
        }
      ],
      "name": "withdrawGHO",
      "outputs": [],
      "stateMutability": "nonpayable",
      "type": "function"
    }
  ],
  "bytecode": {
    "object": "0x6101206040523480156200001257600080fd5b50604051620023c2380380620023c2833981016040819052620000359162000239565b80836040518060400160405280600a81526020016947484f20506f696e747360b01b81525060405180604001604052806002815260200161047560f41b815250601282828282600090816200008b919062000332565b5060016200009a838262000332565b5060ff81166080524660a052620000b062000132565b60c0525050506001600160a01b0393841660e0525050508116620000ee57604051631e4fbdf760e01b81526000600482015260240160405180910390fd5b620000f981620001ce565b506001600160a01b0392831661010052600b80549184166001600160a01b0319928316179055600780549290931691161790556200047c565b60007f8b73c3c69bb8fe3d512ecc4cf759cc79239f7b179b0ffacaa9a75d522b39400f6000604051620001669190620003fe565b6040805191829003822060208301939093528101919091527fc89efdaa54c0f20c7adf612882df0950f5a951637e0307cdcb4c672f298b8bc660608201524660808201523060a082015260c00160405160208183030381529060405280519060200120905090565b600680546001600160a01b038381166001600160a01b0319831681179093556040519116919082907f8be0079c531659141344cd1fd0a4f28419497f9722a3daafe3b4186f6b6457e090600090a35050565b6001600160a01b03811681146200023657600080fd5b50565b6000806000606084860312156200024f57600080fd5b83516200025c8162000220565b60208501519093506200026f8162000220565b6040850151909250620002828162000220565b809150509250925092565b634e487b7160e01b600052604160045260246000fd5b600181811c90821680620002b857607f821691505b602082108103620002d957634e487b7160e01b600052602260045260246000fd5b50919050565b601f8211156200032d57600081815260208120601f850160051c81016020861015620003085750805b601f850160051c820191505b81811015620003295782815560010162000314565b5050505b505050565b81516001600160401b038111156200034e576200034e6200028d565b62000366816200035f8454620002a3565b84620002df565b602080601f8311600181146200039e5760008415620003855750858301515b600019600386901b1c1916600185901b17855562000329565b600085815260208120601f198616915b82811015620003cf57888601518255948401946001909101908401620003ae565b5085821015620003ee5787850151600019600388901b60f8161c191681555b5050505050600190811b01905550565b60008083546200040e81620002a3565b600182811680156200042957600181146200043f5762000470565b60ff198416875282151583028701945062000470565b8760005260208060002060005b85811015620004675781548a8201529084019082016200044c565b50505082870194505b50929695505050505050565b60805160a05160c05160e05161010051611ec262000500600039600081816104a80152818161065801528181610fe8015281816110a40152818161113d015281816111ef01526112880152600081816103ad01528181610c2501528181610d4a015261141c015260006109e2015260006109b2015260006103460152611ec26000f3fe608060405234801561001057600080fd5b506004361061027f5760003560e01c80637ecebe001161015c578063b778eccd116100ce578063ce96cb7711610087578063ce96cb77146105c9578063d505accf146105dc578063d905777e146105a0578063dd62ed3e146105ef578063ef8b30f71461061a578063f2fde38b1461062d57600080fd5b8063b778eccd1461055e578063ba08765214610571578063bbf3bac914610584578063c63d75b6146103e7578063c6e6f5921461058d578063cd62b083146105a057600080fd5b8063978223d311610120578063978223d3146104f65780639a3aed36146105095780639fd8c1291461051c578063a9059cbb14610525578063b3d7f6b914610538578063b460af941461054b57600080fd5b80637ecebe001461048357806389c078de146104a35780638da5cb5b146104ca57806394bf804d146104db57806395d89b41146104ee57600080fd5b80633674e6d5116101f557806354fe8fb7116101b957806354fe8fb71461040f5780636e553f65146104225780636eb4aa451461043557806370a0823114610448578063715018a6146104685780637709b6ab1461047057600080fd5b80633674e6d5146103825780633741454d1461039557806338d52e0f146103a8578063402d267d146103e75780634cdad506146103fc57600080fd5b806318160ddd1161024757806318160ddd146102fd5780632050e0941461030657806323b872dd1461031b5780632578ab971461032e578063313ce567146103415780633644e5151461037a57600080fd5b806301e1d1141461028457806306fdde031461029f57806307a2d13a146102b4578063095ea7b3146102c75780630a28a477146102ea575b600080fd5b61028c610640565b6040519081526020015b60405180910390f35b6102a76106d0565b6040516102969190611b13565b61028c6102c2366004611b61565b61075e565b6102da6102d5366004611b96565b61078b565b6040519015158152602001610296565b61028c6102f8366004611b61565b6107f8565b61028c60025481565b610319610314366004611b61565b610818565b005b6102da610329366004611bc0565b61087b565b61031961033c366004611bfc565b61095b565b6103687f000000000000000000000000000000000000000000000000000000000000000081565b60405160ff9091168152602001610296565b61028c6109ae565b610319610390366004611bfc565b610a04565b6103196103a3366004611b61565b610a93565b6103cf7f000000000000000000000000000000000000000000000000000000000000000081565b6040516001600160a01b039091168152602001610296565b61028c6103f5366004611bfc565b5060001990565b61028c61040a366004611b61565b610af6565b61031961041d366004611c17565b610b01565b61028c610430366004611c53565b610bc8565b600a546103cf906001600160a01b031681565b61028c610456366004611bfc565b60036020526000908152604090205481565b610319610ca3565b61031961047e366004611b61565b610cb7565b61028c610491366004611bfc565b60056020526000908152604090205481565b6103cf7f000000000000000000000000000000000000000000000000000000000000000081565b6006546001600160a01b03166103cf565b61028c6104e9366004611c53565b610d30565b6102a7610dbf565b600b546103cf906001600160a01b031681565b610319610517366004611bfc565b610dcc565b61028c60095481565b6102da610533366004611b96565b610e5b565b61028c610546366004611b61565b610ec1565b61028c610559366004611c17565b610ee0565b6007546103cf906001600160a01b031681565b61028c61057f366004611c17565b611301565b61028c60085481565b61028c61059b366004611b61565b611443565b61028c6105ae366004611bfc565b6001600160a01b031660009081526003602052604090205490565b61028c6105d7366004611bfc565b611463565b6103196105ea366004611c7f565b611485565b61028c6105fd366004611cf2565b600460209081526000928352604080842090915290825290205481565b61028c610628366004611b61565b6116c9565b61031961063b366004611bfc565b6116d4565b6040516370a0823160e01b81523060048201526000907f00000000000000000000000000000000000000000000000000000000000000006001600160a01b0316906370a0823190602401602060405180830381865afa1580156106a7573d6000803e3d6000fd5b505050506040513d601f19601f820116820180604052508101906106cb9190611d1c565b905090565b600080546106dd90611d35565b80601f016020809104026020016040519081016040528092919081815260200182805461070990611d35565b80156107565780601f1061072b57610100808354040283529160200191610756565b820191906000526020600020905b81548152906001019060200180831161073957829003601f168201915b505050505081565b60025460009080156107825761077d610775610640565b849083611712565b610784565b825b9392505050565b3360008181526004602090815260408083206001600160a01b038716808552925280832085905551919290917f8c5be1e5ebec7d5bd14f71427d1e84f3dd0314c0f7b2291e5b200ac8c7c3b925906107e69086815260200190565b60405180910390a35060015b92915050565b60025460009080156107825761077d81610810610640565b859190611730565b808060000361083a5760405163e0e0bbe560e01b815260040160405180910390fd5b610842611756565b6040518281527fc013b8341ea863bfc4571c06021cd8a7c8eeea033e27675ba23ef3a6478e83439060200160405180910390a150600855565b6001600160a01b038316600090815260046020908152604080832033845290915281205460001981146108d7576108b28382611d85565b6001600160a01b03861660009081526004602090815260408083203384529091529020555b6001600160a01b038516600090815260036020526040812080548592906108ff908490611d85565b90915550506001600160a01b0380851660008181526003602052604090819020805487019055519091871690600080516020611e6d833981519152906109489087815260200190565b60405180910390a3506001949350505050565b806001600160a01b038116610983576040516309fafd2b60e41b815260040160405180910390fd5b61098b611756565b50600780546001600160a01b0319166001600160a01b0392909216919091179055565b60007f000000000000000000000000000000000000000000000000000000000000000046146109df576106cb611783565b507f000000000000000000000000000000000000000000000000000000000000000090565b806001600160a01b038116610a2c576040516309fafd2b60e41b815260040160405180910390fd5b610a34611756565b6040516001600160a01b03831681527f4c070d2bd28acbebea1baca2a0a570d95bcbc30dee9a07c8218065ad38a400fb9060200160405180910390a150600a80546001600160a01b0319166001600160a01b0392909216919091179055565b8080600003610ab55760405163e0e0bbe560e01b815260040160405180910390fd5b610abd611756565b6040518281527f7d2f55757a415932d0da2e15c82996e62500df6be2e6391891673497531e7dac9060200160405180910390a150600955565b60006107f28261075e565b8280600003610b235760405163e0e0bbe560e01b815260040160405180910390fd5b826001600160a01b038116610b4b576040516309fafd2b60e41b815260040160405180910390fd5b826001600160a01b038116610b73576040516309fafd2b60e41b815260040160405180910390fd5b610b7e868686610ee0565b50836001600160a01b0316856001600160a01b0316877f08776d462a9ccc9302a2964ce06fc22c72ee3b91019c17424baae6e7481c7fbd60405160405180910390a4505050505050565b6000610bd3836116c9565b905080600003610c185760405162461bcd60e51b815260206004820152600b60248201526a5a45524f5f53484152455360a81b60448201526064015b60405180910390fd5b610c4d6001600160a01b037f00000000000000000000000000000000000000000000000000000000000000001633308661181d565b610c5782826118b9565b60408051848152602081018390526001600160a01b0384169133917fdcbc1c05240f31ff3ad067ef1ee35ce4997762752e3a095284754544f4c709d791015b60405180910390a36107f2565b610cab611756565b610cb56000611913565b565b8080600003610cd95760405163e0e0bbe560e01b815260040160405180910390fd5b610ce1611756565b600a54610cf89083906001600160a01b0316610bc8565b506040518281527f05481d73db532e5e33460a49c151606cfe362daee86a1cab011fda979f1a9fe59060200160405180910390a15050565b6000610d3b83610ec1565b9050610d726001600160a01b037f00000000000000000000000000000000000000000000000000000000000000001633308461181d565b610d7c82846118b9565b60408051828152602081018590526001600160a01b0384169133917fdcbc1c05240f31ff3ad067ef1ee35ce4997762752e3a095284754544f4c709d79101610c96565b600180546106dd90611d35565b806001600160a01b038116610df4576040516309fafd2b60e41b815260040160405180910390fd5b610dfc611756565b6040516001600160a01b03831681527f2301cf8a0b3843703c165bc6b5998c4b8dd3351af50528d2e8f986727c30ab9b9060200160405180910390a150600b80546001600160a01b0319166001600160a01b0392909216919091179055565b33600090815260036020526040812080548391908390610e7c908490611d85565b90915550506001600160a01b03831660008181526003602052604090819020805485019055513390600080516020611e6d833981519152906107e69086815260200190565b60025460009080156107825761077d610ed8610640565b849083611730565b6000610eeb846107f8565b9050336001600160a01b03831614610f5b576001600160a01b03821660009081526004602090815260408083203384529091529020546000198114610f5957610f348282611d85565b6001600160a01b03841660009081526004602090815260408083203384529091529020555b505b610f658282611965565b60408051858152602081018390526001600160a01b03808516929086169133917ffbde797d201c681b91056529119e0b02407c7bb96a4a2c75c01fc9667232c8db910160405180910390a46006546001600160a01b0316330361105b5760405163a9059cbb60e01b81526001600160a01b038481166004830152602482018690527f0000000000000000000000000000000000000000000000000000000000000000169063a9059cbb906044016020604051808303816000875af1158015611031573d6000803e3d6000fd5b505050506040513d601f19601f820116820180604052508101906110559190611d98565b50610784565b611064336119c7565b156111b45760008061107886600954611a40565b60405163a9059cbb60e01b81526001600160a01b038881166004830152602482018490529294509092507f00000000000000000000000000000000000000000000000000000000000000009091169063a9059cbb906044016020604051808303816000875af11580156110ef573d6000803e3d6000fd5b505050506040513d601f19601f820116820180604052508101906111139190611d98565b50600b5460405163a9059cbb60e01b81526001600160a01b039182166004820152602481018390527f00000000000000000000000000000000000000000000000000000000000000009091169063a9059cbb906044016020604051808303816000875af1158015611188573d6000803e3d6000fd5b505050506040513d601f19601f820116820180604052508101906111ac9190611d98565b505050610784565b6000806111c386600854611a40565b60405163a9059cbb60e01b81526001600160a01b038881166004830152602482018490529294509092507f00000000000000000000000000000000000000000000000000000000000000009091169063a9059cbb906044016020604051808303816000875af115801561123a573d6000803e3d6000fd5b505050506040513d601f19601f8201168201806040525081019061125e9190611d98565b50600b5460405163a9059cbb60e01b81526001600160a01b039182166004820152602481018390527f00000000000000000000000000000000000000000000000000000000000000009091169063a9059cbb906044016020604051808303816000875af11580156112d3573d6000803e3d6000fd5b505050506040513d601f19601f820116820180604052508101906112f79190611d98565b5050509392505050565b6000336001600160a01b03831614611371576001600160a01b0382166000908152600460209081526040808320338452909152902054600019811461136f5761134a8582611d85565b6001600160a01b03841660009081526004602090815260408083203384529091529020555b505b61137a84610af6565b9050806000036113ba5760405162461bcd60e51b815260206004820152600b60248201526a5a45524f5f41535345545360a81b6044820152606401610c0f565b6113c48285611965565b60408051828152602081018690526001600160a01b03808516929086169133917ffbde797d201c681b91056529119e0b02407c7bb96a4a2c75c01fc9667232c8db910160405180910390a46107846001600160a01b037f0000000000000000000000000000000000000000000000000000000000000000168483611a62565b60025460009080156107825761077d8161145b610640565b859190611712565b6001600160a01b0381166000908152600360205260408120546107f29061075e565b428410156114d55760405162461bcd60e51b815260206004820152601760248201527f5045524d49545f444541444c494e455f455850495245440000000000000000006044820152606401610c0f565b600060016114e16109ae565b6001600160a01b038a811660008181526005602090815260409182902080546001810190915582517f6e71edae12b1b97f4d1f60370fef10105fa2faae0126114a169c64845d6126c98184015280840194909452938d166060840152608083018c905260a083019390935260c08083018b90528151808403909101815260e08301909152805192019190912061190160f01b6101008301526101028201929092526101228101919091526101420160408051601f198184030181528282528051602091820120600084529083018083525260ff871690820152606081018590526080810184905260a0016020604051602081039080840390855afa1580156115ed573d6000803e3d6000fd5b5050604051601f1901519150506001600160a01b038116158015906116235750876001600160a01b0316816001600160a01b0316145b6116605760405162461bcd60e51b815260206004820152600e60248201526d24a72b20a624a22fa9a4a3a722a960911b6044820152606401610c0f565b6001600160a01b0390811660009081526004602090815260408083208a8516808552908352928190208990555188815291928a16917f8c5be1e5ebec7d5bd14f71427d1e84f3dd0314c0f7b2291e5b200ac8c7c3b925910160405180910390a350505050505050565b60006107f282611443565b6116dc611756565b6001600160a01b03811661170657604051631e4fbdf760e01b815260006004820152602401610c0f565b61170f81611913565b50565b600082600019048411830215820261172957600080fd5b5091020490565b600082600019048411830215820261174757600080fd5b50910281810615159190040190565b6006546001600160a01b03163314610cb55760405163118cdaa760e01b8152336004820152602401610c0f565b60007f8b73c3c69bb8fe3d512ecc4cf759cc79239f7b179b0ffacaa9a75d522b39400f60006040516117b59190611dba565b6040805191829003822060208301939093528101919091527fc89efdaa54c0f20c7adf612882df0950f5a951637e0307cdcb4c672f298b8bc660608201524660808201523060a082015260c00160405160208183030381529060405280519060200120905090565b60006040516323b872dd60e01b81526001600160a01b03851660048201526001600160a01b03841660248201528260448201526020600060648360008a5af13d15601f3d11600160005114161716915050806118b25760405162461bcd60e51b81526020600482015260146024820152731514905394d1915497d19493d357d1905253115160621b6044820152606401610c0f565b5050505050565b80600260008282546118cb9190611e59565b90915550506001600160a01b038216600081815260036020908152604080832080548601905551848152600080516020611e6d83398151915291015b60405180910390a35050565b600680546001600160a01b038381166001600160a01b0319831681179093556040519116919082907f8be0079c531659141344cd1fd0a4f28419497f9722a3daafe3b4186f6b6457e090600090a35050565b6001600160a01b0382166000908152600360205260408120805483929061198d908490611d85565b90915550506002805482900390556040518181526000906001600160a01b03841690600080516020611e6d83398151915290602001611907565b6007546040516370a0823160e01b81526001600160a01b03838116600483015260009283929116906370a0823190602401602060405180830381865afa158015611a15573d6000803e3d6000fd5b505050506040513d601f19601f82011682018060405250810190611a399190611d1c565b1192915050565b600080611a4d8484611ae9565b9050611a598185611d85565b91509250929050565b600060405163a9059cbb60e01b81526001600160a01b0384166004820152826024820152602060006044836000895af13d15601f3d1160016000511416171691505080611ae35760405162461bcd60e51b815260206004820152600f60248201526e1514905394d1915497d19052531151608a1b6044820152606401610c0f565b50505050565b600080611af68484611afe565b949350505050565b60006107848383670de0b6b3a7640000611712565b600060208083528351808285015260005b81811015611b4057858101830151858201604001528201611b24565b506000604082860101526040601f19601f8301168501019250505092915050565b600060208284031215611b7357600080fd5b5035919050565b80356001600160a01b0381168114611b9157600080fd5b919050565b60008060408385031215611ba957600080fd5b611bb283611b7a565b946020939093013593505050565b600080600060608486031215611bd557600080fd5b611bde84611b7a565b9250611bec60208501611b7a565b9150604084013590509250925092565b600060208284031215611c0e57600080fd5b61078482611b7a565b600080600060608486031215611c2c57600080fd5b83359250611c3c60208501611b7a565b9150611c4a60408501611b7a565b90509250925092565b60008060408385031215611c6657600080fd5b82359150611c7660208401611b7a565b90509250929050565b600080600080600080600060e0888a031215611c9a57600080fd5b611ca388611b7a565b9650611cb160208901611b7a565b95506040880135945060608801359350608088013560ff81168114611cd557600080fd5b9699959850939692959460a0840135945060c09093013592915050565b60008060408385031215611d0557600080fd5b611d0e83611b7a565b9150611c7660208401611b7a565b600060208284031215611d2e57600080fd5b5051919050565b600181811c90821680611d4957607f821691505b602082108103611d6957634e487b7160e01b600052602260045260246000fd5b50919050565b634e487b7160e01b600052601160045260246000fd5b818103818111156107f2576107f2611d6f565b600060208284031215611daa57600080fd5b8151801515811461078457600080fd5b600080835481600182811c915080831680611dd657607f831692505b60208084108203611df557634e487b7160e01b86526022600452602486fd5b818015611e095760018114611e1e57611e4b565b60ff1986168952841515850289019650611e4b565b60008a81526020902060005b86811015611e435781548b820152908501908301611e2a565b505084890196505b509498975050505050505050565b808201808211156107f2576107f2611d6f56feddf252ad1be2c89b69c2b068fc378daa952ba7f163c4a11628f55a4df523b3efa264697066735822122025e9babee907dfa5456db1a11dd7ac9f57a80299b522355aa8c9f3c7667e57ac64736f6c63430008140033",
    "linkReferences": {}
  },
  "methodIdentifiers": {
    "DOMAIN_SEPARATOR()": "3644e515",
    "allowance(address,address)": "dd62ed3e",
    "approve(address,uint256)": "095ea7b3",
    "asset()": "38d52e0f",
    "balanceOf(address)": "70a08231",
    "convertToAssets(uint256)": "07a2d13a",
    "convertToShares(uint256)": "c6e6f592",
    "decimals()": "313ce567",
    "deposit(uint256,address)": "6e553f65",
    "depositGHO(uint256)": "7709b6ab",
    "gpTokenBalance(address)": "cd62b083",
    "i_ghoToken()": "89c078de",
    "maxDeposit(address)": "402d267d",
    "maxMint(address)": "c63d75b6",
    "maxRedeem(address)": "d905777e",
    "maxWithdraw(address)": "ce96cb77",
    "mint(uint256,address)": "94bf804d",
    "name()": "06fdde03",
    "nonces(address)": "7ecebe00",
    "owner()": "8da5cb5b",
    "permit(address,address,uint256,uint256,uint8,bytes32,bytes32)": "d505accf",
    "previewDeposit(uint256)": "ef8b30f7",
    "previewMint(uint256)": "b3d7f6b9",
    "previewRedeem(uint256)": "4cdad506",
    "previewWithdraw(uint256)": "0a28a477",
    "redeem(uint256,address,address)": "ba087652",
    "renounceOwnership()": "715018a6",
    "s_ghoPartnerPassport()": "b778eccd",
    "s_mainAdmin()": "978223d3",
    "s_mainPayment()": "6eb4aa45",
    "s_partnerFee()": "9fd8c129",
    "s_userFee()": "bbf3bac9",
    "setGHOPartnerPassport(address)": "2578ab97",
    "setMainAdmin(address)": "9a3aed36",
    "setMainPayment(address)": "3674e6d5",
    "setPartnerFee(uint256)": "3741454d",
    "setUserFee(uint256)": "2050e094",
    "symbol()": "95d89b41",
    "totalAssets()": "01e1d114",
    "totalSupply()": "18160ddd",
    "transfer(address,uint256)": "a9059cbb",
    "transferFrom(address,address,uint256)": "23b872dd",
    "transferOwnership(address)": "f2fde38b",
    "withdraw(uint256,address,address)": "b460af94",
    "withdrawGHO(uint256,address,address)": "54fe8fb7"
  },
  "id": 48
}