{
  "abi": [
    {
      "inputs": [
        {
          "internalType": "contract ERC20",
          "name": "_ghoToken",
          "type": "address"
        },
        {
          "internalType": "address",
          "name": "_mainAdmin",
          "type": "address"
        }
      ],
      "stateMutability": "nonpayable",
      "type": "constructor"
    },
    {
      "inputs": [],
      "name": "MainVault__ZeroAddress",
      "type": "error"
    },
    {
      "inputs": [],
      "name": "MainVault__ZeroAmount",
      "type": "error"
    },
    {
      "inputs": [
        {
          "internalType": "address",
          "name": "owner",
          "type": "address"
        }
      ],
      "name": "OwnableInvalidOwner",
      "type": "error"
    },
    {
      "inputs": [
        {
          "internalType": "address",
          "name": "account",
          "type": "address"
        }
      ],
      "name": "OwnableUnauthorizedAccount",
      "type": "error"
    },
    {
      "anonymous": false,
      "inputs": [
        {
          "indexed": true,
          "internalType": "address",
          "name": "owner",
          "type": "address"
        },
        {
          "indexed": true,
          "internalType": "address",
          "name": "spender",
          "type": "address"
        },
        {
          "indexed": false,
          "internalType": "uint256",
          "name": "amount",
          "type": "uint256"
        }
      ],
      "name": "Approval",
      "type": "event"
    },
    {
      "anonymous": false,
      "inputs": [
        {
          "indexed": true,
          "internalType": "address",
          "name": "caller",
          "type": "address"
        },
        {
          "indexed": true,
          "internalType": "address",
          "name": "owner",
          "type": "address"
        },
        {
          "indexed": false,
          "internalType": "uint256",
          "name": "assets",
          "type": "uint256"
        },
        {
          "indexed": false,
          "internalType": "uint256",
          "name": "shares",
          "type": "uint256"
        }
      ],
      "name": "Deposit",
      "type": "event"
    },
    {
      "anonymous": false,
      "inputs": [
        {
          "indexed": false,
          "internalType": "uint256",
          "name": "amount",
          "type": "uint256"
        }
      ],
      "name": "MainVault__GHODeposited",
      "type": "event"
    },
    {
      "anonymous": false,
      "inputs": [
        {
          "indexed": true,
          "internalType": "uint256",
          "name": "amount",
          "type": "uint256"
        },
        {
          "indexed": true,
          "internalType": "address",
          "name": "receiver",
          "type": "address"
        },
        {
          "indexed": true,
          "internalType": "address",
          "name": "owner",
          "type": "address"
        }
      ],
      "name": "MainVault__GHOWithdrawn",
      "type": "event"
    },
    {
      "anonymous": false,
      "inputs": [
        {
          "indexed": false,
          "internalType": "uint8",
          "name": "partnerFee",
          "type": "uint8"
        }
      ],
      "name": "MainVault__PartnerFeeSet",
      "type": "event"
    },
    {
      "anonymous": false,
      "inputs": [
        {
          "indexed": false,
          "internalType": "address",
          "name": "rewardPool",
          "type": "address"
        }
      ],
      "name": "MainVault__RewardPoolSet",
      "type": "event"
    },
    {
      "anonymous": false,
      "inputs": [
        {
          "indexed": false,
          "internalType": "address",
          "name": "mainAdmin",
          "type": "address"
        }
      ],
      "name": "MainVault__UpdatedMainAdmin",
      "type": "event"
    },
    {
      "anonymous": false,
      "inputs": [
        {
          "indexed": false,
          "internalType": "uint8",
          "name": "userFee",
          "type": "uint8"
        }
      ],
      "name": "MainVault__UserFeeSet",
      "type": "event"
    },
    {
      "anonymous": false,
      "inputs": [
        {
          "indexed": false,
          "internalType": "address",
          "name": "utils",
          "type": "address"
        }
      ],
      "name": "MainVault__UtilsSet",
      "type": "event"
    },
    {
      "anonymous": false,
      "inputs": [
        {
          "indexed": true,
          "internalType": "address",
          "name": "previousOwner",
          "type": "address"
        },
        {
          "indexed": true,
          "internalType": "address",
          "name": "newOwner",
          "type": "address"
        }
      ],
      "name": "OwnershipTransferred",
      "type": "event"
    },
    {
      "anonymous": false,
      "inputs": [
        {
          "indexed": true,
          "internalType": "address",
          "name": "from",
          "type": "address"
        },
        {
          "indexed": true,
          "internalType": "address",
          "name": "to",
          "type": "address"
        },
        {
          "indexed": false,
          "internalType": "uint256",
          "name": "amount",
          "type": "uint256"
        }
      ],
      "name": "Transfer",
      "type": "event"
    },
    {
      "anonymous": false,
      "inputs": [
        {
          "indexed": true,
          "internalType": "address",
          "name": "caller",
          "type": "address"
        },
        {
          "indexed": true,
          "internalType": "address",
          "name": "receiver",
          "type": "address"
        },
        {
          "indexed": true,
          "internalType": "address",
          "name": "owner",
          "type": "address"
        },
        {
          "indexed": false,
          "internalType": "uint256",
          "name": "assets",
          "type": "uint256"
        },
        {
          "indexed": false,
          "internalType": "uint256",
          "name": "shares",
          "type": "uint256"
        }
      ],
      "name": "Withdraw",
      "type": "event"
    },
    {
      "inputs": [],
      "name": "DOMAIN_SEPARATOR",
      "outputs": [
        {
          "internalType": "bytes32",
          "name": "",
          "type": "bytes32"
        }
      ],
      "stateMutability": "view",
      "type": "function"
    },
    {
      "inputs": [
        {
          "internalType": "address",
          "name": "",
          "type": "address"
        },
        {
          "internalType": "address",
          "name": "",
          "type": "address"
        }
      ],
      "name": "allowance",
      "outputs": [
        {
          "internalType": "uint256",
          "name": "",
          "type": "uint256"
        }
      ],
      "stateMutability": "view",
      "type": "function"
    },
    {
      "inputs": [
        {
          "internalType": "address",
          "name": "spender",
          "type": "address"
        },
        {
          "internalType": "uint256",
          "name": "amount",
          "type": "uint256"
        }
      ],
      "name": "approve",
      "outputs": [
        {
          "internalType": "bool",
          "name": "",
          "type": "bool"
        }
      ],
      "stateMutability": "nonpayable",
      "type": "function"
    },
    {
      "inputs": [],
      "name": "asset",
      "outputs": [
        {
          "internalType": "contract ERC20",
          "name": "",
          "type": "address"
        }
      ],
      "stateMutability": "view",
      "type": "function"
    },
    {
      "inputs": [
        {
          "internalType": "address",
          "name": "",
          "type": "address"
        }
      ],
      "name": "balanceOf",
      "outputs": [
        {
          "internalType": "uint256",
          "name": "",
          "type": "uint256"
        }
      ],
      "stateMutability": "view",
      "type": "function"
    },
    {
      "inputs": [
        {
          "internalType": "uint256",
          "name": "shares",
          "type": "uint256"
        }
      ],
      "name": "convertToAssets",
      "outputs": [
        {
          "internalType": "uint256",
          "name": "",
          "type": "uint256"
        }
      ],
      "stateMutability": "view",
      "type": "function"
    },
    {
      "inputs": [
        {
          "internalType": "uint256",
          "name": "assets",
          "type": "uint256"
        }
      ],
      "name": "convertToShares",
      "outputs": [
        {
          "internalType": "uint256",
          "name": "",
          "type": "uint256"
        }
      ],
      "stateMutability": "view",
      "type": "function"
    },
    {
      "inputs": [],
      "name": "decimals",
      "outputs": [
        {
          "internalType": "uint8",
          "name": "",
          "type": "uint8"
        }
      ],
      "stateMutability": "view",
      "type": "function"
    },
    {
      "inputs": [
        {
          "internalType": "uint256",
          "name": "assets",
          "type": "uint256"
        },
        {
          "internalType": "address",
          "name": "receiver",
          "type": "address"
        }
      ],
      "name": "deposit",
      "outputs": [
        {
          "internalType": "uint256",
          "name": "shares",
          "type": "uint256"
        }
      ],
      "stateMutability": "nonpayable",
      "type": "function"
    },
    {
      "inputs": [
        {
          "internalType": "uint256",
          "name": "_ghoAmount",
          "type": "uint256"
        }
      ],
      "name": "depositGHO",
      "outputs": [],
      "stateMutability": "nonpayable",
      "type": "function"
    },
    {
      "inputs": [
        {
          "internalType": "address",
          "name": "_user",
          "type": "address"
        }
      ],
      "name": "gpTokenBalance",
      "outputs": [
        {
          "internalType": "uint256",
          "name": "",
          "type": "uint256"
        }
      ],
      "stateMutability": "view",
      "type": "function"
    },
    {
      "inputs": [],
      "name": "i_ghoToken",
      "outputs": [
        {
          "internalType": "contract ERC20",
          "name": "",
          "type": "address"
        }
      ],
      "stateMutability": "view",
      "type": "function"
    },
    {
      "inputs": [
        {
          "internalType": "address",
          "name": "",
          "type": "address"
        }
      ],
      "name": "maxDeposit",
      "outputs": [
        {
          "internalType": "uint256",
          "name": "",
          "type": "uint256"
        }
      ],
      "stateMutability": "view",
      "type": "function"
    },
    {
      "inputs": [
        {
          "internalType": "address",
          "name": "",
          "type": "address"
        }
      ],
      "name": "maxMint",
      "outputs": [
        {
          "internalType": "uint256",
          "name": "",
          "type": "uint256"
        }
      ],
      "stateMutability": "view",
      "type": "function"
    },
    {
      "inputs": [
        {
          "internalType": "address",
          "name": "owner",
          "type": "address"
        }
      ],
      "name": "maxRedeem",
      "outputs": [
        {
          "internalType": "uint256",
          "name": "",
          "type": "uint256"
        }
      ],
      "stateMutability": "view",
      "type": "function"
    },
    {
      "inputs": [
        {
          "internalType": "address",
          "name": "owner",
          "type": "address"
        }
      ],
      "name": "maxWithdraw",
      "outputs": [
        {
          "internalType": "uint256",
          "name": "",
          "type": "uint256"
        }
      ],
      "stateMutability": "view",
      "type": "function"
    },
    {
      "inputs": [
        {
          "internalType": "uint256",
          "name": "shares",
          "type": "uint256"
        },
        {
          "internalType": "address",
          "name": "receiver",
          "type": "address"
        }
      ],
      "name": "mint",
      "outputs": [
        {
          "internalType": "uint256",
          "name": "assets",
          "type": "uint256"
        }
      ],
      "stateMutability": "nonpayable",
      "type": "function"
    },
    {
      "inputs": [],
      "name": "name",
      "outputs": [
        {
          "internalType": "string",
          "name": "",
          "type": "string"
        }
      ],
      "stateMutability": "view",
      "type": "function"
    },
    {
      "inputs": [
        {
          "internalType": "address",
          "name": "",
          "type": "address"
        }
      ],
      "name": "nonces",
      "outputs": [
        {
          "internalType": "uint256",
          "name": "",
          "type": "uint256"
        }
      ],
      "stateMutability": "view",
      "type": "function"
    },
    {
      "inputs": [],
      "name": "owner",
      "outputs": [
        {
          "internalType": "address",
          "name": "",
          "type": "address"
        }
      ],
      "stateMutability": "view",
      "type": "function"
    },
    {
      "inputs": [
        {
          "internalType": "address",
          "name": "owner",
          "type": "address"
        },
        {
          "internalType": "address",
          "name": "spender",
          "type": "address"
        },
        {
          "internalType": "uint256",
          "name": "value",
          "type": "uint256"
        },
        {
          "internalType": "uint256",
          "name": "deadline",
          "type": "uint256"
        },
        {
          "internalType": "uint8",
          "name": "v",
          "type": "uint8"
        },
        {
          "internalType": "bytes32",
          "name": "r",
          "type": "bytes32"
        },
        {
          "internalType": "bytes32",
          "name": "s",
          "type": "bytes32"
        }
      ],
      "name": "permit",
      "outputs": [],
      "stateMutability": "nonpayable",
      "type": "function"
    },
    {
      "inputs": [
        {
          "internalType": "uint256",
          "name": "assets",
          "type": "uint256"
        }
      ],
      "name": "previewDeposit",
      "outputs": [
        {
          "internalType": "uint256",
          "name": "",
          "type": "uint256"
        }
      ],
      "stateMutability": "view",
      "type": "function"
    },
    {
      "inputs": [
        {
          "internalType": "uint256",
          "name": "shares",
          "type": "uint256"
        }
      ],
      "name": "previewMint",
      "outputs": [
        {
          "internalType": "uint256",
          "name": "",
          "type": "uint256"
        }
      ],
      "stateMutability": "view",
      "type": "function"
    },
    {
      "inputs": [
        {
          "internalType": "uint256",
          "name": "shares",
          "type": "uint256"
        }
      ],
      "name": "previewRedeem",
      "outputs": [
        {
          "internalType": "uint256",
          "name": "",
          "type": "uint256"
        }
      ],
      "stateMutability": "view",
      "type": "function"
    },
    {
      "inputs": [
        {
          "internalType": "uint256",
          "name": "assets",
          "type": "uint256"
        }
      ],
      "name": "previewWithdraw",
      "outputs": [
        {
          "internalType": "uint256",
          "name": "",
          "type": "uint256"
        }
      ],
      "stateMutability": "view",
      "type": "function"
    },
    {
      "inputs": [
        {
          "internalType": "uint256",
          "name": "shares",
          "type": "uint256"
        },
        {
          "internalType": "address",
          "name": "receiver",
          "type": "address"
        },
        {
          "internalType": "address",
          "name": "owner",
          "type": "address"
        }
      ],
      "name": "redeem",
      "outputs": [
        {
          "internalType": "uint256",
          "name": "assets",
          "type": "uint256"
        }
      ],
      "stateMutability": "nonpayable",
      "type": "function"
    },
    {
      "inputs": [],
      "name": "renounceOwnership",
      "outputs": [],
      "stateMutability": "nonpayable",
      "type": "function"
    },
    {
      "inputs": [],
      "name": "s_ghoPartnerPassport",
      "outputs": [
        {
          "internalType": "contract IERC721",
          "name": "",
          "type": "address"
        }
      ],
      "stateMutability": "view",
      "type": "function"
    },
    {
      "inputs": [],
      "name": "s_mainAdmin",
      "outputs": [
        {
          "internalType": "address",
          "name": "",
          "type": "address"
        }
      ],
      "stateMutability": "view",
      "type": "function"
    },
    {
      "inputs": [],
      "name": "s_mainPayment",
      "outputs": [
        {
          "internalType": "address",
          "name": "",
          "type": "address"
        }
      ],
      "stateMutability": "view",
      "type": "function"
    },
    {
      "inputs": [],
      "name": "s_partnerFee",
      "outputs": [
        {
          "internalType": "uint8",
          "name": "",
          "type": "uint8"
        }
      ],
      "stateMutability": "view",
      "type": "function"
    },
    {
      "inputs": [],
      "name": "s_userFee",
      "outputs": [
        {
          "internalType": "uint8",
          "name": "",
          "type": "uint8"
        }
      ],
      "stateMutability": "view",
      "type": "function"
    },
    {
      "inputs": [
        {
          "internalType": "address",
          "name": "_ghoPartnerPassport",
          "type": "address"
        }
      ],
      "name": "setGHOPartnerPassport",
      "outputs": [],
      "stateMutability": "nonpayable",
      "type": "function"
    },
    {
      "inputs": [
        {
          "internalType": "address",
          "name": "_mainAdmin",
          "type": "address"
        }
      ],
      "name": "setMainAdmin",
      "outputs": [],
      "stateMutability": "nonpayable",
      "type": "function"
    },
    {
      "inputs": [
        {
          "internalType": "address",
          "name": "_mainPayment",
          "type": "address"
        }
      ],
      "name": "setMainPayment",
      "outputs": [],
      "stateMutability": "nonpayable",
      "type": "function"
    },
    {
      "inputs": [
        {
          "internalType": "uint8",
          "name": "_partnerFee",
          "type": "uint8"
        }
      ],
      "name": "setPartnerFee",
      "outputs": [],
      "stateMutability": "nonpayable",
      "type": "function"
    },
    {
      "inputs": [
        {
          "internalType": "uint8",
          "name": "_userFee",
          "type": "uint8"
        }
      ],
      "name": "setUserFee",
      "outputs": [],
      "stateMutability": "nonpayable",
      "type": "function"
    },
    {
      "inputs": [],
      "name": "symbol",
      "outputs": [
        {
          "internalType": "string",
          "name": "",
          "type": "string"
        }
      ],
      "stateMutability": "view",
      "type": "function"
    },
    {
      "inputs": [],
      "name": "totalAssets",
      "outputs": [
        {
          "internalType": "uint256",
          "name": "",
          "type": "uint256"
        }
      ],
      "stateMutability": "view",
      "type": "function"
    },
    {
      "inputs": [],
      "name": "totalSupply",
      "outputs": [
        {
          "internalType": "uint256",
          "name": "",
          "type": "uint256"
        }
      ],
      "stateMutability": "view",
      "type": "function"
    },
    {
      "inputs": [
        {
          "internalType": "address",
          "name": "to",
          "type": "address"
        },
        {
          "internalType": "uint256",
          "name": "amount",
          "type": "uint256"
        }
      ],
      "name": "transfer",
      "outputs": [
        {
          "internalType": "bool",
          "name": "",
          "type": "bool"
        }
      ],
      "stateMutability": "nonpayable",
      "type": "function"
    },
    {
      "inputs": [
        {
          "internalType": "address",
          "name": "from",
          "type": "address"
        },
        {
          "internalType": "address",
          "name": "to",
          "type": "address"
        },
        {
          "internalType": "uint256",
          "name": "amount",
          "type": "uint256"
        }
      ],
      "name": "transferFrom",
      "outputs": [
        {
          "internalType": "bool",
          "name": "",
          "type": "bool"
        }
      ],
      "stateMutability": "nonpayable",
      "type": "function"
    },
    {
      "inputs": [
        {
          "internalType": "address",
          "name": "newOwner",
          "type": "address"
        }
      ],
      "name": "transferOwnership",
      "outputs": [],
      "stateMutability": "nonpayable",
      "type": "function"
    },
    {
      "inputs": [
        {
          "internalType": "uint256",
          "name": "_gpAmount",
          "type": "uint256"
        },
        {
          "internalType": "address",
          "name": "_receiver",
          "type": "address"
        },
        {
          "internalType": "address",
          "name": "_owner",
          "type": "address"
        }
      ],
      "name": "withdraw",
      "outputs": [
        {
          "internalType": "uint256",
          "name": "shares",
          "type": "uint256"
        }
      ],
      "stateMutability": "nonpayable",
      "type": "function"
    },
    {
      "inputs": [
        {
          "internalType": "uint256",
          "name": "_gp",
          "type": "uint256"
        },
        {
          "internalType": "address",
          "name": "_receiver",
          "type": "address"
        },
        {
          "internalType": "address",
          "name": "_owner",
          "type": "address"
        }
      ],
      "name": "withdrawGHO",
      "outputs": [],
      "stateMutability": "nonpayable",
      "type": "function"
    }
  ],
  "bytecode": {
    "object": "0x6101206040523480156200001257600080fd5b506040516200245e3803806200245e83398101604081905262000035916200022b565b80826040518060400160405280600a81526020016947484f20506f696e747360b01b81525060405180604001604052806002815260200161047560f41b815250601282828282600090816200008b91906200030f565b5060016200009a83826200030f565b5060ff81166080524660a052620000b062000124565b60c0525050506001600160a01b0393841660e0525050508116620000ee57604051631e4fbdf760e01b81526000600482015260240160405180910390fd5b620000f981620001c0565b506001600160a01b0391821661010052600980546001600160a01b0319169190921617905562000459565b60007f8b73c3c69bb8fe3d512ecc4cf759cc79239f7b179b0ffacaa9a75d522b39400f6000604051620001589190620003db565b6040805191829003822060208301939093528101919091527fc89efdaa54c0f20c7adf612882df0950f5a951637e0307cdcb4c672f298b8bc660608201524660808201523060a082015260c00160405160208183030381529060405280519060200120905090565b600680546001600160a01b038381166001600160a01b0319831681179093556040519116919082907f8be0079c531659141344cd1fd0a4f28419497f9722a3daafe3b4186f6b6457e090600090a35050565b6001600160a01b03811681146200022857600080fd5b50565b600080604083850312156200023f57600080fd5b82516200024c8162000212565b60208401519092506200025f8162000212565b809150509250929050565b634e487b7160e01b600052604160045260246000fd5b600181811c908216806200029557607f821691505b602082108103620002b657634e487b7160e01b600052602260045260246000fd5b50919050565b601f8211156200030a57600081815260208120601f850160051c81016020861015620002e55750805b601f850160051c820191505b818110156200030657828155600101620002f1565b5050505b505050565b81516001600160401b038111156200032b576200032b6200026a565b62000343816200033c845462000280565b84620002bc565b602080601f8311600181146200037b5760008415620003625750858301515b600019600386901b1c1916600185901b17855562000306565b600085815260208120601f198616915b82811015620003ac578886015182559484019460019091019084016200038b565b5085821015620003cb5787850151600019600388901b60f8161c191681555b5050505050600190811b01905550565b6000808354620003eb8162000280565b600182811680156200040657600181146200041c576200044d565b60ff19841687528215158302870194506200044d565b8760005260208060002060005b85811015620004445781548a82015290840190820162000429565b50505082870194505b50929695505050505050565b60805160a05160c05160e05161010051611f81620004dd600039600081816104820152818161066e01528181610fbc015281816110850152818161111e015281816111dd015261127601526000818161038701528181610b7501528181610c9a015261140a0152600061099501526000610965015260006103330152611f816000f3fe608060405234801561001057600080fd5b506004361061027f5760003560e01c80638da5cb5b1161015c578063ba087652116100ce578063ce96cb7711610087578063ce96cb77146105df578063d505accf146105f2578063d905777e146105b6578063dd62ed3e14610605578063ef8b30f714610630578063f2fde38b1461064357600080fd5b8063ba08765214610569578063bbf3bac91461057c578063c43d5c3414610590578063c63d75b6146103c1578063c6e6f592146105a3578063cd62b083146105b657600080fd5b80639a3aed36116101205780639a3aed36146104f65780639fd8c12914610509578063a9059cbb1461051d578063b3d7f6b914610530578063b460af9414610543578063b778eccd1461055657600080fd5b80638da5cb5b146104a457806394bf804d146104b557806395190275146104c857806395d89b41146104db578063978223d3146104e357600080fd5b806338d52e0f116101f55780636eb4aa45116101b95780636eb4aa451461040f57806370a0823114610422578063715018a6146104425780637709b6ab1461044a5780637ecebe001461045d57806389c078de1461047d57600080fd5b806338d52e0f14610382578063402d267d146103c15780634cdad506146103d657806354fe8fb7146103e95780636e553f65146103fc57600080fd5b806318160ddd1161024757806318160ddd146102fd57806323b872dd146103065780632578ab9714610319578063313ce5671461032e5780633644e515146103675780633674e6d51461036f57600080fd5b806301e1d1141461028457806306fdde031461029f57806307a2d13a146102b4578063095ea7b3146102c75780630a28a477146102ea575b600080fd5b61028c610656565b6040519081526020015b60405180910390f35b6102a76106e6565b6040516102969190611b76565b61028c6102c2366004611bc4565b610774565b6102da6102d5366004611bf9565b6107a1565b6040519015158152602001610296565b61028c6102f8366004611bc4565b61080e565b61028c60025481565b6102da610314366004611c23565b61082e565b61032c610327366004611c5f565b61090e565b005b6103557f000000000000000000000000000000000000000000000000000000000000000081565b60405160ff9091168152602001610296565b61028c610961565b61032c61037d366004611c5f565b6109b7565b6103a97f000000000000000000000000000000000000000000000000000000000000000081565b6040516001600160a01b039091168152602001610296565b61028c6103cf366004611c5f565b5060001990565b61028c6103e4366004611bc4565b610a46565b61032c6103f7366004611c7a565b610a51565b61028c61040a366004611cb6565b610b18565b6008546103a9906001600160a01b031681565b61028c610430366004611c5f565b60036020526000908152604090205481565b61032c610bf3565b61032c610458366004611bc4565b610c07565b61028c61046b366004611c5f565b60056020526000908152604090205481565b6103a97f000000000000000000000000000000000000000000000000000000000000000081565b6006546001600160a01b03166103a9565b61028c6104c3366004611cb6565b610c80565b61032c6104d6366004611cf3565b610d0f565b6102a7610d93565b6009546103a9906001600160a01b031681565b61032c610504366004611c5f565b610da0565b60075461035590600160a81b900460ff1681565b6102da61052b366004611bf9565b610e2f565b61028c61053e366004611bc4565b610e95565b61028c610551366004611c7a565b610eb4565b6007546103a9906001600160a01b031681565b61028c610577366004611c7a565b6112ef565b60075461035590600160a01b900460ff1681565b61032c61059e366004611cf3565b611431565b61028c6105b1366004611bc4565b6114b5565b61028c6105c4366004611c5f565b6001600160a01b031660009081526003602052604090205490565b61028c6105ed366004611c5f565b6114d5565b61032c610600366004611d0e565b6114f7565b61028c610613366004611d78565b600460209081526000928352604080842090915290825290205481565b61028c61063e366004611bc4565b61173b565b61032c610651366004611c5f565b611746565b6040516370a0823160e01b81523060048201526000907f00000000000000000000000000000000000000000000000000000000000000006001600160a01b0316906370a0823190602401602060405180830381865afa1580156106bd573d6000803e3d6000fd5b505050506040513d601f19601f820116820180604052508101906106e19190611da2565b905090565b600080546106f390611dbb565b80601f016020809104026020016040519081016040528092919081815260200182805461071f90611dbb565b801561076c5780601f106107415761010080835404028352916020019161076c565b820191906000526020600020905b81548152906001019060200180831161074f57829003601f168201915b505050505081565b60025460009080156107985761079361078b610656565b849083611784565b61079a565b825b9392505050565b3360008181526004602090815260408083206001600160a01b038716808552925280832085905551919290917f8c5be1e5ebec7d5bd14f71427d1e84f3dd0314c0f7b2291e5b200ac8c7c3b925906107fc9086815260200190565b60405180910390a35060015b92915050565b60025460009080156107985761079381610826610656565b8591906117a2565b6001600160a01b0383166000908152600460209081526040808320338452909152812054600019811461088a576108658382611e0b565b6001600160a01b03861660009081526004602090815260408083203384529091529020555b6001600160a01b038516600090815260036020526040812080548592906108b2908490611e0b565b90915550506001600160a01b0380851660008181526003602052604090819020805487019055519091871690600080516020611f2c833981519152906108fb9087815260200190565b60405180910390a3506001949350505050565b806001600160a01b038116610936576040516309fafd2b60e41b815260040160405180910390fd5b61093e6117c8565b50600780546001600160a01b0319166001600160a01b0392909216919091179055565b60007f00000000000000000000000000000000000000000000000000000000000000004614610992576106e16117f5565b507f000000000000000000000000000000000000000000000000000000000000000090565b806001600160a01b0381166109df576040516309fafd2b60e41b815260040160405180910390fd5b6109e76117c8565b6040516001600160a01b03831681527f4c070d2bd28acbebea1baca2a0a570d95bcbc30dee9a07c8218065ad38a400fb9060200160405180910390a150600880546001600160a01b0319166001600160a01b0392909216919091179055565b600061080882610774565b8280600003610a735760405163e0e0bbe560e01b815260040160405180910390fd5b826001600160a01b038116610a9b576040516309fafd2b60e41b815260040160405180910390fd5b826001600160a01b038116610ac3576040516309fafd2b60e41b815260040160405180910390fd5b610ace868686610eb4565b50836001600160a01b0316856001600160a01b0316877f08776d462a9ccc9302a2964ce06fc22c72ee3b91019c17424baae6e7481c7fbd60405160405180910390a4505050505050565b6000610b238361173b565b905080600003610b685760405162461bcd60e51b815260206004820152600b60248201526a5a45524f5f53484152455360a81b60448201526064015b60405180910390fd5b610b9d6001600160a01b037f00000000000000000000000000000000000000000000000000000000000000001633308661188f565b610ba7828261192b565b60408051848152602081018390526001600160a01b0384169133917fdcbc1c05240f31ff3ad067ef1ee35ce4997762752e3a095284754544f4c709d791015b60405180910390a3610808565b610bfb6117c8565b610c056000611985565b565b8080600003610c295760405163e0e0bbe560e01b815260040160405180910390fd5b610c316117c8565b600854610c489083906001600160a01b0316610b18565b506040518281527f05481d73db532e5e33460a49c151606cfe362daee86a1cab011fda979f1a9fe59060200160405180910390a15050565b6000610c8b83610e95565b9050610cc26001600160a01b037f00000000000000000000000000000000000000000000000000000000000000001633308461188f565b610ccc828461192b565b60408051828152602081018590526001600160a01b0384169133917fdcbc1c05240f31ff3ad067ef1ee35ce4997762752e3a095284754544f4c709d79101610be6565b8060ff1680600003610d345760405163e0e0bbe560e01b815260040160405180910390fd5b610d3c6117c8565b60405160ff831681527fe5ae6925639d003b695e7c11b3084831b8c7c2bd1297a625729b7cffa53a7bda9060200160405180910390a1506007805460ff909216600160a81b0260ff60a81b19909216919091179055565b600180546106f390611dbb565b806001600160a01b038116610dc8576040516309fafd2b60e41b815260040160405180910390fd5b610dd06117c8565b6040516001600160a01b03831681527f2301cf8a0b3843703c165bc6b5998c4b8dd3351af50528d2e8f986727c30ab9b9060200160405180910390a150600980546001600160a01b0319166001600160a01b0392909216919091179055565b33600090815260036020526040812080548391908390610e50908490611e0b565b90915550506001600160a01b03831660008181526003602052604090819020805485019055513390600080516020611f2c833981519152906107fc9086815260200190565b600254600090801561079857610793610eac610656565b8490836117a2565b6000610ebf8461080e565b9050336001600160a01b03831614610f2f576001600160a01b03821660009081526004602090815260408083203384529091529020546000198114610f2d57610f088282611e0b565b6001600160a01b03841660009081526004602090815260408083203384529091529020555b505b610f3982826119d7565b60408051858152602081018390526001600160a01b03808516929086169133917ffbde797d201c681b91056529119e0b02407c7bb96a4a2c75c01fc9667232c8db910160405180910390a46006546001600160a01b0316330361102f5760405163a9059cbb60e01b81526001600160a01b038481166004830152602482018690527f0000000000000000000000000000000000000000000000000000000000000000169063a9059cbb906044016020604051808303816000875af1158015611005573d6000803e3d6000fd5b505050506040513d601f19601f820116820180604052508101906110299190611e1e565b5061079a565b61103833611a39565b156111955760008061105986600760159054906101000a900460ff16611ab2565b60405163a9059cbb60e01b81526001600160a01b038881166004830152602482018490529294509092507f00000000000000000000000000000000000000000000000000000000000000009091169063a9059cbb906044016020604051808303816000875af11580156110d0573d6000803e3d6000fd5b505050506040513d601f19601f820116820180604052508101906110f49190611e1e565b5060095460405163a9059cbb60e01b81526001600160a01b039182166004820152602481018390527f00000000000000000000000000000000000000000000000000000000000000009091169063a9059cbb906044016020604051808303816000875af1158015611169573d6000803e3d6000fd5b505050506040513d601f19601f8201168201806040525081019061118d9190611e1e565b50505061079a565b6000806111b186600760149054906101000a900460ff16611ab2565b60405163a9059cbb60e01b81526001600160a01b038881166004830152602482018490529294509092507f00000000000000000000000000000000000000000000000000000000000000009091169063a9059cbb906044016020604051808303816000875af1158015611228573d6000803e3d6000fd5b505050506040513d601f19601f8201168201806040525081019061124c9190611e1e565b5060095460405163a9059cbb60e01b81526001600160a01b039182166004820152602481018390527f00000000000000000000000000000000000000000000000000000000000000009091169063a9059cbb906044016020604051808303816000875af11580156112c1573d6000803e3d6000fd5b505050506040513d601f19601f820116820180604052508101906112e59190611e1e565b5050509392505050565b6000336001600160a01b0383161461135f576001600160a01b0382166000908152600460209081526040808320338452909152902054600019811461135d576113388582611e0b565b6001600160a01b03841660009081526004602090815260408083203384529091529020555b505b61136884610a46565b9050806000036113a85760405162461bcd60e51b815260206004820152600b60248201526a5a45524f5f41535345545360a81b6044820152606401610b5f565b6113b282856119d7565b60408051828152602081018690526001600160a01b03808516929086169133917ffbde797d201c681b91056529119e0b02407c7bb96a4a2c75c01fc9667232c8db910160405180910390a461079a6001600160a01b037f0000000000000000000000000000000000000000000000000000000000000000168483611ad4565b8060ff16806000036114565760405163e0e0bbe560e01b815260040160405180910390fd5b61145e6117c8565b60405160ff831681527f0ba9a05aacdeace0b6f743d0424367e932978f6e1693867e1196078222d279429060200160405180910390a1506007805460ff909216600160a01b0260ff60a01b19909216919091179055565b600254600090801561079857610793816114cd610656565b859190611784565b6001600160a01b03811660009081526003602052604081205461080890610774565b428410156115475760405162461bcd60e51b815260206004820152601760248201527f5045524d49545f444541444c494e455f455850495245440000000000000000006044820152606401610b5f565b60006001611553610961565b6001600160a01b038a811660008181526005602090815260409182902080546001810190915582517f6e71edae12b1b97f4d1f60370fef10105fa2faae0126114a169c64845d6126c98184015280840194909452938d166060840152608083018c905260a083019390935260c08083018b90528151808403909101815260e08301909152805192019190912061190160f01b6101008301526101028201929092526101228101919091526101420160408051601f198184030181528282528051602091820120600084529083018083525260ff871690820152606081018590526080810184905260a0016020604051602081039080840390855afa15801561165f573d6000803e3d6000fd5b5050604051601f1901519150506001600160a01b038116158015906116955750876001600160a01b0316816001600160a01b0316145b6116d25760405162461bcd60e51b815260206004820152600e60248201526d24a72b20a624a22fa9a4a3a722a960911b6044820152606401610b5f565b6001600160a01b0390811660009081526004602090815260408083208a8516808552908352928190208990555188815291928a16917f8c5be1e5ebec7d5bd14f71427d1e84f3dd0314c0f7b2291e5b200ac8c7c3b925910160405180910390a350505050505050565b6000610808826114b5565b61174e6117c8565b6001600160a01b03811661177857604051631e4fbdf760e01b815260006004820152602401610b5f565b61178181611985565b50565b600082600019048411830215820261179b57600080fd5b5091020490565b60008260001904841183021582026117b957600080fd5b50910281810615159190040190565b6006546001600160a01b03163314610c055760405163118cdaa760e01b8152336004820152602401610b5f565b60007f8b73c3c69bb8fe3d512ecc4cf759cc79239f7b179b0ffacaa9a75d522b39400f60006040516118279190611e40565b6040805191829003822060208301939093528101919091527fc89efdaa54c0f20c7adf612882df0950f5a951637e0307cdcb4c672f298b8bc660608201524660808201523060a082015260c00160405160208183030381529060405280519060200120905090565b60006040516323b872dd60e01b81526001600160a01b03851660048201526001600160a01b03841660248201528260448201526020600060648360008a5af13d15601f3d11600160005114161716915050806119245760405162461bcd60e51b81526020600482015260146024820152731514905394d1915497d19493d357d1905253115160621b6044820152606401610b5f565b5050505050565b806002600082825461193d9190611edf565b90915550506001600160a01b038216600081815260036020908152604080832080548601905551848152600080516020611f2c83398151915291015b60405180910390a35050565b600680546001600160a01b038381166001600160a01b0319831681179093556040519116919082907f8be0079c531659141344cd1fd0a4f28419497f9722a3daafe3b4186f6b6457e090600090a35050565b6001600160a01b038216600090815260036020526040812080548392906119ff908490611e0b565b90915550506002805482900390556040518181526000906001600160a01b03841690600080516020611f2c83398151915290602001611979565b6007546040516370a0823160e01b81526001600160a01b03838116600483015260009283929116906370a0823190602401602060405180830381865afa158015611a87573d6000803e3d6000fd5b505050506040513d601f19601f82011682018060405250810190611aab9190611da2565b1192915050565b600080611abf8484611b5b565b9050611acb8185611e0b565b91509250929050565b600060405163a9059cbb60e01b81526001600160a01b0384166004820152826024820152602060006044836000895af13d15601f3d1160016000511416171691505080611b555760405162461bcd60e51b815260206004820152600f60248201526e1514905394d1915497d19052531151608a1b6044820152606401610b5f565b50505050565b60006064611b6c60ff841685611ef2565b61079a9190611f09565b600060208083528351808285015260005b81811015611ba357858101830151858201604001528201611b87565b506000604082860101526040601f19601f8301168501019250505092915050565b600060208284031215611bd657600080fd5b5035919050565b80356001600160a01b0381168114611bf457600080fd5b919050565b60008060408385031215611c0c57600080fd5b611c1583611bdd565b946020939093013593505050565b600080600060608486031215611c3857600080fd5b611c4184611bdd565b9250611c4f60208501611bdd565b9150604084013590509250925092565b600060208284031215611c7157600080fd5b61079a82611bdd565b600080600060608486031215611c8f57600080fd5b83359250611c9f60208501611bdd565b9150611cad60408501611bdd565b90509250925092565b60008060408385031215611cc957600080fd5b82359150611cd960208401611bdd565b90509250929050565b803560ff81168114611bf457600080fd5b600060208284031215611d0557600080fd5b61079a82611ce2565b600080600080600080600060e0888a031215611d2957600080fd5b611d3288611bdd565b9650611d4060208901611bdd565b95506040880135945060608801359350611d5c60808901611ce2565b925060a0880135915060c0880135905092959891949750929550565b60008060408385031215611d8b57600080fd5b611d9483611bdd565b9150611cd960208401611bdd565b600060208284031215611db457600080fd5b5051919050565b600181811c90821680611dcf57607f821691505b602082108103611def57634e487b7160e01b600052602260045260246000fd5b50919050565b634e487b7160e01b600052601160045260246000fd5b8181038181111561080857610808611df5565b600060208284031215611e3057600080fd5b8151801515811461079a57600080fd5b600080835481600182811c915080831680611e5c57607f831692505b60208084108203611e7b57634e487b7160e01b86526022600452602486fd5b818015611e8f5760018114611ea457611ed1565b60ff1986168952841515850289019650611ed1565b60008a81526020902060005b86811015611ec95781548b820152908501908301611eb0565b505084890196505b509498975050505050505050565b8082018082111561080857610808611df5565b808202811582820484141761080857610808611df5565b600082611f2657634e487b7160e01b600052601260045260246000fd5b50049056feddf252ad1be2c89b69c2b068fc378daa952ba7f163c4a11628f55a4df523b3efa26469706673582212209b479cc777e2a6897a6a7c8df9db47a10e47b2e6d6151c2578957055ca0ade6864736f6c63430008140033",
    "linkReferences": {}
  },
  "methodIdentifiers": {
    "DOMAIN_SEPARATOR()": "3644e515",
    "allowance(address,address)": "dd62ed3e",
    "approve(address,uint256)": "095ea7b3",
    "asset()": "38d52e0f",
    "balanceOf(address)": "70a08231",
    "convertToAssets(uint256)": "07a2d13a",
    "convertToShares(uint256)": "c6e6f592",
    "decimals()": "313ce567",
    "deposit(uint256,address)": "6e553f65",
    "depositGHO(uint256)": "7709b6ab",
    "gpTokenBalance(address)": "cd62b083",
    "i_ghoToken()": "89c078de",
    "maxDeposit(address)": "402d267d",
    "maxMint(address)": "c63d75b6",
    "maxRedeem(address)": "d905777e",
    "maxWithdraw(address)": "ce96cb77",
    "mint(uint256,address)": "94bf804d",
    "name()": "06fdde03",
    "nonces(address)": "7ecebe00",
    "owner()": "8da5cb5b",
    "permit(address,address,uint256,uint256,uint8,bytes32,bytes32)": "d505accf",
    "previewDeposit(uint256)": "ef8b30f7",
    "previewMint(uint256)": "b3d7f6b9",
    "previewRedeem(uint256)": "4cdad506",
    "previewWithdraw(uint256)": "0a28a477",
    "redeem(uint256,address,address)": "ba087652",
    "renounceOwnership()": "715018a6",
    "s_ghoPartnerPassport()": "b778eccd",
    "s_mainAdmin()": "978223d3",
    "s_mainPayment()": "6eb4aa45",
    "s_partnerFee()": "9fd8c129",
    "s_userFee()": "bbf3bac9",
    "setGHOPartnerPassport(address)": "2578ab97",
    "setMainAdmin(address)": "9a3aed36",
    "setMainPayment(address)": "3674e6d5",
    "setPartnerFee(uint8)": "95190275",
    "setUserFee(uint8)": "c43d5c34",
    "symbol()": "95d89b41",
    "totalAssets()": "01e1d114",
    "totalSupply()": "18160ddd",
    "transfer(address,uint256)": "a9059cbb",
    "transferFrom(address,address,uint256)": "23b872dd",
    "transferOwnership(address)": "f2fde38b",
    "withdraw(uint256,address,address)": "b460af94",
    "withdrawGHO(uint256,address,address)": "54fe8fb7"
  },
  "id": 48
}