{
  "abi": [
    {
      "inputs": [
        {
          "internalType": "contract ERC20",
          "name": "_ghoToken",
          "type": "address"
        },
        {
          "internalType": "address",
          "name": "ghoPartnerPassport",
          "type": "address"
        },
        {
          "internalType": "address",
          "name": "_mainAdmin",
          "type": "address"
        }
      ],
      "stateMutability": "nonpayable",
      "type": "constructor"
    },
    {
      "inputs": [],
      "name": "MainVault__ZeroAddress",
      "type": "error"
    },
    {
      "inputs": [],
      "name": "MainVault__ZeroAmount",
      "type": "error"
    },
    {
      "inputs": [
        {
          "internalType": "address",
          "name": "owner",
          "type": "address"
        }
      ],
      "name": "OwnableInvalidOwner",
      "type": "error"
    },
    {
      "inputs": [
        {
          "internalType": "address",
          "name": "account",
          "type": "address"
        }
      ],
      "name": "OwnableUnauthorizedAccount",
      "type": "error"
    },
    {
      "anonymous": false,
      "inputs": [
        {
          "indexed": true,
          "internalType": "address",
          "name": "owner",
          "type": "address"
        },
        {
          "indexed": true,
          "internalType": "address",
          "name": "spender",
          "type": "address"
        },
        {
          "indexed": false,
          "internalType": "uint256",
          "name": "amount",
          "type": "uint256"
        }
      ],
      "name": "Approval",
      "type": "event"
    },
    {
      "anonymous": false,
      "inputs": [
        {
          "indexed": true,
          "internalType": "address",
          "name": "caller",
          "type": "address"
        },
        {
          "indexed": true,
          "internalType": "address",
          "name": "owner",
          "type": "address"
        },
        {
          "indexed": false,
          "internalType": "uint256",
          "name": "assets",
          "type": "uint256"
        },
        {
          "indexed": false,
          "internalType": "uint256",
          "name": "shares",
          "type": "uint256"
        }
      ],
      "name": "Deposit",
      "type": "event"
    },
    {
      "anonymous": false,
      "inputs": [
        {
          "indexed": false,
          "internalType": "uint256",
          "name": "amount",
          "type": "uint256"
        }
      ],
      "name": "MainVault__GHODeposited",
      "type": "event"
    },
    {
      "anonymous": false,
      "inputs": [
        {
          "indexed": true,
          "internalType": "uint256",
          "name": "amount",
          "type": "uint256"
        },
        {
          "indexed": true,
          "internalType": "address",
          "name": "receiver",
          "type": "address"
        },
        {
          "indexed": true,
          "internalType": "address",
          "name": "owner",
          "type": "address"
        }
      ],
      "name": "MainVault__GHOWithdrawn",
      "type": "event"
    },
    {
      "anonymous": false,
      "inputs": [
        {
          "indexed": false,
          "internalType": "uint256",
          "name": "partnerFee",
          "type": "uint256"
        }
      ],
      "name": "MainVault__PartnerFeeSet",
      "type": "event"
    },
    {
      "anonymous": false,
      "inputs": [
        {
          "indexed": false,
          "internalType": "address",
          "name": "rewardPool",
          "type": "address"
        }
      ],
      "name": "MainVault__RewardPoolSet",
      "type": "event"
    },
    {
      "anonymous": false,
      "inputs": [
        {
          "indexed": false,
          "internalType": "address",
          "name": "mainAdmin",
          "type": "address"
        }
      ],
      "name": "MainVault__UpdatedMainAdmin",
      "type": "event"
    },
    {
      "anonymous": false,
      "inputs": [
        {
          "indexed": false,
          "internalType": "uint256",
          "name": "userFee",
          "type": "uint256"
        }
      ],
      "name": "MainVault__UserFeeSet",
      "type": "event"
    },
    {
      "anonymous": false,
      "inputs": [
        {
          "indexed": false,
          "internalType": "address",
          "name": "utils",
          "type": "address"
        }
      ],
      "name": "MainVault__UtilsSet",
      "type": "event"
    },
    {
      "anonymous": false,
      "inputs": [
        {
          "indexed": true,
          "internalType": "address",
          "name": "previousOwner",
          "type": "address"
        },
        {
          "indexed": true,
          "internalType": "address",
          "name": "newOwner",
          "type": "address"
        }
      ],
      "name": "OwnershipTransferred",
      "type": "event"
    },
    {
      "anonymous": false,
      "inputs": [
        {
          "indexed": true,
          "internalType": "address",
          "name": "from",
          "type": "address"
        },
        {
          "indexed": true,
          "internalType": "address",
          "name": "to",
          "type": "address"
        },
        {
          "indexed": false,
          "internalType": "uint256",
          "name": "amount",
          "type": "uint256"
        }
      ],
      "name": "Transfer",
      "type": "event"
    },
    {
      "anonymous": false,
      "inputs": [
        {
          "indexed": true,
          "internalType": "address",
          "name": "caller",
          "type": "address"
        },
        {
          "indexed": true,
          "internalType": "address",
          "name": "receiver",
          "type": "address"
        },
        {
          "indexed": true,
          "internalType": "address",
          "name": "owner",
          "type": "address"
        },
        {
          "indexed": false,
          "internalType": "uint256",
          "name": "assets",
          "type": "uint256"
        },
        {
          "indexed": false,
          "internalType": "uint256",
          "name": "shares",
          "type": "uint256"
        }
      ],
      "name": "Withdraw",
      "type": "event"
    },
    {
      "inputs": [],
      "name": "DOMAIN_SEPARATOR",
      "outputs": [
        {
          "internalType": "bytes32",
          "name": "",
          "type": "bytes32"
        }
      ],
      "stateMutability": "view",
      "type": "function"
    },
    {
      "inputs": [
        {
          "internalType": "address",
          "name": "",
          "type": "address"
        },
        {
          "internalType": "address",
          "name": "",
          "type": "address"
        }
      ],
      "name": "allowance",
      "outputs": [
        {
          "internalType": "uint256",
          "name": "",
          "type": "uint256"
        }
      ],
      "stateMutability": "view",
      "type": "function"
    },
    {
      "inputs": [
        {
          "internalType": "address",
          "name": "spender",
          "type": "address"
        },
        {
          "internalType": "uint256",
          "name": "amount",
          "type": "uint256"
        }
      ],
      "name": "approve",
      "outputs": [
        {
          "internalType": "bool",
          "name": "",
          "type": "bool"
        }
      ],
      "stateMutability": "nonpayable",
      "type": "function"
    },
    {
      "inputs": [],
      "name": "asset",
      "outputs": [
        {
          "internalType": "contract ERC20",
          "name": "",
          "type": "address"
        }
      ],
      "stateMutability": "view",
      "type": "function"
    },
    {
      "inputs": [
        {
          "internalType": "address",
          "name": "",
          "type": "address"
        }
      ],
      "name": "balanceOf",
      "outputs": [
        {
          "internalType": "uint256",
          "name": "",
          "type": "uint256"
        }
      ],
      "stateMutability": "view",
      "type": "function"
    },
    {
      "inputs": [
        {
          "internalType": "uint256",
          "name": "shares",
          "type": "uint256"
        }
      ],
      "name": "convertToAssets",
      "outputs": [
        {
          "internalType": "uint256",
          "name": "",
          "type": "uint256"
        }
      ],
      "stateMutability": "view",
      "type": "function"
    },
    {
      "inputs": [
        {
          "internalType": "uint256",
          "name": "assets",
          "type": "uint256"
        }
      ],
      "name": "convertToShares",
      "outputs": [
        {
          "internalType": "uint256",
          "name": "",
          "type": "uint256"
        }
      ],
      "stateMutability": "view",
      "type": "function"
    },
    {
      "inputs": [],
      "name": "decimals",
      "outputs": [
        {
          "internalType": "uint8",
          "name": "",
          "type": "uint8"
        }
      ],
      "stateMutability": "view",
      "type": "function"
    },
    {
      "inputs": [
        {
          "internalType": "uint256",
          "name": "assets",
          "type": "uint256"
        },
        {
          "internalType": "address",
          "name": "receiver",
          "type": "address"
        }
      ],
      "name": "deposit",
      "outputs": [
        {
          "internalType": "uint256",
          "name": "shares",
          "type": "uint256"
        }
      ],
      "stateMutability": "nonpayable",
      "type": "function"
    },
    {
      "inputs": [
        {
          "internalType": "uint256",
          "name": "_ghoAmount",
          "type": "uint256"
        }
      ],
      "name": "depositGHO",
      "outputs": [],
      "stateMutability": "nonpayable",
      "type": "function"
    },
    {
      "inputs": [
        {
          "internalType": "uint256",
          "name": "_ghoAmount",
          "type": "uint256"
        },
        {
          "internalType": "uint8",
          "name": "v",
          "type": "uint8"
        },
        {
          "internalType": "bytes32",
          "name": "r",
          "type": "bytes32"
        },
        {
          "internalType": "bytes32",
          "name": "s",
          "type": "bytes32"
        }
      ],
      "name": "depositGHOWithPermit",
      "outputs": [],
      "stateMutability": "nonpayable",
      "type": "function"
    },
    {
      "inputs": [
        {
          "internalType": "address",
          "name": "_user",
          "type": "address"
        }
      ],
      "name": "gpTokenBalance",
      "outputs": [
        {
          "internalType": "uint256",
          "name": "",
          "type": "uint256"
        }
      ],
      "stateMutability": "view",
      "type": "function"
    },
    {
      "inputs": [],
      "name": "i_ghoToken",
      "outputs": [
        {
          "internalType": "contract ERC20",
          "name": "",
          "type": "address"
        }
      ],
      "stateMutability": "view",
      "type": "function"
    },
    {
      "inputs": [
        {
          "internalType": "address",
          "name": "",
          "type": "address"
        }
      ],
      "name": "maxDeposit",
      "outputs": [
        {
          "internalType": "uint256",
          "name": "",
          "type": "uint256"
        }
      ],
      "stateMutability": "view",
      "type": "function"
    },
    {
      "inputs": [
        {
          "internalType": "address",
          "name": "",
          "type": "address"
        }
      ],
      "name": "maxMint",
      "outputs": [
        {
          "internalType": "uint256",
          "name": "",
          "type": "uint256"
        }
      ],
      "stateMutability": "view",
      "type": "function"
    },
    {
      "inputs": [
        {
          "internalType": "address",
          "name": "owner",
          "type": "address"
        }
      ],
      "name": "maxRedeem",
      "outputs": [
        {
          "internalType": "uint256",
          "name": "",
          "type": "uint256"
        }
      ],
      "stateMutability": "view",
      "type": "function"
    },
    {
      "inputs": [
        {
          "internalType": "address",
          "name": "owner",
          "type": "address"
        }
      ],
      "name": "maxWithdraw",
      "outputs": [
        {
          "internalType": "uint256",
          "name": "",
          "type": "uint256"
        }
      ],
      "stateMutability": "view",
      "type": "function"
    },
    {
      "inputs": [
        {
          "internalType": "uint256",
          "name": "shares",
          "type": "uint256"
        },
        {
          "internalType": "address",
          "name": "receiver",
          "type": "address"
        }
      ],
      "name": "mint",
      "outputs": [
        {
          "internalType": "uint256",
          "name": "assets",
          "type": "uint256"
        }
      ],
      "stateMutability": "nonpayable",
      "type": "function"
    },
    {
      "inputs": [],
      "name": "name",
      "outputs": [
        {
          "internalType": "string",
          "name": "",
          "type": "string"
        }
      ],
      "stateMutability": "view",
      "type": "function"
    },
    {
      "inputs": [
        {
          "internalType": "address",
          "name": "",
          "type": "address"
        }
      ],
      "name": "nonces",
      "outputs": [
        {
          "internalType": "uint256",
          "name": "",
          "type": "uint256"
        }
      ],
      "stateMutability": "view",
      "type": "function"
    },
    {
      "inputs": [],
      "name": "owner",
      "outputs": [
        {
          "internalType": "address",
          "name": "",
          "type": "address"
        }
      ],
      "stateMutability": "view",
      "type": "function"
    },
    {
      "inputs": [
        {
          "internalType": "address",
          "name": "owner",
          "type": "address"
        },
        {
          "internalType": "address",
          "name": "spender",
          "type": "address"
        },
        {
          "internalType": "uint256",
          "name": "value",
          "type": "uint256"
        },
        {
          "internalType": "uint256",
          "name": "deadline",
          "type": "uint256"
        },
        {
          "internalType": "uint8",
          "name": "v",
          "type": "uint8"
        },
        {
          "internalType": "bytes32",
          "name": "r",
          "type": "bytes32"
        },
        {
          "internalType": "bytes32",
          "name": "s",
          "type": "bytes32"
        }
      ],
      "name": "permit",
      "outputs": [],
      "stateMutability": "nonpayable",
      "type": "function"
    },
    {
      "inputs": [
        {
          "internalType": "uint256",
          "name": "assets",
          "type": "uint256"
        }
      ],
      "name": "previewDeposit",
      "outputs": [
        {
          "internalType": "uint256",
          "name": "",
          "type": "uint256"
        }
      ],
      "stateMutability": "view",
      "type": "function"
    },
    {
      "inputs": [
        {
          "internalType": "uint256",
          "name": "shares",
          "type": "uint256"
        }
      ],
      "name": "previewMint",
      "outputs": [
        {
          "internalType": "uint256",
          "name": "",
          "type": "uint256"
        }
      ],
      "stateMutability": "view",
      "type": "function"
    },
    {
      "inputs": [
        {
          "internalType": "uint256",
          "name": "shares",
          "type": "uint256"
        }
      ],
      "name": "previewRedeem",
      "outputs": [
        {
          "internalType": "uint256",
          "name": "",
          "type": "uint256"
        }
      ],
      "stateMutability": "view",
      "type": "function"
    },
    {
      "inputs": [
        {
          "internalType": "uint256",
          "name": "assets",
          "type": "uint256"
        }
      ],
      "name": "previewWithdraw",
      "outputs": [
        {
          "internalType": "uint256",
          "name": "",
          "type": "uint256"
        }
      ],
      "stateMutability": "view",
      "type": "function"
    },
    {
      "inputs": [
        {
          "internalType": "uint256",
          "name": "shares",
          "type": "uint256"
        },
        {
          "internalType": "address",
          "name": "receiver",
          "type": "address"
        },
        {
          "internalType": "address",
          "name": "owner",
          "type": "address"
        }
      ],
      "name": "redeem",
      "outputs": [
        {
          "internalType": "uint256",
          "name": "assets",
          "type": "uint256"
        }
      ],
      "stateMutability": "nonpayable",
      "type": "function"
    },
    {
      "inputs": [],
      "name": "renounceOwnership",
      "outputs": [],
      "stateMutability": "nonpayable",
      "type": "function"
    },
    {
      "inputs": [],
      "name": "s_ghoPartnerPassport",
      "outputs": [
        {
          "internalType": "contract IERC721",
          "name": "",
          "type": "address"
        }
      ],
      "stateMutability": "view",
      "type": "function"
    },
    {
      "inputs": [],
      "name": "s_mainAdmin",
      "outputs": [
        {
          "internalType": "address",
          "name": "",
          "type": "address"
        }
      ],
      "stateMutability": "view",
      "type": "function"
    },
    {
      "inputs": [],
      "name": "s_mainPayment",
      "outputs": [
        {
          "internalType": "address",
          "name": "",
          "type": "address"
        }
      ],
      "stateMutability": "view",
      "type": "function"
    },
    {
      "inputs": [],
      "name": "s_partnerFee",
      "outputs": [
        {
          "internalType": "uint256",
          "name": "",
          "type": "uint256"
        }
      ],
      "stateMutability": "view",
      "type": "function"
    },
    {
      "inputs": [],
      "name": "s_userFee",
      "outputs": [
        {
          "internalType": "uint256",
          "name": "",
          "type": "uint256"
        }
      ],
      "stateMutability": "view",
      "type": "function"
    },
    {
      "inputs": [
        {
          "internalType": "address",
          "name": "_ghoPartnerPassport",
          "type": "address"
        }
      ],
      "name": "setGHOPartnerPassport",
      "outputs": [],
      "stateMutability": "nonpayable",
      "type": "function"
    },
    {
      "inputs": [
        {
          "internalType": "address",
          "name": "_mainAdmin",
          "type": "address"
        }
      ],
      "name": "setMainAdmin",
      "outputs": [],
      "stateMutability": "nonpayable",
      "type": "function"
    },
    {
      "inputs": [
        {
          "internalType": "address",
          "name": "_mainPayment",
          "type": "address"
        }
      ],
      "name": "setMainPayment",
      "outputs": [],
      "stateMutability": "nonpayable",
      "type": "function"
    },
    {
      "inputs": [
        {
          "internalType": "uint256",
          "name": "_partnerFee",
          "type": "uint256"
        }
      ],
      "name": "setPartnerFee",
      "outputs": [],
      "stateMutability": "nonpayable",
      "type": "function"
    },
    {
      "inputs": [
        {
          "internalType": "uint256",
          "name": "_userFee",
          "type": "uint256"
        }
      ],
      "name": "setUserFee",
      "outputs": [],
      "stateMutability": "nonpayable",
      "type": "function"
    },
    {
      "inputs": [],
      "name": "symbol",
      "outputs": [
        {
          "internalType": "string",
          "name": "",
          "type": "string"
        }
      ],
      "stateMutability": "view",
      "type": "function"
    },
    {
      "inputs": [],
      "name": "totalAssets",
      "outputs": [
        {
          "internalType": "uint256",
          "name": "",
          "type": "uint256"
        }
      ],
      "stateMutability": "view",
      "type": "function"
    },
    {
      "inputs": [],
      "name": "totalSupply",
      "outputs": [
        {
          "internalType": "uint256",
          "name": "",
          "type": "uint256"
        }
      ],
      "stateMutability": "view",
      "type": "function"
    },
    {
      "inputs": [
        {
          "internalType": "address",
          "name": "to",
          "type": "address"
        },
        {
          "internalType": "uint256",
          "name": "amount",
          "type": "uint256"
        }
      ],
      "name": "transfer",
      "outputs": [
        {
          "internalType": "bool",
          "name": "",
          "type": "bool"
        }
      ],
      "stateMutability": "nonpayable",
      "type": "function"
    },
    {
      "inputs": [
        {
          "internalType": "address",
          "name": "from",
          "type": "address"
        },
        {
          "internalType": "address",
          "name": "to",
          "type": "address"
        },
        {
          "internalType": "uint256",
          "name": "amount",
          "type": "uint256"
        }
      ],
      "name": "transferFrom",
      "outputs": [
        {
          "internalType": "bool",
          "name": "",
          "type": "bool"
        }
      ],
      "stateMutability": "nonpayable",
      "type": "function"
    },
    {
      "inputs": [
        {
          "internalType": "address",
          "name": "newOwner",
          "type": "address"
        }
      ],
      "name": "transferOwnership",
      "outputs": [],
      "stateMutability": "nonpayable",
      "type": "function"
    },
    {
      "inputs": [
        {
          "internalType": "uint256",
          "name": "_gpAmount",
          "type": "uint256"
        },
        {
          "internalType": "address",
          "name": "_receiver",
          "type": "address"
        },
        {
          "internalType": "address",
          "name": "_owner",
          "type": "address"
        }
      ],
      "name": "withdraw",
      "outputs": [
        {
          "internalType": "uint256",
          "name": "shares",
          "type": "uint256"
        }
      ],
      "stateMutability": "nonpayable",
      "type": "function"
    },
    {
      "inputs": [
        {
          "internalType": "uint256",
          "name": "_gp",
          "type": "uint256"
        },
        {
          "internalType": "address",
          "name": "_receiver",
          "type": "address"
        },
        {
          "internalType": "address",
          "name": "_owner",
          "type": "address"
        }
      ],
      "name": "withdrawGHO",
      "outputs": [],
      "stateMutability": "nonpayable",
      "type": "function"
    }
  ],
  "bytecode": {
    "object": "0x6101206040523480156200001257600080fd5b506040516200254b3803806200254b833981016040819052620000359162000239565b80836040518060400160405280600a81526020016947484f20506f696e747360b01b81525060405180604001604052806002815260200161047560f41b815250601282828282600090816200008b919062000332565b5060016200009a838262000332565b5060ff81166080524660a052620000b062000132565b60c0525050506001600160a01b0393841660e0525050508116620000ee57604051631e4fbdf760e01b81526000600482015260240160405180910390fd5b620000f981620001ce565b506001600160a01b0392831661010052600b80549184166001600160a01b0319928316179055600780549290931691161790556200047c565b60007f8b73c3c69bb8fe3d512ecc4cf759cc79239f7b179b0ffacaa9a75d522b39400f6000604051620001669190620003fe565b6040805191829003822060208301939093528101919091527fc89efdaa54c0f20c7adf612882df0950f5a951637e0307cdcb4c672f298b8bc660608201524660808201523060a082015260c00160405160208183030381529060405280519060200120905090565b600680546001600160a01b038381166001600160a01b0319831681179093556040519116919082907f8be0079c531659141344cd1fd0a4f28419497f9722a3daafe3b4186f6b6457e090600090a35050565b6001600160a01b03811681146200023657600080fd5b50565b6000806000606084860312156200024f57600080fd5b83516200025c8162000220565b60208501519093506200026f8162000220565b6040850151909250620002828162000220565b809150509250925092565b634e487b7160e01b600052604160045260246000fd5b600181811c90821680620002b857607f821691505b602082108103620002d957634e487b7160e01b600052602260045260246000fd5b50919050565b601f8211156200032d57600081815260208120601f850160051c81016020861015620003085750805b601f850160051c820191505b81811015620003295782815560010162000314565b5050505b505050565b81516001600160401b038111156200034e576200034e6200028d565b62000366816200035f8454620002a3565b84620002df565b602080601f8311600181146200039e5760008415620003855750858301515b600019600386901b1c1916600185901b17855562000329565b600085815260208120601f198616915b82811015620003cf57888601518255948401946001909101908401620003ae565b5085821015620003ee5787850151600019600388901b60f8161c191681555b5050505050600190811b01905550565b60008083546200040e81620002a3565b600182811680156200042957600181146200043f5762000470565b60ff198416875282151583028701945062000470565b8760005260208060002060005b85811015620004675781548a8201529084019082016200044c565b50505082870194505b50929695505050505050565b60805160a05160c05160e0516101005161204462000507600039600081816104b30152818161067601528181611006015281816110c20152818161115b0152818161120d015281816112a6015261175d0152600081816103b801528181610c4301528181610d68015261143a01526000610a00015260006109d00152600061035101526120446000f3fe608060405234801561001057600080fd5b506004361061028a5760003560e01c806389c078de1161015c578063ba087652116100ce578063d505accf11610087578063d505accf146105e7578063d905777e146105ab578063dd62ed3e146105fa578063ef8b30f714610625578063f0073b9214610638578063f2fde38b1461064b57600080fd5b8063ba0876521461057c578063bbf3bac91461058f578063c63d75b6146103f2578063c6e6f59214610598578063cd62b083146105ab578063ce96cb77146105d457600080fd5b80639a3aed36116101205780639a3aed36146105145780639fd8c12914610527578063a9059cbb14610530578063b3d7f6b914610543578063b460af9414610556578063b778eccd1461056957600080fd5b806389c078de146104ae5780638da5cb5b146104d557806394bf804d146104e657806395d89b41146104f9578063978223d31461050157600080fd5b80633674e6d5116102005780636e553f65116101b95780636e553f651461042d5780636eb4aa451461044057806370a0823114610453578063715018a6146104735780637709b6ab1461047b5780637ecebe001461048e57600080fd5b80633674e6d51461038d5780633741454d146103a057806338d52e0f146103b3578063402d267d146103f25780634cdad5061461040757806354fe8fb71461041a57600080fd5b806318160ddd1161025257806318160ddd146103085780632050e0941461031157806323b872dd146103265780632578ab9714610339578063313ce5671461034c5780633644e5151461038557600080fd5b806301e1d1141461028f57806306fdde03146102aa57806307a2d13a146102bf578063095ea7b3146102d25780630a28a477146102f5575b600080fd5b61029761065e565b6040519081526020015b60405180910390f35b6102b26106ee565b6040516102a19190611c52565b6102976102cd366004611ca0565b61077c565b6102e56102e0366004611cd5565b6107a9565b60405190151581526020016102a1565b610297610303366004611ca0565b610816565b61029760025481565b61032461031f366004611ca0565b610836565b005b6102e5610334366004611cff565b610899565b610324610347366004611d3b565b610979565b6103737f000000000000000000000000000000000000000000000000000000000000000081565b60405160ff90911681526020016102a1565b6102976109cc565b61032461039b366004611d3b565b610a22565b6103246103ae366004611ca0565b610ab1565b6103da7f000000000000000000000000000000000000000000000000000000000000000081565b6040516001600160a01b0390911681526020016102a1565b610297610400366004611d3b565b5060001990565b610297610415366004611ca0565b610b14565b610324610428366004611d56565b610b1f565b61029761043b366004611d92565b610be6565b600a546103da906001600160a01b031681565b610297610461366004611d3b565b60036020526000908152604090205481565b610324610cc1565b610324610489366004611ca0565b610cd5565b61029761049c366004611d3b565b60056020526000908152604090205481565b6103da7f000000000000000000000000000000000000000000000000000000000000000081565b6006546001600160a01b03166103da565b6102976104f4366004611d92565b610d4e565b6102b2610ddd565b600b546103da906001600160a01b031681565b610324610522366004611d3b565b610dea565b61029760095481565b6102e561053e366004611cd5565b610e79565b610297610551366004611ca0565b610edf565b610297610564366004611d56565b610efe565b6007546103da906001600160a01b031681565b61029761058a366004611d56565b61131f565b61029760085481565b6102976105a6366004611ca0565b611461565b6102976105b9366004611d3b565b6001600160a01b031660009081526003602052604090205490565b6102976105e2366004611d3b565b611481565b6103246105f5366004611dcf565b6114a3565b610297610608366004611e39565b600460209081526000928352604080842090915290825290205481565b610297610633366004611ca0565b6116e7565b610324610646366004611e63565b6116f2565b610324610659366004611d3b565b611813565b6040516370a0823160e01b81523060048201526000907f00000000000000000000000000000000000000000000000000000000000000006001600160a01b0316906370a0823190602401602060405180830381865afa1580156106c5573d6000803e3d6000fd5b505050506040513d601f19601f820116820180604052508101906106e99190611e9e565b905090565b600080546106fb90611eb7565b80601f016020809104026020016040519081016040528092919081815260200182805461072790611eb7565b80156107745780601f1061074957610100808354040283529160200191610774565b820191906000526020600020905b81548152906001019060200180831161075757829003601f168201915b505050505081565b60025460009080156107a05761079b61079361065e565b849083611851565b6107a2565b825b9392505050565b3360008181526004602090815260408083206001600160a01b038716808552925280832085905551919290917f8c5be1e5ebec7d5bd14f71427d1e84f3dd0314c0f7b2291e5b200ac8c7c3b925906108049086815260200190565b60405180910390a35060015b92915050565b60025460009080156107a05761079b8161082e61065e565b85919061186f565b80806000036108585760405163e0e0bbe560e01b815260040160405180910390fd5b610860611895565b6040518281527fc013b8341ea863bfc4571c06021cd8a7c8eeea033e27675ba23ef3a6478e83439060200160405180910390a150600855565b6001600160a01b038316600090815260046020908152604080832033845290915281205460001981146108f5576108d08382611f07565b6001600160a01b03861660009081526004602090815260408083203384529091529020555b6001600160a01b0385166000908152600360205260408120805485929061091d908490611f07565b90915550506001600160a01b0380851660008181526003602052604090819020805487019055519091871690600080516020611fef833981519152906109669087815260200190565b60405180910390a3506001949350505050565b806001600160a01b0381166109a1576040516309fafd2b60e41b815260040160405180910390fd5b6109a9611895565b50600780546001600160a01b0319166001600160a01b0392909216919091179055565b60007f000000000000000000000000000000000000000000000000000000000000000046146109fd576106e96118c2565b507f000000000000000000000000000000000000000000000000000000000000000090565b806001600160a01b038116610a4a576040516309fafd2b60e41b815260040160405180910390fd5b610a52611895565b6040516001600160a01b03831681527f4c070d2bd28acbebea1baca2a0a570d95bcbc30dee9a07c8218065ad38a400fb9060200160405180910390a150600a80546001600160a01b0319166001600160a01b0392909216919091179055565b8080600003610ad35760405163e0e0bbe560e01b815260040160405180910390fd5b610adb611895565b6040518281527f7d2f55757a415932d0da2e15c82996e62500df6be2e6391891673497531e7dac9060200160405180910390a150600955565b60006108108261077c565b8280600003610b415760405163e0e0bbe560e01b815260040160405180910390fd5b826001600160a01b038116610b69576040516309fafd2b60e41b815260040160405180910390fd5b826001600160a01b038116610b91576040516309fafd2b60e41b815260040160405180910390fd5b610b9c868686610efe565b50836001600160a01b0316856001600160a01b0316877f08776d462a9ccc9302a2964ce06fc22c72ee3b91019c17424baae6e7481c7fbd60405160405180910390a4505050505050565b6000610bf1836116e7565b905080600003610c365760405162461bcd60e51b815260206004820152600b60248201526a5a45524f5f53484152455360a81b60448201526064015b60405180910390fd5b610c6b6001600160a01b037f00000000000000000000000000000000000000000000000000000000000000001633308661195c565b610c7582826119f8565b60408051848152602081018390526001600160a01b0384169133917fdcbc1c05240f31ff3ad067ef1ee35ce4997762752e3a095284754544f4c709d791015b60405180910390a3610810565b610cc9611895565b610cd36000611a52565b565b8080600003610cf75760405163e0e0bbe560e01b815260040160405180910390fd5b610cff611895565b600a54610d169083906001600160a01b0316610be6565b506040518281527f05481d73db532e5e33460a49c151606cfe362daee86a1cab011fda979f1a9fe59060200160405180910390a15050565b6000610d5983610edf565b9050610d906001600160a01b037f00000000000000000000000000000000000000000000000000000000000000001633308461195c565b610d9a82846119f8565b60408051828152602081018590526001600160a01b0384169133917fdcbc1c05240f31ff3ad067ef1ee35ce4997762752e3a095284754544f4c709d79101610cb4565b600180546106fb90611eb7565b806001600160a01b038116610e12576040516309fafd2b60e41b815260040160405180910390fd5b610e1a611895565b6040516001600160a01b03831681527f2301cf8a0b3843703c165bc6b5998c4b8dd3351af50528d2e8f986727c30ab9b9060200160405180910390a150600b80546001600160a01b0319166001600160a01b0392909216919091179055565b33600090815260036020526040812080548391908390610e9a908490611f07565b90915550506001600160a01b03831660008181526003602052604090819020805485019055513390600080516020611fef833981519152906108049086815260200190565b60025460009080156107a05761079b610ef661065e565b84908361186f565b6000610f0984610816565b9050336001600160a01b03831614610f79576001600160a01b03821660009081526004602090815260408083203384529091529020546000198114610f7757610f528282611f07565b6001600160a01b03841660009081526004602090815260408083203384529091529020555b505b610f838282611aa4565b60408051858152602081018390526001600160a01b03808516929086169133917ffbde797d201c681b91056529119e0b02407c7bb96a4a2c75c01fc9667232c8db910160405180910390a46006546001600160a01b031633036110795760405163a9059cbb60e01b81526001600160a01b038481166004830152602482018690527f0000000000000000000000000000000000000000000000000000000000000000169063a9059cbb906044016020604051808303816000875af115801561104f573d6000803e3d6000fd5b505050506040513d601f19601f820116820180604052508101906110739190611f1a565b506107a2565b61108233611b06565b156111d25760008061109686600954611b7f565b60405163a9059cbb60e01b81526001600160a01b038881166004830152602482018490529294509092507f00000000000000000000000000000000000000000000000000000000000000009091169063a9059cbb906044016020604051808303816000875af115801561110d573d6000803e3d6000fd5b505050506040513d601f19601f820116820180604052508101906111319190611f1a565b50600b5460405163a9059cbb60e01b81526001600160a01b039182166004820152602481018390527f00000000000000000000000000000000000000000000000000000000000000009091169063a9059cbb906044016020604051808303816000875af11580156111a6573d6000803e3d6000fd5b505050506040513d601f19601f820116820180604052508101906111ca9190611f1a565b5050506107a2565b6000806111e186600854611b7f565b60405163a9059cbb60e01b81526001600160a01b038881166004830152602482018490529294509092507f00000000000000000000000000000000000000000000000000000000000000009091169063a9059cbb906044016020604051808303816000875af1158015611258573d6000803e3d6000fd5b505050506040513d601f19601f8201168201806040525081019061127c9190611f1a565b50600b5460405163a9059cbb60e01b81526001600160a01b039182166004820152602481018390527f00000000000000000000000000000000000000000000000000000000000000009091169063a9059cbb906044016020604051808303816000875af11580156112f1573d6000803e3d6000fd5b505050506040513d601f19601f820116820180604052508101906113159190611f1a565b5050509392505050565b6000336001600160a01b0383161461138f576001600160a01b0382166000908152600460209081526040808320338452909152902054600019811461138d576113688582611f07565b6001600160a01b03841660009081526004602090815260408083203384529091529020555b505b61139884610b14565b9050806000036113d85760405162461bcd60e51b815260206004820152600b60248201526a5a45524f5f41535345545360a81b6044820152606401610c2d565b6113e28285611aa4565b60408051828152602081018690526001600160a01b03808516929086169133917ffbde797d201c681b91056529119e0b02407c7bb96a4a2c75c01fc9667232c8db910160405180910390a46107a26001600160a01b037f0000000000000000000000000000000000000000000000000000000000000000168483611ba1565b60025460009080156107a05761079b8161147961065e565b859190611851565b6001600160a01b0381166000908152600360205260408120546108109061077c565b428410156114f35760405162461bcd60e51b815260206004820152601760248201527f5045524d49545f444541444c494e455f455850495245440000000000000000006044820152606401610c2d565b600060016114ff6109cc565b6001600160a01b038a811660008181526005602090815260409182902080546001810190915582517f6e71edae12b1b97f4d1f60370fef10105fa2faae0126114a169c64845d6126c98184015280840194909452938d166060840152608083018c905260a083019390935260c08083018b90528151808403909101815260e08301909152805192019190912061190160f01b6101008301526101028201929092526101228101919091526101420160408051601f198184030181528282528051602091820120600084529083018083525260ff871690820152606081018590526080810184905260a0016020604051602081039080840390855afa15801561160b573d6000803e3d6000fd5b5050604051601f1901519150506001600160a01b038116158015906116415750876001600160a01b0316816001600160a01b0316145b61167e5760405162461bcd60e51b815260206004820152600e60248201526d24a72b20a624a22fa9a4a3a722a960911b6044820152606401610c2d565b6001600160a01b0390811660009081526004602090815260408083208a8516808552908352928190208990555188815291928a16917f8c5be1e5ebec7d5bd14f71427d1e84f3dd0314c0f7b2291e5b200ac8c7c3b925910160405180910390a350505050505050565b600061081082611461565b83806000036117145760405163e0e0bbe560e01b815260040160405180910390fd5b61171c611895565b60405163d505accf60e01b815233600482015230602482015260448101869052610e10606482015260ff8516608482015260a4810184905260c481018390527f00000000000000000000000000000000000000000000000000000000000000006001600160a01b03169063d505accf9060e401600060405180830381600087803b1580156117a957600080fd5b505af11580156117bd573d6000803e3d6000fd5b5050600a546117d892508791506001600160a01b0316610be6565b506040518581527f05481d73db532e5e33460a49c151606cfe362daee86a1cab011fda979f1a9fe59060200160405180910390a15050505050565b61181b611895565b6001600160a01b03811661184557604051631e4fbdf760e01b815260006004820152602401610c2d565b61184e81611a52565b50565b600082600019048411830215820261186857600080fd5b5091020490565b600082600019048411830215820261188657600080fd5b50910281810615159190040190565b6006546001600160a01b03163314610cd35760405163118cdaa760e01b8152336004820152602401610c2d565b60007f8b73c3c69bb8fe3d512ecc4cf759cc79239f7b179b0ffacaa9a75d522b39400f60006040516118f49190611f3c565b6040805191829003822060208301939093528101919091527fc89efdaa54c0f20c7adf612882df0950f5a951637e0307cdcb4c672f298b8bc660608201524660808201523060a082015260c00160405160208183030381529060405280519060200120905090565b60006040516323b872dd60e01b81526001600160a01b03851660048201526001600160a01b03841660248201528260448201526020600060648360008a5af13d15601f3d11600160005114161716915050806119f15760405162461bcd60e51b81526020600482015260146024820152731514905394d1915497d19493d357d1905253115160621b6044820152606401610c2d565b5050505050565b8060026000828254611a0a9190611fdb565b90915550506001600160a01b038216600081815260036020908152604080832080548601905551848152600080516020611fef83398151915291015b60405180910390a35050565b600680546001600160a01b038381166001600160a01b0319831681179093556040519116919082907f8be0079c531659141344cd1fd0a4f28419497f9722a3daafe3b4186f6b6457e090600090a35050565b6001600160a01b03821660009081526003602052604081208054839290611acc908490611f07565b90915550506002805482900390556040518181526000906001600160a01b03841690600080516020611fef83398151915290602001611a46565b6007546040516370a0823160e01b81526001600160a01b03838116600483015260009283929116906370a0823190602401602060405180830381865afa158015611b54573d6000803e3d6000fd5b505050506040513d601f19601f82011682018060405250810190611b789190611e9e565b1192915050565b600080611b8c8484611c28565b9050611b988185611f07565b91509250929050565b600060405163a9059cbb60e01b81526001600160a01b0384166004820152826024820152602060006044836000895af13d15601f3d1160016000511416171691505080611c225760405162461bcd60e51b815260206004820152600f60248201526e1514905394d1915497d19052531151608a1b6044820152606401610c2d565b50505050565b600080611c358484611c3d565b949350505050565b60006107a28383670de0b6b3a7640000611851565b600060208083528351808285015260005b81811015611c7f57858101830151858201604001528201611c63565b506000604082860101526040601f19601f8301168501019250505092915050565b600060208284031215611cb257600080fd5b5035919050565b80356001600160a01b0381168114611cd057600080fd5b919050565b60008060408385031215611ce857600080fd5b611cf183611cb9565b946020939093013593505050565b600080600060608486031215611d1457600080fd5b611d1d84611cb9565b9250611d2b60208501611cb9565b9150604084013590509250925092565b600060208284031215611d4d57600080fd5b6107a282611cb9565b600080600060608486031215611d6b57600080fd5b83359250611d7b60208501611cb9565b9150611d8960408501611cb9565b90509250925092565b60008060408385031215611da557600080fd5b82359150611db560208401611cb9565b90509250929050565b803560ff81168114611cd057600080fd5b600080600080600080600060e0888a031215611dea57600080fd5b611df388611cb9565b9650611e0160208901611cb9565b95506040880135945060608801359350611e1d60808901611dbe565b925060a0880135915060c0880135905092959891949750929550565b60008060408385031215611e4c57600080fd5b611e5583611cb9565b9150611db560208401611cb9565b60008060008060808587031215611e7957600080fd5b84359350611e8960208601611dbe565b93969395505050506040820135916060013590565b600060208284031215611eb057600080fd5b5051919050565b600181811c90821680611ecb57607f821691505b602082108103611eeb57634e487b7160e01b600052602260045260246000fd5b50919050565b634e487b7160e01b600052601160045260246000fd5b8181038181111561081057610810611ef1565b600060208284031215611f2c57600080fd5b815180151581146107a257600080fd5b600080835481600182811c915080831680611f5857607f831692505b60208084108203611f7757634e487b7160e01b86526022600452602486fd5b818015611f8b5760018114611fa057611fcd565b60ff1986168952841515850289019650611fcd565b60008a81526020902060005b86811015611fc55781548b820152908501908301611fac565b505084890196505b509498975050505050505050565b8082018082111561081057610810611ef156feddf252ad1be2c89b69c2b068fc378daa952ba7f163c4a11628f55a4df523b3efa26469706673582212202664028bbd71bc7e3c1725108a8f6f21d470f7eff42a974496b5e4e1a51718f964736f6c63430008140033",
    "linkReferences": {}
  },
  "methodIdentifiers": {
    "DOMAIN_SEPARATOR()": "3644e515",
    "allowance(address,address)": "dd62ed3e",
    "approve(address,uint256)": "095ea7b3",
    "asset()": "38d52e0f",
    "balanceOf(address)": "70a08231",
    "convertToAssets(uint256)": "07a2d13a",
    "convertToShares(uint256)": "c6e6f592",
    "decimals()": "313ce567",
    "deposit(uint256,address)": "6e553f65",
    "depositGHO(uint256)": "7709b6ab",
    "depositGHOWithPermit(uint256,uint8,bytes32,bytes32)": "f0073b92",
    "gpTokenBalance(address)": "cd62b083",
    "i_ghoToken()": "89c078de",
    "maxDeposit(address)": "402d267d",
    "maxMint(address)": "c63d75b6",
    "maxRedeem(address)": "d905777e",
    "maxWithdraw(address)": "ce96cb77",
    "mint(uint256,address)": "94bf804d",
    "name()": "06fdde03",
    "nonces(address)": "7ecebe00",
    "owner()": "8da5cb5b",
    "permit(address,address,uint256,uint256,uint8,bytes32,bytes32)": "d505accf",
    "previewDeposit(uint256)": "ef8b30f7",
    "previewMint(uint256)": "b3d7f6b9",
    "previewRedeem(uint256)": "4cdad506",
    "previewWithdraw(uint256)": "0a28a477",
    "redeem(uint256,address,address)": "ba087652",
    "renounceOwnership()": "715018a6",
    "s_ghoPartnerPassport()": "b778eccd",
    "s_mainAdmin()": "978223d3",
    "s_mainPayment()": "6eb4aa45",
    "s_partnerFee()": "9fd8c129",
    "s_userFee()": "bbf3bac9",
    "setGHOPartnerPassport(address)": "2578ab97",
    "setMainAdmin(address)": "9a3aed36",
    "setMainPayment(address)": "3674e6d5",
    "setPartnerFee(uint256)": "3741454d",
    "setUserFee(uint256)": "2050e094",
    "symbol()": "95d89b41",
    "totalAssets()": "01e1d114",
    "totalSupply()": "18160ddd",
    "transfer(address,uint256)": "a9059cbb",
    "transferFrom(address,address,uint256)": "23b872dd",
    "transferOwnership(address)": "f2fde38b",
    "withdraw(uint256,address,address)": "b460af94",
    "withdrawGHO(uint256,address,address)": "54fe8fb7"
  },
  "id": 48
}